{
  "_format": "hh-sol-artifact-1",
  "contractName": "VerySimpleOffchainAggregator",
  "sourceName": "contracts/VerySimpleOffchainAggregator.sol",
  "abi": [
    {
      "inputs": [
        {
          "internalType": "int192",
          "name": "_minAnswer",
          "type": "int192"
        },
        {
          "internalType": "int192",
          "name": "_maxAnswer",
          "type": "int192"
        },
        {
          "internalType": "uint8",
          "name": "_decimals",
          "type": "uint8"
        },
        {
          "internalType": "string",
          "name": "_description",
          "type": "string"
        },
        {
          "internalType": "address[]",
          "name": "_transmitters",
          "type": "address[]"
        }
      ],
      "stateMutability": "nonpayable",
      "type": "constructor"
    },
    {
      "anonymous": false,
      "inputs": [
        {
          "indexed": true,
          "internalType": "int256",
          "name": "current",
          "type": "int256"
        },
        {
          "indexed": true,
          "internalType": "uint256",
          "name": "roundId",
          "type": "uint256"
        },
        {
          "indexed": false,
          "internalType": "uint256",
          "name": "updatedAt",
          "type": "uint256"
        }
      ],
      "name": "AnswerUpdated",
      "type": "event"
    },
    {
      "anonymous": false,
      "inputs": [
        {
          "indexed": true,
          "internalType": "uint256",
          "name": "roundId",
          "type": "uint256"
        },
        {
          "indexed": true,
          "internalType": "address",
          "name": "startedBy",
          "type": "address"
        },
        {
          "indexed": false,
          "internalType": "uint256",
          "name": "startedAt",
          "type": "uint256"
        }
      ],
      "name": "NewRound",
      "type": "event"
    },
    {
      "anonymous": false,
      "inputs": [
        {
          "indexed": true,
          "internalType": "uint32",
          "name": "aggregatorRoundId",
          "type": "uint32"
        },
        {
          "indexed": false,
          "internalType": "int192",
          "name": "answer",
          "type": "int192"
        },
        {
          "indexed": false,
          "internalType": "address",
          "name": "transmitter",
          "type": "address"
        },
        {
          "indexed": false,
          "internalType": "bytes32",
          "name": "rawReportContext",
          "type": "bytes32"
        }
      ],
      "name": "NewTransmission",
      "type": "event"
    },
    {
      "inputs": [],
      "name": "decimals",
      "outputs": [
        {
          "internalType": "uint8",
          "name": "",
          "type": "uint8"
        }
      ],
      "stateMutability": "view",
      "type": "function"
    },
    {
      "inputs": [],
      "name": "description",
      "outputs": [
        {
          "internalType": "string",
          "name": "",
          "type": "string"
        }
      ],
      "stateMutability": "view",
      "type": "function"
    },
    {
      "inputs": [
        {
          "internalType": "uint256",
          "name": "_roundId",
          "type": "uint256"
        }
      ],
      "name": "getAnswer",
      "outputs": [
        {
          "internalType": "int256",
          "name": "",
          "type": "int256"
        }
      ],
      "stateMutability": "view",
      "type": "function"
    },
    {
      "inputs": [
        {
          "internalType": "uint80",
          "name": "_roundId",
          "type": "uint80"
        }
      ],
      "name": "getRoundData",
      "outputs": [
        {
          "internalType": "uint80",
          "name": "roundId",
          "type": "uint80"
        },
        {
          "internalType": "int256",
          "name": "answer",
          "type": "int256"
        },
        {
          "internalType": "uint256",
          "name": "startedAt",
          "type": "uint256"
        },
        {
          "internalType": "uint256",
          "name": "updatedAt",
          "type": "uint256"
        },
        {
          "internalType": "uint80",
          "name": "answeredInRound",
          "type": "uint80"
        }
      ],
      "stateMutability": "view",
      "type": "function"
    },
    {
      "inputs": [
        {
          "internalType": "uint256",
          "name": "_roundId",
          "type": "uint256"
        }
      ],
      "name": "getTimestamp",
      "outputs": [
        {
          "internalType": "uint256",
          "name": "",
          "type": "uint256"
        }
      ],
      "stateMutability": "view",
      "type": "function"
    },
    {
      "inputs": [],
      "name": "latestAnswer",
      "outputs": [
        {
          "internalType": "int256",
          "name": "",
          "type": "int256"
        }
      ],
      "stateMutability": "view",
      "type": "function"
    },
    {
      "inputs": [],
      "name": "latestRound",
      "outputs": [
        {
          "internalType": "uint256",
          "name": "",
          "type": "uint256"
        }
      ],
      "stateMutability": "view",
      "type": "function"
    },
    {
      "inputs": [],
      "name": "latestRoundData",
      "outputs": [
        {
          "internalType": "uint80",
          "name": "roundId",
          "type": "uint80"
        },
        {
          "internalType": "int256",
          "name": "answer",
          "type": "int256"
        },
        {
          "internalType": "uint256",
          "name": "startedAt",
          "type": "uint256"
        },
        {
          "internalType": "uint256",
          "name": "updatedAt",
          "type": "uint256"
        },
        {
          "internalType": "uint80",
          "name": "answeredInRound",
          "type": "uint80"
        }
      ],
      "stateMutability": "view",
      "type": "function"
    },
    {
      "inputs": [],
      "name": "latestTimestamp",
      "outputs": [
        {
          "internalType": "uint256",
          "name": "",
          "type": "uint256"
        }
      ],
      "stateMutability": "view",
      "type": "function"
    },
    {
      "inputs": [],
      "name": "latestTransmissionDetails",
      "outputs": [
        {
          "internalType": "bytes16",
          "name": "configDigest",
          "type": "bytes16"
        },
        {
          "internalType": "uint32",
          "name": "epoch",
          "type": "uint32"
        },
        {
          "internalType": "uint8",
          "name": "round",
          "type": "uint8"
        },
        {
          "internalType": "int192",
          "name": "latestAnswer",
          "type": "int192"
        },
        {
          "internalType": "uint64",
          "name": "latestTimestamp",
          "type": "uint64"
        }
      ],
      "stateMutability": "view",
      "type": "function"
    },
    {
      "inputs": [],
      "name": "maxAnswer",
      "outputs": [
        {
          "internalType": "int192",
          "name": "",
          "type": "int192"
        }
      ],
      "stateMutability": "view",
      "type": "function"
    },
    {
      "inputs": [],
      "name": "minAnswer",
      "outputs": [
        {
          "internalType": "int192",
          "name": "",
          "type": "int192"
        }
      ],
      "stateMutability": "view",
      "type": "function"
    },
    {
      "inputs": [
        {
          "internalType": "bytes",
          "name": "_report",
          "type": "bytes"
        }
      ],
      "name": "transmit",
      "outputs": [],
      "stateMutability": "nonpayable",
      "type": "function"
    },
    {
      "inputs": [],
      "name": "transmitters",
      "outputs": [
        {
          "internalType": "address[]",
          "name": "",
          "type": "address[]"
        }
      ],
      "stateMutability": "view",
      "type": "function"
    },
    {
      "inputs": [],
      "name": "typeAndVersion",
      "outputs": [
        {
          "internalType": "string",
          "name": "",
          "type": "string"
        }
      ],
      "stateMutability": "pure",
      "type": "function"
    },
    {
      "inputs": [],
      "name": "version",
      "outputs": [
        {
          "internalType": "uint256",
          "name": "",
          "type": "uint256"
        }
      ],
      "stateMutability": "view",
      "type": "function"
    }
  ],
  "bytecode": "0x60e06040523480156200001157600080fd5b50604051620013f2380380620013f2833981810160405260a08110156200003757600080fd5b8151602083015160408085015160608601805192519496939591949391820192846401000000008211156200006b57600080fd5b9083019060208201858111156200008157600080fd5b82516401000000008111828201881017156200009c57600080fd5b82525081516020918201929091019080838360005b83811015620000cb578181015183820152602001620000b1565b50505050905090810190601f168015620000f95780820380516001836020036101000a031916815260200191505b50604052602001805160405193929190846401000000008211156200011d57600080fd5b9083019060208201858111156200013357600080fd5b82518660208202830111640100000000821117156200015157600080fd5b82525081516020918201928201910280838360005b838110156200018057818101518382015260200162000166565b50505050919091016040525050507fff0000000000000000000000000000000000000000000000000000000000000060f885901b1660c052508151620001ce9060049060208501906200038b565b50601785810b810b604090811b60805285820b90910b901b60a05260005b81518110156200036d576000600260008484815181106200020957fe5b6020908102919091018101516001600160a01b0316825281019190915260400160002054610100900460ff1660018111156200024157fe5b1462000294576040805162461bcd60e51b815260206004820152601c60248201527f7265706561746564207472616e736d6974746572206164647265737300000000604482015290519081900360640190fd5b6040805180820190915260ff8216815260208101600181525060026000848481518110620002be57fe5b6020908102919091018101516001600160a01b03168252818101929092526040016000208251815460ff191660ff90911617808255918301519091829061ff0019166101008360018111156200031057fe5b021790555090505060038282815181106200032757fe5b60209081029190910181015182546001808201855560009485529290932090920180546001600160a01b0319166001600160a01b039093169290921790915501620001ec565b50506000805464ffffffffff60801b19169055506200042792505050565b828054600181600116156101000203166002900490600052602060002090601f016020900481019282601f10620003ce57805160ff1916838001178555620003fe565b82800160010185558215620003fe579182015b82811115620003fe578251825591602001919060010190620003e1565b506200040c92915062000410565b5090565b5b808211156200040c576000815560010162000411565b60805160401c60a05160401c60c05160f81c610f8b620004676000398061042152508061078b5280610a625250806103fd528061075d5250610f8b6000f3fe608060405234801561001057600080fd5b50600436106101005760003560e01c80637284e41611610097578063b5ab58dc11610066578063b5ab58dc1461033e578063b633620c1461035b578063e5fe457714610378578063feaf968c146103d357610100565b80637284e41614610263578063814118341461026b5780638205bf6a146102c35780639a6fc8f5146102cb57610100565b806354fd4d50116100d357806354fd4d50146101d9578063668a0f02146101e15780636b0bac97146101e957806370da2f671461025b57610100565b8063181f5a771461010557806322adbc7814610182578063313ce567146101a157806350d25bcd146101bf575b600080fd5b61010d6103db565b6040805160208082528351818301528351919283929083019185019080838360005b8381101561014757818101518382015260200161012f565b50505050905090810190601f1680156101745780820380516001836020036101000a031916815260200191505b509250505060405180910390f35b61018a6103fb565b6040805160179290920b8252519081900360200190f35b6101a961041f565b6040805160ff9092168252519081900360200190f35b6101c7610443565b60408051918252519081900360200190f35b6101c761046a565b6101c761046f565b610259600480360360208110156101ff57600080fd5b81019060208101813564010000000081111561021a57600080fd5b82018360208201111561022c57600080fd5b8035906020019184600183028401116401000000008311171561024e57600080fd5b509092509050610482565b005b61018a610a60565b61010d610a84565b610273610b1a565b60408051602080825283518183015283519192839290830191858101910280838360005b838110156102af578181015183820152602001610297565b505050509050019250505060405180910390f35b6101c7610b88565b6102f4600480360360208110156102e157600080fd5b503569ffffffffffffffffffff16610bb9565b604051808669ffffffffffffffffffff1681526020018581526020018481526020018381526020018269ffffffffffffffffffff1681526020019550505050505060405180910390f35b6101c76004803603602081101561035457600080fd5b5035610cf8565b6101c76004803603602081101561037157600080fd5b5035610d32565b610380610d72565b604080516fffffffffffffffffffffffffffffffff19909616865263ffffffff909416602086015260ff9092168484015260170b606084015267ffffffffffffffff166080830152519081900360a00190f35b6102f4610e2c565b6060604051806060016040528060228152602001610f1160229139905090565b7f000000000000000000000000000000000000000000000000000000000000000081565b7f000000000000000000000000000000000000000000000000000000000000000081565b60008054600160b01b900463ffffffff16815260016020526040902054601790810b900b90565b600481565b600054600160b01b900463ffffffff1690565b61048c8282610ea3565b36146104df576040805162461bcd60e51b815260206004820152601960248201527f7472616e736d6974206d65737361676520746f6f206c6f6e6700000000000000604482015290519081900360640190fd5b6104e7610eab565b60408051608080820183526000549081901b6fffffffffffffffffffffffffffffffff19168252600160801b810464ffffffffff166020830152600160a81b810460ff1682840152600160b01b900463ffffffff16606082015282528390839081101561055357600080fd5b50602081810135601790810b810b900b90830152356040820181905281515160589190911b906fffffffffffffffffffffffffffffffff198083169116146105e2576040805162461bcd60e51b815260206004820152601560248201527f636f6e666967446967657374206d69736d617463680000000000000000000000604482015290519081900360640190fd5b604082015182516020015164ffffffffff80831691161061064a576040805162461bcd60e51b815260206004820152600c60248201527f7374616c65207265706f72740000000000000000000000000000000000000000604482015290519081900360640190fd5b610652610ed2565b336000908152600260209081526040918290208251808401909352805460ff8082168552919284019161010090910416600181111561068d57fe5b600181111561069857fe5b90525090506001816020015160018111156106af57fe5b1480156106f057506003816000015160ff16815481106106cb57fe5b60009182526020909120015473ffffffffffffffffffffffffffffffffffffffff1633145b610741576040805162461bcd60e51b815260206004820152601860248201527f756e617574686f72697a6564207472616e736d69747465720000000000000000604482015290519081900360640190fd5b50825164ffffffffff909116602091820152820151601790810b7f000000000000000000000000000000000000000000000000000000000000000090910b13801591506107b857507f000000000000000000000000000000000000000000000000000000000000000060170b816020015160170b13155b6107f35760405162461bcd60e51b8152600401808060200182810382526023815260200180610f336023913960400191505060405180910390fd5b80516060908101805163ffffffff6001918201811690925260408051808201825260208087018051601790810b845267ffffffffffffffff4281168486019081528a518a01518916600090815297855296869020945185549751909116600160c01b0290820b77ffffffffffffffffffffffffffffffffffffffffffffffff9081167fffffffffffffffff0000000000000000000000000000000000000000000000009098169790971790961695909517909255865186015191518388015184519190950b815233918101919091528083019390935290519216927f15896539366eeb36325b327019dbcaa42700cca9b3e61881c197705255ce667e92918290030190a280516060015160408051428152905160009263ffffffff16917f0109fc6f55cf40689f02fbaad7af7fe7bbac8a3d2186600afc7d3e10cac60271919081900360200190a380600001516060015163ffffffff16816020015160170b7f0559884fd3a460db3073b7fc896cc77986f16e378210ded43186175bf646fc5f426040518082815260200191505060405180910390a3518051600080546020840151604085015160609095015163ffffffff16600160b01b027fffffffffffff00000000ffffffffffffffffffffffffffffffffffffffffffff60ff909616600160a81b027fffffffffffffffffffff00ffffffffffffffffffffffffffffffffffffffffff64ffffffffff909316600160801b027fffffffffffffffffffffff0000000000ffffffffffffffffffffffffffffffff60809790971c6fffffffffffffffffffffffffffffffff199095169490941795909516929092171692909217929092161790555050565b7f000000000000000000000000000000000000000000000000000000000000000081565b60048054604080516020601f6002600019610100600188161502019095169490940493840181900481028201810190925282815260609390929091830182828015610b105780601f10610ae557610100808354040283529160200191610b10565b820191906000526020600020905b815481529060010190602001808311610af357829003601f168201915b5050505050905090565b60606003805480602002602001604051908101604052809291908181526020018280548015610b1057602002820191906000526020600020905b815473ffffffffffffffffffffffffffffffffffffffff168152600190910190602001808311610b54575050505050905090565b60008054600160b01b900463ffffffff16815260016020526040902054600160c01b900467ffffffffffffffff1690565b600080600080600063ffffffff8669ffffffffffffffffffff1611156040518060400160405280600f81526020017f4e6f20646174612070726573656e74000000000000000000000000000000000081525090610c945760405162461bcd60e51b81526004018080602001828103825283818151815260200191508051906020019080838360005b83811015610c59578181015183820152602001610c41565b50505050905090810190601f168015610c865780820380516001836020036101000a031916815260200191505b509250505060405180910390fd5b50610c9d610ed2565b5050505063ffffffff8316600090815260016020908152604091829020825180840190935254601781810b810b810b808552600160c01b90920467ffffffffffffffff1693909201839052949594900b939092508291508490565b600063ffffffff821115610d0e57506000610d2d565b5063ffffffff8116600090815260016020526040902054601790810b900b5b919050565b600063ffffffff821115610d4857506000610d2d565b5063ffffffff16600090815260016020526040902054600160c01b900467ffffffffffffffff1690565b600080808080333214610dcc576040805162461bcd60e51b815260206004820152601460248201527f4f6e6c792063616c6c61626c6520627920454f41000000000000000000000000604482015290519081900360640190fd5b50506000805463ffffffff600160b01b8204811683526001602052604090922054608082901b96600160801b909204600881901c909316955064ffffffffff9092169350601782900b9250600160c01b90910467ffffffffffffffff1690565b60008054600160b01b900463ffffffff1690808080610e49610ed2565b5050505063ffffffff8216600090815260016020908152604091829020825180840190935254601781810b810b810b808552600160c01b90920467ffffffffffffffff1693909201839052939493900b9290915081908490565b604401919050565b6040518060600160405280610ebe610ee9565b815260006020820181905260409091015290565b604080518082019091526000808252602082015290565b6040805160808101825260008082526020820181905291810182905260608101919091529056fe5665727953696d706c654f6666636861696e41676772656761746f7220302e302e316f62736572766174696f6e206973206f7574206f66206d696e2d6d61782072616e6765a264697066735822122020fbd6e5016e409c337e3dfcb85a4de6bd8f9e449577714deadf5e4bde2a905364736f6c63430007010033",
  "linkReferences": {},
  "deployedLinkReferences": {}
}