{
  "_format": "hh-sol-artifact-1",
  "contractName": "StakingToken",
  "sourceName": "contracts/staking/StakingToken.sol",
  "abi": [
    {
      "inputs": [],
      "name": "AlreadyInitialized",
      "type": "error"
    },
    {
      "inputs": [
        {
          "internalType": "address",
          "name": "activityChecker",
          "type": "address"
        }
      ],
      "name": "ContractOnly",
      "type": "error"
    },
    {
      "inputs": [
        {
          "internalType": "uint256",
          "name": "provided",
          "type": "uint256"
        },
        {
          "internalType": "uint256",
          "name": "expected",
          "type": "uint256"
        }
      ],
      "name": "LowerThan",
      "type": "error"
    },
    {
      "inputs": [
        {
          "internalType": "uint256",
          "name": "maxNumServices",
          "type": "uint256"
        }
      ],
      "name": "MaxNumServicesReached",
      "type": "error"
    },
    {
      "inputs": [],
      "name": "NoRewardsAvailable",
      "type": "error"
    },
    {
      "inputs": [
        {
          "internalType": "uint256",
          "name": "serviceId",
          "type": "uint256"
        },
        {
          "internalType": "uint256",
          "name": "tsProvided",
          "type": "uint256"
        },
        {
          "internalType": "uint256",
          "name": "tsExpected",
          "type": "uint256"
        }
      ],
      "name": "NotEnoughTimeStaked",
      "type": "error"
    },
    {
      "inputs": [
        {
          "internalType": "address",
          "name": "sender",
          "type": "address"
        },
        {
          "internalType": "address",
          "name": "owner",
          "type": "address"
        }
      ],
      "name": "OwnerOnly",
      "type": "error"
    },
    {
      "inputs": [
        {
          "internalType": "uint256",
          "name": "serviceId",
          "type": "uint256"
        }
      ],
      "name": "ServiceNotUnstaked",
      "type": "error"
    },
    {
      "inputs": [
        {
          "internalType": "address",
          "name": "token",
          "type": "address"
        },
        {
          "internalType": "address",
          "name": "from",
          "type": "address"
        },
        {
          "internalType": "address",
          "name": "to",
          "type": "address"
        },
        {
          "internalType": "uint256",
          "name": "value",
          "type": "uint256"
        }
      ],
      "name": "TokenTransferFailed",
      "type": "error"
    },
    {
      "inputs": [
        {
          "internalType": "address",
          "name": "multisig",
          "type": "address"
        }
      ],
      "name": "UnauthorizedMultisig",
      "type": "error"
    },
    {
      "inputs": [
        {
          "internalType": "uint256",
          "name": "provided",
          "type": "uint256"
        },
        {
          "internalType": "uint256",
          "name": "expected",
          "type": "uint256"
        }
      ],
      "name": "ValueLowerThan",
      "type": "error"
    },
    {
      "inputs": [
        {
          "internalType": "uint256",
          "name": "agentId",
          "type": "uint256"
        }
      ],
      "name": "WrongAgentId",
      "type": "error"
    },
    {
      "inputs": [
        {
          "internalType": "uint256",
          "name": "serviceId",
          "type": "uint256"
        }
      ],
      "name": "WrongServiceConfiguration",
      "type": "error"
    },
    {
      "inputs": [
        {
          "internalType": "uint256",
          "name": "state",
          "type": "uint256"
        },
        {
          "internalType": "uint256",
          "name": "serviceId",
          "type": "uint256"
        }
      ],
      "name": "WrongServiceState",
      "type": "error"
    },
    {
      "inputs": [
        {
          "internalType": "address",
          "name": "expected",
          "type": "address"
        },
        {
          "internalType": "address",
          "name": "provided",
          "type": "address"
        }
      ],
      "name": "WrongStakingToken",
      "type": "error"
    },
    {
      "inputs": [],
      "name": "ZeroAddress",
      "type": "error"
    },
    {
      "inputs": [],
      "name": "ZeroTokenAddress",
      "type": "error"
    },
    {
      "inputs": [],
      "name": "ZeroValue",
      "type": "error"
    },
    {
      "anonymous": false,
      "inputs": [
        {
          "indexed": true,
          "internalType": "uint256",
          "name": "epoch",
          "type": "uint256"
        },
        {
          "indexed": false,
          "internalType": "uint256",
          "name": "availableRewards",
          "type": "uint256"
        },
        {
          "indexed": false,
          "internalType": "uint256[]",
          "name": "serviceIds",
          "type": "uint256[]"
        },
        {
          "indexed": false,
          "internalType": "uint256[]",
          "name": "rewards",
          "type": "uint256[]"
        },
        {
          "indexed": false,
          "internalType": "uint256",
          "name": "epochLength",
          "type": "uint256"
        }
      ],
      "name": "Checkpoint",
      "type": "event"
    },
    {
      "anonymous": false,
      "inputs": [
        {
          "indexed": true,
          "internalType": "address",
          "name": "sender",
          "type": "address"
        },
        {
          "indexed": false,
          "internalType": "uint256",
          "name": "amount",
          "type": "uint256"
        },
        {
          "indexed": false,
          "internalType": "uint256",
          "name": "balance",
          "type": "uint256"
        },
        {
          "indexed": false,
          "internalType": "uint256",
          "name": "availableRewards",
          "type": "uint256"
        }
      ],
      "name": "Deposit",
      "type": "event"
    },
    {
      "anonymous": false,
      "inputs": [
        {
          "indexed": false,
          "internalType": "uint256",
          "name": "epoch",
          "type": "uint256"
        },
        {
          "indexed": true,
          "internalType": "uint256",
          "name": "serviceId",
          "type": "uint256"
        },
        {
          "indexed": true,
          "internalType": "address",
          "name": "owner",
          "type": "address"
        },
        {
          "indexed": true,
          "internalType": "address",
          "name": "multisig",
          "type": "address"
        },
        {
          "indexed": false,
          "internalType": "uint256[]",
          "name": "nonces",
          "type": "uint256[]"
        },
        {
          "indexed": false,
          "internalType": "uint256",
          "name": "reward",
          "type": "uint256"
        }
      ],
      "name": "RewardClaimed",
      "type": "event"
    },
    {
      "anonymous": false,
      "inputs": [
        {
          "indexed": false,
          "internalType": "uint256",
          "name": "epoch",
          "type": "uint256"
        },
        {
          "indexed": true,
          "internalType": "uint256",
          "name": "serviceId",
          "type": "uint256"
        },
        {
          "indexed": true,
          "internalType": "address",
          "name": "owner",
          "type": "address"
        },
        {
          "indexed": true,
          "internalType": "address",
          "name": "multisig",
          "type": "address"
        },
        {
          "indexed": false,
          "internalType": "uint256[]",
          "name": "nonces",
          "type": "uint256[]"
        },
        {
          "indexed": false,
          "internalType": "uint256",
          "name": "reward",
          "type": "uint256"
        },
        {
          "indexed": false,
          "internalType": "uint256",
          "name": "availableRewards",
          "type": "uint256"
        }
      ],
      "name": "ServiceForceUnstaked",
      "type": "event"
    },
    {
      "anonymous": false,
      "inputs": [
        {
          "indexed": false,
          "internalType": "uint256",
          "name": "epoch",
          "type": "uint256"
        },
        {
          "indexed": true,
          "internalType": "uint256",
          "name": "serviceId",
          "type": "uint256"
        },
        {
          "indexed": false,
          "internalType": "uint256",
          "name": "serviceInactivity",
          "type": "uint256"
        }
      ],
      "name": "ServiceInactivityWarning",
      "type": "event"
    },
    {
      "anonymous": false,
      "inputs": [
        {
          "indexed": false,
          "internalType": "uint256",
          "name": "epoch",
          "type": "uint256"
        },
        {
          "indexed": true,
          "internalType": "uint256",
          "name": "serviceId",
          "type": "uint256"
        },
        {
          "indexed": true,
          "internalType": "address",
          "name": "owner",
          "type": "address"
        },
        {
          "indexed": true,
          "internalType": "address",
          "name": "multisig",
          "type": "address"
        },
        {
          "indexed": false,
          "internalType": "uint256[]",
          "name": "nonces",
          "type": "uint256[]"
        }
      ],
      "name": "ServiceStaked",
      "type": "event"
    },
    {
      "anonymous": false,
      "inputs": [
        {
          "indexed": false,
          "internalType": "uint256",
          "name": "epoch",
          "type": "uint256"
        },
        {
          "indexed": true,
          "internalType": "uint256",
          "name": "serviceId",
          "type": "uint256"
        },
        {
          "indexed": true,
          "internalType": "address",
          "name": "owner",
          "type": "address"
        },
        {
          "indexed": true,
          "internalType": "address",
          "name": "multisig",
          "type": "address"
        },
        {
          "indexed": false,
          "internalType": "uint256[]",
          "name": "nonces",
          "type": "uint256[]"
        },
        {
          "indexed": false,
          "internalType": "uint256",
          "name": "reward",
          "type": "uint256"
        },
        {
          "indexed": false,
          "internalType": "uint256",
          "name": "availableRewards",
          "type": "uint256"
        }
      ],
      "name": "ServiceUnstaked",
      "type": "event"
    },
    {
      "anonymous": false,
      "inputs": [
        {
          "indexed": true,
          "internalType": "uint256",
          "name": "epoch",
          "type": "uint256"
        },
        {
          "indexed": false,
          "internalType": "uint256[]",
          "name": "serviceIds",
          "type": "uint256[]"
        },
        {
          "indexed": false,
          "internalType": "address[]",
          "name": "owners",
          "type": "address[]"
        },
        {
          "indexed": false,
          "internalType": "address[]",
          "name": "multisigs",
          "type": "address[]"
        },
        {
          "indexed": false,
          "internalType": "uint256[]",
          "name": "serviceInactivity",
          "type": "uint256[]"
        }
      ],
      "name": "ServicesEvicted",
      "type": "event"
    },
    {
      "anonymous": false,
      "inputs": [
        {
          "indexed": true,
          "internalType": "address",
          "name": "to",
          "type": "address"
        },
        {
          "indexed": false,
          "internalType": "uint256",
          "name": "amount",
          "type": "uint256"
        }
      ],
      "name": "Withdraw",
      "type": "event"
    },
    {
      "inputs": [],
      "name": "VERSION",
      "outputs": [
        {
          "internalType": "string",
          "name": "",
          "type": "string"
        }
      ],
      "stateMutability": "view",
      "type": "function"
    },
    {
      "inputs": [],
      "name": "activityChecker",
      "outputs": [
        {
          "internalType": "address",
          "name": "",
          "type": "address"
        }
      ],
      "stateMutability": "view",
      "type": "function"
    },
    {
      "inputs": [
        {
          "internalType": "uint256",
          "name": "",
          "type": "uint256"
        }
      ],
      "name": "agentIds",
      "outputs": [
        {
          "internalType": "uint256",
          "name": "",
          "type": "uint256"
        }
      ],
      "stateMutability": "view",
      "type": "function"
    },
    {
      "inputs": [],
      "name": "availableRewards",
      "outputs": [
        {
          "internalType": "uint256",
          "name": "",
          "type": "uint256"
        }
      ],
      "stateMutability": "view",
      "type": "function"
    },
    {
      "inputs": [],
      "name": "balance",
      "outputs": [
        {
          "internalType": "uint256",
          "name": "",
          "type": "uint256"
        }
      ],
      "stateMutability": "view",
      "type": "function"
    },
    {
      "inputs": [
        {
          "internalType": "uint256",
          "name": "serviceId",
          "type": "uint256"
        }
      ],
      "name": "calculateStakingLastReward",
      "outputs": [
        {
          "internalType": "uint256",
          "name": "reward",
          "type": "uint256"
        }
      ],
      "stateMutability": "view",
      "type": "function"
    },
    {
      "inputs": [
        {
          "internalType": "uint256",
          "name": "serviceId",
          "type": "uint256"
        }
      ],
      "name": "calculateStakingReward",
      "outputs": [
        {
          "internalType": "uint256",
          "name": "reward",
          "type": "uint256"
        }
      ],
      "stateMutability": "view",
      "type": "function"
    },
    {
      "inputs": [],
      "name": "checkpoint",
      "outputs": [
        {
          "internalType": "uint256[]",
          "name": "",
          "type": "uint256[]"
        },
        {
          "internalType": "uint256[]",
          "name": "",
          "type": "uint256[]"
        },
        {
          "internalType": "uint256[]",
          "name": "",
          "type": "uint256[]"
        },
        {
          "internalType": "uint256[]",
          "name": "evictServiceIds",
          "type": "uint256[]"
        }
      ],
      "stateMutability": "nonpayable",
      "type": "function"
    },
    {
      "inputs": [
        {
          "internalType": "uint256",
          "name": "serviceId",
          "type": "uint256"
        }
      ],
      "name": "checkpointAndClaim",
      "outputs": [
        {
          "internalType": "uint256",
          "name": "",
          "type": "uint256"
        }
      ],
      "stateMutability": "nonpayable",
      "type": "function"
    },
    {
      "inputs": [
        {
          "internalType": "uint256",
          "name": "serviceId",
          "type": "uint256"
        }
      ],
      "name": "claim",
      "outputs": [
        {
          "internalType": "uint256",
          "name": "",
          "type": "uint256"
        }
      ],
      "stateMutability": "nonpayable",
      "type": "function"
    },
    {
      "inputs": [],
      "name": "configHash",
      "outputs": [
        {
          "internalType": "bytes32",
          "name": "",
          "type": "bytes32"
        }
      ],
      "stateMutability": "view",
      "type": "function"
    },
    {
      "inputs": [
        {
          "internalType": "uint256",
          "name": "amount",
          "type": "uint256"
        }
      ],
      "name": "deposit",
      "outputs": [],
      "stateMutability": "nonpayable",
      "type": "function"
    },
    {
      "inputs": [],
      "name": "emissionsAmount",
      "outputs": [
        {
          "internalType": "uint256",
          "name": "",
          "type": "uint256"
        }
      ],
      "stateMutability": "view",
      "type": "function"
    },
    {
      "inputs": [],
      "name": "epochCounter",
      "outputs": [
        {
          "internalType": "uint256",
          "name": "",
          "type": "uint256"
        }
      ],
      "stateMutability": "view",
      "type": "function"
    },
    {
      "inputs": [
        {
          "internalType": "uint256",
          "name": "serviceId",
          "type": "uint256"
        }
      ],
      "name": "forcedUnstake",
      "outputs": [],
      "stateMutability": "nonpayable",
      "type": "function"
    },
    {
      "inputs": [],
      "name": "getAgentIds",
      "outputs": [
        {
          "internalType": "uint256[]",
          "name": "",
          "type": "uint256[]"
        }
      ],
      "stateMutability": "view",
      "type": "function"
    },
    {
      "inputs": [],
      "name": "getNextRewardCheckpointTimestamp",
      "outputs": [
        {
          "internalType": "uint256",
          "name": "tsNext",
          "type": "uint256"
        }
      ],
      "stateMutability": "view",
      "type": "function"
    },
    {
      "inputs": [],
      "name": "getServiceIds",
      "outputs": [
        {
          "internalType": "uint256[]",
          "name": "",
          "type": "uint256[]"
        }
      ],
      "stateMutability": "view",
      "type": "function"
    },
    {
      "inputs": [
        {
          "internalType": "uint256",
          "name": "serviceId",
          "type": "uint256"
        }
      ],
      "name": "getServiceInfo",
      "outputs": [
        {
          "components": [
            {
              "internalType": "address",
              "name": "multisig",
              "type": "address"
            },
            {
              "internalType": "address",
              "name": "owner",
              "type": "address"
            },
            {
              "internalType": "uint256[]",
              "name": "nonces",
              "type": "uint256[]"
            },
            {
              "internalType": "uint256",
              "name": "tsStart",
              "type": "uint256"
            },
            {
              "internalType": "uint256",
              "name": "reward",
              "type": "uint256"
            },
            {
              "internalType": "uint256",
              "name": "inactivity",
              "type": "uint256"
            }
          ],
          "internalType": "struct ServiceInfo",
          "name": "sInfo",
          "type": "tuple"
        }
      ],
      "stateMutability": "view",
      "type": "function"
    },
    {
      "inputs": [
        {
          "internalType": "uint256",
          "name": "serviceId",
          "type": "uint256"
        }
      ],
      "name": "getStakingState",
      "outputs": [
        {
          "internalType": "enum StakingBase.StakingState",
          "name": "stakingState",
          "type": "uint8"
        }
      ],
      "stateMutability": "view",
      "type": "function"
    },
    {
      "inputs": [
        {
          "components": [
            {
              "internalType": "bytes32",
              "name": "metadataHash",
              "type": "bytes32"
            },
            {
              "internalType": "uint256",
              "name": "maxNumServices",
              "type": "uint256"
            },
            {
              "internalType": "uint256",
              "name": "rewardsPerSecond",
              "type": "uint256"
            },
            {
              "internalType": "uint256",
              "name": "minStakingDeposit",
              "type": "uint256"
            },
            {
              "internalType": "uint256",
              "name": "minNumStakingPeriods",
              "type": "uint256"
            },
            {
              "internalType": "uint256",
              "name": "maxNumInactivityPeriods",
              "type": "uint256"
            },
            {
              "internalType": "uint256",
              "name": "livenessPeriod",
              "type": "uint256"
            },
            {
              "internalType": "uint256",
              "name": "timeForEmissions",
              "type": "uint256"
            },
            {
              "internalType": "uint256",
              "name": "numAgentInstances",
              "type": "uint256"
            },
            {
              "internalType": "uint256[]",
              "name": "agentIds",
              "type": "uint256[]"
            },
            {
              "internalType": "uint256",
              "name": "threshold",
              "type": "uint256"
            },
            {
              "internalType": "bytes32",
              "name": "configHash",
              "type": "bytes32"
            },
            {
              "internalType": "bytes32",
              "name": "proxyHash",
              "type": "bytes32"
            },
            {
              "internalType": "address",
              "name": "serviceRegistry",
              "type": "address"
            },
            {
              "internalType": "address",
              "name": "activityChecker",
              "type": "address"
            }
          ],
          "internalType": "struct StakingBase.StakingParams",
          "name": "_stakingParams",
          "type": "tuple"
        },
        {
          "internalType": "address",
          "name": "_serviceRegistryTokenUtility",
          "type": "address"
        },
        {
          "internalType": "address",
          "name": "_stakingToken",
          "type": "address"
        }
      ],
      "name": "initialize",
      "outputs": [],
      "stateMutability": "nonpayable",
      "type": "function"
    },
    {
      "inputs": [],
      "name": "livenessPeriod",
      "outputs": [
        {
          "internalType": "uint256",
          "name": "",
          "type": "uint256"
        }
      ],
      "stateMutability": "view",
      "type": "function"
    },
    {
      "inputs": [
        {
          "internalType": "uint256",
          "name": "",
          "type": "uint256"
        }
      ],
      "name": "mapServiceInfo",
      "outputs": [
        {
          "internalType": "address",
          "name": "multisig",
          "type": "address"
        },
        {
          "internalType": "address",
          "name": "owner",
          "type": "address"
        },
        {
          "internalType": "uint256",
          "name": "tsStart",
          "type": "uint256"
        },
        {
          "internalType": "uint256",
          "name": "reward",
          "type": "uint256"
        },
        {
          "internalType": "uint256",
          "name": "inactivity",
          "type": "uint256"
        }
      ],
      "stateMutability": "view",
      "type": "function"
    },
    {
      "inputs": [],
      "name": "maxInactivityDuration",
      "outputs": [
        {
          "internalType": "uint256",
          "name": "",
          "type": "uint256"
        }
      ],
      "stateMutability": "view",
      "type": "function"
    },
    {
      "inputs": [],
      "name": "maxNumInactivityPeriods",
      "outputs": [
        {
          "internalType": "uint256",
          "name": "",
          "type": "uint256"
        }
      ],
      "stateMutability": "view",
      "type": "function"
    },
    {
      "inputs": [],
      "name": "maxNumServices",
      "outputs": [
        {
          "internalType": "uint256",
          "name": "",
          "type": "uint256"
        }
      ],
      "stateMutability": "view",
      "type": "function"
    },
    {
      "inputs": [],
      "name": "metadataHash",
      "outputs": [
        {
          "internalType": "bytes32",
          "name": "",
          "type": "bytes32"
        }
      ],
      "stateMutability": "view",
      "type": "function"
    },
    {
      "inputs": [],
      "name": "minStakingDeposit",
      "outputs": [
        {
          "internalType": "uint256",
          "name": "",
          "type": "uint256"
        }
      ],
      "stateMutability": "view",
      "type": "function"
    },
    {
      "inputs": [],
      "name": "minStakingDuration",
      "outputs": [
        {
          "internalType": "uint256",
          "name": "",
          "type": "uint256"
        }
      ],
      "stateMutability": "view",
      "type": "function"
    },
    {
      "inputs": [],
      "name": "numAgentInstances",
      "outputs": [
        {
          "internalType": "uint256",
          "name": "",
          "type": "uint256"
        }
      ],
      "stateMutability": "view",
      "type": "function"
    },
    {
      "inputs": [
        {
          "internalType": "address",
          "name": "",
          "type": "address"
        },
        {
          "internalType": "address",
          "name": "",
          "type": "address"
        },
        {
          "internalType": "uint256",
          "name": "",
          "type": "uint256"
        },
        {
          "internalType": "bytes",
          "name": "",
          "type": "bytes"
        }
      ],
      "name": "onERC721Received",
      "outputs": [
        {
          "internalType": "bytes4",
          "name": "",
          "type": "bytes4"
        }
      ],
      "stateMutability": "nonpayable",
      "type": "function"
    },
    {
      "inputs": [],
      "name": "proxyHash",
      "outputs": [
        {
          "internalType": "bytes32",
          "name": "",
          "type": "bytes32"
        }
      ],
      "stateMutability": "view",
      "type": "function"
    },
    {
      "inputs": [],
      "name": "rewardsPerSecond",
      "outputs": [
        {
          "internalType": "uint256",
          "name": "",
          "type": "uint256"
        }
      ],
      "stateMutability": "view",
      "type": "function"
    },
    {
      "inputs": [],
      "name": "serviceRegistry",
      "outputs": [
        {
          "internalType": "address",
          "name": "",
          "type": "address"
        }
      ],
      "stateMutability": "view",
      "type": "function"
    },
    {
      "inputs": [],
      "name": "serviceRegistryTokenUtility",
      "outputs": [
        {
          "internalType": "address",
          "name": "",
          "type": "address"
        }
      ],
      "stateMutability": "view",
      "type": "function"
    },
    {
      "inputs": [
        {
          "internalType": "uint256",
          "name": "",
          "type": "uint256"
        }
      ],
      "name": "setServiceIds",
      "outputs": [
        {
          "internalType": "uint256",
          "name": "",
          "type": "uint256"
        }
      ],
      "stateMutability": "view",
      "type": "function"
    },
    {
      "inputs": [
        {
          "internalType": "uint256",
          "name": "serviceId",
          "type": "uint256"
        }
      ],
      "name": "stake",
      "outputs": [],
      "stateMutability": "nonpayable",
      "type": "function"
    },
    {
      "inputs": [],
      "name": "stakingToken",
      "outputs": [
        {
          "internalType": "address",
          "name": "",
          "type": "address"
        }
      ],
      "stateMutability": "view",
      "type": "function"
    },
    {
      "inputs": [],
      "name": "threshold",
      "outputs": [
        {
          "internalType": "uint256",
          "name": "",
          "type": "uint256"
        }
      ],
      "stateMutability": "view",
      "type": "function"
    },
    {
      "inputs": [],
      "name": "timeForEmissions",
      "outputs": [
        {
          "internalType": "uint256",
          "name": "",
          "type": "uint256"
        }
      ],
      "stateMutability": "view",
      "type": "function"
    },
    {
      "inputs": [],
      "name": "tsCheckpoint",
      "outputs": [
        {
          "internalType": "uint256",
          "name": "",
          "type": "uint256"
        }
      ],
      "stateMutability": "view",
      "type": "function"
    },
    {
      "inputs": [
        {
          "internalType": "uint256",
          "name": "serviceId",
          "type": "uint256"
        }
      ],
      "name": "unstake",
      "outputs": [
        {
          "internalType": "uint256",
          "name": "",
          "type": "uint256"
        }
      ],
      "stateMutability": "nonpayable",
      "type": "function"
    }
  ],
  "bytecode": "0x6080604052348015600e575f5ffd5b5061364a8061001c5f395ff3fe608060405234801561000f575f5ffd5b50600436106102cd575f3560e01c806393ac752f1161017c578063c5a1d7f0116100dd578063eb338c9611610093578063f86ad2b61161006e578063f86ad2b6146105db578063fd0bba8c146105e4578063ffa1ad7414610604575f5ffd5b8063eb338c96146105b8578063f189e85a146105cb578063f4dce714146105d3575f5ffd5b8063e1f1176d116100c3578063e1f1176d1461059d578063e77cdcc9146105a6578063eacdaabc146105af575f5ffd5b8063c5a1d7f014610582578063cbcf252a1461058a575f5ffd5b8063b150876011610132578063b69ef8a811610118578063b69ef8a81461054e578063b6b55f2514610557578063c2c4c5c11461056a575f5ffd5b8063b150876014610526578063b267c67b1461053b575f5ffd5b8063a0ed60e011610162578063a0ed60e01461048f578063a694fc3a14610498578063a74466ad146104ab575f5ffd5b806393ac752f146104715780639573236114610486575f5ffd5b806352c824f5116102315780637fbe2833116101e757806383f9eb22116101c257806383f9eb2214610442578063879d9090146104555780638f9e0a621461045e575f5ffd5b80637fbe283314610406578063809cee2f1461041957806382a8ea5814610422575f5ffd5b806356e760581161021757806356e76058146103d75780635829c5ec146103ea57806372f702f3146103f3575f5ffd5b806352c824f5146103bb578063546af2e0146103c4575f5ffd5b80632871405111610286578063379607f51161026c578063379607f5146103965780633e732997146103a957806342cde4e8146103b2575f5ffd5b806328714051146103585780632e17de7814610383575f5ffd5b8063150b7a02116102b6578063150b7a02146102f657806316a75172146103465780631f7794081461034f575f5ffd5b806308ae7e54146102d157806314b19c5a146102ed575b5f5ffd5b6102da600d5481565b6040519081526020015b60405180910390f35b6102da600f5481565b610315610304366004612c68565b630a85bd0160e11b95945050505050565b6040517fffffffff0000000000000000000000000000000000000000000000000000000090911681526020016102e4565b6102da60015481565b6102da60065481565b60175461036b906001600160a01b031681565b6040516001600160a01b0390911681526020016102e4565b6102da610391366004612d01565b610635565b6102da6103a4366004612d01565b610646565b6102da60135481565b6102da60085481565b6102da60055481565b6102da6103d2366004612d01565b610651565b6102da6103e5366004612d01565b61065d565b6102da60075481565b60185461036b906001600160a01b031681565b6102da610414366004612d01565b61067c565b6102da600a5481565b610435610430366004612d01565b610743565b6040516102e49190612d18565b6102da610450366004612d01565b610832565b6102da60115481565b600c5461036b906001600160a01b031681565b61048461047f366004612d01565b6108ed565b005b6102da60125481565b6102da60045481565b6104846104a6366004612d01565b6108fc565b6104f36104b9366004612d01565b60156020525f9081526040902080546001820154600383015460048401546005909401546001600160a01b03938416949390921692909185565b604080516001600160a01b039687168152959094166020860152928401919091526060830152608082015260a0016102e4565b61052e610dec565b6040516102e49190612def565b610484610549366004612f21565b610e42565b6102da60105481565b610484610565366004612d01565b610eb8565b610572610f45565b6040516102e49493929190613053565b6102da5f5481565b600b5461036b906001600160a01b031681565b6102da60095481565b6102da60035481565b6102da60025481565b6102da6105c6366004612d01565b6115d9565b61052e6115e8565b6102da61163c565b6102da600e5481565b6105f76105f2366004612d01565b611652565b6040516102e491906130be565b610628604051806040016040528060058152602001640302e322e360dc1b81525081565b6040516102e491906130e4565b5f610640825f611724565b92915050565b5f610640825f611aab565b5f610640826001611aab565b6014818154811061066c575f80fd5b5f91825260209091200154905081565b5f818152601560209081526040808320815160c08101835281546001600160a01b03908116825260018301541681850152600282018054845181870281018701865281815287969395860193909291908301828280156106f957602002820191905f5260205f20905b8154815260200190600101908083116106e5575b50505050508152602001600382015481526020016004820154815260200160058201548152505090508060800151915061073283610832565b61073c908361312d565b9392505050565b6107896040518060c001604052805f6001600160a01b031681526020015f6001600160a01b03168152602001606081526020015f81526020015f81526020015f81525090565b5f82815260156020908152604091829020825160c08101845281546001600160a01b039081168252600183015416818401526002820180548551818602810186018752818152929593949386019383018282801561080457602002820191905f5260205f20905b8154815260200190600101908083116107f0575b5050505050815260200160038201548152602001600482015481526020016005820154815250509050919050565b5f5f5f5f5f5f610840611bae565b505050945094509450945094505f5f90505b848110156108e2578783828151811061086d5761086d613140565b6020026020010151036108da57858411156108b957838683838151811061089657610896613140565b60200260200101516108a89190613154565b6108b2919061317f565b96506108e2565b8181815181106108cb576108cb613140565b602002602001015196506108e2565b600101610852565b505050505050919050565b6108f8816001611724565b5050565b610904610f45565b505050506011545f0361092a5760405163afb0be3360e01b815260040160405180910390fd5b5f8181526015602052604090206003810154156109625760405163b4817ce760e01b8152600481018390526024015b60405180910390fd5b601654600154810361098d5760015460405163fd20861560e01b815260040161095991815260200190565b600b5460405163ef0e239b60e01b8152600481018590525f916001600160a01b03169063ef0e239b906024015f60405180830381865afa1580156109d3573d5f5f3e3d5ffd5b505050506040513d5f823e601f3d908101601f191682016040526109fa919081019061323b565b9050806080015163ffffffff1660075414610a2b57604051637ad404bf60e11b815260048101859052602401610959565b60095415801590610a425750806040015160095414155b15610a6357604051637ad404bf60e11b815260048101859052602401610959565b5f600854118015610a805750806060015163ffffffff1660085414155b15610aa157604051637ad404bf60e11b815260048101859052602401610959565b60048160c001516005811115610ab957610ab96130aa565b14610af8578060c001516005811115610ad457610ad46130aa565b604051633c053f9d60e21b8152600481019190915260248101859052604401610959565b5f81602001516001600160a01b0316803b806020016040519081016040528181525f908060200190933c80519060200120905080600a5414610b5d57602082015160405162a2307960e51b81526001600160a01b039091166004820152602401610959565b6014548015610c215760e083015151818114610b8f57604051637ad404bf60e11b815260048101889052602401610959565b5f5b81811015610c1e578460e001518181518110610baf57610baf613140565b602002602001015163ffffffff1660148281548110610bd057610bd0613140565b905f5260205f20015414610c165760148181548110610bf157610bf1613140565b905f5260205f200154604051632ab10b0b60e21b815260040161095991815260200190565b600101610b91565b50505b610c4186845f01516bffffffffffffffffffffffff168560e00151611f4e565b602083015185546001600160a01b039182166001600160a01b0319918216811788556001880180549092163317909155600c5460405163d564c4bf60e01b815260048101929092525f92169063d564c4bf906024015f60405180830381865afa158015610cb0573d5f5f3e3d5ffd5b505050506040513d5f823e601f3d908101601f19168201604052610cd79190810190613318565b8051909150610cef9060028801906020840190612bc9565b50426003870155601680546001810182555f919091527fd833147d7dc355ba459fc788f669e58cfaf9dc25ddcd0702e87d69c7b512428901879055600b54604051632142170760e11b8152336004820152306024820152604481018990526001600160a01b03909116906342842e0e906064015f604051808303815f87803b158015610d79575f5ffd5b505af1158015610d8b573d5f5f3e3d5ffd5b5050505083602001516001600160a01b0316336001600160a01b0316887faa6b005b4958114a0c90492461c24af6525ae0178db7fbf44125ae9217c69ccb600f5485604051610ddb9291906133a9565b60405180910390a450505050505050565b60606014805480602002602001604051908101604052809291908181526020018280548015610e3857602002820191905f5260205f20905b815481526020019060010190808311610e24575b5050505050905090565b610e4b83612137565b6001600160a01b0381161580610e6857506001600160a01b038216155b15610e8657604051636b093aad60e01b815260040160405180910390fd5b601880546001600160a01b039283166001600160a01b0319918216179091556017805493909216921691909117905550565b5f81601054610ec7919061312d565b90505f82601154610ed8919061312d565b60108390556011819055601854909150610efd906001600160a01b03163330866124b5565b604080518481526020810184905290810182905233907f36af321ec8d3c75236829c5317affd40ddb308863a1236d2d277a4025cccee1e9060600160405180910390a2505050565b6060806060805f5f5f5f5f5f5f5f610f5b611bae565b97509750975097509750975097509750606080845167ffffffffffffffff811115610f8857610f88612e01565b604051908082528060200260200182016040528015610fb1578160200160208202803683370190505b509a505f8915611332578967ffffffffffffffff811115610fd457610fd4612e01565b604051908082528060200260200182016040528015610ffd578160200160208202803683370190505b5092508967ffffffffffffffff81111561101957611019612e01565b604051908082528060200260200182016040528015611042578160200160208202803683370190505b5091508a89111561123f575f8060015b8c81101561113b578b8e8b838151811061106e5761106e613140565b60200260200101516110809190613154565b61108a919061317f565b9250611096838361312d565b91508a81815181106110aa576110aa613140565b602002602001015193508a81815181106110c6576110c6613140565b60200260200101518682815181106110e0576110e0613140565b602002602001018181525050828582815181106110ff576110ff613140565b6020026020010181815250508260155f8681526020019081526020015f206004015f82825461112e919061312d565b9091555050600101611052565b508a8d8a5f8151811061115057611150613140565b60200260200101516111629190613154565b61116c919061317f565b9150611178828261312d565b9050895f8151811061118c5761118c613140565b60200260200101519250895f815181106111a8576111a8613140565b6020026020010151855f815181106111c2576111c2613140565b602002602001018181525050808d11156111ed576111e0818e6133c9565b6111ea908361312d565b91505b81845f8151811061120057611200613140565b6020026020010181815250508160155f8581526020019081526020015f206004015f82825461122f919061312d565b909155505f9d5061132c92505050565b5f5b8a81101561131e5788818151811061125b5761125b613140565b6020026020010151915088818151811061127757611277613140565b602002602001015184828151811061129157611291613140565b6020026020010181815250508781815181106112af576112af613140565b60200260200101518382815181106112c9576112c9613140565b6020026020010181815250508781815181106112e7576112e7613140565b602002602001015160155f8481526020019081526020015f206004015f828254611311919061312d565b9091555050600101611241565b50611329898c6133c9565b9a505b60118b90555b8551156115a557600f545f9a508a5b87518110156115205787818151811061135c5761135c613140565b6020026020010151925086818151811061137857611378613140565b602002602001015160155f8581526020019081526020015f2060020190805190602001906113a7929190612bc9565b505f8682815181106113bb576113bb613140565b60200260200101511115611506578581815181106113db576113db613140565b602002602001015160155f8581526020019081526020015f2060050154611402919061312d565b86828151811061141457611414613140565b60200260200101818152505085818151811061143257611432613140565b602002602001015160155f8581526020019081526020015f2060050181905550600e5486828151811061146757611467613140565b602002602001015111156114a557828e828151811061148857611488613140565b60209081029190910101528b61149d816133dc565b9c5050611518565b827f33dc5cdf1e035de8a7fe16ad7a30a441d30ee51719d3f07703ee35d4348f0779838884815181106114da576114da613140565b60200260200101516040516114f9929190918252602082015260400190565b60405180910390a2611518565b5f838152601560205260408120600501555b600101611341565b508a15611539576115328d868d612539565b9c5061153e565b60609c505b5f6013544261154d91906133c9565b42601355905061155e82600161312d565b600f81905550817f48b735a18ed32318d316214e41387be29c52e29df4598f2b8e40fa843be3f9408e87878560405161159a94939291906133f4565b60405180910390a250505b855115806115b357505f8c51115b156115c3576115c06115e8565b95505b50939c509a509198505050505050505090919293565b6016818154811061066c575f80fd5b60606016805480602002602001604051908101604052809291908181526020018280548015610e3857602002820191905f5260205f2090815481526020019060010190808311610e24575050505050905090565b5f60055460135461164d919061312d565b905090565b5f818152601560209081526040808320815160c08101835281546001600160a01b03908116825260018301541681850152600282018054845181870281018701865281815287969395860193909291908301828280156116cf57602002820191905f5260205f20905b8154815260200190600101908083116116bb575b5050505050815260200160038201548152602001600482015481526020016005820154815250509050600e548160a00151111561170f576002915061171e565b60608101511561171e57600191505b50919050565b5f82815260156020526040812060018101546001600160a01b0316331461177557600181015460405163521eb56d60e11b81523360048201526001600160a01b039091166024820152604401610959565b5f61177e610f45565b505050600483015460115460038501549195509192505f906117a090426133c9565b9050600d5481111580156117b357505f82115b156117e657600d5460405163ba2bbc6b60e01b815260048101899052602481018390526044810191909152606401610959565b5f5f5b8451821015611825578885838151811061180557611805613140565b60200260200101510361181a57506001611825565b8160010191506117e9565b5f8660020180548060200260200160405190810160405280929190818152602001828054801561187257602002820191905f5260205f20905b81548152602001906001019080831161185e575b50508a545f8f815260156020526040812080546001600160a01b0319908116825560018201805490911690559596506001600160a01b0390911694935091506118c090506002830182612c12565b505f60038201819055600482018190556005909101558215611956576016545f906118ed906001906133c9565b90508015611930576016818154811061190857611908613140565b905f5260205f2001546016868154811061192457611924613140565b5f918252602090912001555b601680548061194157611941613430565b600190038181905f5260205f20015f90559055505b600b546040516323b872dd60e01b8152306004820152336024820152604481018d90526001600160a01b03909116906323b872dd906064015f604051808303815f87803b1580156119a5575f5ffd5b505af11580156119b7573d5f5f3e3d5ffd5b505050505f8911156119e95789156119df576119d3898761312d565b601181905595506119e9565b6119e9818a6128f1565b8915611a4857806001600160a01b0316336001600160a01b03168c7f91c9f7c7f307bcc0ae02ba613bd8d07c29e94952f0a28803ded176fcd7d96d64600f54868e8c604051611a3b9493929190613444565b60405180910390a4611a9d565b806001600160a01b0316336001600160a01b03168c7f6d789d063e079a4c156e77a20008529fc448dca2cd7e5e7a20abf969fffb9226600f54868e8c604051611a949493929190613444565b60405180910390a45b505050505050505092915050565b5f82815260156020526040812060018101546001600160a01b03163314611afc57600181015460405163521eb56d60e11b81523360048201526001600160a01b039091166024820152604401610959565b8215611b0f57611b0a610f45565b505050505b80600401549150815f03611b3657604051637c946ed760e01b815260040160405180910390fd5b5f600482015580546001600160a01b0316611b5181846128f1565b806001600160a01b0316336001600160a01b0316867f31add0166dae59ea66bbc180e4fae85b72fc9b7b5fc7b0f7257e4721a840c96e600f548660020188604051611b9e9392919061346f565b60405180910390a4505092915050565b60135460115460165490915f91829160609182918291829182918015801590611be25750600554611bdf83426133c9565b10155b8015611bed57505f8a115b15611f42578067ffffffffffffffff811115611c0b57611c0b612e01565b604051908082528060200260200182016040528015611c34578160200160208202803683370190505b5094508067ffffffffffffffff811115611c5057611c50612e01565b604051908082528060200260200182016040528015611c79578160200160208202803683370190505b5096508067ffffffffffffffff811115611c9557611c95612e01565b604051908082528060200260200182016040528015611cbe578160200160208202803683370190505b5095508067ffffffffffffffff811115611cda57611cda612e01565b604051908082528060200260200182016040528015611d0d57816020015b6060815260200190600190039081611cf85790505b5093508067ffffffffffffffff811115611d2957611d29612e01565b604051908082528060200260200182016040528015611d52578160200160208202803683370190505b5092505f5b81811015611f405760168181548110611d7257611d72613140565b905f5260205f200154868281518110611d8d57611d8d613140565b6020026020010181815250505f60155f888481518110611daf57611daf613140565b602002602001015181526020019081526020015f2090505f8490505f8260030154905081811115611dde578091505b611de882426133c9565b8354600285018054604080516020808402820181019092528281529495505f94611e52946001600160a01b03169390929091830182828015611e4757602002820191905f5260205f20905b815481526020019060010190808311611e33575b505050505084612965565b8a8781518110611e6457611e64613140565b602090810291909101015290508015611f115781600254611e859190613154565b8b8f81518110611e9757611e97613140565b6020026020010181815250508a8e81518110611eb557611eb5613140565b60200260200101518d611ec8919061312d565b9c50898581518110611edc57611edc613140565b60200260200101518c8f81518110611ef657611ef6613140565b6020908102919091010152611f0a8e6133dc565b9d50611f31565b81888681518110611f2457611f24613140565b6020026020010181815250505b50505050806001019050611d57565b505b50509091929394959697565b601754604051633cebfa4f60e01b8152600481018590525f9182916001600160a01b0390911690633cebfa4f906024016040805180830381865afa158015611f98573d5f5f3e3d5ffd5b505050506040513d601f19601f82011682018060405250810190611fbc91906134c7565b60185491935091506001600160a01b0380841691161461200657601854604051630b80380d60e31b81526001600160a01b0391821660048201529083166024820152604401610959565b6003546bffffffffffffffffffffffff821681111561204f57604051632b30b24760e21b81526bffffffffffffffffffffffff8316600482015260248101829052604401610959565b5f5b845181101561212e5760175485515f916001600160a01b0316906375c1f934908a9089908690811061208557612085613140565b60200260200101516040518363ffffffff1660e01b81526004016120b992919091825263ffffffff16602082015260400190565b602060405180830381865afa1580156120d4573d5f5f3e3d5ffd5b505050506040513d601f19601f820116820180604052508101906120f891906134fa565b90508281101561212557604051632b30b24760e21b81526004810182905260248101849052604401610959565b50600101612051565b50505050505050565b600b546001600160a01b0316156121605760405162dc149f60e41b815260040160405180910390fd5b8051158061217057506020810151155b8061217d57506040810151155b8061218a575060c0810151155b806121985750610100810151155b806121a5575060e0810151155b806121b257506080810151155b806121bf575060a0810151155b156121dd57604051637c946ed760e01b815260040160405180910390fd5b8060a001518160800151101561221957608081015160a082015160405163491a2bb160e01b815260048101929092526024820152604401610959565b60028160600151101561224f57606081015160405163491a2bb160e01b8152600481019190915260026024820152604401610959565b6101a08101516001600160a01b0316158061227657506101c08101516001600160a01b0316155b156122945760405163d92e233d60e01b815260040160405180910390fd5b806101c001516001600160a01b03163b5f036122d5576101c081015160405163601c0c2160e01b81526001600160a01b039091166004820152602401610959565b80515f90815560208201516001556040820151600255606082015160035560a082015160045560c082015160055560e08201516006556101008201516007556101a0820151600b80546001600160a01b039283166001600160a01b0319918216179091556101c0840151600c8054919093169116179055610140820151600855610160820151600955805b8261012001515181101561242e5781836101200151828151811061238657612386613140565b6020026020010151116123ce5782610120015181815181106123aa576123aa613140565b6020026020010151604051632ab10b0b60e21b815260040161095991815260200190565b82610120015181815181106123e5576123e5613140565b602090810291909101015160148054600181810183555f929092527fce6d7b5282bd9a3661ae061feed1dbda4e52ab073b1f9285be6e155d9c38d4ec0182905590925001612360565b506101808201515f0361245457604051637c946ed760e01b815260040160405180910390fd5b610180820151600a55600554608083015161246f9190613154565b600d5560055460a08301516124849190613154565b600e5560e0820151602083015160408401516124a09190613154565b6124aa9190613154565b601255505042601355565b5f6040516323b872dd60e01b5f5284600452836024528260445260205f60645f5f8a5af13d15601f3d1160015f511416171691505f6060528060405250806125325760405163abae3d6d60e01b81526001600160a01b03808716600483015280861660248301528416604482015260648101839052608401610959565b5050505050565b82516060908267ffffffffffffffff81111561255757612557612e01565b604051908082528060200260200182016040528015612580578160200160208202803683370190505b5091505f8367ffffffffffffffff81111561259d5761259d612e01565b6040519080825280602002602001820160405280156125c6578160200160208202803683370190505b5090505f8467ffffffffffffffff8111156125e3576125e3612e01565b60405190808252806020026020018201604052801561260c578160200160208202803683370190505b5090505f8567ffffffffffffffff81111561262957612629612e01565b604051908082528060200260200182016040528015612652578160200160208202803683370190505b5090505f8667ffffffffffffffff81111561266f5761266f612e01565b604051908082528060200260200182016040528015612698578160200160208202803683370190505b5090505f80805b878110156127f4575f8c82815181106126ba576126ba613140565b602002602001015111156127ec578b81815181106126da576126da613140565b60200260200101519150818984815181106126f7576126f7613140565b6020908102919091018101919091525f838152601590915260409020600181015488516001600160a01b039091169089908690811061273857612738613140565b6001600160a01b0392831660209182029290920101528154885191169088908690811061276757612767613140565b60200260200101906001600160a01b031690816001600160a01b0316815250508b828151811061279957612799613140565b60200260200101518685815181106127b3576127b3613140565b602002602001018181525050818585815181106127d2576127d2613140565b6020908102919091010152836127e7816133dc565b945050505b60010161269f565b50885b80156128a2578761280781613511565b98505f9050846128186001846133c9565b8151811061282857612828613140565b602002602001015190506016898154811061284557612845613140565b905f5260205f2001546016828154811061286157612861613140565b5f91825260209091200155601680548061287d5761287d613430565b600190038181905f5260205f20015f90559055508061289b90613511565b90506127f7565b50600f547fd19a3d42ed383465e4058c322d9411aeac76ddb8454d22e139fc99808bd56952898888886040516128db949392919061355f565b60405180910390a2505050505050509392505050565b8060105f82825461290291906133c9565b909155505060185461291e906001600160a01b03168383612b4c565b816001600160a01b03167f884edad9ce6fa2440d8a54cc123490eb96d2768479d49ff9c7366125a94243648260405161295991815260200190565b60405180910390a25050565b6040516001600160a01b03841660248201525f90606090829060440160408051601f198184030181529181526020820180517bffffffffffffffffffffffffffffffffffffffffffffffffffffffff1663d564c4bf60e01b179052600c5490519192505f9182916001600160a01b0316906129e1908590613597565b5f60405180830381855afa9150503d805f8114612a19576040519150601f19603f3d011682016040523d82523d5f602084013e612a1e565b606091505b5091509150818015612a315750603f8151115b8015612a48575060208151612a4691906135ad565b155b15612b415780806020019051810190612a619190613318565b9350838787604051602401612a78939291906135c0565b60408051601f198184030181529181526020820180517bffffffffffffffffffffffffffffffffffffffffffffffffffffffff1663184023a560e01b179052600c5490519194506001600160a01b031690612ad4908590613597565b5f60405180830381855afa9150503d805f8114612b0c576040519150601f19603f3d011682016040523d82523d5f602084013e612b11565b606091505b509092509050818015612b25575080516020145b15612b415780806020019051810190612b3e91906135f5565b94505b505050935093915050565b5f60405163a9059cbb60e01b5f52836004528260245260205f60445f5f895af13d15601f3d1160015f511416171691505f606052806040525080612bc35760405163abae3d6d60e01b81526001600160a01b0380861660048301523060248301528416604482015260648101839052608401610959565b50505050565b828054828255905f5260205f20908101928215612c02579160200282015b82811115612c02578251825591602001919060010190612be7565b50612c0e929150612c30565b5090565b5080545f8255905f5260205f2090810190612c2d9190612c30565b50565b5b80821115612c0e575f8155600101612c31565b6001600160a01b0381168114612c2d575f5ffd5b8035612c6381612c44565b919050565b5f5f5f5f5f60808688031215612c7c575f5ffd5b8535612c8781612c44565b94506020860135612c9781612c44565b935060408601359250606086013567ffffffffffffffff811115612cb9575f5ffd5b8601601f81018813612cc9575f5ffd5b803567ffffffffffffffff811115612cdf575f5ffd5b886020828401011115612cf0575f5ffd5b959894975092955050506020019190565b5f60208284031215612d11575f5ffd5b5035919050565b602081525f60e082016001600160a01b0384511660208401526001600160a01b036020850151166040840152604084015160c06060850152818151808452610100860191506020830193505f92505b80831015612d8a5783518252602082019150602084019350600183019250612d67565b5060608601516080860152608086015160a086015260a086015160c086015280935050505092915050565b5f8151808452602084019350602083015f5b82811015612de5578151865260209586019590910190600101612dc7565b5093949350505050565b602081525f61073c6020830184612db5565b634e487b7160e01b5f52604160045260245ffd5b6040516101e0810167ffffffffffffffff81118282101715612e3957612e39612e01565b60405290565b604051610100810167ffffffffffffffff81118282101715612e3957612e39612e01565b604051601f8201601f1916810167ffffffffffffffff81118282101715612e8c57612e8c612e01565b604052919050565b5f67ffffffffffffffff821115612ead57612ead612e01565b5060051b60200190565b5f82601f830112612ec6575f5ffd5b8135612ed9612ed482612e94565b612e63565b8082825260208201915060208360051b860101925085831115612efa575f5ffd5b602085015b83811015612f17578035835260209283019201612eff565b5095945050505050565b5f5f5f60608486031215612f33575f5ffd5b833567ffffffffffffffff811115612f49575f5ffd5b84016101e08187031215612f5b575f5ffd5b612f63612e15565b813581526020808301359082015260408083013590820152606080830135908201526080808301359082015260a0808301359082015260c0808301359082015260e08083013590820152610100808301359082015261012082013567ffffffffffffffff811115612fd2575f5ffd5b612fde88828501612eb7565b610120830152506101408281013590820152610160808301359082015261018080830135908201526130136101a08301612c58565b6101a08201526130266101c08301612c58565b6101c0820152935061303c905060208501612c58565b915061304a60408501612c58565b90509250925092565b608081525f6130656080830187612db5565b82810360208401526130778187612db5565b9050828103604084015261308b8186612db5565b9050828103606084015261309f8185612db5565b979650505050505050565b634e487b7160e01b5f52602160045260245ffd5b60208101600383106130de57634e487b7160e01b5f52602160045260245ffd5b91905290565b602081525f82518060208401528060208501604085015e5f604082850101526040601f19601f83011684010191505092915050565b634e487b7160e01b5f52601160045260245ffd5b8082018082111561064057610640613119565b634e487b7160e01b5f52603260045260245ffd5b808202811582820484141761064057610640613119565b634e487b7160e01b5f52601260045260245ffd5b5f8261318d5761318d61316b565b500490565b80516bffffffffffffffffffffffff81168114612c63575f5ffd5b8051612c6381612c44565b805163ffffffff81168114612c63575f5ffd5b805160068110612c63575f5ffd5b5f82601f8301126131e8575f5ffd5b81516131f6612ed482612e94565b8082825260208201915060208360051b860101925085831115613217575f5ffd5b602085015b83811015612f175761322d816131b8565b83526020928301920161321c565b5f6020828403121561324b575f5ffd5b815167ffffffffffffffff811115613261575f5ffd5b82016101008185031215613273575f5ffd5b61327b612e3f565b61328482613192565b8152613292602083016131ad565b6020820152604082810151908201526132ad606083016131b8565b60608201526132be608083016131b8565b60808201526132cf60a083016131b8565b60a08201526132e060c083016131cb565b60c082015260e082015167ffffffffffffffff8111156132fe575f5ffd5b61330a868285016131d9565b60e083015250949350505050565b5f60208284031215613328575f5ffd5b815167ffffffffffffffff81111561333e575f5ffd5b8201601f8101841361334e575f5ffd5b805161335c612ed482612e94565b8082825260208201915060208360051b85010192508683111561337d575f5ffd5b6020840193505b8284101561339f578351825260209384019390910190613384565b9695505050505050565b828152604060208201525f6133c16040830184612db5565b949350505050565b8181038181111561064057610640613119565b5f600182016133ed576133ed613119565b5060010190565b848152608060208201525f61340c6080830186612db5565b828103604084015261341e8186612db5565b91505082606083015295945050505050565b634e487b7160e01b5f52603160045260245ffd5b848152608060208201525f61345c6080830186612db5565b6040830194909452506060015292915050565b5f6060820185835260606020840152808554808352608085019150865f5260205f2092505f5b818110156134b3578354835260019384019360209093019201613495565b505060409390930193909352509392505050565b5f5f604083850312156134d8575f5ffd5b82516134e381612c44565b91506134f160208401613192565b90509250929050565b5f6020828403121561350a575f5ffd5b5051919050565b5f8161351f5761351f613119565b505f190190565b5f8151808452602084019350602083015f5b82811015612de55781516001600160a01b0316865260209586019590910190600101613538565b608081525f6135716080830187612db5565b82810360208401526135838187613526565b9050828103604084015261308b8186613526565b5f82518060208501845e5f920191825250919050565b5f826135bb576135bb61316b565b500690565b606081525f6135d26060830186612db5565b82810360208401526135e48186612db5565b915050826040830152949350505050565b5f60208284031215613605575f5ffd5b8151801515811461073c575f5ffdfea264697066735822122076ca9236caf562ccf29669afec12761e99f88ff89303222afe7042633f0f8a3e64736f6c634300081c0033",
  "linkReferences": {},
  "deployedLinkReferences": {}
}