{
  "_format": "hh-sol-artifact-1",
  "contractName": "AgentRegistry",
  "sourceName": "contracts/AgentRegistry.sol",
  "abi": [
    {
      "inputs": [
        {
          "internalType": "string",
          "name": "_name",
          "type": "string"
        },
        {
          "internalType": "string",
          "name": "_symbol",
          "type": "string"
        },
        {
          "internalType": "string",
          "name": "_bURI",
          "type": "string"
        },
        {
          "internalType": "address",
          "name": "_componentRegistry",
          "type": "address"
        }
      ],
      "stateMutability": "nonpayable",
      "type": "constructor"
    },
    {
      "inputs": [
        {
          "internalType": "address",
          "name": "operator",
          "type": "address"
        }
      ],
      "name": "AgentInstanceRegistered",
      "type": "error"
    },
    {
      "inputs": [
        {
          "internalType": "uint256",
          "name": "serviceId",
          "type": "uint256"
        }
      ],
      "name": "AgentInstancesSlotsFilled",
      "type": "error"
    },
    {
      "inputs": [
        {
          "internalType": "uint256",
          "name": "actual",
          "type": "uint256"
        },
        {
          "internalType": "uint256",
          "name": "maxNumAgentInstances",
          "type": "uint256"
        },
        {
          "internalType": "uint256",
          "name": "serviceId",
          "type": "uint256"
        }
      ],
      "name": "AgentInstancesSlotsNotFilled",
      "type": "error"
    },
    {
      "inputs": [
        {
          "internalType": "uint256",
          "name": "agentId",
          "type": "uint256"
        }
      ],
      "name": "AgentNotFound",
      "type": "error"
    },
    {
      "inputs": [
        {
          "internalType": "uint256",
          "name": "agentId",
          "type": "uint256"
        },
        {
          "internalType": "uint256",
          "name": "serviceId",
          "type": "uint256"
        }
      ],
      "name": "AgentNotInService",
      "type": "error"
    },
    {
      "inputs": [
        {
          "internalType": "uint256",
          "name": "provided",
          "type": "uint256"
        },
        {
          "internalType": "uint256",
          "name": "expected",
          "type": "uint256"
        }
      ],
      "name": "AmountLowerThan",
      "type": "error"
    },
    {
      "inputs": [
        {
          "internalType": "uint256",
          "name": "componentId",
          "type": "uint256"
        }
      ],
      "name": "ComponentNotFound",
      "type": "error"
    },
    {
      "inputs": [],
      "name": "EmptyString",
      "type": "error"
    },
    {
      "inputs": [],
      "name": "HashExists",
      "type": "error"
    },
    {
      "inputs": [
        {
          "internalType": "uint256",
          "name": "sent",
          "type": "uint256"
        },
        {
          "internalType": "uint256",
          "name": "expected",
          "type": "uint256"
        },
        {
          "internalType": "uint256",
          "name": "serviceId",
          "type": "uint256"
        }
      ],
      "name": "IncorrectAgentBondingValue",
      "type": "error"
    },
    {
      "inputs": [
        {
          "internalType": "uint256",
          "name": "sent",
          "type": "uint256"
        },
        {
          "internalType": "uint256",
          "name": "expected",
          "type": "uint256"
        },
        {
          "internalType": "uint256",
          "name": "serviceId",
          "type": "uint256"
        }
      ],
      "name": "IncorrectRegistrationDepositValue",
      "type": "error"
    },
    {
      "inputs": [
        {
          "internalType": "address",
          "name": "addr",
          "type": "address"
        },
        {
          "internalType": "uint256",
          "name": "deadline",
          "type": "uint256"
        },
        {
          "internalType": "uint256",
          "name": "curTime",
          "type": "uint256"
        }
      ],
      "name": "LockExpired",
      "type": "error"
    },
    {
      "inputs": [
        {
          "internalType": "address",
          "name": "addr",
          "type": "address"
        },
        {
          "internalType": "uint256",
          "name": "deadline",
          "type": "uint256"
        },
        {
          "internalType": "uint256",
          "name": "curTime",
          "type": "uint256"
        }
      ],
      "name": "LockNotExpired",
      "type": "error"
    },
    {
      "inputs": [
        {
          "internalType": "address",
          "name": "addr",
          "type": "address"
        },
        {
          "internalType": "int128",
          "name": "amount",
          "type": "int128"
        }
      ],
      "name": "LockedValueNotZero",
      "type": "error"
    },
    {
      "inputs": [
        {
          "internalType": "address",
          "name": "sender",
          "type": "address"
        },
        {
          "internalType": "address",
          "name": "manager",
          "type": "address"
        }
      ],
      "name": "ManagerOnly",
      "type": "error"
    },
    {
      "inputs": [
        {
          "internalType": "address",
          "name": "addr",
          "type": "address"
        },
        {
          "internalType": "uint256",
          "name": "maxUnlockTime",
          "type": "uint256"
        },
        {
          "internalType": "uint256",
          "name": "providedUnlockTime",
          "type": "uint256"
        }
      ],
      "name": "MaxUnlockTimeReached",
      "type": "error"
    },
    {
      "inputs": [
        {
          "internalType": "address",
          "name": "addr",
          "type": "address"
        }
      ],
      "name": "NoValueLocked",
      "type": "error"
    },
    {
      "inputs": [],
      "name": "NonZeroValue",
      "type": "error"
    },
    {
      "inputs": [
        {
          "internalType": "address",
          "name": "provided",
          "type": "address"
        },
        {
          "internalType": "address",
          "name": "expected",
          "type": "address"
        },
        {
          "internalType": "uint256",
          "name": "serviceId",
          "type": "uint256"
        }
      ],
      "name": "OnlyOwnServiceMultisig",
      "type": "error"
    },
    {
      "inputs": [
        {
          "internalType": "address",
          "name": "operator",
          "type": "address"
        },
        {
          "internalType": "uint256",
          "name": "serviceId",
          "type": "uint256"
        }
      ],
      "name": "OperatorHasNoInstances",
      "type": "error"
    },
    {
      "inputs": [
        {
          "internalType": "address",
          "name": "tokenAddress",
          "type": "address"
        },
        {
          "internalType": "uint256",
          "name": "productId",
          "type": "uint256"
        },
        {
          "internalType": "uint256",
          "name": "deadline",
          "type": "uint256"
        },
        {
          "internalType": "uint256",
          "name": "curTime",
          "type": "uint256"
        }
      ],
      "name": "ProductExpired",
      "type": "error"
    },
    {
      "inputs": [
        {
          "internalType": "address",
          "name": "tokenAddress",
          "type": "address"
        },
        {
          "internalType": "uint256",
          "name": "productId",
          "type": "uint256"
        },
        {
          "internalType": "uint256",
          "name": "requested",
          "type": "uint256"
        },
        {
          "internalType": "uint256",
          "name": "actual",
          "type": "uint256"
        }
      ],
      "name": "ProductSupplyLow",
      "type": "error"
    },
    {
      "inputs": [
        {
          "internalType": "uint256",
          "name": "serviceId",
          "type": "uint256"
        }
      ],
      "name": "ServiceDoesNotExist",
      "type": "error"
    },
    {
      "inputs": [
        {
          "internalType": "uint256",
          "name": "serviceId",
          "type": "uint256"
        }
      ],
      "name": "ServiceMustBeActive",
      "type": "error"
    },
    {
      "inputs": [
        {
          "internalType": "uint256",
          "name": "serviceId",
          "type": "uint256"
        }
      ],
      "name": "ServiceMustBeInactive",
      "type": "error"
    },
    {
      "inputs": [
        {
          "internalType": "uint256",
          "name": "serviceId",
          "type": "uint256"
        }
      ],
      "name": "ServiceNotFound",
      "type": "error"
    },
    {
      "inputs": [
        {
          "internalType": "uint256",
          "name": "teminationBlock",
          "type": "uint256"
        },
        {
          "internalType": "uint256",
          "name": "curBlock",
          "type": "uint256"
        },
        {
          "internalType": "uint256",
          "name": "serviceId",
          "type": "uint256"
        }
      ],
      "name": "ServiceTerminated",
      "type": "error"
    },
    {
      "inputs": [
        {
          "internalType": "address",
          "name": "token",
          "type": "address"
        },
        {
          "internalType": "address",
          "name": "from",
          "type": "address"
        },
        {
          "internalType": "address",
          "name": "to",
          "type": "address"
        },
        {
          "internalType": "uint256",
          "name": "value",
          "type": "uint256"
        }
      ],
      "name": "TransferFailed",
      "type": "error"
    },
    {
      "inputs": [
        {
          "internalType": "address",
          "name": "tokenAddress",
          "type": "address"
        }
      ],
      "name": "UnauthorizedToken",
      "type": "error"
    },
    {
      "inputs": [
        {
          "internalType": "address",
          "name": "addr",
          "type": "address"
        },
        {
          "internalType": "uint256",
          "name": "minUnlockTime",
          "type": "uint256"
        },
        {
          "internalType": "uint256",
          "name": "providedUnlockTime",
          "type": "uint256"
        }
      ],
      "name": "UnlockTimeIncorrect",
      "type": "error"
    },
    {
      "inputs": [
        {
          "internalType": "uint256",
          "name": "agentId",
          "type": "uint256"
        }
      ],
      "name": "WrongAgentId",
      "type": "error"
    },
    {
      "inputs": [
        {
          "internalType": "uint256",
          "name": "numAgentIds",
          "type": "uint256"
        },
        {
          "internalType": "uint256",
          "name": "numAgentSlots",
          "type": "uint256"
        }
      ],
      "name": "WrongAgentsData",
      "type": "error"
    },
    {
      "inputs": [
        {
          "internalType": "uint256",
          "name": "providedBlockNumber",
          "type": "uint256"
        },
        {
          "internalType": "uint256",
          "name": "actualBlockNumber",
          "type": "uint256"
        }
      ],
      "name": "WrongBlockNumber",
      "type": "error"
    },
    {
      "inputs": [
        {
          "internalType": "uint256",
          "name": "componentId",
          "type": "uint256"
        }
      ],
      "name": "WrongComponentId",
      "type": "error"
    },
    {
      "inputs": [],
      "name": "WrongFunction",
      "type": "error"
    },
    {
      "inputs": [
        {
          "internalType": "uint8",
          "name": "hashFunctionProvided",
          "type": "uint8"
        },
        {
          "internalType": "uint8",
          "name": "hashFunctionNeeded",
          "type": "uint8"
        },
        {
          "internalType": "uint8",
          "name": "sizeProvided",
          "type": "uint8"
        },
        {
          "internalType": "uint8",
          "name": "sizeNeeded",
          "type": "uint8"
        }
      ],
      "name": "WrongHash",
      "type": "error"
    },
    {
      "inputs": [
        {
          "internalType": "uint256",
          "name": "serviceId",
          "type": "uint256"
        }
      ],
      "name": "WrongOperator",
      "type": "error"
    },
    {
      "inputs": [
        {
          "internalType": "uint256",
          "name": "state",
          "type": "uint256"
        },
        {
          "internalType": "uint256",
          "name": "serviceId",
          "type": "uint256"
        }
      ],
      "name": "WrongServiceState",
      "type": "error"
    },
    {
      "inputs": [
        {
          "internalType": "uint256",
          "name": "currentThreshold",
          "type": "uint256"
        },
        {
          "internalType": "uint256",
          "name": "minThreshold",
          "type": "uint256"
        },
        {
          "internalType": "uint256",
          "name": "maxThreshold",
          "type": "uint256"
        }
      ],
      "name": "WrongThreshold",
      "type": "error"
    },
    {
      "inputs": [
        {
          "internalType": "address",
          "name": "provided",
          "type": "address"
        },
        {
          "internalType": "address",
          "name": "expected",
          "type": "address"
        }
      ],
      "name": "WrongTokenAddress",
      "type": "error"
    },
    {
      "inputs": [],
      "name": "ZeroAddress",
      "type": "error"
    },
    {
      "inputs": [],
      "name": "ZeroValue",
      "type": "error"
    },
    {
      "anonymous": false,
      "inputs": [
        {
          "indexed": true,
          "internalType": "address",
          "name": "owner",
          "type": "address"
        },
        {
          "indexed": true,
          "internalType": "address",
          "name": "approved",
          "type": "address"
        },
        {
          "indexed": true,
          "internalType": "uint256",
          "name": "tokenId",
          "type": "uint256"
        }
      ],
      "name": "Approval",
      "type": "event"
    },
    {
      "anonymous": false,
      "inputs": [
        {
          "indexed": true,
          "internalType": "address",
          "name": "owner",
          "type": "address"
        },
        {
          "indexed": true,
          "internalType": "address",
          "name": "operator",
          "type": "address"
        },
        {
          "indexed": false,
          "internalType": "bool",
          "name": "approved",
          "type": "bool"
        }
      ],
      "name": "ApprovalForAll",
      "type": "event"
    },
    {
      "anonymous": false,
      "inputs": [
        {
          "indexed": true,
          "internalType": "address",
          "name": "previousOwner",
          "type": "address"
        },
        {
          "indexed": true,
          "internalType": "address",
          "name": "newOwner",
          "type": "address"
        }
      ],
      "name": "OwnershipTransferred",
      "type": "event"
    },
    {
      "anonymous": false,
      "inputs": [
        {
          "indexed": true,
          "internalType": "address",
          "name": "from",
          "type": "address"
        },
        {
          "indexed": true,
          "internalType": "address",
          "name": "to",
          "type": "address"
        },
        {
          "indexed": true,
          "internalType": "uint256",
          "name": "tokenId",
          "type": "uint256"
        }
      ],
      "name": "Transfer",
      "type": "event"
    },
    {
      "inputs": [],
      "name": "_BASEURI",
      "outputs": [
        {
          "internalType": "string",
          "name": "",
          "type": "string"
        }
      ],
      "stateMutability": "view",
      "type": "function"
    },
    {
      "inputs": [
        {
          "internalType": "address",
          "name": "to",
          "type": "address"
        },
        {
          "internalType": "uint256",
          "name": "tokenId",
          "type": "uint256"
        }
      ],
      "name": "approve",
      "outputs": [],
      "stateMutability": "nonpayable",
      "type": "function"
    },
    {
      "inputs": [
        {
          "internalType": "address",
          "name": "owner",
          "type": "address"
        }
      ],
      "name": "balanceOf",
      "outputs": [
        {
          "internalType": "uint256",
          "name": "",
          "type": "uint256"
        }
      ],
      "stateMutability": "view",
      "type": "function"
    },
    {
      "inputs": [
        {
          "internalType": "address",
          "name": "newManager",
          "type": "address"
        }
      ],
      "name": "changeManager",
      "outputs": [],
      "stateMutability": "nonpayable",
      "type": "function"
    },
    {
      "inputs": [],
      "name": "componentRegistry",
      "outputs": [
        {
          "internalType": "address",
          "name": "",
          "type": "address"
        }
      ],
      "stateMutability": "view",
      "type": "function"
    },
    {
      "inputs": [
        {
          "internalType": "address",
          "name": "owner",
          "type": "address"
        },
        {
          "internalType": "address",
          "name": "developer",
          "type": "address"
        },
        {
          "components": [
            {
              "internalType": "bytes32",
              "name": "hash",
              "type": "bytes32"
            },
            {
              "internalType": "uint8",
              "name": "hashFunction",
              "type": "uint8"
            },
            {
              "internalType": "uint8",
              "name": "size",
              "type": "uint8"
            }
          ],
          "internalType": "struct IStructs.Multihash",
          "name": "agentHash",
          "type": "tuple"
        },
        {
          "internalType": "string",
          "name": "description",
          "type": "string"
        },
        {
          "internalType": "uint256[]",
          "name": "dependencies",
          "type": "uint256[]"
        }
      ],
      "name": "create",
      "outputs": [
        {
          "internalType": "uint256",
          "name": "",
          "type": "uint256"
        }
      ],
      "stateMutability": "nonpayable",
      "type": "function"
    },
    {
      "inputs": [
        {
          "internalType": "uint256",
          "name": "tokenId",
          "type": "uint256"
        }
      ],
      "name": "exists",
      "outputs": [
        {
          "internalType": "bool",
          "name": "",
          "type": "bool"
        }
      ],
      "stateMutability": "view",
      "type": "function"
    },
    {
      "inputs": [
        {
          "internalType": "uint256",
          "name": "tokenId",
          "type": "uint256"
        }
      ],
      "name": "getApproved",
      "outputs": [
        {
          "internalType": "address",
          "name": "",
          "type": "address"
        }
      ],
      "stateMutability": "view",
      "type": "function"
    },
    {
      "inputs": [],
      "name": "getBaseURI",
      "outputs": [
        {
          "internalType": "string",
          "name": "",
          "type": "string"
        }
      ],
      "stateMutability": "view",
      "type": "function"
    },
    {
      "inputs": [
        {
          "internalType": "uint256",
          "name": "tokenId",
          "type": "uint256"
        }
      ],
      "name": "getDependencies",
      "outputs": [
        {
          "internalType": "uint256",
          "name": "numDependencies",
          "type": "uint256"
        },
        {
          "internalType": "uint256[]",
          "name": "dependencies",
          "type": "uint256[]"
        }
      ],
      "stateMutability": "view",
      "type": "function"
    },
    {
      "inputs": [
        {
          "internalType": "uint256",
          "name": "tokenId",
          "type": "uint256"
        }
      ],
      "name": "getHashes",
      "outputs": [
        {
          "internalType": "uint256",
          "name": "numHashes",
          "type": "uint256"
        },
        {
          "components": [
            {
              "internalType": "bytes32",
              "name": "hash",
              "type": "bytes32"
            },
            {
              "internalType": "uint8",
              "name": "hashFunction",
              "type": "uint8"
            },
            {
              "internalType": "uint8",
              "name": "size",
              "type": "uint8"
            }
          ],
          "internalType": "struct IStructs.Multihash[]",
          "name": "agentHashes",
          "type": "tuple[]"
        }
      ],
      "stateMutability": "view",
      "type": "function"
    },
    {
      "inputs": [
        {
          "internalType": "uint256",
          "name": "tokenId",
          "type": "uint256"
        }
      ],
      "name": "getInfo",
      "outputs": [
        {
          "internalType": "address",
          "name": "owner",
          "type": "address"
        },
        {
          "internalType": "address",
          "name": "developer",
          "type": "address"
        },
        {
          "components": [
            {
              "internalType": "bytes32",
              "name": "hash",
              "type": "bytes32"
            },
            {
              "internalType": "uint8",
              "name": "hashFunction",
              "type": "uint8"
            },
            {
              "internalType": "uint8",
              "name": "size",
              "type": "uint8"
            }
          ],
          "internalType": "struct IStructs.Multihash",
          "name": "agentHash",
          "type": "tuple"
        },
        {
          "internalType": "string",
          "name": "description",
          "type": "string"
        },
        {
          "internalType": "uint256",
          "name": "numDependencies",
          "type": "uint256"
        },
        {
          "internalType": "uint256[]",
          "name": "dependencies",
          "type": "uint256[]"
        }
      ],
      "stateMutability": "view",
      "type": "function"
    },
    {
      "inputs": [
        {
          "internalType": "address",
          "name": "owner",
          "type": "address"
        },
        {
          "internalType": "address",
          "name": "operator",
          "type": "address"
        }
      ],
      "name": "isApprovedForAll",
      "outputs": [
        {
          "internalType": "bool",
          "name": "",
          "type": "bool"
        }
      ],
      "stateMutability": "view",
      "type": "function"
    },
    {
      "inputs": [],
      "name": "name",
      "outputs": [
        {
          "internalType": "string",
          "name": "",
          "type": "string"
        }
      ],
      "stateMutability": "view",
      "type": "function"
    },
    {
      "inputs": [],
      "name": "owner",
      "outputs": [
        {
          "internalType": "address",
          "name": "",
          "type": "address"
        }
      ],
      "stateMutability": "view",
      "type": "function"
    },
    {
      "inputs": [
        {
          "internalType": "uint256",
          "name": "tokenId",
          "type": "uint256"
        }
      ],
      "name": "ownerOf",
      "outputs": [
        {
          "internalType": "address",
          "name": "",
          "type": "address"
        }
      ],
      "stateMutability": "view",
      "type": "function"
    },
    {
      "inputs": [],
      "name": "renounceOwnership",
      "outputs": [],
      "stateMutability": "nonpayable",
      "type": "function"
    },
    {
      "inputs": [
        {
          "internalType": "address",
          "name": "from",
          "type": "address"
        },
        {
          "internalType": "address",
          "name": "to",
          "type": "address"
        },
        {
          "internalType": "uint256",
          "name": "tokenId",
          "type": "uint256"
        }
      ],
      "name": "safeTransferFrom",
      "outputs": [],
      "stateMutability": "nonpayable",
      "type": "function"
    },
    {
      "inputs": [
        {
          "internalType": "address",
          "name": "from",
          "type": "address"
        },
        {
          "internalType": "address",
          "name": "to",
          "type": "address"
        },
        {
          "internalType": "uint256",
          "name": "tokenId",
          "type": "uint256"
        },
        {
          "internalType": "bytes",
          "name": "_data",
          "type": "bytes"
        }
      ],
      "name": "safeTransferFrom",
      "outputs": [],
      "stateMutability": "nonpayable",
      "type": "function"
    },
    {
      "inputs": [
        {
          "internalType": "address",
          "name": "operator",
          "type": "address"
        },
        {
          "internalType": "bool",
          "name": "approved",
          "type": "bool"
        }
      ],
      "name": "setApprovalForAll",
      "outputs": [],
      "stateMutability": "nonpayable",
      "type": "function"
    },
    {
      "inputs": [
        {
          "internalType": "string",
          "name": "bURI",
          "type": "string"
        }
      ],
      "name": "setBaseURI",
      "outputs": [],
      "stateMutability": "nonpayable",
      "type": "function"
    },
    {
      "inputs": [
        {
          "internalType": "bytes4",
          "name": "interfaceId",
          "type": "bytes4"
        }
      ],
      "name": "supportsInterface",
      "outputs": [
        {
          "internalType": "bool",
          "name": "",
          "type": "bool"
        }
      ],
      "stateMutability": "view",
      "type": "function"
    },
    {
      "inputs": [],
      "name": "symbol",
      "outputs": [
        {
          "internalType": "string",
          "name": "",
          "type": "string"
        }
      ],
      "stateMutability": "view",
      "type": "function"
    },
    {
      "inputs": [
        {
          "internalType": "uint256",
          "name": "index",
          "type": "uint256"
        }
      ],
      "name": "tokenByIndex",
      "outputs": [
        {
          "internalType": "uint256",
          "name": "",
          "type": "uint256"
        }
      ],
      "stateMutability": "view",
      "type": "function"
    },
    {
      "inputs": [
        {
          "internalType": "address",
          "name": "owner",
          "type": "address"
        },
        {
          "internalType": "uint256",
          "name": "index",
          "type": "uint256"
        }
      ],
      "name": "tokenOfOwnerByIndex",
      "outputs": [
        {
          "internalType": "uint256",
          "name": "",
          "type": "uint256"
        }
      ],
      "stateMutability": "view",
      "type": "function"
    },
    {
      "inputs": [
        {
          "internalType": "uint256",
          "name": "tokenId",
          "type": "uint256"
        }
      ],
      "name": "tokenURI",
      "outputs": [
        {
          "internalType": "string",
          "name": "",
          "type": "string"
        }
      ],
      "stateMutability": "view",
      "type": "function"
    },
    {
      "inputs": [],
      "name": "totalSupply",
      "outputs": [
        {
          "internalType": "uint256",
          "name": "",
          "type": "uint256"
        }
      ],
      "stateMutability": "view",
      "type": "function"
    },
    {
      "inputs": [
        {
          "internalType": "address",
          "name": "from",
          "type": "address"
        },
        {
          "internalType": "address",
          "name": "to",
          "type": "address"
        },
        {
          "internalType": "uint256",
          "name": "tokenId",
          "type": "uint256"
        }
      ],
      "name": "transferFrom",
      "outputs": [],
      "stateMutability": "nonpayable",
      "type": "function"
    },
    {
      "inputs": [
        {
          "internalType": "address",
          "name": "newOwner",
          "type": "address"
        }
      ],
      "name": "transferOwnership",
      "outputs": [],
      "stateMutability": "nonpayable",
      "type": "function"
    },
    {
      "inputs": [
        {
          "internalType": "address",
          "name": "owner",
          "type": "address"
        },
        {
          "internalType": "uint256",
          "name": "tokenId",
          "type": "uint256"
        },
        {
          "components": [
            {
              "internalType": "bytes32",
              "name": "hash",
              "type": "bytes32"
            },
            {
              "internalType": "uint8",
              "name": "hashFunction",
              "type": "uint8"
            },
            {
              "internalType": "uint8",
              "name": "size",
              "type": "uint8"
            }
          ],
          "internalType": "struct IStructs.Multihash",
          "name": "agentHash",
          "type": "tuple"
        }
      ],
      "name": "updateHash",
      "outputs": [
        {
          "internalType": "bool",
          "name": "success",
          "type": "bool"
        }
      ],
      "stateMutability": "nonpayable",
      "type": "function"
    }
  ],
  "bytecode": "0x60a06040523480156200001157600080fd5b50604051620030d1380380620030d1833981016040819052620000349162000264565b8351849084906200004d9060009060208501906200010b565b508051620000639060019060208401906200010b565b505050620000806200007a620000b560201b60201c565b620000b9565b6001600b5581516200009a90600c9060208501906200010b565b5060601b6001600160601b0319166080525062000365915050565b3390565b600a80546001600160a01b038381166001600160a01b0319831681179093556040519116919082907f8be0079c531659141344cd1fd0a4f28419497f9722a3daafe3b4186f6b6457e090600090a35050565b828054620001199062000312565b90600052602060002090601f0160209004810192826200013d576000855562000188565b82601f106200015857805160ff191683800117855562000188565b8280016001018555821562000188579182015b82811115620001885782518255916020019190600101906200016b565b50620001969291506200019a565b5090565b5b808211156200019657600081556001016200019b565b600082601f830112620001c2578081fd5b81516001600160401b0380821115620001df57620001df6200034f565b604051601f8301601f19908116603f011681019082821181831017156200020a576200020a6200034f565b8160405283815260209250868385880101111562000226578485fd5b8491505b838210156200024957858201830151818301840152908201906200022a565b838211156200025a57848385830101525b9695505050505050565b600080600080608085870312156200027a578384fd5b84516001600160401b038082111562000291578586fd5b6200029f88838901620001b1565b95506020870151915080821115620002b5578485fd5b620002c388838901620001b1565b94506040870151915080821115620002d9578384fd5b50620002e887828801620001b1565b606087015190935090506001600160a01b038116811462000307578182fd5b939692955090935050565b600181811c908216806200032757607f821691505b602082108114156200034957634e487b7160e01b600052602260045260246000fd5b50919050565b634e487b7160e01b600052604160045260246000fd5b60805160601c612d466200038b600039600081816104640152610fe70152612d466000f3fe608060405234801561001057600080fd5b50600436106101da5760003560e01c80636352211e1161010457806395d89b41116100a2578063c87b56dd11610071578063c87b56dd146103fd578063e985e9c514610410578063f2fde38b1461044c578063ff0039cb1461045f57600080fd5b806395d89b41146103bc578063a22cb465146103c4578063a3fbbaae146103d7578063b88d4fde146103ea57600080fd5b8063714c5398116100de578063714c539814610393578063715018a61461039b5780638da5cb5b146103a3578063907e21ed146103b457600080fd5b80636352211e1461034c578063661a0d0b1461035f57806370a082311461038057600080fd5b806323b872dd1161017c5780634f558e791161014b5780634f558e79146103005780634f6ccce71461031357806355f804b3146103265780635a43eb751461033957600080fd5b806323b872dd146102b45780632f745c59146102c75780633199a76d146102da57806342842e0e146102ed57600080fd5b8063081812fc116101b8578063081812fc1461023d578063095ea7b31461026857806318160ddd1461027d5780631a3cd59a1461028f57600080fd5b806301ffc9a7146101df57806302a8ca101461020757806306fdde0314610228575b600080fd5b6101f26101ed366004612931565b610486565b60405190151581526020015b60405180910390f35b61021a61021536600461299c565b6104ca565b6040516101fe929190612b14565b6102306105a1565b6040516101fe9190612b01565b61025061024b36600461299c565b610633565b6040516001600160a01b0390911681526020016101fe565b61027b6102763660046128b0565b6106c8565b005b6008545b6040519081526020016101fe565b6102a261029d36600461299c565b6107fa565b6040516101fe96959493929190612a49565b61027b6102c23660046127c6565b6109eb565b6102816102d53660046128b0565b610a72565b6101f26102e83660046128d9565b610b1a565b61027b6102fb3660046127c6565b610c8f565b6101f261030e36600461299c565b610caa565b61028161032136600461299c565b610cc9565b61027b610334366004612969565b610d7b565b6102816103473660046126c5565b610dec565b61025061035a36600461299c565b61118c565b61037261036d36600461299c565b611217565b6040516101fe929190612b87565b61028161038e366004612679565b6112c4565b61023061135e565b61027b61136d565b600a546001600160a01b0316610250565b6102306113d3565b610230611461565b61027b6103d236600461287a565b611470565b61027b6103e5366004612679565b61147b565b61027b6103f8366004612801565b6114f7565b61023061040b36600461299c565b611585565b6101f261041e366004612693565b6001600160a01b03918216600090815260056020908152604080832093909416825291909152205460ff1690565b61027b61045a366004612679565b61166e565b6102507f000000000000000000000000000000000000000000000000000000000000000081565b60006001600160e01b031982167f780e9d630000000000000000000000000000000000000000000000000000000014806104c457506104c482611750565b92915050565b6000818152600260205260408120546060906001600160a01b031661050a57604051630ede975960e01b8152600481018490526024015b60405180910390fd5b6000838152600f6020908152604080832060018101805483518186028101860190945280845291949193909291839185919084015b8282101561059157600084815260209081902060408051606081018252600286029092018054835260019081015460ff808216858701526101009091041691830191909152908352909201910161053f565b5050505090509250925050915091565b6060600080546105b090612c40565b80601f01602080910402602001604051908101604052809291908181526020018280546105dc90612c40565b80156106295780601f106105fe57610100808354040283529160200191610629565b820191906000526020600020905b81548152906001019060200180831161060c57829003601f168201915b5050505050905090565b6000818152600260205260408120546001600160a01b03166106ac5760405162461bcd60e51b815260206004820152602c60248201527f4552433732313a20617070726f76656420717565727920666f72206e6f6e657860448201526b34b9ba32b73a103a37b5b2b760a11b6064820152608401610501565b506000908152600460205260409020546001600160a01b031690565b60006106d38261118c565b9050806001600160a01b0316836001600160a01b0316141561075d5760405162461bcd60e51b815260206004820152602160248201527f4552433732313a20617070726f76616c20746f2063757272656e74206f776e6560448201527f72000000000000000000000000000000000000000000000000000000000000006064820152608401610501565b336001600160a01b03821614806107795750610779813361041e565b6107eb5760405162461bcd60e51b815260206004820152603860248201527f4552433732313a20617070726f76652063616c6c6572206973206e6f74206f7760448201527f6e6572206e6f7220617070726f76656420666f7220616c6c00000000000000006064820152608401610501565b6107f583836117eb565b505050565b60408051606081018252600080825260208201819052918101829052819060606000606061083f876000908152600260205260409020546001600160a01b0316151590565b61085f57604051630ede975960e01b815260048101889052602401610501565b6000878152600f602052604090206108768861118c565b81546001830180546001600160a01b03909216916000906108a757634e487b7160e01b600052603260045260246000fd5b6000918252602091829020600386018054604080516060810182526002958602909401805485526001015460ff808216978601979097526101009004909516948301949094529186018054919390929091839061090390612c40565b80601f016020809104026020016040519081016040528092919081815260200182805461092f90612c40565b801561097c5780601f106109515761010080835404028352916020019161097c565b820191906000526020600020905b81548152906001019060200180831161095f57829003601f168201915b50505050509250808054806020026020016040519081016040528092919081815260200182805480156109ce57602002820191906000526020600020905b8154815260200190600101908083116109ba575b505050505090509650965096509650965096505091939550919395565b6109f53382611859565b610a675760405162461bcd60e51b815260206004820152603160248201527f4552433732313a207472616e736665722063616c6c6572206973206e6f74206f60448201527f776e6572206e6f7220617070726f7665640000000000000000000000000000006064820152608401610501565b6107f5838383611950565b6000610a7d836112c4565b8210610af15760405162461bcd60e51b815260206004820152602b60248201527f455243373231456e756d657261626c653a206f776e657220696e646578206f7560448201527f74206f6620626f756e64730000000000000000000000000000000000000000006064820152608401610501565b506001600160a01b03919091166000908152600660209081526040808320938352929052205490565b600e546000906001600160a01b03163314610b5d57600e5460405163312d21ff60e11b81523360048201526001600160a01b039091166024820152604401610501565b81806020015160ff166012141580610b7d5750806040015160ff16602014155b15610bc25760208181015160408084015190516376916ba560e01b815260ff928316600482015260126024820152911660448201526064810191909152608401610501565b805160009081526010602052604090205415610bf15760405163309573ad60e01b815260040160405180910390fd5b846001600160a01b0316610c048561118c565b6001600160a01b031614610c2e57604051630ede975960e01b815260048101859052602401610501565b50506000918252600f60209081526040808420600190810180548083018255908652948390208451600290960201948555918301519382018054939091015160ff9081166101000261ffff1990941694169390931791909117909155919050565b6107f5838383604051806020016040528060008152506114f7565b6000818152600260205260408120546001600160a01b031615156104c4565b6000610cd460085490565b8210610d485760405162461bcd60e51b815260206004820152602c60248201527f455243373231456e756d657261626c653a20676c6f62616c20696e646578206f60448201527f7574206f6620626f756e647300000000000000000000000000000000000000006064820152608401610501565b60088281548110610d6957634e487b7160e01b600052603260045260246000fd5b90600052602060002001549050919050565b600a546001600160a01b03163314610dd55760405162461bcd60e51b815260206004820181905260248201527f4f776e61626c653a2063616c6c6572206973206e6f7420746865206f776e65726044820152606401610501565b8051610de890600c90602084019061249b565b5050565b600e546000906001600160a01b03163314610e2f57600e5460405163312d21ff60e11b81523360048201526001600160a01b039091166024820152604401610501565b83806020015160ff166012141580610e4f5750806040015160ff16602014155b15610e945760208181015160408084015190516376916ba560e01b815260ff928316600482015260126024820152911660448201526064810191909152608401610501565b805160009081526010602052604090205415610ec35760405163309573ad60e01b815260040160405180910390fd5b6002600b541415610f165760405162461bcd60e51b815260206004820152601f60248201527f5265656e7472616e637947756172643a207265656e7472616e742063616c6c006044820152606401610501565b6002600b556001600160a01b0387161580610f3857506001600160a01b038616155b15610f6f576040517fd92e233d00000000000000000000000000000000000000000000000000000000815260040160405180910390fd5b8351610fa7576040517fecd7b0d100000000000000000000000000000000000000000000000000000000815260040160405180910390fd5b6000805b845181101561114b5781858281518110610fd557634e487b7160e01b600052603260045260246000fd5b60200260200101511115806110ac57507f00000000000000000000000000000000000000000000000000000000000000006001600160a01b0316634f558e7986838151811061103457634e487b7160e01b600052603260045260246000fd5b60200260200101516040518263ffffffff1660e01b815260040161105a91815260200190565b60206040518083038186803b15801561107257600080fd5b505afa158015611086573d6000803e3d6000fd5b505050506040513d601f19601f820116820180604052508101906110aa9190612915565b155b1561110e578481815181106110d157634e487b7160e01b600052603260045260246000fd5b60200260200101516040517fdaa269c200000000000000000000000000000000000000000000000000000000815260040161050191815260200190565b84818151811061112e57634e487b7160e01b600052603260045260246000fd5b60200260200101519150808061114390612c7b565b915050610fab565b50600d805490600061115c83612c7b565b9091555050600d546111718189898989611b28565b61117b8982611bef565b6001600b5598975050505050505050565b6000818152600260205260408120546001600160a01b0316806104c45760405162461bcd60e51b815260206004820152602960248201527f4552433732313a206f776e657220717565727920666f72206e6f6e657869737460448201527f656e7420746f6b656e00000000000000000000000000000000000000000000006064820152608401610501565b6000818152600260205260408120546060906001600160a01b031661125257604051630ede975960e01b815260048101849052602401610501565b6000838152600f602090815260409182902060038101805484518185028101850190955280855291939192909190829084908301828280156112b357602002820191906000526020600020905b81548152602001906001019080831161129f575b505050505090509250925050915091565b60006001600160a01b0382166113425760405162461bcd60e51b815260206004820152602a60248201527f4552433732313a2062616c616e636520717565727920666f7220746865207a6560448201527f726f2061646472657373000000000000000000000000000000000000000000006064820152608401610501565b506001600160a01b031660009081526003602052604090205490565b6060611368611c09565b905090565b600a546001600160a01b031633146113c75760405162461bcd60e51b815260206004820181905260248201527f4f776e61626c653a2063616c6c6572206973206e6f7420746865206f776e65726044820152606401610501565b6113d16000611c18565b565b600c80546113e090612c40565b80601f016020809104026020016040519081016040528092919081815260200182805461140c90612c40565b80156114595780601f1061142e57610100808354040283529160200191611459565b820191906000526020600020905b81548152906001019060200180831161143c57829003601f168201915b505050505081565b6060600180546105b090612c40565b610de8338383611c6a565b600a546001600160a01b031633146114d55760405162461bcd60e51b815260206004820181905260248201527f4f776e61626c653a2063616c6c6572206973206e6f7420746865206f776e65726044820152606401610501565b600e80546001600160a01b0319166001600160a01b0392909216919091179055565b6115013383611859565b6115735760405162461bcd60e51b815260206004820152603160248201527f4552433732313a207472616e736665722063616c6c6572206973206e6f74206f60448201527f776e6572206e6f7220617070726f7665640000000000000000000000000000006064820152608401610501565b61157f84848484611d39565b50505050565b6000818152600260205260409020546060906001600160a01b03166116125760405162461bcd60e51b815260206004820152602f60248201527f4552433732314d657461646174613a2055524920717565727920666f72206e6f60448201527f6e6578697374656e7420746f6b656e00000000000000000000000000000000006064820152608401610501565b600061161c611c09565b9050600081511161163c5760405180602001604052806000815250611667565b8061164684611db7565b604051602001611657929190612a1a565b6040516020818303038152906040525b9392505050565b600a546001600160a01b031633146116c85760405162461bcd60e51b815260206004820181905260248201527f4f776e61626c653a2063616c6c6572206973206e6f7420746865206f776e65726044820152606401610501565b6001600160a01b0381166117445760405162461bcd60e51b815260206004820152602660248201527f4f776e61626c653a206e6577206f776e657220697320746865207a65726f206160448201527f64647265737300000000000000000000000000000000000000000000000000006064820152608401610501565b61174d81611c18565b50565b60006001600160e01b031982167f80ac58cd0000000000000000000000000000000000000000000000000000000014806117b357506001600160e01b031982167f5b5e139f00000000000000000000000000000000000000000000000000000000145b806104c457507f01ffc9a7000000000000000000000000000000000000000000000000000000006001600160e01b03198316146104c4565b600081815260046020526040902080546001600160a01b0319166001600160a01b03841690811790915581906118208261118c565b6001600160a01b03167f8c5be1e5ebec7d5bd14f71427d1e84f3dd0314c0f7b2291e5b200ac8c7c3b92560405160405180910390a45050565b6000818152600260205260408120546001600160a01b03166118d25760405162461bcd60e51b815260206004820152602c60248201527f4552433732313a206f70657261746f7220717565727920666f72206e6f6e657860448201526b34b9ba32b73a103a37b5b2b760a11b6064820152608401610501565b60006118dd8361118c565b9050806001600160a01b0316846001600160a01b031614806119185750836001600160a01b031661190d84610633565b6001600160a01b0316145b8061194857506001600160a01b0380821660009081526005602090815260408083209388168352929052205460ff165b949350505050565b826001600160a01b03166119638261118c565b6001600160a01b0316146119df5760405162461bcd60e51b815260206004820152602960248201527f4552433732313a207472616e73666572206f6620746f6b656e2074686174206960448201527f73206e6f74206f776e00000000000000000000000000000000000000000000006064820152608401610501565b6001600160a01b038216611a5a5760405162461bcd60e51b8152602060048201526024808201527f4552433732313a207472616e7366657220746f20746865207a65726f2061646460448201527f72657373000000000000000000000000000000000000000000000000000000006064820152608401610501565b611a65838383611f05565b611a706000826117eb565b6001600160a01b0383166000908152600360205260408120805460019290611a99908490612bfd565b90915550506001600160a01b0382166000908152600360205260408120805460019290611ac7908490612bd1565b909155505060008181526002602052604080822080546001600160a01b0319166001600160a01b0386811691821790925591518493918716917fddf252ad1be2c89b69c2b068fc378daa952ba7f163c4a11628f55a4df523b3ef91a4505050565b6000858152600f6020908152604080832080546001600160a01b0389166001600160a01b0319909116178155600180820180548083018255908652948490208851600296870290910190815588850151910180549389015160ff9081166101000261ffff199095169216919091179290921790915584519092611bb292908401919086019061249b565b508151611bc8906003830190602085019061251f565b50600401805460ff1916600117905550505160009081526010602052604090209190915550565b610de8828260405180602001604052806000815250611fbd565b6060600c80546105b090612c40565b600a80546001600160a01b038381166001600160a01b0319831681179093556040519116919082907f8be0079c531659141344cd1fd0a4f28419497f9722a3daafe3b4186f6b6457e090600090a35050565b816001600160a01b0316836001600160a01b03161415611ccc5760405162461bcd60e51b815260206004820152601960248201527f4552433732313a20617070726f766520746f2063616c6c6572000000000000006044820152606401610501565b6001600160a01b03838116600081815260056020908152604080832094871680845294825291829020805460ff191686151590811790915591519182527f17307eab39ab6107e8899845ad3d59bd9653f200f220920489ca2b5937696c31910160405180910390a3505050565b611d44848484611950565b611d508484848461203b565b61157f5760405162461bcd60e51b815260206004820152603260248201527f4552433732313a207472616e7366657220746f206e6f6e20455243373231526560448201527131b2b4bb32b91034b6b83632b6b2b73a32b960711b6064820152608401610501565b606081611df757505060408051808201909152600181527f3000000000000000000000000000000000000000000000000000000000000000602082015290565b8160005b8115611e215780611e0b81612c7b565b9150611e1a9050600a83612be9565b9150611dfb565b60008167ffffffffffffffff811115611e4a57634e487b7160e01b600052604160045260246000fd5b6040519080825280601f01601f191660200182016040528015611e74576020820181803683370190505b5090505b841561194857611e89600183612bfd565b9150611e96600a86612c96565b611ea1906030612bd1565b60f81b818381518110611ec457634e487b7160e01b600052603260045260246000fd5b60200101907effffffffffffffffffffffffffffffffffffffffffffffffffffffffffffff1916908160001a905350611efe600a86612be9565b9450611e78565b6001600160a01b038316611f6057611f5b81600880546000838152600960205260408120829055600182018355919091527ff3f7a9fe364faab93b216da50a3214154f22a0a2b415b23a84c8169e8b636ee30155565b611f83565b816001600160a01b0316836001600160a01b031614611f8357611f838382612193565b6001600160a01b038216611f9a576107f581612230565b826001600160a01b0316826001600160a01b0316146107f5576107f58282612309565b611fc7838361234d565b611fd4600084848461203b565b6107f55760405162461bcd60e51b815260206004820152603260248201527f4552433732313a207472616e7366657220746f206e6f6e20455243373231526560448201527131b2b4bb32b91034b6b83632b6b2b73a32b960711b6064820152608401610501565b60006001600160a01b0384163b1561218857604051630a85bd0160e11b81526001600160a01b0385169063150b7a029061207f903390899088908890600401612ac5565b602060405180830381600087803b15801561209957600080fd5b505af19250505080156120c9575060408051601f3d908101601f191682019092526120c69181019061294d565b60015b61216e573d8080156120f7576040519150601f19603f3d011682016040523d82523d6000602084013e6120fc565b606091505b5080516121665760405162461bcd60e51b815260206004820152603260248201527f4552433732313a207472616e7366657220746f206e6f6e20455243373231526560448201527131b2b4bb32b91034b6b83632b6b2b73a32b960711b6064820152608401610501565b805181602001fd5b6001600160e01b031916630a85bd0160e11b149050611948565b506001949350505050565b600060016121a0846112c4565b6121aa9190612bfd565b6000838152600760205260409020549091508082146121fd576001600160a01b03841660009081526006602090815260408083208584528252808320548484528184208190558352600790915290208190555b5060009182526007602090815260408084208490556001600160a01b039094168352600681528383209183525290812055565b60085460009061224290600190612bfd565b6000838152600960205260408120546008805493945090928490811061227857634e487b7160e01b600052603260045260246000fd5b9060005260206000200154905080600883815481106122a757634e487b7160e01b600052603260045260246000fd5b60009182526020808320909101929092558281526009909152604080822084905585825281205560088054806122ed57634e487b7160e01b600052603160045260246000fd5b6001900381819060005260206000200160009055905550505050565b6000612314836112c4565b6001600160a01b039093166000908152600660209081526040808320868452825280832085905593825260079052919091209190915550565b6001600160a01b0382166123a35760405162461bcd60e51b815260206004820181905260248201527f4552433732313a206d696e7420746f20746865207a65726f20616464726573736044820152606401610501565b6000818152600260205260409020546001600160a01b0316156124085760405162461bcd60e51b815260206004820152601c60248201527f4552433732313a20746f6b656e20616c7265616479206d696e746564000000006044820152606401610501565b61241460008383611f05565b6001600160a01b038216600090815260036020526040812080546001929061243d908490612bd1565b909155505060008181526002602052604080822080546001600160a01b0319166001600160a01b03861690811790915590518392907fddf252ad1be2c89b69c2b068fc378daa952ba7f163c4a11628f55a4df523b3ef908290a45050565b8280546124a790612c40565b90600052602060002090601f0160209004810192826124c9576000855561250f565b82601f106124e257805160ff191683800117855561250f565b8280016001018555821561250f579182015b8281111561250f5782518255916020019190600101906124f4565b5061251b929150612559565b5090565b82805482825590600052602060002090810192821561250f579160200282018281111561250f5782518255916020019190600101906124f4565b5b8082111561251b576000815560010161255a565b600067ffffffffffffffff83111561258857612588612cd6565b61259b601f8401601f1916602001612ba0565b90508281528383830111156125af57600080fd5b828260208301376000602084830101529392505050565b80356001600160a01b03811681146125dd57600080fd5b919050565b600082601f8301126125f2578081fd5b6116678383356020850161256e565b600060608284031215612612578081fd5b6040516060810181811067ffffffffffffffff8211171561263557612635612cd6565b6040528235815290508061264b60208401612668565b602082015261265c60408401612668565b60408201525092915050565b803560ff811681146125dd57600080fd5b60006020828403121561268a578081fd5b611667826125c6565b600080604083850312156126a5578081fd5b6126ae836125c6565b91506126bc602084016125c6565b90509250929050565b600080600080600060e086880312156126dc578081fd5b6126e5866125c6565b945060206126f48188016125c6565b94506127038860408901612601565b935060a087013567ffffffffffffffff8082111561271f578384fd5b61272b8a838b016125e2565b945060c0890135915080821115612740578384fd5b818901915089601f830112612753578384fd5b81358181111561276557612765612cd6565b8060051b9150612776848301612ba0565b8181528481019084860184860187018e1015612790578788fd5b8795505b838610156127b2578035835260019590950194918601918601612794565b508096505050505050509295509295909350565b6000806000606084860312156127da578283fd5b6127e3846125c6565b92506127f1602085016125c6565b9150604084013590509250925092565b60008060008060808587031215612816578384fd5b61281f856125c6565b935061282d602086016125c6565b925060408501359150606085013567ffffffffffffffff81111561284f578182fd5b8501601f8101871361285f578182fd5b61286e8782356020840161256e565b91505092959194509250565b6000806040838503121561288c578182fd5b612895836125c6565b915060208301356128a581612cec565b809150509250929050565b600080604083850312156128c2578182fd5b6128cb836125c6565b946020939093013593505050565b600080600060a084860312156128ed578081fd5b6128f6846125c6565b92506020840135915061290c8560408601612601565b90509250925092565b600060208284031215612926578081fd5b815161166781612cec565b600060208284031215612942578081fd5b813561166781612cfa565b60006020828403121561295e578081fd5b815161166781612cfa565b60006020828403121561297a578081fd5b813567ffffffffffffffff811115612990578182fd5b611948848285016125e2565b6000602082840312156129ad578081fd5b5035919050565b6000815180845260208085019450808401835b838110156129e3578151875295820195908201906001016129c7565b509495945050505050565b60008151808452612a06816020860160208601612c14565b601f01601f19169290920160200192915050565b60008351612a2c818460208801612c14565b835190830190612a40818360208801612c14565b01949350505050565b6001600160a01b038781168252861660208201526000610100612a8c60408401888051825260ff602082015116602083015260ff60408201511660408301525050565b8060a0840152612a9e818401876129ee565b90508460c084015282810360e0840152612ab881856129b4565b9998505050505050505050565b60006001600160a01b03808716835280861660208401525083604083015260806060830152612af760808301846129ee565b9695505050505050565b60208152600061166760208301846129ee565b6000604082018483526020604081850152818551808452606093508386019150828701855b82811015612b7957612b698483518051825260ff602082015116602083015260ff60408201511660408301525050565b9285019290840190600101612b39565b509198975050505050505050565b82815260406020820152600061194860408301846129b4565b604051601f8201601f1916810167ffffffffffffffff81118282101715612bc957612bc9612cd6565b604052919050565b60008219821115612be457612be4612caa565b500190565b600082612bf857612bf8612cc0565b500490565b600082821015612c0f57612c0f612caa565b500390565b60005b83811015612c2f578181015183820152602001612c17565b8381111561157f5750506000910152565b600181811c90821680612c5457607f821691505b60208210811415612c7557634e487b7160e01b600052602260045260246000fd5b50919050565b6000600019821415612c8f57612c8f612caa565b5060010190565b600082612ca557612ca5612cc0565b500690565b634e487b7160e01b600052601160045260246000fd5b634e487b7160e01b600052601260045260246000fd5b634e487b7160e01b600052604160045260246000fd5b801515811461174d57600080fd5b6001600160e01b03198116811461174d57600080fdfea2646970667358221220a2c1dfa1dc550d72d230b0d63303d1110ed9b435ba4d041e03dda02f1f91eb9464736f6c63430008040033",
  "linkReferences": {},
  "deployedLinkReferences": {}
}