{
  "_format": "hh-sol-artifact-1",
  "contractName": "ServiceRegistry",
  "sourceName": "contracts/ServiceRegistry.sol",
  "abi": [
    {
      "inputs": [
        {
          "internalType": "string",
          "name": "_name",
          "type": "string"
        },
        {
          "internalType": "string",
          "name": "_symbol",
          "type": "string"
        },
        {
          "internalType": "address",
          "name": "_agentRegistry",
          "type": "address"
        }
      ],
      "stateMutability": "nonpayable",
      "type": "constructor"
    },
    {
      "inputs": [
        {
          "internalType": "address",
          "name": "operator",
          "type": "address"
        }
      ],
      "name": "AgentInstanceRegistered",
      "type": "error"
    },
    {
      "inputs": [
        {
          "internalType": "uint256",
          "name": "serviceId",
          "type": "uint256"
        }
      ],
      "name": "AgentInstancesSlotsFilled",
      "type": "error"
    },
    {
      "inputs": [
        {
          "internalType": "uint256",
          "name": "actual",
          "type": "uint256"
        },
        {
          "internalType": "uint256",
          "name": "maxNumAgentInstances",
          "type": "uint256"
        },
        {
          "internalType": "uint256",
          "name": "serviceId",
          "type": "uint256"
        }
      ],
      "name": "AgentInstancesSlotsNotFilled",
      "type": "error"
    },
    {
      "inputs": [
        {
          "internalType": "uint256",
          "name": "agentId",
          "type": "uint256"
        }
      ],
      "name": "AgentNotFound",
      "type": "error"
    },
    {
      "inputs": [
        {
          "internalType": "uint256",
          "name": "agentId",
          "type": "uint256"
        },
        {
          "internalType": "uint256",
          "name": "serviceId",
          "type": "uint256"
        }
      ],
      "name": "AgentNotInService",
      "type": "error"
    },
    {
      "inputs": [
        {
          "internalType": "uint256",
          "name": "provided",
          "type": "uint256"
        },
        {
          "internalType": "uint256",
          "name": "expected",
          "type": "uint256"
        }
      ],
      "name": "AmountLowerThan",
      "type": "error"
    },
    {
      "inputs": [
        {
          "internalType": "uint256",
          "name": "componentId",
          "type": "uint256"
        }
      ],
      "name": "ComponentNotFound",
      "type": "error"
    },
    {
      "inputs": [],
      "name": "EmptyString",
      "type": "error"
    },
    {
      "inputs": [],
      "name": "HashExists",
      "type": "error"
    },
    {
      "inputs": [
        {
          "internalType": "uint256",
          "name": "sent",
          "type": "uint256"
        },
        {
          "internalType": "uint256",
          "name": "expected",
          "type": "uint256"
        },
        {
          "internalType": "uint256",
          "name": "serviceId",
          "type": "uint256"
        }
      ],
      "name": "IncorrectAgentBondingValue",
      "type": "error"
    },
    {
      "inputs": [
        {
          "internalType": "uint256",
          "name": "sent",
          "type": "uint256"
        },
        {
          "internalType": "uint256",
          "name": "expected",
          "type": "uint256"
        },
        {
          "internalType": "uint256",
          "name": "serviceId",
          "type": "uint256"
        }
      ],
      "name": "IncorrectRegistrationDepositValue",
      "type": "error"
    },
    {
      "inputs": [
        {
          "internalType": "address",
          "name": "addr",
          "type": "address"
        },
        {
          "internalType": "uint256",
          "name": "deadline",
          "type": "uint256"
        },
        {
          "internalType": "uint256",
          "name": "curTime",
          "type": "uint256"
        }
      ],
      "name": "LockExpired",
      "type": "error"
    },
    {
      "inputs": [
        {
          "internalType": "address",
          "name": "addr",
          "type": "address"
        },
        {
          "internalType": "uint256",
          "name": "deadline",
          "type": "uint256"
        },
        {
          "internalType": "uint256",
          "name": "curTime",
          "type": "uint256"
        }
      ],
      "name": "LockNotExpired",
      "type": "error"
    },
    {
      "inputs": [
        {
          "internalType": "address",
          "name": "addr",
          "type": "address"
        },
        {
          "internalType": "int128",
          "name": "amount",
          "type": "int128"
        }
      ],
      "name": "LockedValueNotZero",
      "type": "error"
    },
    {
      "inputs": [
        {
          "internalType": "address",
          "name": "sender",
          "type": "address"
        },
        {
          "internalType": "address",
          "name": "manager",
          "type": "address"
        }
      ],
      "name": "ManagerOnly",
      "type": "error"
    },
    {
      "inputs": [
        {
          "internalType": "address",
          "name": "addr",
          "type": "address"
        },
        {
          "internalType": "uint256",
          "name": "maxUnlockTime",
          "type": "uint256"
        },
        {
          "internalType": "uint256",
          "name": "providedUnlockTime",
          "type": "uint256"
        }
      ],
      "name": "MaxUnlockTimeReached",
      "type": "error"
    },
    {
      "inputs": [
        {
          "internalType": "address",
          "name": "addr",
          "type": "address"
        }
      ],
      "name": "NoValueLocked",
      "type": "error"
    },
    {
      "inputs": [],
      "name": "NonZeroValue",
      "type": "error"
    },
    {
      "inputs": [
        {
          "internalType": "address",
          "name": "provided",
          "type": "address"
        },
        {
          "internalType": "address",
          "name": "expected",
          "type": "address"
        },
        {
          "internalType": "uint256",
          "name": "serviceId",
          "type": "uint256"
        }
      ],
      "name": "OnlyOwnServiceMultisig",
      "type": "error"
    },
    {
      "inputs": [
        {
          "internalType": "address",
          "name": "operator",
          "type": "address"
        },
        {
          "internalType": "uint256",
          "name": "serviceId",
          "type": "uint256"
        }
      ],
      "name": "OperatorHasNoInstances",
      "type": "error"
    },
    {
      "inputs": [
        {
          "internalType": "address",
          "name": "tokenAddress",
          "type": "address"
        },
        {
          "internalType": "uint256",
          "name": "productId",
          "type": "uint256"
        },
        {
          "internalType": "uint256",
          "name": "deadline",
          "type": "uint256"
        },
        {
          "internalType": "uint256",
          "name": "curTime",
          "type": "uint256"
        }
      ],
      "name": "ProductExpired",
      "type": "error"
    },
    {
      "inputs": [
        {
          "internalType": "address",
          "name": "tokenAddress",
          "type": "address"
        },
        {
          "internalType": "uint256",
          "name": "productId",
          "type": "uint256"
        },
        {
          "internalType": "uint256",
          "name": "requested",
          "type": "uint256"
        },
        {
          "internalType": "uint256",
          "name": "actual",
          "type": "uint256"
        }
      ],
      "name": "ProductSupplyLow",
      "type": "error"
    },
    {
      "inputs": [
        {
          "internalType": "uint256",
          "name": "serviceId",
          "type": "uint256"
        }
      ],
      "name": "ServiceDoesNotExist",
      "type": "error"
    },
    {
      "inputs": [
        {
          "internalType": "uint256",
          "name": "serviceId",
          "type": "uint256"
        }
      ],
      "name": "ServiceMustBeActive",
      "type": "error"
    },
    {
      "inputs": [
        {
          "internalType": "uint256",
          "name": "serviceId",
          "type": "uint256"
        }
      ],
      "name": "ServiceMustBeInactive",
      "type": "error"
    },
    {
      "inputs": [
        {
          "internalType": "uint256",
          "name": "serviceId",
          "type": "uint256"
        }
      ],
      "name": "ServiceNotFound",
      "type": "error"
    },
    {
      "inputs": [
        {
          "internalType": "uint256",
          "name": "teminationBlock",
          "type": "uint256"
        },
        {
          "internalType": "uint256",
          "name": "curBlock",
          "type": "uint256"
        },
        {
          "internalType": "uint256",
          "name": "serviceId",
          "type": "uint256"
        }
      ],
      "name": "ServiceTerminated",
      "type": "error"
    },
    {
      "inputs": [
        {
          "internalType": "address",
          "name": "token",
          "type": "address"
        },
        {
          "internalType": "address",
          "name": "from",
          "type": "address"
        },
        {
          "internalType": "address",
          "name": "to",
          "type": "address"
        },
        {
          "internalType": "uint256",
          "name": "value",
          "type": "uint256"
        }
      ],
      "name": "TransferFailed",
      "type": "error"
    },
    {
      "inputs": [
        {
          "internalType": "address",
          "name": "tokenAddress",
          "type": "address"
        }
      ],
      "name": "UnauthorizedToken",
      "type": "error"
    },
    {
      "inputs": [
        {
          "internalType": "address",
          "name": "addr",
          "type": "address"
        },
        {
          "internalType": "uint256",
          "name": "minUnlockTime",
          "type": "uint256"
        },
        {
          "internalType": "uint256",
          "name": "providedUnlockTime",
          "type": "uint256"
        }
      ],
      "name": "UnlockTimeIncorrect",
      "type": "error"
    },
    {
      "inputs": [
        {
          "internalType": "uint256",
          "name": "agentId",
          "type": "uint256"
        }
      ],
      "name": "WrongAgentId",
      "type": "error"
    },
    {
      "inputs": [
        {
          "internalType": "uint256",
          "name": "numAgentIds",
          "type": "uint256"
        },
        {
          "internalType": "uint256",
          "name": "numAgentSlots",
          "type": "uint256"
        }
      ],
      "name": "WrongAgentsData",
      "type": "error"
    },
    {
      "inputs": [
        {
          "internalType": "uint256",
          "name": "providedBlockNumber",
          "type": "uint256"
        },
        {
          "internalType": "uint256",
          "name": "actualBlockNumber",
          "type": "uint256"
        }
      ],
      "name": "WrongBlockNumber",
      "type": "error"
    },
    {
      "inputs": [
        {
          "internalType": "uint256",
          "name": "componentId",
          "type": "uint256"
        }
      ],
      "name": "WrongComponentId",
      "type": "error"
    },
    {
      "inputs": [],
      "name": "WrongFunction",
      "type": "error"
    },
    {
      "inputs": [
        {
          "internalType": "uint8",
          "name": "hashFunctionProvided",
          "type": "uint8"
        },
        {
          "internalType": "uint8",
          "name": "hashFunctionNeeded",
          "type": "uint8"
        },
        {
          "internalType": "uint8",
          "name": "sizeProvided",
          "type": "uint8"
        },
        {
          "internalType": "uint8",
          "name": "sizeNeeded",
          "type": "uint8"
        }
      ],
      "name": "WrongHash",
      "type": "error"
    },
    {
      "inputs": [
        {
          "internalType": "uint256",
          "name": "serviceId",
          "type": "uint256"
        }
      ],
      "name": "WrongOperator",
      "type": "error"
    },
    {
      "inputs": [
        {
          "internalType": "uint256",
          "name": "state",
          "type": "uint256"
        },
        {
          "internalType": "uint256",
          "name": "serviceId",
          "type": "uint256"
        }
      ],
      "name": "WrongServiceState",
      "type": "error"
    },
    {
      "inputs": [
        {
          "internalType": "uint256",
          "name": "currentThreshold",
          "type": "uint256"
        },
        {
          "internalType": "uint256",
          "name": "minThreshold",
          "type": "uint256"
        },
        {
          "internalType": "uint256",
          "name": "maxThreshold",
          "type": "uint256"
        }
      ],
      "name": "WrongThreshold",
      "type": "error"
    },
    {
      "inputs": [
        {
          "internalType": "address",
          "name": "provided",
          "type": "address"
        },
        {
          "internalType": "address",
          "name": "expected",
          "type": "address"
        }
      ],
      "name": "WrongTokenAddress",
      "type": "error"
    },
    {
      "inputs": [],
      "name": "ZeroAddress",
      "type": "error"
    },
    {
      "inputs": [],
      "name": "ZeroValue",
      "type": "error"
    },
    {
      "anonymous": false,
      "inputs": [
        {
          "indexed": false,
          "internalType": "address",
          "name": "owner",
          "type": "address"
        },
        {
          "indexed": false,
          "internalType": "uint256",
          "name": "serviceId",
          "type": "uint256"
        }
      ],
      "name": "ActivateRegistration",
      "type": "event"
    },
    {
      "anonymous": false,
      "inputs": [
        {
          "indexed": true,
          "internalType": "address",
          "name": "owner",
          "type": "address"
        },
        {
          "indexed": true,
          "internalType": "address",
          "name": "approved",
          "type": "address"
        },
        {
          "indexed": true,
          "internalType": "uint256",
          "name": "tokenId",
          "type": "uint256"
        }
      ],
      "name": "Approval",
      "type": "event"
    },
    {
      "anonymous": false,
      "inputs": [
        {
          "indexed": true,
          "internalType": "address",
          "name": "owner",
          "type": "address"
        },
        {
          "indexed": true,
          "internalType": "address",
          "name": "operator",
          "type": "address"
        },
        {
          "indexed": false,
          "internalType": "bool",
          "name": "approved",
          "type": "bool"
        }
      ],
      "name": "ApprovalForAll",
      "type": "event"
    },
    {
      "anonymous": false,
      "inputs": [
        {
          "indexed": false,
          "internalType": "uint256",
          "name": "serviceId",
          "type": "uint256"
        },
        {
          "indexed": false,
          "internalType": "address",
          "name": "multisig",
          "type": "address"
        },
        {
          "indexed": false,
          "internalType": "address[]",
          "name": "agentInstances",
          "type": "address[]"
        },
        {
          "indexed": false,
          "internalType": "uint256",
          "name": "threshold",
          "type": "uint256"
        }
      ],
      "name": "CreateMultisigWithAgents",
      "type": "event"
    },
    {
      "anonymous": false,
      "inputs": [
        {
          "indexed": false,
          "internalType": "address",
          "name": "owner",
          "type": "address"
        },
        {
          "indexed": false,
          "internalType": "string",
          "name": "name",
          "type": "string"
        },
        {
          "indexed": false,
          "internalType": "uint256",
          "name": "threshold",
          "type": "uint256"
        },
        {
          "indexed": false,
          "internalType": "uint256",
          "name": "serviceId",
          "type": "uint256"
        }
      ],
      "name": "CreateService",
      "type": "event"
    },
    {
      "anonymous": false,
      "inputs": [
        {
          "indexed": false,
          "internalType": "address",
          "name": "owner",
          "type": "address"
        },
        {
          "indexed": false,
          "internalType": "uint256",
          "name": "serviceId",
          "type": "uint256"
        }
      ],
      "name": "DeployService",
      "type": "event"
    },
    {
      "anonymous": false,
      "inputs": [
        {
          "indexed": false,
          "internalType": "address",
          "name": "sender",
          "type": "address"
        },
        {
          "indexed": false,
          "internalType": "uint256",
          "name": "amount",
          "type": "uint256"
        }
      ],
      "name": "Deposit",
      "type": "event"
    },
    {
      "anonymous": false,
      "inputs": [
        {
          "indexed": false,
          "internalType": "address",
          "name": "owner",
          "type": "address"
        },
        {
          "indexed": false,
          "internalType": "uint256",
          "name": "serviceId",
          "type": "uint256"
        }
      ],
      "name": "DestroyService",
      "type": "event"
    },
    {
      "anonymous": false,
      "inputs": [
        {
          "indexed": false,
          "internalType": "uint256",
          "name": "amount",
          "type": "uint256"
        },
        {
          "indexed": false,
          "internalType": "address",
          "name": "operator",
          "type": "address"
        },
        {
          "indexed": false,
          "internalType": "uint256",
          "name": "serviceId",
          "type": "uint256"
        }
      ],
      "name": "OperatorSlashed",
      "type": "event"
    },
    {
      "anonymous": false,
      "inputs": [
        {
          "indexed": false,
          "internalType": "address",
          "name": "operator",
          "type": "address"
        },
        {
          "indexed": false,
          "internalType": "uint256",
          "name": "serviceId",
          "type": "uint256"
        }
      ],
      "name": "OperatorUnbond",
      "type": "event"
    },
    {
      "anonymous": false,
      "inputs": [
        {
          "indexed": true,
          "internalType": "address",
          "name": "previousOwner",
          "type": "address"
        },
        {
          "indexed": true,
          "internalType": "address",
          "name": "newOwner",
          "type": "address"
        }
      ],
      "name": "OwnershipTransferred",
      "type": "event"
    },
    {
      "anonymous": false,
      "inputs": [
        {
          "indexed": false,
          "internalType": "address",
          "name": "sendee",
          "type": "address"
        },
        {
          "indexed": false,
          "internalType": "uint256",
          "name": "amount",
          "type": "uint256"
        }
      ],
      "name": "Refund",
      "type": "event"
    },
    {
      "anonymous": false,
      "inputs": [
        {
          "indexed": false,
          "internalType": "address",
          "name": "operator",
          "type": "address"
        },
        {
          "indexed": false,
          "internalType": "uint256",
          "name": "serviceId",
          "type": "uint256"
        },
        {
          "indexed": false,
          "internalType": "address",
          "name": "agent",
          "type": "address"
        },
        {
          "indexed": false,
          "internalType": "uint256",
          "name": "agentId",
          "type": "uint256"
        }
      ],
      "name": "RegisterInstance",
      "type": "event"
    },
    {
      "anonymous": false,
      "inputs": [
        {
          "indexed": false,
          "internalType": "uint256",
          "name": "serviceId",
          "type": "uint256"
        },
        {
          "indexed": false,
          "internalType": "uint256",
          "name": "amount",
          "type": "uint256"
        }
      ],
      "name": "RewardService",
      "type": "event"
    },
    {
      "anonymous": false,
      "inputs": [
        {
          "indexed": false,
          "internalType": "address",
          "name": "manager",
          "type": "address"
        }
      ],
      "name": "ServiceRegistryManagerUpdated",
      "type": "event"
    },
    {
      "anonymous": false,
      "inputs": [
        {
          "indexed": false,
          "internalType": "address",
          "name": "owner",
          "type": "address"
        },
        {
          "indexed": false,
          "internalType": "uint256",
          "name": "serviceId",
          "type": "uint256"
        }
      ],
      "name": "TerminateService",
      "type": "event"
    },
    {
      "anonymous": false,
      "inputs": [
        {
          "indexed": true,
          "internalType": "address",
          "name": "from",
          "type": "address"
        },
        {
          "indexed": true,
          "internalType": "address",
          "name": "to",
          "type": "address"
        },
        {
          "indexed": true,
          "internalType": "uint256",
          "name": "tokenId",
          "type": "uint256"
        }
      ],
      "name": "Transfer",
      "type": "event"
    },
    {
      "anonymous": false,
      "inputs": [
        {
          "indexed": false,
          "internalType": "address",
          "name": "owner",
          "type": "address"
        },
        {
          "indexed": false,
          "internalType": "string",
          "name": "name",
          "type": "string"
        },
        {
          "indexed": false,
          "internalType": "uint256",
          "name": "threshold",
          "type": "uint256"
        },
        {
          "indexed": false,
          "internalType": "uint256",
          "name": "serviceId",
          "type": "uint256"
        }
      ],
      "name": "UpdateService",
      "type": "event"
    },
    {
      "stateMutability": "payable",
      "type": "fallback"
    },
    {
      "inputs": [
        {
          "internalType": "address",
          "name": "owner",
          "type": "address"
        },
        {
          "internalType": "uint256",
          "name": "serviceId",
          "type": "uint256"
        }
      ],
      "name": "activateRegistration",
      "outputs": [
        {
          "internalType": "bool",
          "name": "success",
          "type": "bool"
        }
      ],
      "stateMutability": "payable",
      "type": "function"
    },
    {
      "inputs": [],
      "name": "agentRegistry",
      "outputs": [
        {
          "internalType": "address",
          "name": "",
          "type": "address"
        }
      ],
      "stateMutability": "view",
      "type": "function"
    },
    {
      "inputs": [
        {
          "internalType": "address",
          "name": "to",
          "type": "address"
        },
        {
          "internalType": "uint256",
          "name": "tokenId",
          "type": "uint256"
        }
      ],
      "name": "approve",
      "outputs": [],
      "stateMutability": "nonpayable",
      "type": "function"
    },
    {
      "inputs": [
        {
          "internalType": "address",
          "name": "owner",
          "type": "address"
        }
      ],
      "name": "balanceOf",
      "outputs": [
        {
          "internalType": "uint256",
          "name": "",
          "type": "uint256"
        }
      ],
      "stateMutability": "view",
      "type": "function"
    },
    {
      "inputs": [
        {
          "internalType": "address",
          "name": "newManager",
          "type": "address"
        }
      ],
      "name": "changeManager",
      "outputs": [],
      "stateMutability": "nonpayable",
      "type": "function"
    },
    {
      "inputs": [
        {
          "internalType": "address",
          "name": "owner",
          "type": "address"
        },
        {
          "internalType": "string",
          "name": "name",
          "type": "string"
        },
        {
          "internalType": "string",
          "name": "description",
          "type": "string"
        },
        {
          "components": [
            {
              "internalType": "bytes32",
              "name": "hash",
              "type": "bytes32"
            },
            {
              "internalType": "uint8",
              "name": "hashFunction",
              "type": "uint8"
            },
            {
              "internalType": "uint8",
              "name": "size",
              "type": "uint8"
            }
          ],
          "internalType": "struct IStructs.Multihash",
          "name": "configHash",
          "type": "tuple"
        },
        {
          "internalType": "uint256[]",
          "name": "agentIds",
          "type": "uint256[]"
        },
        {
          "components": [
            {
              "internalType": "uint256",
              "name": "slots",
              "type": "uint256"
            },
            {
              "internalType": "uint256",
              "name": "bond",
              "type": "uint256"
            }
          ],
          "internalType": "struct IStructs.AgentParams[]",
          "name": "agentParams",
          "type": "tuple[]"
        },
        {
          "internalType": "uint256",
          "name": "threshold",
          "type": "uint256"
        }
      ],
      "name": "createService",
      "outputs": [
        {
          "internalType": "uint256",
          "name": "serviceId",
          "type": "uint256"
        }
      ],
      "stateMutability": "nonpayable",
      "type": "function"
    },
    {
      "inputs": [
        {
          "internalType": "address",
          "name": "owner",
          "type": "address"
        },
        {
          "internalType": "uint256",
          "name": "serviceId",
          "type": "uint256"
        },
        {
          "internalType": "address",
          "name": "multisigImplementation",
          "type": "address"
        },
        {
          "internalType": "bytes",
          "name": "data",
          "type": "bytes"
        }
      ],
      "name": "deploy",
      "outputs": [
        {
          "internalType": "address",
          "name": "multisig",
          "type": "address"
        }
      ],
      "stateMutability": "nonpayable",
      "type": "function"
    },
    {
      "inputs": [
        {
          "internalType": "address",
          "name": "owner",
          "type": "address"
        },
        {
          "internalType": "uint256",
          "name": "serviceId",
          "type": "uint256"
        }
      ],
      "name": "destroy",
      "outputs": [
        {
          "internalType": "bool",
          "name": "success",
          "type": "bool"
        }
      ],
      "stateMutability": "nonpayable",
      "type": "function"
    },
    {
      "inputs": [
        {
          "internalType": "uint256",
          "name": "serviceId",
          "type": "uint256"
        }
      ],
      "name": "exists",
      "outputs": [
        {
          "internalType": "bool",
          "name": "",
          "type": "bool"
        }
      ],
      "stateMutability": "view",
      "type": "function"
    },
    {
      "inputs": [
        {
          "internalType": "uint256",
          "name": "tokenId",
          "type": "uint256"
        }
      ],
      "name": "getApproved",
      "outputs": [
        {
          "internalType": "address",
          "name": "",
          "type": "address"
        }
      ],
      "stateMutability": "view",
      "type": "function"
    },
    {
      "inputs": [
        {
          "internalType": "uint256",
          "name": "serviceId",
          "type": "uint256"
        }
      ],
      "name": "getConfigHashes",
      "outputs": [
        {
          "internalType": "uint256",
          "name": "numHashes",
          "type": "uint256"
        },
        {
          "components": [
            {
              "internalType": "bytes32",
              "name": "hash",
              "type": "bytes32"
            },
            {
              "internalType": "uint8",
              "name": "hashFunction",
              "type": "uint8"
            },
            {
              "internalType": "uint8",
              "name": "size",
              "type": "uint8"
            }
          ],
          "internalType": "struct IStructs.Multihash[]",
          "name": "configHashes",
          "type": "tuple[]"
        }
      ],
      "stateMutability": "view",
      "type": "function"
    },
    {
      "inputs": [
        {
          "internalType": "uint256",
          "name": "serviceId",
          "type": "uint256"
        },
        {
          "internalType": "uint256",
          "name": "agentId",
          "type": "uint256"
        }
      ],
      "name": "getInstancesForAgentId",
      "outputs": [
        {
          "internalType": "uint256",
          "name": "numAgentInstances",
          "type": "uint256"
        },
        {
          "internalType": "address[]",
          "name": "agentInstances",
          "type": "address[]"
        }
      ],
      "stateMutability": "view",
      "type": "function"
    },
    {
      "inputs": [
        {
          "internalType": "address",
          "name": "operator",
          "type": "address"
        },
        {
          "internalType": "uint256",
          "name": "serviceId",
          "type": "uint256"
        }
      ],
      "name": "getOperatorBalance",
      "outputs": [
        {
          "internalType": "uint256",
          "name": "balance",
          "type": "uint256"
        }
      ],
      "stateMutability": "view",
      "type": "function"
    },
    {
      "inputs": [
        {
          "internalType": "uint256",
          "name": "agentId",
          "type": "uint256"
        }
      ],
      "name": "getServiceIdsCreatedWithAgentId",
      "outputs": [
        {
          "internalType": "uint256",
          "name": "numServiceIds",
          "type": "uint256"
        },
        {
          "internalType": "uint256[]",
          "name": "serviceIds",
          "type": "uint256[]"
        }
      ],
      "stateMutability": "view",
      "type": "function"
    },
    {
      "inputs": [
        {
          "internalType": "uint256",
          "name": "componentId",
          "type": "uint256"
        }
      ],
      "name": "getServiceIdsCreatedWithComponentId",
      "outputs": [
        {
          "internalType": "uint256",
          "name": "numServiceIds",
          "type": "uint256"
        },
        {
          "internalType": "uint256[]",
          "name": "serviceIds",
          "type": "uint256[]"
        }
      ],
      "stateMutability": "view",
      "type": "function"
    },
    {
      "inputs": [
        {
          "internalType": "uint256",
          "name": "serviceId",
          "type": "uint256"
        }
      ],
      "name": "getServiceInfo",
      "outputs": [
        {
          "internalType": "address",
          "name": "owner",
          "type": "address"
        },
        {
          "internalType": "string",
          "name": "name",
          "type": "string"
        },
        {
          "internalType": "string",
          "name": "description",
          "type": "string"
        },
        {
          "components": [
            {
              "internalType": "bytes32",
              "name": "hash",
              "type": "bytes32"
            },
            {
              "internalType": "uint8",
              "name": "hashFunction",
              "type": "uint8"
            },
            {
              "internalType": "uint8",
              "name": "size",
              "type": "uint8"
            }
          ],
          "internalType": "struct IStructs.Multihash",
          "name": "configHash",
          "type": "tuple"
        },
        {
          "internalType": "uint256",
          "name": "threshold",
          "type": "uint256"
        },
        {
          "internalType": "uint256",
          "name": "numAgentIds",
          "type": "uint256"
        },
        {
          "internalType": "uint256[]",
          "name": "agentIds",
          "type": "uint256[]"
        },
        {
          "components": [
            {
              "internalType": "uint256",
              "name": "slots",
              "type": "uint256"
            },
            {
              "internalType": "uint256",
              "name": "bond",
              "type": "uint256"
            }
          ],
          "internalType": "struct IStructs.AgentParams[]",
          "name": "agentParams",
          "type": "tuple[]"
        },
        {
          "internalType": "uint256",
          "name": "numAgentInstances",
          "type": "uint256"
        },
        {
          "internalType": "address[]",
          "name": "agentInstances",
          "type": "address[]"
        },
        {
          "internalType": "address",
          "name": "multisig",
          "type": "address"
        }
      ],
      "stateMutability": "view",
      "type": "function"
    },
    {
      "inputs": [
        {
          "internalType": "uint256",
          "name": "serviceId",
          "type": "uint256"
        }
      ],
      "name": "getServiceState",
      "outputs": [
        {
          "internalType": "enum ServiceRegistry.ServiceState",
          "name": "state",
          "type": "uint8"
        }
      ],
      "stateMutability": "view",
      "type": "function"
    },
    {
      "inputs": [
        {
          "internalType": "address",
          "name": "owner",
          "type": "address"
        },
        {
          "internalType": "address",
          "name": "operator",
          "type": "address"
        }
      ],
      "name": "isApprovedForAll",
      "outputs": [
        {
          "internalType": "bool",
          "name": "",
          "type": "bool"
        }
      ],
      "stateMutability": "view",
      "type": "function"
    },
    {
      "inputs": [],
      "name": "name",
      "outputs": [
        {
          "internalType": "string",
          "name": "",
          "type": "string"
        }
      ],
      "stateMutability": "view",
      "type": "function"
    },
    {
      "inputs": [],
      "name": "owner",
      "outputs": [
        {
          "internalType": "address",
          "name": "",
          "type": "address"
        }
      ],
      "stateMutability": "view",
      "type": "function"
    },
    {
      "inputs": [
        {
          "internalType": "uint256",
          "name": "tokenId",
          "type": "uint256"
        }
      ],
      "name": "ownerOf",
      "outputs": [
        {
          "internalType": "address",
          "name": "",
          "type": "address"
        }
      ],
      "stateMutability": "view",
      "type": "function"
    },
    {
      "inputs": [
        {
          "internalType": "address",
          "name": "operator",
          "type": "address"
        },
        {
          "internalType": "uint256",
          "name": "serviceId",
          "type": "uint256"
        },
        {
          "internalType": "address[]",
          "name": "agentInstances",
          "type": "address[]"
        },
        {
          "internalType": "uint256[]",
          "name": "agentIds",
          "type": "uint256[]"
        }
      ],
      "name": "registerAgents",
      "outputs": [
        {
          "internalType": "bool",
          "name": "success",
          "type": "bool"
        }
      ],
      "stateMutability": "payable",
      "type": "function"
    },
    {
      "inputs": [],
      "name": "renounceOwnership",
      "outputs": [],
      "stateMutability": "nonpayable",
      "type": "function"
    },
    {
      "inputs": [
        {
          "internalType": "uint256",
          "name": "serviceId",
          "type": "uint256"
        }
      ],
      "name": "reward",
      "outputs": [
        {
          "internalType": "uint256",
          "name": "rewardBalance",
          "type": "uint256"
        }
      ],
      "stateMutability": "payable",
      "type": "function"
    },
    {
      "inputs": [
        {
          "internalType": "address",
          "name": "from",
          "type": "address"
        },
        {
          "internalType": "address",
          "name": "to",
          "type": "address"
        },
        {
          "internalType": "uint256",
          "name": "tokenId",
          "type": "uint256"
        }
      ],
      "name": "safeTransferFrom",
      "outputs": [],
      "stateMutability": "nonpayable",
      "type": "function"
    },
    {
      "inputs": [
        {
          "internalType": "address",
          "name": "from",
          "type": "address"
        },
        {
          "internalType": "address",
          "name": "to",
          "type": "address"
        },
        {
          "internalType": "uint256",
          "name": "tokenId",
          "type": "uint256"
        },
        {
          "internalType": "bytes",
          "name": "_data",
          "type": "bytes"
        }
      ],
      "name": "safeTransferFrom",
      "outputs": [],
      "stateMutability": "nonpayable",
      "type": "function"
    },
    {
      "inputs": [
        {
          "internalType": "address",
          "name": "operator",
          "type": "address"
        },
        {
          "internalType": "bool",
          "name": "approved",
          "type": "bool"
        }
      ],
      "name": "setApprovalForAll",
      "outputs": [],
      "stateMutability": "nonpayable",
      "type": "function"
    },
    {
      "inputs": [
        {
          "internalType": "address[]",
          "name": "agentInstances",
          "type": "address[]"
        },
        {
          "internalType": "uint256[]",
          "name": "amounts",
          "type": "uint256[]"
        },
        {
          "internalType": "uint256",
          "name": "serviceId",
          "type": "uint256"
        }
      ],
      "name": "slash",
      "outputs": [
        {
          "internalType": "bool",
          "name": "success",
          "type": "bool"
        }
      ],
      "stateMutability": "nonpayable",
      "type": "function"
    },
    {
      "inputs": [],
      "name": "slashedFunds",
      "outputs": [
        {
          "internalType": "uint256",
          "name": "",
          "type": "uint256"
        }
      ],
      "stateMutability": "view",
      "type": "function"
    },
    {
      "inputs": [
        {
          "internalType": "bytes4",
          "name": "interfaceId",
          "type": "bytes4"
        }
      ],
      "name": "supportsInterface",
      "outputs": [
        {
          "internalType": "bool",
          "name": "",
          "type": "bool"
        }
      ],
      "stateMutability": "view",
      "type": "function"
    },
    {
      "inputs": [],
      "name": "symbol",
      "outputs": [
        {
          "internalType": "string",
          "name": "",
          "type": "string"
        }
      ],
      "stateMutability": "view",
      "type": "function"
    },
    {
      "inputs": [
        {
          "internalType": "address",
          "name": "owner",
          "type": "address"
        },
        {
          "internalType": "uint256",
          "name": "serviceId",
          "type": "uint256"
        }
      ],
      "name": "terminate",
      "outputs": [
        {
          "internalType": "bool",
          "name": "success",
          "type": "bool"
        },
        {
          "internalType": "uint256",
          "name": "refund",
          "type": "uint256"
        }
      ],
      "stateMutability": "nonpayable",
      "type": "function"
    },
    {
      "inputs": [
        {
          "internalType": "uint256",
          "name": "index",
          "type": "uint256"
        }
      ],
      "name": "tokenByIndex",
      "outputs": [
        {
          "internalType": "uint256",
          "name": "",
          "type": "uint256"
        }
      ],
      "stateMutability": "view",
      "type": "function"
    },
    {
      "inputs": [
        {
          "internalType": "address",
          "name": "owner",
          "type": "address"
        },
        {
          "internalType": "uint256",
          "name": "index",
          "type": "uint256"
        }
      ],
      "name": "tokenOfOwnerByIndex",
      "outputs": [
        {
          "internalType": "uint256",
          "name": "",
          "type": "uint256"
        }
      ],
      "stateMutability": "view",
      "type": "function"
    },
    {
      "inputs": [
        {
          "internalType": "uint256",
          "name": "tokenId",
          "type": "uint256"
        }
      ],
      "name": "tokenURI",
      "outputs": [
        {
          "internalType": "string",
          "name": "",
          "type": "string"
        }
      ],
      "stateMutability": "view",
      "type": "function"
    },
    {
      "inputs": [],
      "name": "totalSupply",
      "outputs": [
        {
          "internalType": "uint256",
          "name": "",
          "type": "uint256"
        }
      ],
      "stateMutability": "view",
      "type": "function"
    },
    {
      "inputs": [
        {
          "internalType": "address",
          "name": "from",
          "type": "address"
        },
        {
          "internalType": "address",
          "name": "to",
          "type": "address"
        },
        {
          "internalType": "uint256",
          "name": "tokenId",
          "type": "uint256"
        }
      ],
      "name": "transferFrom",
      "outputs": [],
      "stateMutability": "nonpayable",
      "type": "function"
    },
    {
      "inputs": [
        {
          "internalType": "address",
          "name": "newOwner",
          "type": "address"
        }
      ],
      "name": "transferOwnership",
      "outputs": [],
      "stateMutability": "nonpayable",
      "type": "function"
    },
    {
      "inputs": [
        {
          "internalType": "address",
          "name": "operator",
          "type": "address"
        },
        {
          "internalType": "uint256",
          "name": "serviceId",
          "type": "uint256"
        }
      ],
      "name": "unbond",
      "outputs": [
        {
          "internalType": "bool",
          "name": "success",
          "type": "bool"
        },
        {
          "internalType": "uint256",
          "name": "refund",
          "type": "uint256"
        }
      ],
      "stateMutability": "nonpayable",
      "type": "function"
    },
    {
      "inputs": [
        {
          "internalType": "address",
          "name": "owner",
          "type": "address"
        },
        {
          "internalType": "string",
          "name": "name",
          "type": "string"
        },
        {
          "internalType": "string",
          "name": "description",
          "type": "string"
        },
        {
          "components": [
            {
              "internalType": "bytes32",
              "name": "hash",
              "type": "bytes32"
            },
            {
              "internalType": "uint8",
              "name": "hashFunction",
              "type": "uint8"
            },
            {
              "internalType": "uint8",
              "name": "size",
              "type": "uint8"
            }
          ],
          "internalType": "struct IStructs.Multihash",
          "name": "configHash",
          "type": "tuple"
        },
        {
          "internalType": "uint256[]",
          "name": "agentIds",
          "type": "uint256[]"
        },
        {
          "components": [
            {
              "internalType": "uint256",
              "name": "slots",
              "type": "uint256"
            },
            {
              "internalType": "uint256",
              "name": "bond",
              "type": "uint256"
            }
          ],
          "internalType": "struct IStructs.AgentParams[]",
          "name": "agentParams",
          "type": "tuple[]"
        },
        {
          "internalType": "uint256",
          "name": "threshold",
          "type": "uint256"
        },
        {
          "internalType": "uint256",
          "name": "serviceId",
          "type": "uint256"
        }
      ],
      "name": "update",
      "outputs": [
        {
          "internalType": "bool",
          "name": "success",
          "type": "bool"
        }
      ],
      "stateMutability": "nonpayable",
      "type": "function"
    },
    {
      "stateMutability": "payable",
      "type": "receive"
    }
  ],
  "bytecode": "0x60a06040523480156200001157600080fd5b5060405162005fe338038062005fe3833981016040819052620000349162000236565b828262000041336200008d565b815162000056906001906020850190620000dd565b5080516200006c906002906020840190620000dd565b50506001600b555060601b6001600160601b03191660805250620003129050565b600080546001600160a01b038381166001600160a01b0319831681178455604051919092169283917f8be0079c531659141344cd1fd0a4f28419497f9722a3daafe3b4186f6b6457e09190a35050565b828054620000eb90620002bf565b90600052602060002090601f0160209004810192826200010f57600085556200015a565b82601f106200012a57805160ff19168380011785556200015a565b828001600101855582156200015a579182015b828111156200015a5782518255916020019190600101906200013d565b50620001689291506200016c565b5090565b5b808211156200016857600081556001016200016d565b600082601f83011262000194578081fd5b81516001600160401b0380821115620001b157620001b1620002fc565b604051601f8301601f19908116603f01168101908282118183101715620001dc57620001dc620002fc565b81604052838152602092508683858801011115620001f8578485fd5b8491505b838210156200021b5785820183015181830184015290820190620001fc565b838211156200022c57848385830101525b9695505050505050565b6000806000606084860312156200024b578283fd5b83516001600160401b038082111562000262578485fd5b620002708783880162000183565b9450602086015191508082111562000286578384fd5b50620002958682870162000183565b604086015190935090506001600160a01b0381168114620002b4578182fd5b809150509250925092565b600181811c90821680620002d457607f821691505b60208210811415620002f657634e487b7160e01b600052602260045260246000fd5b50919050565b634e487b7160e01b600052604160045260246000fd5b60805160601c615ca46200033f600039600081816103d901528181613a1301526147150152615ca46000f3fe6080604052600436106102bf5760003560e01c806382a8ea581161016e578063a9fb763c116100cb578063d30d5c121161007f578063e985e9c511610064578063e985e9c51461080a578063f2fde38b14610853578063f908bc7714610873576102dd565b8063d30d5c12146107e4578063e23f6fb4146107f7576102dd565b8063b88d4fde116100b0578063b88d4fde14610784578063c87b56dd146107a4578063ccc9305d146107c4576102dd565b8063a9fb763c14610751578063aac18bd914610764576102dd565b80639b875b7711610122578063a24835d111610107578063a24835d1146106da578063a3fbbaae146106fa578063a5d059ca1461071a576102dd565b80639b875b771461068c578063a22cb465146106ba576102dd565b80638da5cb5b116101535780638da5cb5b1461062b578063922b7abe1461064957806395d89b4114610677576102dd565b806382a8ea58146105d45780638a2bd86f1461060b576102dd565b806340c2b69f1161021c5780636352211e116101d057806370a08231116101b557806370a082311461057f578063715018a61461059f578063772a3671146105b4576102dd565b80636352211e146105495780636f99f15c14610569576102dd565b80634f558e79116102015780634f558e79146104e95780634f6ccce7146105095780635419bb8c14610529576102dd565b806340c2b69f1461048857806342842e0e146104c9576102dd565b80630d1cfcae1161027357806321e4f7bb1161025857806321e4f7bb1461041a57806323b872dd146104485780632f745c5914610468576102dd565b80630d1cfcae146103c757806318160ddd146103fb576102dd565b8063081812fc116102a4578063081812fc1461034d5780630901ca1414610385578063095ea7b3146103a5576102dd565b806301ffc9a7146102f657806306fdde031461032b576102dd565b366102dd57604051630afc5a5160e41b815260040160405180910390fd5b604051630afc5a5160e41b815260040160405180910390fd5b34801561030257600080fd5b506103166103113660046155ea565b610893565b60405190151581526020015b60405180910390f35b34801561033757600080fd5b506103406108d7565b604051610322919061598c565b34801561035957600080fd5b5061036d610368366004615622565b610969565b6040516001600160a01b039091168152602001610322565b34801561039157600080fd5b506103166103a0366004615396565b610a03565b3480156103b157600080fd5b506103c56103c0366004615476565b610e72565b005b3480156103d357600080fd5b5061036d7f000000000000000000000000000000000000000000000000000000000000000081565b34801561040757600080fd5b506009545b604051908152602001610322565b34801561042657600080fd5b5061043a6104353660046156d9565b610fa4565b6040516103229291906159d8565b34801561045457600080fd5b506103c56104633660046151e9565b611102565b34801561047457600080fd5b5061040c610483366004615476565b611189565b34801561049457600080fd5b506104bc6104a3366004615622565b6000908152600f60208190526040909120015460ff1690565b6040516103229190615964565b3480156104d557600080fd5b506103c56104e43660046151e9565b611231565b3480156104f557600080fd5b50610316610504366004615622565b61124c565b34801561051557600080fd5b5061040c610524366004615622565b61126b565b34801561053557600080fd5b50610316610544366004615564565b61131d565b34801561055557600080fd5b5061036d610564366004615622565b6115ef565b34801561057557600080fd5b5061040c600d5481565b34801561058b57600080fd5b5061040c61059a366004615179565b61167a565b3480156105ab57600080fd5b506103c5611714565b3480156105c057600080fd5b5061040c6105cf3660046152c0565b61177a565b3480156105e057600080fd5b506105f46105ef366004615622565b6119b3565b6040516103229b9a99989796959493929190615803565b34801561061757600080fd5b5061040c610626366004615476565b611d87565b34801561063757600080fd5b506000546001600160a01b031661036d565b34801561065557600080fd5b50610669610664366004615622565b611ded565b6040516103229291906159f1565b34801561068357600080fd5b50610340611ec2565b34801561069857600080fd5b506106ac6106a7366004615622565b611ed1565b604051610322929190615a64565b3480156106c657600080fd5b506103c56106d5366004615293565b611f35565b3480156106e657600080fd5b506103166106f5366004615476565b611f44565b34801561070657600080fd5b506103c5610715366004615179565b6120e9565b34801561072657600080fd5b5061073a610735366004615476565b612197565b604080519215158352602083019190915201610322565b61040c61075f366004615622565b6125f3565b34801561077057600080fd5b506106ac61077f366004615622565b612708565b34801561079057600080fd5b506103c561079f366004615229565b61276a565b3480156107b057600080fd5b506103406107bf366004615622565b6127f8565b3480156107d057600080fd5b5061073a6107df366004615476565b6128ee565b6103166107f23660046154f3565b612c2d565b610316610805366004615476565b613275565b34801561081657600080fd5b506103166108253660046151b1565b6001600160a01b03918216600090815260066020908152604080832093909416825291909152205460ff1690565b34801561085f57600080fd5b506103c561086e366004615179565b6134a3565b34801561087f57600080fd5b5061036d61088e3660046154a1565b613585565b60006001600160e01b031982167f780e9d630000000000000000000000000000000000000000000000000000000014806108d157506108d18261383c565b92915050565b6060600180546108e690615b89565b80601f016020809104026020016040519081016040528092919081815260200182805461091290615b89565b801561095f5780601f106109345761010080835404028352916020019161095f565b820191906000526020600020905b81548152906001019060200180831161094257829003601f168201915b5050505050905090565b6000818152600360205260408120546001600160a01b03166109e75760405162461bcd60e51b815260206004820152602c60248201527f4552433732313a20617070726f76656420717565727920666f72206e6f6e657860448201526b34b9ba32b73a103a37b5b2b760a11b60648201526084015b60405180910390fd5b506000908152600560205260409020546001600160a01b031690565b600e546000906001600160a01b03163314610a4657600e5460405163312d21ff60e11b81523360048201526001600160a01b0390911660248201526044016109de565b88826001600160a01b0382161580610a7357506000818152600360205260409020546001600160a01b0316155b80610a985750816001600160a01b0316610a8c826115ef565b6001600160a01b031614155b15610ab957604051636cf2027b60e01b8152600481018290526024016109de565b6000848152600f602052604090206001600f82015460ff166006811115610af057634e487b7160e01b600052602160045260246000fd5b14610b4057600f81015460ff166006811115610b1c57634e487b7160e01b600052602160045260246000fd5b604051633c053f9d60e21b81526004810191909152602481018690526044016109de565b610b4d8b8b8b8b8b6138d7565b6000885167ffffffffffffffff811115610b7757634e487b7160e01b600052604160045260246000fd5b604051908082528060200260200182016040528015610ba0578160200160208202803683370190505b5090506000895167ffffffffffffffff811115610bcd57634e487b7160e01b600052604160045260246000fd5b604051908082528060200260200182016040528015610c1257816020015b6040805180820190915260008082526020820152815260200190600190039081610beb5790505b5090506000805b8b51811015610d6c578a8181518110610c4257634e487b7160e01b600052603260045260246000fd5b60200260200101516000015160001415610ca45784600b0160008d8381518110610c7c57634e487b7160e01b600052603260045260246000fd5b6020908102919091018101518252810191909152604001600090812081815560010155610d5a565b8b8181518110610cc457634e487b7160e01b600052603260045260246000fd5b6020026020010151848381518110610cec57634e487b7160e01b600052603260045260246000fd5b6020026020010181815250508a8181518110610d1857634e487b7160e01b600052603260045260246000fd5b6020026020010151838381518110610d4057634e487b7160e01b600052603260045260246000fd5b60200260200101819052508180610d5690615bc4565b9250505b80610d6481615bc4565b915050610c19565b50610d7b600a85016000614e7b565b8b51600685018054610d8f90600190615b46565b81548110610dad57634e487b7160e01b600052603260045260246000fd5b90600052602060002090600202016000015414610e11576006840180546001818101835560009283526020928390208f51600290930201918255918e01519101805460408f015160ff9081166101000261ffff199092169316929092179190911790555b610e20848f8f8c878787613b80565b7f3b6d9b8cf9767363ab370f8631a32e3a7d78516f151e3cf1bcf3fb5b11b431608f8f8b8b604051610e559493929190615904565b60405180910390a15060019e9d5050505050505050505050505050565b6000610e7d826115ef565b9050806001600160a01b0316836001600160a01b03161415610f075760405162461bcd60e51b815260206004820152602160248201527f4552433732313a20617070726f76616c20746f2063757272656e74206f776e6560448201527f720000000000000000000000000000000000000000000000000000000000000060648201526084016109de565b336001600160a01b0382161480610f235750610f238133610825565b610f955760405162461bcd60e51b815260206004820152603860248201527f4552433732313a20617070726f76652063616c6c6572206973206e6f74206f7760448201527f6e6572206e6f7220617070726f76656420666f7220616c6c000000000000000060648201526084016109de565b610f9f8383613e13565b505050565b60008281526003602052604081205460609084906001600160a01b0316610fe15760405163f036789160e01b8152600481018290526024016109de565b6000858152600f60209081526040808320878452600c81019092529091205493508367ffffffffffffffff81111561102957634e487b7160e01b600052604160045260246000fd5b604051908082528060200260200182016040528015611052578160200160208202803683370190505b50925060005b848110156110f8576000868152600c83016020526040902080548290811061109057634e487b7160e01b600052603260045260246000fd5b9060005260206000200160009054906101000a90046001600160a01b03168482815181106110ce57634e487b7160e01b600052603260045260246000fd5b6001600160a01b0390921660209283029190910190910152806110f081615bc4565b915050611058565b5050509250929050565b61110c3382613e81565b61117e5760405162461bcd60e51b815260206004820152603160248201527f4552433732313a207472616e736665722063616c6c6572206973206e6f74206f60448201527f776e6572206e6f7220617070726f76656400000000000000000000000000000060648201526084016109de565b610f9f838383613f78565b60006111948361167a565b82106112085760405162461bcd60e51b815260206004820152602b60248201527f455243373231456e756d657261626c653a206f776e657220696e646578206f7560448201527f74206f6620626f756e647300000000000000000000000000000000000000000060648201526084016109de565b506001600160a01b03919091166000908152600760209081526040808320938352929052205490565b610f9f8383836040518060200160405280600081525061276a565b6000818152600360205260408120546001600160a01b031615156108d1565b600061127660095490565b82106112ea5760405162461bcd60e51b815260206004820152602c60248201527f455243373231456e756d657261626c653a20676c6f62616c20696e646578206f60448201527f7574206f6620626f756e6473000000000000000000000000000000000000000060648201526084016109de565b6009828154811061130b57634e487b7160e01b600052603260045260246000fd5b90600052602060002001549050919050565b60008181526003602052604081205482906001600160a01b03166113575760405163f036789160e01b8152600481018290526024016109de565b835185511461138657845184516040516351f67da160e11b8152600481019290925260248201526044016109de565b6000838152600f6020526040902060038101546001600160a01b031633146113f85760038101546040517f79f91cd30000000000000000000000000000000000000000000000000000000081523360048201526001600160a01b039091166024820152604481018590526064016109de565b855160005b818110156115e1576000601060008a848151811061142b57634e487b7160e01b600052603260045260246000fd5b6020908102919091018101516001600160a01b039081168352828201939093526040918201600090812054909316808452600e880190915291205489519192509081908a908590811061148e57634e487b7160e01b600052603260045260246000fd5b6020026020010151106114bc5780600d60008282546114ad9190615afb565b90915550600091506115329050565b8883815181106114dc57634e487b7160e01b600052603260045260246000fd5b6020026020010151600d60008282546114f59190615afb565b9250508190555088838151811061151c57634e487b7160e01b600052603260045260246000fd5b60200260200101518161152f9190615b46565b90505b6001600160a01b0382166000908152600e86016020526040902081905588517fa2e524bd0f71903485fbb3d6d50cb305f61005ceea2047c3ac92aa7e0d104306908a908590811061159357634e487b7160e01b600052603260045260246000fd5b6020026020010151838a6040516115c6939291909283526001600160a01b03919091166020830152604082015260600190565b60405180910390a15050806115da90615bc4565b90506113fd565b506001979650505050505050565b6000818152600360205260408120546001600160a01b0316806108d15760405162461bcd60e51b815260206004820152602960248201527f4552433732313a206f776e657220717565727920666f72206e6f6e657869737460448201527f656e7420746f6b656e000000000000000000000000000000000000000000000060648201526084016109de565b60006001600160a01b0382166116f85760405162461bcd60e51b815260206004820152602a60248201527f4552433732313a2062616c616e636520717565727920666f7220746865207a6560448201527f726f20616464726573730000000000000000000000000000000000000000000060648201526084016109de565b506001600160a01b031660009081526004602052604090205490565b6000546001600160a01b0316331461176e5760405162461bcd60e51b815260206004820181905260248201527f4f776e61626c653a2063616c6c6572206973206e6f7420746865206f776e657260448201526064016109de565b6117786000614150565b565b600e546000906001600160a01b031633146117bd57600e5460405163312d21ff60e11b81523360048201526001600160a01b0390911660248201526044016109de565b6001600160a01b0388166117fd576040517fd92e233d00000000000000000000000000000000000000000000000000000000815260040160405180910390fd5b61180a87878787876138d7565b60005b84518110156118c45783818151811061183657634e487b7160e01b600052603260045260246000fd5b6020026020010151600001516000148061187b575083818151811061186b57634e487b7160e01b600052603260045260246000fd5b6020026020010151602001516000145b156118b2576040517f7c946ed700000000000000000000000000000000000000000000000000000000815260040160405180910390fd5b806118bc81615bc4565b91505061180d565b50600c80549060006118d583615bc4565b9091555050600c546000818152600f6020908152604080832060068101805460018181018355918652948490208b51600290960201948555928a0151939092018054918a015160ff9081166101000261ffff19909316941693909317179091558551919250906119509082908a908a9087908a908a90613b80565b61195a89836141a0565b600f8101805460ff191660011790556040517feaa3e48609d3060c7aaa154c27b78fafc59d92ed248276ace8e79aa3c36092f79061199f908b908b9087908790615904565b60405180910390a150979650505050505050565b60408051606081810183526000808352602083018190529282018390529081906000806060806000606060008b611a01816000908152600360205260409020546001600160a01b0316151590565b611a215760405163f036789160e01b8152600481018290526024016109de565b60008d8152600f60205260409020600a81015467ffffffffffffffff811115611a5a57634e487b7160e01b600052604160045260246000fd5b604051908082528060200260200182016040528015611a9f57816020015b6040805180820190915260008082526020820152815260200190600190039081611a785790505b50955080600901549450611ab2816141ba565b935060005b600a820154811015611b625781600b01600083600a018381548110611aec57634e487b7160e01b600052603260045260246000fd5b9060005260206000200154815260200190815260200160002060405180604001604052908160008201548152602001600182015481525050878281518110611b4457634e487b7160e01b600052603260045260246000fd5b60200260200101819052508080611b5a90615bc4565b915050611ab7565b50611b6c8e6115ef565b9c50806004018054611b7d90615b89565b80601f0160208091040260200160405190810160405280929190818152602001828054611ba990615b89565b8015611bf65780601f10611bcb57610100808354040283529160200191611bf6565b820191906000526020600020905b815481529060010190602001808311611bd957829003601f168201915b50505050509b50806005018054611c0c90615b89565b80601f0160208091040260200160405190810160405280929190818152602001828054611c3890615b89565b8015611c855780601f10611c5a57610100808354040283529160200191611c85565b820191906000526020600020905b815481529060010190602001808311611c6857829003601f168201915b5050506006840154929d50600092611ca1925060019150615b46565b9050816006018181548110611cc657634e487b7160e01b600052603260045260246000fd5b6000918252602091829020604080516060810182526002909302909101805483526001015460ff8082168486015261010090910416828201526007850154600a86018054835181870281018701909452808452939f50909d50919b50918b90830182828015611d5457602002820191906000526020600020905b815481526020019060010190808311611d40575b505050505097508160030160009054906101000a90046001600160a01b0316935050505091939597999b90929496989a50565b60008181526003602052604081205482906001600160a01b0316611dc15760405163f036789160e01b8152600481018290526024016109de565b50506000908152600f602090815260408083206001600160a01b039094168352600e9093019052205490565b60008181526003602052604081205460609083906001600160a01b0316611e2a5760405163f036789160e01b8152600481018290526024016109de565b6000848152600f6020908152604080832060068101805483518186028101860190945280845291949193909291839185919084015b82821015611eb157600084815260209081902060408051606081018252600286029092018054835260019081015460ff8082168587015261010090910416918301919091529083529092019101611e5f565b505050509050935093505050915091565b6060600280546108e690615b89565b60008181526012602090815260408083208054825181850281018501909352808352606093830182828015611f2557602002820191906000526020600020905b815481526020019060010190808311611f11575b5050505050905080519150915091565b611f40338383614332565b5050565b600e546000906001600160a01b03163314611f8757600e5460405163312d21ff60e11b81523360048201526001600160a01b0390911660248201526044016109de565b82826001600160a01b0382161580611fb457506000818152600360205260409020546001600160a01b0316155b80611fd95750816001600160a01b0316611fcd826115ef565b6001600160a01b031614155b15611ffa57604051636cf2027b60e01b8152600481018290526024016109de565b6000848152600f602052604090206006600f82015460ff16600681111561203157634e487b7160e01b600052602160045260246000fd5b1415801561206657506001600f82015460ff16600681111561206357634e487b7160e01b600052602160045260246000fd5b14155b1561209257600f81015460ff166006811115610b1c57634e487b7160e01b600052602160045260246000fd5b61209b85614401565b604080516001600160a01b0388168152602081018790527fbabd5b766777e228ce586bda23024f76f3a2f32e12decdd1643b3720d4fbc9ab910160405180910390a150600195945050505050565b6000546001600160a01b031633146121435760405162461bcd60e51b815260206004820181905260248201527f4f776e61626c653a2063616c6c6572206973206e6f7420746865206f776e657260448201526064016109de565b600e80546001600160a01b0319166001600160a01b0383169081179091556040519081527f652bc4d75d8e64a449c2fa9657f9660b43512e2f8beb9ded08bc06f7e7c182049060200160405180910390a150565b600e5460009081906001600160a01b031633146121dc57600e5460405163312d21ff60e11b81523360048201526001600160a01b0390911660248201526044016109de565b6002600b54141561222f5760405162461bcd60e51b815260206004820152601f60248201527f5265656e7472616e637947756172643a207265656e7472616e742063616c6c0060448201526064016109de565b6002600b556000838152600f602052604090206005600f82015460ff16600681111561226b57634e487b7160e01b600052602160045260246000fd5b146122bb57600f81015460ff16600681111561229757634e487b7160e01b600052602160045260246000fd5b604051633c053f9d60e21b81526004810191909152602481018590526044016109de565b6001600160a01b0385166000908152600d82016020908152604080832080548251818502810185019093528083529192909190849084015b8282101561233b576000848152602090819020604080518082019091526002850290910180546001600160a01b031682526001908101548284015290835290920191016122f3565b5050825192935050508061238d576040517fdf2ddd730000000000000000000000000000000000000000000000000000000081526001600160a01b0388166004820152602481018790526044016109de565b808360090160008282546123a19190615b46565b909155505060098301546123bf57600f8301805460ff191660061790555b6000935060005b818110156124875783600b0160008483815181106123f457634e487b7160e01b600052603260045260246000fd5b6020026020010151602001518152602001908152602001600020600101548561241d9190615afb565b94506010600084838151811061244357634e487b7160e01b600052603260045260246000fd5b602090810291909101810151516001600160a01b0316825281019190915260400160002080546001600160a01b03191690558061247f81615bc4565b9150506123c6565b506001600160a01b0387166000908152600e84016020526040902054808511156124af578094505b8415612559576001600160a01b0388166000818152600e860160205260408082208290555190919087908381818185875af1925050503d8060008114612511576040519150601f19603f3d011682016040523d82523d6000602084013e612516565b606091505b50509050806125575760405163cd3f165960e01b8152600060048201523060248201526001600160a01b038a166044820152606481018790526084016109de565b505b604080516001600160a01b038a168152602081018790527fbb28353e4598c3b9199101a66e0989549b659a59a54d2c27fbb183f1932c8e6d910160405180910390a1604080516001600160a01b038a168152602081018990527f5ebf7fe30be09f0f03b9195632508d95c8b67bf010c93abda67f70d5d9599d1e91015b60405180910390a150506001600b81905596929550919350505050565b60008181526003602052604081205482906001600160a01b031661262d5760405163f036789160e01b8152600481018290526024016109de565b6002600b5414156126805760405162461bcd60e51b815260206004820152601f60248201527f5265656e7472616e637947756172643a207265656e7472616e742063616c6c0060448201526064016109de565b6002600b556000838152600f602052604090206001015491506126a33483615afb565b6000848152600f602052604090819020600101829055519092507f635942c16b465bb759dcd6a2b2b98d73feb4b77e60e601a258a354d876a94b7f906126f59085903490918252602082015260400190565b60405180910390a1506001600b55919050565b60008181526011602090815260408083208054825181850281018501909352808352606093830182828015611f255760200282019190600052602060002090815481526020019060010190808311611f11575050505050905080519150915091565b6127743383613e81565b6127e65760405162461bcd60e51b815260206004820152603160248201527f4552433732313a207472616e736665722063616c6c6572206973206e6f74206f60448201527f776e6572206e6f7220617070726f76656400000000000000000000000000000060648201526084016109de565b6127f2848484846144a8565b50505050565b6000818152600360205260409020546060906001600160a01b03166128855760405162461bcd60e51b815260206004820152602f60248201527f4552433732314d657461646174613a2055524920717565727920666f72206e6f60448201527f6e6578697374656e7420746f6b656e000000000000000000000000000000000060648201526084016109de565b600061289c60408051602081019091526000815290565b905060008151116128bc57604051806020016040528060008152506128e7565b806128c684614526565b6040516020016128d7929190615798565b6040516020818303038152906040525b9392505050565b600e5460009081906001600160a01b0316331461293357600e5460405163312d21ff60e11b81523360048201526001600160a01b0390911660248201526044016109de565b83836001600160a01b038216158061296057506000818152600360205260409020546001600160a01b0316155b806129855750816001600160a01b0316612979826115ef565b6001600160a01b031614155b156129a657604051636cf2027b60e01b8152600481018290526024016109de565b6002600b5414156129f95760405162461bcd60e51b815260206004820152601f60248201527f5265656e7472616e637947756172643a207265656e7472616e742063616c6c0060448201526064016109de565b6002600b556000858152600f602052604090206001600f82015460ff166006811115612a3557634e487b7160e01b600052602160045260246000fd5b1480612a6757506005600f82015460ff166006811115612a6557634e487b7160e01b600052602160045260246000fd5b145b80612a9857506006600f82015460ff166006811115612a9657634e487b7160e01b600052602160045260246000fd5b145b15612ae857600f81015460ff166006811115612ac457634e487b7160e01b600052602160045260246000fd5b604051633c053f9d60e21b81526004810191909152602481018790526044016109de565b600981015415612b0657600f8101805460ff19166005179055612b16565b600f8101805460ff191660061790555b80546040519094506000906001600160a01b0389169086908381818185875af1925050503d8060008114612b66576040519150601f19603f3d011682016040523d82523d6000602084013e612b6b565b606091505b5050905080612bac5760405163cd3f165960e01b8152600060048201523060248201526001600160a01b0389166044820152606481018690526084016109de565b604080516001600160a01b038a168152602081018790527fbb28353e4598c3b9199101a66e0989549b659a59a54d2c27fbb183f1932c8e6d910160405180910390a1604080516001600160a01b038a168152602081018990527f4b129b8c1cdc29ce3eccd3294658699d802a89981b7425b46b5bb5d37546db3191016125d6565b600e546000906001600160a01b03163314612c7057600e5460405163312d21ff60e11b81523360048201526001600160a01b0390911660248201526044016109de565b6002600b541415612cc35760405162461bcd60e51b815260206004820152601f60248201527f5265656e7472616e637947756172643a207265656e7472616e742063616c6c0060448201526064016109de565b6002600b558151835114612cf757825182516040516351f67da160e11b8152600481019290925260248201526044016109de565b6000848152600f602052604090206002600f82015460ff166006811115612d2e57634e487b7160e01b600052602160045260246000fd5b14612d5a57600f81015460ff166006811115610b1c57634e487b7160e01b600052602160045260246000fd5b83516000805b82811015612e23576000868281518110612d8a57634e487b7160e01b600052603260045260246000fd5b6020026020010151905084600b0160008281526020019081526020016000206000015460001415612df1576040517fca0caf9400000000000000000000000000000000000000000000000000000000815260048101829052602481018a90526044016109de565b6000818152600b86016020526040902060010154612e0f9084615afb565b92505080612e1c90615bc4565b9050612d60565b50803414612e6d576040517ffd77957200000000000000000000000000000000000000000000000000000000815234600482015260248101829052604481018890526064016109de565b60005b828110156131d1576000878281518110612e9a57634e487b7160e01b600052603260045260246000fd5b602002602001015190506000878381518110612ec657634e487b7160e01b600052603260045260246000fd5b60200260200101519050816001600160a01b03168b6001600160a01b03161480612f0957506001600160a01b038b81166000908152601060205260409020541615155b15612f43576040517f8b77af64000000000000000000000000000000000000000000000000000000008152600481018b90526024016109de565b6001600160a01b038281166000908152601060205260409020541615612fb3576001600160a01b03828116600090815260106020526040908190205490517f631695bd000000000000000000000000000000000000000000000000000000008152911660048201526024016109de565b6000818152600b87016020908152604080832054600c8a0190925290912054141561300d576040517f12b4401c000000000000000000000000000000000000000000000000000000008152600481018b90526024016109de565b85600c016000828152602001908152602001600020829080600181540180825580915050600190039060005260206000200160009091909190916101000a8154816001600160a01b0302191690836001600160a01b0316021790555085600d0160008c6001600160a01b03166001600160a01b031681526020019081526020016000206040518060400160405280846001600160a01b0316815260200183815250908060018154018082558091505060019003906000526020600020906002020160009091909190915060008201518160000160006101000a8154816001600160a01b0302191690836001600160a01b0316021790555060208201518160010155505085600901600081548092919061312590615bc4565b90915550506001600160a01b03808316600090815260106020526040908190208054928e166001600160a01b031990931692909217909155517f6835389a6da5341647f18cbe0a89c56f473f4c17bfaee6e6d07d61f1928e0b7c906131b6908d908d90869086906001600160a01b039485168152602081019390935292166040820152606081019190915260800190565b60405180910390a15050806131ca90615bc4565b9050612e70565b508260080154836009015414156131f257600f8301805460ff191660031790555b6001600160a01b0388166000908152600e840160205260408120805434929061321c908490615afb565b9091555050604080516001600160a01b038a1681523460208201527fe1fffcc4923d04b559f4d29a8bfc6cda04eb5b0d3c460751c2402c5c5cc9109c910160405180910390a150506001600b8190559695505050505050565b600e546000906001600160a01b031633146132b857600e5460405163312d21ff60e11b81523360048201526001600160a01b0390911660248201526044016109de565b82826001600160a01b03821615806132e557506000818152600360205260409020546001600160a01b0316155b8061330a5750816001600160a01b03166132fe826115ef565b6001600160a01b031614155b1561332b57604051636cf2027b60e01b8152600481018290526024016109de565b6002600b54141561337e5760405162461bcd60e51b815260206004820152601f60248201527f5265656e7472616e637947756172643a207265656e7472616e742063616c6c0060448201526064016109de565b6002600b556000848152600f602052604090206001600f82015460ff1660068111156133ba57634e487b7160e01b600052602160045260246000fd5b146133f4576040517fb2c1a45e000000000000000000000000000000000000000000000000000000008152600481018690526024016109de565b805434146134415780546040517fe1855dd80000000000000000000000000000000000000000000000000000000081523460048201526024810191909152604481018690526064016109de565b600f8101805460ff19166002179055604080516001600160a01b0388168152602081018790527f1ce3906173019d252d1f9e5e788bf566ad4e79446f16b12ab17ff51344cda922910160405180910390a150506001600b819055949350505050565b6000546001600160a01b031633146134fd5760405162461bcd60e51b815260206004820181905260248201527f4f776e61626c653a2063616c6c6572206973206e6f7420746865206f776e657260448201526064016109de565b6001600160a01b0381166135795760405162461bcd60e51b815260206004820152602660248201527f4f776e61626c653a206e6577206f776e657220697320746865207a65726f206160448201527f646472657373000000000000000000000000000000000000000000000000000060648201526084016109de565b61358281614150565b50565b600e546000906001600160a01b031633146135c857600e5460405163312d21ff60e11b81523360048201526001600160a01b0390911660248201526044016109de565b84846001600160a01b03821615806135f557506000818152600360205260409020546001600160a01b0316155b8061361a5750816001600160a01b031661360e826115ef565b6001600160a01b031614155b1561363b57604051636cf2027b60e01b8152600481018290526024016109de565b6000868152600f602052604090206003600f82015460ff16600681111561367257634e487b7160e01b600052602160045260246000fd5b146136c257600f81015460ff16600681111561369e57634e487b7160e01b600052602160045260246000fd5b604051633c053f9d60e21b81526004810191909152602481018890526044016109de565b60006136cd826141ba565b60078301546040517ff398dba80000000000000000000000000000000000000000000000000000000081529192506001600160a01b0389169163f398dba89161371d918591908b90600401615939565b602060405180830381600087803b15801561373757600080fd5b505af115801561374b573d6000803e3d6000fd5b505050506040513d601f19601f8201168201806040525081019061376f9190615195565b94507fd4b49f31bfd9d5edfa2d4066f13b1e8f9d1855fa2c59d15c862631f93129160388868385600701546040516137aa949392919061599f565b60405180910390a16137bb88614674565b6003820180546001600160a01b0319166001600160a01b038716179055600f820180546004919060ff19166001830217905550604080516001600160a01b038b168152602081018a90527f235f6069cfc10dedd4ae3ceaf9d0a1f036261da37a0d4f8e7c176902e819cc2f910160405180910390a150505050949350505050565b60006001600160e01b031982167f80ac58cd00000000000000000000000000000000000000000000000000000000148061389f57506001600160e01b031982167f5b5e139f00000000000000000000000000000000000000000000000000000000145b806108d157507f01ffc9a7000000000000000000000000000000000000000000000000000000006001600160e01b03198316146108d1565b845115806138e457508351155b1561391b576040517fecd7b0d100000000000000000000000000000000000000000000000000000000815260040160405180910390fd5b826020015160ff16601214158061393a5750826040015160ff16602014155b156139985760208381015160408086015190517f76916ba500000000000000000000000000000000000000000000000000000000815260ff9283166004820152601260248201529116604482015260648101919091526084016109de565b815115806139a857508051825114155b156139d357815181516040516351f67da160e11b8152600481019290925260248201526044016109de565b6000805b8351811015613b775781848281518110613a0157634e487b7160e01b600052603260045260246000fd5b6020026020010151111580613ad857507f00000000000000000000000000000000000000000000000000000000000000006001600160a01b0316634f558e79858381518110613a6057634e487b7160e01b600052603260045260246000fd5b60200260200101516040518263ffffffff1660e01b8152600401613a8691815260200190565b60206040518083038186803b158015613a9e57600080fd5b505afa158015613ab2573d6000803e3d6000fd5b505050506040513d601f19601f82011682018060405250810190613ad691906155ce565b155b15613b3a57838181518110613afd57634e487b7160e01b600052603260045260246000fd5b60200260200101516040517faac42c2c0000000000000000000000000000000000000000000000000000000081526004016109de91815260200190565b838181518110613b5a57634e487b7160e01b600052603260045260246000fd5b602002602001015191508080613b6f90615bc4565b9150506139d7565b50505050505050565b8551613b959060048901906020890190614e99565b508451613bab9060058901906020880190614e99565b5060078701849055600060088801819055805b82811015613d405788600a01858281518110613bea57634e487b7160e01b600052603260045260246000fd5b602090810291909101810151825460018101845560009384529190922001558351849082908110613c2b57634e487b7160e01b600052603260045260246000fd5b602002602001015189600b016000878481518110613c5957634e487b7160e01b600052603260045260246000fd5b602002602001015181526020019081526020016000206000820151816000015560208201518160010155905050838181518110613ca657634e487b7160e01b600052603260045260246000fd5b602002602001015160000151896008016000828254613cc59190615afb565b9250508190555081848281518110613ced57634e487b7160e01b600052603260045260246000fd5b6020026020010151602001511115613d2e57838181518110613d1f57634e487b7160e01b600052603260045260246000fd5b60200260200101516020015191505b80613d3881615bc4565b915050613bbe565b508088556008880154600090613d57906002615b27565b613d62906001615afb565b9050613d6f600382615bdf565b613d8557613d7e600382615b13565b9050613d9e565b613d90600382615b13565b613d9b906001615afb565b90505b8089600701541080613db7575088600801548960070154115b15613e0857600789015460088a01546040517feb3a8ba300000000000000000000000000000000000000000000000000000000815260048101929092526024820183905260448201526064016109de565b505050505050505050565b600081815260056020526040902080546001600160a01b0319166001600160a01b0384169081179091558190613e48826115ef565b6001600160a01b03167f8c5be1e5ebec7d5bd14f71427d1e84f3dd0314c0f7b2291e5b200ac8c7c3b92560405160405180910390a45050565b6000818152600360205260408120546001600160a01b0316613efa5760405162461bcd60e51b815260206004820152602c60248201527f4552433732313a206f70657261746f7220717565727920666f72206e6f6e657860448201526b34b9ba32b73a103a37b5b2b760a11b60648201526084016109de565b6000613f05836115ef565b9050806001600160a01b0316846001600160a01b03161480613f405750836001600160a01b0316613f3584610969565b6001600160a01b0316145b80613f7057506001600160a01b0380821660009081526006602090815260408083209388168352929052205460ff165b949350505050565b826001600160a01b0316613f8b826115ef565b6001600160a01b0316146140075760405162461bcd60e51b815260206004820152602960248201527f4552433732313a207472616e73666572206f6620746f6b656e2074686174206960448201527f73206e6f74206f776e000000000000000000000000000000000000000000000060648201526084016109de565b6001600160a01b0382166140825760405162461bcd60e51b8152602060048201526024808201527f4552433732313a207472616e7366657220746f20746865207a65726f2061646460448201527f726573730000000000000000000000000000000000000000000000000000000060648201526084016109de565b61408d8383836148e5565b614098600082613e13565b6001600160a01b03831660009081526004602052604081208054600192906140c1908490615b46565b90915550506001600160a01b03821660009081526004602052604081208054600192906140ef908490615afb565b909155505060008181526003602052604080822080546001600160a01b0319166001600160a01b0386811691821790925591518493918716917fddf252ad1be2c89b69c2b068fc378daa952ba7f163c4a11628f55a4df523b3ef91a4505050565b600080546001600160a01b038381166001600160a01b0319831681178455604051919092169283917f8be0079c531659141344cd1fd0a4f28419497f9722a3daafe3b4186f6b6457e09190a35050565b611f4082826040518060200160405280600081525061499d565b6060816009015467ffffffffffffffff8111156141e757634e487b7160e01b600052604160045260246000fd5b604051908082528060200260200182016040528015614210578160200160208202803683370190505b5090506000805b600a84015481101561432b57600084600a01828154811061424857634e487b7160e01b600052603260045260246000fd5b9060005260206000200154905060005b6000828152600c87016020526040902054811015614316576000828152600c8701602052604090208054829081106142a057634e487b7160e01b600052603260045260246000fd5b9060005260206000200160009054906101000a90046001600160a01b03168585815181106142de57634e487b7160e01b600052603260045260246000fd5b6001600160a01b03909216602092830291909101909101528361430081615bc4565b945050808061430e90615bc4565b915050614258565b5050808061432390615bc4565b915050614217565b5050919050565b816001600160a01b0316836001600160a01b031614156143945760405162461bcd60e51b815260206004820152601960248201527f4552433732313a20617070726f766520746f2063616c6c65720000000000000060448201526064016109de565b6001600160a01b03838116600081815260066020908152604080832094871680845294825291829020805460ff191686151590811790915591519182527f17307eab39ab6107e8899845ad3d59bd9653f200f220920489ca2b5937696c31910160405180910390a3505050565b600061440c826115ef565b905061441a816000846148e5565b614425600083613e13565b6001600160a01b038116600090815260046020526040812080546001929061444e908490615b46565b909155505060008281526003602052604080822080546001600160a01b0319169055518391906001600160a01b038416907fddf252ad1be2c89b69c2b068fc378daa952ba7f163c4a11628f55a4df523b3ef908390a45050565b6144b3848484613f78565b6144bf84848484614a1b565b6127f25760405162461bcd60e51b815260206004820152603260248201527f4552433732313a207472616e7366657220746f206e6f6e20455243373231526560448201527131b2b4bb32b91034b6b83632b6b2b73a32b960711b60648201526084016109de565b60608161456657505060408051808201909152600181527f3000000000000000000000000000000000000000000000000000000000000000602082015290565b8160005b8115614590578061457a81615bc4565b91506145899050600a83615b13565b915061456a565b60008167ffffffffffffffff8111156145b957634e487b7160e01b600052604160045260246000fd5b6040519080825280601f01601f1916602001820160405280156145e3576020820181803683370190505b5090505b8415613f70576145f8600183615b46565b9150614605600a86615bdf565b614610906030615afb565b60f81b81838151811061463357634e487b7160e01b600052603260045260246000fd5b60200101907effffffffffffffffffffffffffffffffffffffffffffffffffffffffffffff1916908160001a90535061466d600a86615b13565b94506145e7565b6000818152600f60205260408120905b600a820154811015610f9f57600082600a0182815481106146b557634e487b7160e01b600052603260045260246000fd5b600091825260208083209190910154808352601182526040808420805460018101825590855292842090920187905590517f661a0d0b000000000000000000000000000000000000000000000000000000008152600481018290529092507f00000000000000000000000000000000000000000000000000000000000000006001600160a01b03169063661a0d0b9060240160006040518083038186803b15801561475f57600080fd5b505afa158015614773573d6000803e3d6000fd5b505050506040513d6000823e601f3d908101601f1916820160405261479b919081019061563a565b91505060005b81518110156148cf5760008282815181106147cc57634e487b7160e01b600052603260045260246000fd5b6020026020010151905060006012600083815260200190815260200160002080548060200260200160405190810160405280929190818152602001828054801561483557602002820191906000526020600020905b815481526020019060010190808311614821575b5050505050905060005b815181101561488e578882828151811061486957634e487b7160e01b600052603260045260246000fd5b6020026020010151141561487c5761488e565b8061488681615bc4565b91505061483f565b81518114156148b9576000838152601260209081526040822080546001810182559083529120018990555b50505080806148c790615bc4565b9150506147a1565b50505080806148dd90615bc4565b915050614684565b6001600160a01b0383166149405761493b81600980546000838152600a60205260408120829055600182018355919091527f6e1540171b6c0c960b71a7020d9f60077f6af931a8bbf590da0223dacf75c7af0155565b614963565b816001600160a01b0316836001600160a01b031614614963576149638382614b73565b6001600160a01b03821661497a57610f9f81614c10565b826001600160a01b0316826001600160a01b031614610f9f57610f9f8282614ce9565b6149a78383614d2d565b6149b46000848484614a1b565b610f9f5760405162461bcd60e51b815260206004820152603260248201527f4552433732313a207472616e7366657220746f206e6f6e20455243373231526560448201527131b2b4bb32b91034b6b83632b6b2b73a32b960711b60648201526084016109de565b60006001600160a01b0384163b15614b6857604051630a85bd0160e11b81526001600160a01b0385169063150b7a0290614a5f9033908990889088906004016157c7565b602060405180830381600087803b158015614a7957600080fd5b505af1925050508015614aa9575060408051601f3d908101601f19168201909252614aa691810190615606565b60015b614b4e573d808015614ad7576040519150601f19603f3d011682016040523d82523d6000602084013e614adc565b606091505b508051614b465760405162461bcd60e51b815260206004820152603260248201527f4552433732313a207472616e7366657220746f206e6f6e20455243373231526560448201527131b2b4bb32b91034b6b83632b6b2b73a32b960711b60648201526084016109de565b805181602001fd5b6001600160e01b031916630a85bd0160e11b149050613f70565b506001949350505050565b60006001614b808461167a565b614b8a9190615b46565b600083815260086020526040902054909150808214614bdd576001600160a01b03841660009081526007602090815260408083208584528252808320548484528184208190558352600890915290208190555b5060009182526008602090815260408084208490556001600160a01b039094168352600781528383209183525290812055565b600954600090614c2290600190615b46565b6000838152600a602052604081205460098054939450909284908110614c5857634e487b7160e01b600052603260045260246000fd5b906000526020600020015490508060098381548110614c8757634e487b7160e01b600052603260045260246000fd5b6000918252602080832090910192909255828152600a90915260408082208490558582528120556009805480614ccd57634e487b7160e01b600052603160045260246000fd5b6001900381819060005260206000200160009055905550505050565b6000614cf48361167a565b6001600160a01b039093166000908152600760209081526040808320868452825280832085905593825260089052919091209190915550565b6001600160a01b038216614d835760405162461bcd60e51b815260206004820181905260248201527f4552433732313a206d696e7420746f20746865207a65726f206164647265737360448201526064016109de565b6000818152600360205260409020546001600160a01b031615614de85760405162461bcd60e51b815260206004820152601c60248201527f4552433732313a20746f6b656e20616c7265616479206d696e7465640000000060448201526064016109de565b614df4600083836148e5565b6001600160a01b0382166000908152600460205260408120805460019290614e1d908490615afb565b909155505060008181526003602052604080822080546001600160a01b0319166001600160a01b03861690811790915590518392907fddf252ad1be2c89b69c2b068fc378daa952ba7f163c4a11628f55a4df523b3ef908290a45050565b50805460008255906000526020600020908101906135829190614f1d565b828054614ea590615b89565b90600052602060002090601f016020900481019282614ec75760008555614f0d565b82601f10614ee057805160ff1916838001178555614f0d565b82800160010185558215614f0d579182015b82811115614f0d578251825591602001919060010190614ef2565b50614f19929150614f1d565b5090565b5b80821115614f195760008155600101614f1e565b8035614f3d81615c35565b919050565b600082601f830112614f52578081fd5b81356020614f67614f6283615ad7565b615aa6565b80838252828201915082860187848660051b8901011115614f86578586fd5b855b85811015614fad578135614f9b81615c35565b84529284019290840190600101614f88565b5090979650505050505050565b600082601f830112614fca578081fd5b81356020614fda614f6283615ad7565b80838252828201915082860187848660061b8901011115614ff9578586fd5b855b85811015614fad57604080838b031215615013578788fd5b61501b615a7d565b83358152868401358782015285529385019390910190600101614ffb565b600082601f830112615049578081fd5b81356020615059614f6283615ad7565b80838252828201915082860187848660051b8901011115615078578586fd5b855b85811015614fad5781358452928401929084019060010161507a565b600082601f8301126150a6578081fd5b813567ffffffffffffffff8111156150c0576150c0615c1f565b6150d3601f8201601f1916602001615aa6565b8181528460208386010111156150e7578283fd5b816020850160208301379081016020019190915292915050565b600060608284031215615112578081fd5b6040516060810181811067ffffffffffffffff8211171561513557615135615c1f565b6040528235815290508061514b60208401615168565b602082015261515c60408401615168565b60408201525092915050565b803560ff81168114614f3d57600080fd5b60006020828403121561518a578081fd5b81356128e781615c35565b6000602082840312156151a6578081fd5b81516128e781615c35565b600080604083850312156151c3578081fd5b82356151ce81615c35565b915060208301356151de81615c35565b809150509250929050565b6000806000606084860312156151fd578081fd5b833561520881615c35565b9250602084013561521881615c35565b929592945050506040919091013590565b6000806000806080858703121561523e578182fd5b843561524981615c35565b9350602085013561525981615c35565b925060408501359150606085013567ffffffffffffffff81111561527b578182fd5b61528787828801615096565b91505092959194509250565b600080604083850312156152a5578182fd5b82356152b081615c35565b915060208301356151de81615c4a565b6000806000806000806000610120888a0312156152db578485fd5b6152e488614f32565b9650602088013567ffffffffffffffff80821115615300578687fd5b61530c8b838c01615096565b975060408a0135915080821115615321578687fd5b61532d8b838c01615096565b965061533c8b60608c01615101565b955060c08a0135915080821115615351578485fd5b61535d8b838c01615039565b945060e08a0135915080821115615372578384fd5b5061537f8a828b01614fba565b925050610100880135905092959891949750929550565b600080600080600080600080610140898b0312156153b2578182fd5b6153bb89614f32565b9750602089013567ffffffffffffffff808211156153d7578384fd5b6153e38c838d01615096565b985060408b01359150808211156153f8578384fd5b6154048c838d01615096565b97506154138c60608d01615101565b965060c08b0135915080821115615428578384fd5b6154348c838d01615039565b955060e08b0135915080821115615449578384fd5b506154568b828c01614fba565b935050610100890135915061012089013590509295985092959890939650565b60008060408385031215615488578182fd5b823561549381615c35565b946020939093013593505050565b600080600080608085870312156154b6578182fd5b84356154c181615c35565b93506020850135925060408501356154d881615c35565b9150606085013567ffffffffffffffff81111561527b578182fd5b60008060008060808587031215615508578182fd5b843561551381615c35565b935060208501359250604085013567ffffffffffffffff80821115615536578384fd5b61554288838901614f42565b93506060870135915080821115615557578283fd5b5061528787828801615039565b600080600060608486031215615578578081fd5b833567ffffffffffffffff8082111561558f578283fd5b61559b87838801614f42565b945060208601359150808211156155b0578283fd5b506155bd86828701615039565b925050604084013590509250925092565b6000602082840312156155df578081fd5b81516128e781615c4a565b6000602082840312156155fb578081fd5b81356128e781615c58565b600060208284031215615617578081fd5b81516128e781615c58565b600060208284031215615633578081fd5b5035919050565b6000806040838503121561564c578182fd5b8251915060208084015167ffffffffffffffff81111561566a578283fd5b8401601f8101861361567a578283fd5b8051615688614f6282615ad7565b80828252848201915084840189868560051b87010111156156a7578687fd5b8694505b838510156156c95780518352600194909401939185019185016156ab565b5080955050505050509250929050565b600080604083850312156156eb578182fd5b50508035926020909101359150565b6000815180845260208085019450808401835b838110156157325781516001600160a01b03168752958201959082019060010161570d565b509495945050505050565b6000815180845260208085019450808401835b8381101561573257815187529582019590820190600101615750565b60008151808452615784816020860160208601615b5d565b601f01601f19169290920160200192915050565b600083516157aa818460208801615b5d565b8351908301906157be818360208801615b5d565b01949350505050565b60006001600160a01b038087168352808616602084015250836040830152608060608301526157f9608083018461576c565b9695505050505050565b60006101a06001600160a01b038e168352602081818501526158278285018f61576c565b915060408483038186015261583c838f61576c565b8d51606087015260208e015160ff908116608088015260408f01511660a087015292508b60c08601528a60e086015284830361010086015261587e838b61573d565b8581036101208701528951808252838b01945090830190855b818110156158bc57855180518452850151858401529484019491830191600101615897565b5050886101408701528581036101608701526158d881896156fa565b9450505050506158f46101808301846001600160a01b03169052565b9c9b505050505050505050505050565b6001600160a01b0385168152608060208201526000615926608083018661576c565b6040830194909452506060015292915050565b60608152600061594c60608301866156fa565b84602084015282810360408401526157f9818561576c565b602081016007831061598657634e487b7160e01b600052602160045260246000fd5b91905290565b6020815260006128e7602083018461576c565b8481526001600160a01b03841660208201526080604082015260006159c760808301856156fa565b905082606083015295945050505050565b828152604060208201526000613f7060408301846156fa565b6000604082018483526020604081850152818551808452606093508386019150828701855b82811015615a5657615a468483518051825260ff602082015116602083015260ff60408201511660408301525050565b9285019290840190600101615a16565b509198975050505050505050565b828152604060208201526000613f70604083018461573d565b6040805190810167ffffffffffffffff81118282101715615aa057615aa0615c1f565b60405290565b604051601f8201601f1916810167ffffffffffffffff81118282101715615acf57615acf615c1f565b604052919050565b600067ffffffffffffffff821115615af157615af1615c1f565b5060051b60200190565b60008219821115615b0e57615b0e615bf3565b500190565b600082615b2257615b22615c09565b500490565b6000816000190483118215151615615b4157615b41615bf3565b500290565b600082821015615b5857615b58615bf3565b500390565b60005b83811015615b78578181015183820152602001615b60565b838111156127f25750506000910152565b600181811c90821680615b9d57607f821691505b60208210811415615bbe57634e487b7160e01b600052602260045260246000fd5b50919050565b6000600019821415615bd857615bd8615bf3565b5060010190565b600082615bee57615bee615c09565b500690565b634e487b7160e01b600052601160045260246000fd5b634e487b7160e01b600052601260045260246000fd5b634e487b7160e01b600052604160045260246000fd5b6001600160a01b038116811461358257600080fd5b801515811461358257600080fd5b6001600160e01b03198116811461358257600080fdfea2646970667358221220108bebbe93062166327b6a4808ef7a91fac6b86a8615e20b81a0bbf6428c948d64736f6c63430008040033",
  "linkReferences": {},
  "deployedLinkReferences": {}
}