{
  "_format": "hh-sol-artifact-1",
  "contractName": "ServiceRegistry",
  "sourceName": "lib/autonolas-registries/contracts/ServiceRegistry.sol",
  "abi": [
    {
      "inputs": [
        {
          "internalType": "string",
          "name": "_name",
          "type": "string"
        },
        {
          "internalType": "string",
          "name": "_symbol",
          "type": "string"
        },
        {
          "internalType": "string",
          "name": "_baseURI",
          "type": "string"
        },
        {
          "internalType": "address",
          "name": "_agentRegistry",
          "type": "address"
        }
      ],
      "stateMutability": "nonpayable",
      "type": "constructor"
    },
    {
      "inputs": [
        {
          "internalType": "address",
          "name": "operator",
          "type": "address"
        }
      ],
      "name": "AgentInstanceRegistered",
      "type": "error"
    },
    {
      "inputs": [
        {
          "internalType": "uint256",
          "name": "serviceId",
          "type": "uint256"
        }
      ],
      "name": "AgentInstancesSlotsFilled",
      "type": "error"
    },
    {
      "inputs": [
        {
          "internalType": "uint256",
          "name": "agentId",
          "type": "uint256"
        }
      ],
      "name": "AgentNotFound",
      "type": "error"
    },
    {
      "inputs": [
        {
          "internalType": "uint256",
          "name": "agentId",
          "type": "uint256"
        },
        {
          "internalType": "uint256",
          "name": "serviceId",
          "type": "uint256"
        }
      ],
      "name": "AgentNotInService",
      "type": "error"
    },
    {
      "inputs": [
        {
          "internalType": "uint256",
          "name": "componentId",
          "type": "uint256"
        }
      ],
      "name": "ComponentNotFound",
      "type": "error"
    },
    {
      "inputs": [],
      "name": "HashExists",
      "type": "error"
    },
    {
      "inputs": [
        {
          "internalType": "uint256",
          "name": "sent",
          "type": "uint256"
        },
        {
          "internalType": "uint256",
          "name": "expected",
          "type": "uint256"
        },
        {
          "internalType": "uint256",
          "name": "serviceId",
          "type": "uint256"
        }
      ],
      "name": "IncorrectAgentBondingValue",
      "type": "error"
    },
    {
      "inputs": [
        {
          "internalType": "uint256",
          "name": "sent",
          "type": "uint256"
        },
        {
          "internalType": "uint256",
          "name": "expected",
          "type": "uint256"
        },
        {
          "internalType": "uint256",
          "name": "serviceId",
          "type": "uint256"
        }
      ],
      "name": "IncorrectRegistrationDepositValue",
      "type": "error"
    },
    {
      "inputs": [
        {
          "internalType": "address",
          "name": "sender",
          "type": "address"
        },
        {
          "internalType": "address",
          "name": "manager",
          "type": "address"
        }
      ],
      "name": "ManagerOnly",
      "type": "error"
    },
    {
      "inputs": [
        {
          "internalType": "address",
          "name": "provided",
          "type": "address"
        },
        {
          "internalType": "address",
          "name": "expected",
          "type": "address"
        },
        {
          "internalType": "uint256",
          "name": "serviceId",
          "type": "uint256"
        }
      ],
      "name": "OnlyOwnServiceMultisig",
      "type": "error"
    },
    {
      "inputs": [
        {
          "internalType": "address",
          "name": "operator",
          "type": "address"
        },
        {
          "internalType": "uint256",
          "name": "serviceId",
          "type": "uint256"
        }
      ],
      "name": "OperatorHasNoInstances",
      "type": "error"
    },
    {
      "inputs": [
        {
          "internalType": "uint256",
          "name": "provided",
          "type": "uint256"
        },
        {
          "internalType": "uint256",
          "name": "max",
          "type": "uint256"
        }
      ],
      "name": "Overflow",
      "type": "error"
    },
    {
      "inputs": [
        {
          "internalType": "address",
          "name": "sender",
          "type": "address"
        },
        {
          "internalType": "address",
          "name": "owner",
          "type": "address"
        }
      ],
      "name": "OwnerOnly",
      "type": "error"
    },
    {
      "inputs": [],
      "name": "Paused",
      "type": "error"
    },
    {
      "inputs": [],
      "name": "ReentrancyGuard",
      "type": "error"
    },
    {
      "inputs": [
        {
          "internalType": "uint256",
          "name": "serviceId",
          "type": "uint256"
        }
      ],
      "name": "ServiceMustBeInactive",
      "type": "error"
    },
    {
      "inputs": [
        {
          "internalType": "address",
          "name": "token",
          "type": "address"
        },
        {
          "internalType": "address",
          "name": "from",
          "type": "address"
        },
        {
          "internalType": "address",
          "name": "to",
          "type": "address"
        },
        {
          "internalType": "uint256",
          "name": "value",
          "type": "uint256"
        }
      ],
      "name": "TransferFailed",
      "type": "error"
    },
    {
      "inputs": [
        {
          "internalType": "address",
          "name": "multisig",
          "type": "address"
        }
      ],
      "name": "UnauthorizedMultisig",
      "type": "error"
    },
    {
      "inputs": [
        {
          "internalType": "uint256",
          "name": "agentId",
          "type": "uint256"
        }
      ],
      "name": "WrongAgentId",
      "type": "error"
    },
    {
      "inputs": [
        {
          "internalType": "uint256",
          "name": "numValues1",
          "type": "uint256"
        },
        {
          "internalType": "uint256",
          "name": "numValues2",
          "type": "uint256"
        }
      ],
      "name": "WrongArrayLength",
      "type": "error"
    },
    {
      "inputs": [],
      "name": "WrongFunction",
      "type": "error"
    },
    {
      "inputs": [
        {
          "internalType": "uint256",
          "name": "serviceId",
          "type": "uint256"
        }
      ],
      "name": "WrongOperator",
      "type": "error"
    },
    {
      "inputs": [
        {
          "internalType": "uint256",
          "name": "state",
          "type": "uint256"
        },
        {
          "internalType": "uint256",
          "name": "serviceId",
          "type": "uint256"
        }
      ],
      "name": "WrongServiceState",
      "type": "error"
    },
    {
      "inputs": [
        {
          "internalType": "uint256",
          "name": "currentThreshold",
          "type": "uint256"
        },
        {
          "internalType": "uint256",
          "name": "minThreshold",
          "type": "uint256"
        },
        {
          "internalType": "uint256",
          "name": "maxThreshold",
          "type": "uint256"
        }
      ],
      "name": "WrongThreshold",
      "type": "error"
    },
    {
      "inputs": [],
      "name": "ZeroAddress",
      "type": "error"
    },
    {
      "inputs": [],
      "name": "ZeroValue",
      "type": "error"
    },
    {
      "anonymous": false,
      "inputs": [
        {
          "indexed": true,
          "internalType": "uint256",
          "name": "serviceId",
          "type": "uint256"
        }
      ],
      "name": "ActivateRegistration",
      "type": "event"
    },
    {
      "anonymous": false,
      "inputs": [
        {
          "indexed": true,
          "internalType": "address",
          "name": "owner",
          "type": "address"
        },
        {
          "indexed": true,
          "internalType": "address",
          "name": "spender",
          "type": "address"
        },
        {
          "indexed": true,
          "internalType": "uint256",
          "name": "id",
          "type": "uint256"
        }
      ],
      "name": "Approval",
      "type": "event"
    },
    {
      "anonymous": false,
      "inputs": [
        {
          "indexed": true,
          "internalType": "address",
          "name": "owner",
          "type": "address"
        },
        {
          "indexed": true,
          "internalType": "address",
          "name": "operator",
          "type": "address"
        },
        {
          "indexed": false,
          "internalType": "bool",
          "name": "approved",
          "type": "bool"
        }
      ],
      "name": "ApprovalForAll",
      "type": "event"
    },
    {
      "anonymous": false,
      "inputs": [
        {
          "indexed": false,
          "internalType": "string",
          "name": "baseURI",
          "type": "string"
        }
      ],
      "name": "BaseURIChanged",
      "type": "event"
    },
    {
      "anonymous": false,
      "inputs": [
        {
          "indexed": true,
          "internalType": "uint256",
          "name": "serviceId",
          "type": "uint256"
        },
        {
          "indexed": true,
          "internalType": "address",
          "name": "multisig",
          "type": "address"
        }
      ],
      "name": "CreateMultisigWithAgents",
      "type": "event"
    },
    {
      "anonymous": false,
      "inputs": [
        {
          "indexed": true,
          "internalType": "uint256",
          "name": "serviceId",
          "type": "uint256"
        }
      ],
      "name": "CreateService",
      "type": "event"
    },
    {
      "anonymous": false,
      "inputs": [
        {
          "indexed": true,
          "internalType": "uint256",
          "name": "serviceId",
          "type": "uint256"
        }
      ],
      "name": "DeployService",
      "type": "event"
    },
    {
      "anonymous": false,
      "inputs": [
        {
          "indexed": true,
          "internalType": "address",
          "name": "sender",
          "type": "address"
        },
        {
          "indexed": false,
          "internalType": "uint256",
          "name": "amount",
          "type": "uint256"
        }
      ],
      "name": "Deposit",
      "type": "event"
    },
    {
      "anonymous": false,
      "inputs": [
        {
          "indexed": true,
          "internalType": "address",
          "name": "manager",
          "type": "address"
        }
      ],
      "name": "ManagerUpdated",
      "type": "event"
    },
    {
      "anonymous": false,
      "inputs": [
        {
          "indexed": false,
          "internalType": "uint256",
          "name": "amount",
          "type": "uint256"
        },
        {
          "indexed": true,
          "internalType": "address",
          "name": "operator",
          "type": "address"
        },
        {
          "indexed": true,
          "internalType": "uint256",
          "name": "serviceId",
          "type": "uint256"
        }
      ],
      "name": "OperatorSlashed",
      "type": "event"
    },
    {
      "anonymous": false,
      "inputs": [
        {
          "indexed": true,
          "internalType": "address",
          "name": "operator",
          "type": "address"
        },
        {
          "indexed": true,
          "internalType": "uint256",
          "name": "serviceId",
          "type": "uint256"
        }
      ],
      "name": "OperatorUnbond",
      "type": "event"
    },
    {
      "anonymous": false,
      "inputs": [
        {
          "indexed": true,
          "internalType": "address",
          "name": "owner",
          "type": "address"
        }
      ],
      "name": "OwnerUpdated",
      "type": "event"
    },
    {
      "anonymous": false,
      "inputs": [
        {
          "indexed": true,
          "internalType": "address",
          "name": "receiver",
          "type": "address"
        },
        {
          "indexed": false,
          "internalType": "uint256",
          "name": "amount",
          "type": "uint256"
        }
      ],
      "name": "Refund",
      "type": "event"
    },
    {
      "anonymous": false,
      "inputs": [
        {
          "indexed": true,
          "internalType": "address",
          "name": "operator",
          "type": "address"
        },
        {
          "indexed": true,
          "internalType": "uint256",
          "name": "serviceId",
          "type": "uint256"
        },
        {
          "indexed": true,
          "internalType": "address",
          "name": "agentInstance",
          "type": "address"
        },
        {
          "indexed": false,
          "internalType": "uint256",
          "name": "agentId",
          "type": "uint256"
        }
      ],
      "name": "RegisterInstance",
      "type": "event"
    },
    {
      "anonymous": false,
      "inputs": [
        {
          "indexed": true,
          "internalType": "uint256",
          "name": "serviceId",
          "type": "uint256"
        }
      ],
      "name": "TerminateService",
      "type": "event"
    },
    {
      "anonymous": false,
      "inputs": [
        {
          "indexed": true,
          "internalType": "address",
          "name": "from",
          "type": "address"
        },
        {
          "indexed": true,
          "internalType": "address",
          "name": "to",
          "type": "address"
        },
        {
          "indexed": true,
          "internalType": "uint256",
          "name": "id",
          "type": "uint256"
        }
      ],
      "name": "Transfer",
      "type": "event"
    },
    {
      "anonymous": false,
      "inputs": [
        {
          "indexed": true,
          "internalType": "uint256",
          "name": "serviceId",
          "type": "uint256"
        },
        {
          "indexed": false,
          "internalType": "bytes32",
          "name": "configHash",
          "type": "bytes32"
        }
      ],
      "name": "UpdateService",
      "type": "event"
    },
    {
      "stateMutability": "payable",
      "type": "fallback"
    },
    {
      "inputs": [],
      "name": "VERSION",
      "outputs": [
        {
          "internalType": "string",
          "name": "",
          "type": "string"
        }
      ],
      "stateMutability": "view",
      "type": "function"
    },
    {
      "inputs": [
        {
          "internalType": "address",
          "name": "serviceOwner",
          "type": "address"
        },
        {
          "internalType": "uint256",
          "name": "serviceId",
          "type": "uint256"
        }
      ],
      "name": "activateRegistration",
      "outputs": [
        {
          "internalType": "bool",
          "name": "success",
          "type": "bool"
        }
      ],
      "stateMutability": "payable",
      "type": "function"
    },
    {
      "inputs": [],
      "name": "agentRegistry",
      "outputs": [
        {
          "internalType": "address",
          "name": "",
          "type": "address"
        }
      ],
      "stateMutability": "view",
      "type": "function"
    },
    {
      "inputs": [
        {
          "internalType": "address",
          "name": "spender",
          "type": "address"
        },
        {
          "internalType": "uint256",
          "name": "id",
          "type": "uint256"
        }
      ],
      "name": "approve",
      "outputs": [],
      "stateMutability": "nonpayable",
      "type": "function"
    },
    {
      "inputs": [
        {
          "internalType": "address",
          "name": "owner",
          "type": "address"
        }
      ],
      "name": "balanceOf",
      "outputs": [
        {
          "internalType": "uint256",
          "name": "",
          "type": "uint256"
        }
      ],
      "stateMutability": "view",
      "type": "function"
    },
    {
      "inputs": [],
      "name": "baseURI",
      "outputs": [
        {
          "internalType": "string",
          "name": "",
          "type": "string"
        }
      ],
      "stateMutability": "view",
      "type": "function"
    },
    {
      "inputs": [
        {
          "internalType": "address",
          "name": "newManager",
          "type": "address"
        }
      ],
      "name": "changeManager",
      "outputs": [],
      "stateMutability": "nonpayable",
      "type": "function"
    },
    {
      "inputs": [
        {
          "internalType": "address",
          "name": "multisig",
          "type": "address"
        },
        {
          "internalType": "bool",
          "name": "permission",
          "type": "bool"
        }
      ],
      "name": "changeMultisigPermission",
      "outputs": [
        {
          "internalType": "bool",
          "name": "success",
          "type": "bool"
        }
      ],
      "stateMutability": "nonpayable",
      "type": "function"
    },
    {
      "inputs": [
        {
          "internalType": "address",
          "name": "newOwner",
          "type": "address"
        }
      ],
      "name": "changeOwner",
      "outputs": [],
      "stateMutability": "nonpayable",
      "type": "function"
    },
    {
      "inputs": [
        {
          "internalType": "address",
          "name": "serviceOwner",
          "type": "address"
        },
        {
          "internalType": "bytes32",
          "name": "description",
          "type": "bytes32"
        },
        {
          "internalType": "bytes32",
          "name": "configHash",
          "type": "bytes32"
        },
        {
          "internalType": "uint32[]",
          "name": "agentIds",
          "type": "uint32[]"
        },
        {
          "components": [
            {
              "internalType": "uint32",
              "name": "slots",
              "type": "uint32"
            },
            {
              "internalType": "uint96",
              "name": "bond",
              "type": "uint96"
            }
          ],
          "internalType": "struct AgentParams[]",
          "name": "agentParams",
          "type": "tuple[]"
        },
        {
          "internalType": "uint32",
          "name": "threshold",
          "type": "uint32"
        }
      ],
      "name": "create",
      "outputs": [
        {
          "internalType": "uint256",
          "name": "serviceId",
          "type": "uint256"
        }
      ],
      "stateMutability": "nonpayable",
      "type": "function"
    },
    {
      "inputs": [
        {
          "internalType": "address",
          "name": "serviceOwner",
          "type": "address"
        },
        {
          "internalType": "uint256",
          "name": "serviceId",
          "type": "uint256"
        },
        {
          "internalType": "address",
          "name": "multisigImplementation",
          "type": "address"
        },
        {
          "internalType": "bytes",
          "name": "data",
          "type": "bytes"
        }
      ],
      "name": "deploy",
      "outputs": [
        {
          "internalType": "address",
          "name": "multisig",
          "type": "address"
        }
      ],
      "stateMutability": "nonpayable",
      "type": "function"
    },
    {
      "inputs": [
        {
          "internalType": "uint256",
          "name": "unitId",
          "type": "uint256"
        }
      ],
      "name": "exists",
      "outputs": [
        {
          "internalType": "bool",
          "name": "",
          "type": "bool"
        }
      ],
      "stateMutability": "view",
      "type": "function"
    },
    {
      "inputs": [
        {
          "internalType": "uint256",
          "name": "serviceId",
          "type": "uint256"
        }
      ],
      "name": "getAgentInstances",
      "outputs": [
        {
          "internalType": "uint256",
          "name": "numAgentInstances",
          "type": "uint256"
        },
        {
          "internalType": "address[]",
          "name": "agentInstances",
          "type": "address[]"
        }
      ],
      "stateMutability": "view",
      "type": "function"
    },
    {
      "inputs": [
        {
          "internalType": "uint256",
          "name": "serviceId",
          "type": "uint256"
        }
      ],
      "name": "getAgentParams",
      "outputs": [
        {
          "internalType": "uint256",
          "name": "numAgentIds",
          "type": "uint256"
        },
        {
          "components": [
            {
              "internalType": "uint32",
              "name": "slots",
              "type": "uint32"
            },
            {
              "internalType": "uint96",
              "name": "bond",
              "type": "uint96"
            }
          ],
          "internalType": "struct AgentParams[]",
          "name": "agentParams",
          "type": "tuple[]"
        }
      ],
      "stateMutability": "view",
      "type": "function"
    },
    {
      "inputs": [
        {
          "internalType": "uint256",
          "name": "",
          "type": "uint256"
        }
      ],
      "name": "getApproved",
      "outputs": [
        {
          "internalType": "address",
          "name": "",
          "type": "address"
        }
      ],
      "stateMutability": "view",
      "type": "function"
    },
    {
      "inputs": [
        {
          "internalType": "uint256",
          "name": "serviceId",
          "type": "uint256"
        },
        {
          "internalType": "uint256",
          "name": "agentId",
          "type": "uint256"
        }
      ],
      "name": "getInstancesForAgentId",
      "outputs": [
        {
          "internalType": "uint256",
          "name": "numAgentInstances",
          "type": "uint256"
        },
        {
          "internalType": "address[]",
          "name": "agentInstances",
          "type": "address[]"
        }
      ],
      "stateMutability": "view",
      "type": "function"
    },
    {
      "inputs": [
        {
          "internalType": "address",
          "name": "operator",
          "type": "address"
        },
        {
          "internalType": "uint256",
          "name": "serviceId",
          "type": "uint256"
        }
      ],
      "name": "getOperatorBalance",
      "outputs": [
        {
          "internalType": "uint256",
          "name": "balance",
          "type": "uint256"
        }
      ],
      "stateMutability": "view",
      "type": "function"
    },
    {
      "inputs": [
        {
          "internalType": "uint256",
          "name": "serviceId",
          "type": "uint256"
        }
      ],
      "name": "getPreviousHashes",
      "outputs": [
        {
          "internalType": "uint256",
          "name": "numHashes",
          "type": "uint256"
        },
        {
          "internalType": "bytes32[]",
          "name": "configHashes",
          "type": "bytes32[]"
        }
      ],
      "stateMutability": "view",
      "type": "function"
    },
    {
      "inputs": [
        {
          "internalType": "uint256",
          "name": "serviceId",
          "type": "uint256"
        }
      ],
      "name": "getService",
      "outputs": [
        {
          "components": [
            {
              "internalType": "uint96",
              "name": "securityDeposit",
              "type": "uint96"
            },
            {
              "internalType": "address",
              "name": "multisig",
              "type": "address"
            },
            {
              "internalType": "bytes32",
              "name": "description",
              "type": "bytes32"
            },
            {
              "internalType": "bytes32",
              "name": "configHash",
              "type": "bytes32"
            },
            {
              "internalType": "uint32",
              "name": "threshold",
              "type": "uint32"
            },
            {
              "internalType": "uint32",
              "name": "maxNumAgentInstances",
              "type": "uint32"
            },
            {
              "internalType": "uint32",
              "name": "numAgentInstances",
              "type": "uint32"
            },
            {
              "internalType": "enum ServiceRegistry.ServiceState",
              "name": "state",
              "type": "uint8"
            },
            {
              "internalType": "uint32[]",
              "name": "agentIds",
              "type": "uint32[]"
            }
          ],
          "internalType": "struct ServiceRegistry.Service",
          "name": "service",
          "type": "tuple"
        }
      ],
      "stateMutability": "view",
      "type": "function"
    },
    {
      "inputs": [
        {
          "internalType": "enum IRegistry.UnitType",
          "name": "unitType",
          "type": "uint8"
        },
        {
          "internalType": "uint256",
          "name": "serviceId",
          "type": "uint256"
        }
      ],
      "name": "getUnitIdsOfService",
      "outputs": [
        {
          "internalType": "uint256",
          "name": "numUnitIds",
          "type": "uint256"
        },
        {
          "internalType": "uint32[]",
          "name": "unitIds",
          "type": "uint32[]"
        }
      ],
      "stateMutability": "view",
      "type": "function"
    },
    {
      "inputs": [
        {
          "internalType": "address",
          "name": "",
          "type": "address"
        },
        {
          "internalType": "address",
          "name": "",
          "type": "address"
        }
      ],
      "name": "isApprovedForAll",
      "outputs": [
        {
          "internalType": "bool",
          "name": "",
          "type": "bool"
        }
      ],
      "stateMutability": "view",
      "type": "function"
    },
    {
      "inputs": [],
      "name": "manager",
      "outputs": [
        {
          "internalType": "address",
          "name": "",
          "type": "address"
        }
      ],
      "stateMutability": "view",
      "type": "function"
    },
    {
      "inputs": [
        {
          "internalType": "address",
          "name": "",
          "type": "address"
        }
      ],
      "name": "mapAgentInstanceOperators",
      "outputs": [
        {
          "internalType": "address",
          "name": "",
          "type": "address"
        }
      ],
      "stateMutability": "view",
      "type": "function"
    },
    {
      "inputs": [
        {
          "internalType": "uint256",
          "name": "",
          "type": "uint256"
        },
        {
          "internalType": "uint256",
          "name": "",
          "type": "uint256"
        }
      ],
      "name": "mapConfigHashes",
      "outputs": [
        {
          "internalType": "bytes32",
          "name": "",
          "type": "bytes32"
        }
      ],
      "stateMutability": "view",
      "type": "function"
    },
    {
      "inputs": [
        {
          "internalType": "address",
          "name": "",
          "type": "address"
        }
      ],
      "name": "mapMultisigs",
      "outputs": [
        {
          "internalType": "bool",
          "name": "",
          "type": "bool"
        }
      ],
      "stateMutability": "view",
      "type": "function"
    },
    {
      "inputs": [
        {
          "internalType": "uint256",
          "name": "",
          "type": "uint256"
        },
        {
          "internalType": "uint256",
          "name": "",
          "type": "uint256"
        }
      ],
      "name": "mapOperatorAndServiceIdAgentInstances",
      "outputs": [
        {
          "internalType": "address",
          "name": "instance",
          "type": "address"
        },
        {
          "internalType": "uint32",
          "name": "agentId",
          "type": "uint32"
        }
      ],
      "stateMutability": "view",
      "type": "function"
    },
    {
      "inputs": [
        {
          "internalType": "uint256",
          "name": "",
          "type": "uint256"
        }
      ],
      "name": "mapOperatorAndServiceIdOperatorBalances",
      "outputs": [
        {
          "internalType": "uint96",
          "name": "",
          "type": "uint96"
        }
      ],
      "stateMutability": "view",
      "type": "function"
    },
    {
      "inputs": [
        {
          "internalType": "uint256",
          "name": "",
          "type": "uint256"
        },
        {
          "internalType": "uint256",
          "name": "",
          "type": "uint256"
        }
      ],
      "name": "mapServiceAndAgentIdAgentInstances",
      "outputs": [
        {
          "internalType": "address",
          "name": "",
          "type": "address"
        }
      ],
      "stateMutability": "view",
      "type": "function"
    },
    {
      "inputs": [
        {
          "internalType": "uint256",
          "name": "",
          "type": "uint256"
        }
      ],
      "name": "mapServiceAndAgentIdAgentParams",
      "outputs": [
        {
          "internalType": "uint32",
          "name": "slots",
          "type": "uint32"
        },
        {
          "internalType": "uint96",
          "name": "bond",
          "type": "uint96"
        }
      ],
      "stateMutability": "view",
      "type": "function"
    },
    {
      "inputs": [
        {
          "internalType": "uint256",
          "name": "",
          "type": "uint256"
        },
        {
          "internalType": "uint256",
          "name": "",
          "type": "uint256"
        }
      ],
      "name": "mapServiceIdSetAgentIds",
      "outputs": [
        {
          "internalType": "uint32",
          "name": "",
          "type": "uint32"
        }
      ],
      "stateMutability": "view",
      "type": "function"
    },
    {
      "inputs": [
        {
          "internalType": "uint256",
          "name": "",
          "type": "uint256"
        },
        {
          "internalType": "uint256",
          "name": "",
          "type": "uint256"
        }
      ],
      "name": "mapServiceIdSetComponentIds",
      "outputs": [
        {
          "internalType": "uint32",
          "name": "",
          "type": "uint32"
        }
      ],
      "stateMutability": "view",
      "type": "function"
    },
    {
      "inputs": [
        {
          "internalType": "uint256",
          "name": "",
          "type": "uint256"
        }
      ],
      "name": "mapServices",
      "outputs": [
        {
          "internalType": "uint96",
          "name": "securityDeposit",
          "type": "uint96"
        },
        {
          "internalType": "address",
          "name": "multisig",
          "type": "address"
        },
        {
          "internalType": "bytes32",
          "name": "description",
          "type": "bytes32"
        },
        {
          "internalType": "bytes32",
          "name": "configHash",
          "type": "bytes32"
        },
        {
          "internalType": "uint32",
          "name": "threshold",
          "type": "uint32"
        },
        {
          "internalType": "uint32",
          "name": "maxNumAgentInstances",
          "type": "uint32"
        },
        {
          "internalType": "uint32",
          "name": "numAgentInstances",
          "type": "uint32"
        },
        {
          "internalType": "enum ServiceRegistry.ServiceState",
          "name": "state",
          "type": "uint8"
        }
      ],
      "stateMutability": "view",
      "type": "function"
    },
    {
      "inputs": [],
      "name": "name",
      "outputs": [
        {
          "internalType": "string",
          "name": "",
          "type": "string"
        }
      ],
      "stateMutability": "view",
      "type": "function"
    },
    {
      "inputs": [],
      "name": "owner",
      "outputs": [
        {
          "internalType": "address",
          "name": "",
          "type": "address"
        }
      ],
      "stateMutability": "view",
      "type": "function"
    },
    {
      "inputs": [
        {
          "internalType": "uint256",
          "name": "id",
          "type": "uint256"
        }
      ],
      "name": "ownerOf",
      "outputs": [
        {
          "internalType": "address",
          "name": "owner",
          "type": "address"
        }
      ],
      "stateMutability": "view",
      "type": "function"
    },
    {
      "inputs": [
        {
          "internalType": "address",
          "name": "operator",
          "type": "address"
        },
        {
          "internalType": "uint256",
          "name": "serviceId",
          "type": "uint256"
        },
        {
          "internalType": "address[]",
          "name": "agentInstances",
          "type": "address[]"
        },
        {
          "internalType": "uint32[]",
          "name": "agentIds",
          "type": "uint32[]"
        }
      ],
      "name": "registerAgents",
      "outputs": [
        {
          "internalType": "bool",
          "name": "success",
          "type": "bool"
        }
      ],
      "stateMutability": "payable",
      "type": "function"
    },
    {
      "inputs": [
        {
          "internalType": "address",
          "name": "from",
          "type": "address"
        },
        {
          "internalType": "address",
          "name": "to",
          "type": "address"
        },
        {
          "internalType": "uint256",
          "name": "id",
          "type": "uint256"
        }
      ],
      "name": "safeTransferFrom",
      "outputs": [],
      "stateMutability": "nonpayable",
      "type": "function"
    },
    {
      "inputs": [
        {
          "internalType": "address",
          "name": "from",
          "type": "address"
        },
        {
          "internalType": "address",
          "name": "to",
          "type": "address"
        },
        {
          "internalType": "uint256",
          "name": "id",
          "type": "uint256"
        },
        {
          "internalType": "bytes",
          "name": "data",
          "type": "bytes"
        }
      ],
      "name": "safeTransferFrom",
      "outputs": [],
      "stateMutability": "nonpayable",
      "type": "function"
    },
    {
      "inputs": [
        {
          "internalType": "address",
          "name": "operator",
          "type": "address"
        },
        {
          "internalType": "bool",
          "name": "approved",
          "type": "bool"
        }
      ],
      "name": "setApprovalForAll",
      "outputs": [],
      "stateMutability": "nonpayable",
      "type": "function"
    },
    {
      "inputs": [
        {
          "internalType": "string",
          "name": "bURI",
          "type": "string"
        }
      ],
      "name": "setBaseURI",
      "outputs": [],
      "stateMutability": "nonpayable",
      "type": "function"
    },
    {
      "inputs": [
        {
          "internalType": "address[]",
          "name": "agentInstances",
          "type": "address[]"
        },
        {
          "internalType": "uint96[]",
          "name": "amounts",
          "type": "uint96[]"
        },
        {
          "internalType": "uint256",
          "name": "serviceId",
          "type": "uint256"
        }
      ],
      "name": "slash",
      "outputs": [
        {
          "internalType": "bool",
          "name": "success",
          "type": "bool"
        }
      ],
      "stateMutability": "nonpayable",
      "type": "function"
    },
    {
      "inputs": [],
      "name": "slashedFunds",
      "outputs": [
        {
          "internalType": "uint96",
          "name": "",
          "type": "uint96"
        }
      ],
      "stateMutability": "view",
      "type": "function"
    },
    {
      "inputs": [
        {
          "internalType": "bytes4",
          "name": "interfaceId",
          "type": "bytes4"
        }
      ],
      "name": "supportsInterface",
      "outputs": [
        {
          "internalType": "bool",
          "name": "",
          "type": "bool"
        }
      ],
      "stateMutability": "view",
      "type": "function"
    },
    {
      "inputs": [],
      "name": "symbol",
      "outputs": [
        {
          "internalType": "string",
          "name": "",
          "type": "string"
        }
      ],
      "stateMutability": "view",
      "type": "function"
    },
    {
      "inputs": [
        {
          "internalType": "address",
          "name": "serviceOwner",
          "type": "address"
        },
        {
          "internalType": "uint256",
          "name": "serviceId",
          "type": "uint256"
        }
      ],
      "name": "terminate",
      "outputs": [
        {
          "internalType": "bool",
          "name": "success",
          "type": "bool"
        },
        {
          "internalType": "uint256",
          "name": "refund",
          "type": "uint256"
        }
      ],
      "stateMutability": "nonpayable",
      "type": "function"
    },
    {
      "inputs": [
        {
          "internalType": "uint256",
          "name": "id",
          "type": "uint256"
        }
      ],
      "name": "tokenByIndex",
      "outputs": [
        {
          "internalType": "uint256",
          "name": "unitId",
          "type": "uint256"
        }
      ],
      "stateMutability": "view",
      "type": "function"
    },
    {
      "inputs": [
        {
          "internalType": "uint256",
          "name": "unitId",
          "type": "uint256"
        }
      ],
      "name": "tokenURI",
      "outputs": [
        {
          "internalType": "string",
          "name": "",
          "type": "string"
        }
      ],
      "stateMutability": "view",
      "type": "function"
    },
    {
      "inputs": [],
      "name": "totalSupply",
      "outputs": [
        {
          "internalType": "uint256",
          "name": "",
          "type": "uint256"
        }
      ],
      "stateMutability": "view",
      "type": "function"
    },
    {
      "inputs": [
        {
          "internalType": "address",
          "name": "from",
          "type": "address"
        },
        {
          "internalType": "address",
          "name": "to",
          "type": "address"
        },
        {
          "internalType": "uint256",
          "name": "id",
          "type": "uint256"
        }
      ],
      "name": "transferFrom",
      "outputs": [],
      "stateMutability": "nonpayable",
      "type": "function"
    },
    {
      "inputs": [
        {
          "internalType": "address",
          "name": "operator",
          "type": "address"
        },
        {
          "internalType": "uint256",
          "name": "serviceId",
          "type": "uint256"
        }
      ],
      "name": "unbond",
      "outputs": [
        {
          "internalType": "bool",
          "name": "success",
          "type": "bool"
        },
        {
          "internalType": "uint256",
          "name": "refund",
          "type": "uint256"
        }
      ],
      "stateMutability": "nonpayable",
      "type": "function"
    },
    {
      "inputs": [
        {
          "internalType": "address",
          "name": "serviceOwner",
          "type": "address"
        },
        {
          "internalType": "bytes32",
          "name": "description",
          "type": "bytes32"
        },
        {
          "internalType": "bytes32",
          "name": "configHash",
          "type": "bytes32"
        },
        {
          "internalType": "uint32[]",
          "name": "agentIds",
          "type": "uint32[]"
        },
        {
          "components": [
            {
              "internalType": "uint32",
              "name": "slots",
              "type": "uint32"
            },
            {
              "internalType": "uint96",
              "name": "bond",
              "type": "uint96"
            }
          ],
          "internalType": "struct AgentParams[]",
          "name": "agentParams",
          "type": "tuple[]"
        },
        {
          "internalType": "uint32",
          "name": "threshold",
          "type": "uint32"
        },
        {
          "internalType": "uint256",
          "name": "serviceId",
          "type": "uint256"
        }
      ],
      "name": "update",
      "outputs": [
        {
          "internalType": "bool",
          "name": "success",
          "type": "bool"
        }
      ],
      "stateMutability": "nonpayable",
      "type": "function"
    },
    {
      "stateMutability": "payable",
      "type": "receive"
    }
  ],
  "bytecode": "0x60a06040526001600a553480156200001657600080fd5b506040516200676d3803806200676d833981016040819052620000399162000160565b83836000620000498382620002a2565b506001620000588282620002a2565b50600891506200006b90508382620002a2565b506001600160a01b03166080525050600680546001600160a01b03191633179055506200036e565b634e487b7160e01b600052604160045260246000fd5b600082601f830112620000bb57600080fd5b81516001600160401b0380821115620000d857620000d862000093565b604051601f8301601f19908116603f0116810190828211818310171562000103576200010362000093565b816040528381526020925086838588010111156200012057600080fd5b600091505b8382101562000144578582018301518183018401529082019062000125565b83821115620001565760008385830101525b9695505050505050565b600080600080608085870312156200017757600080fd5b84516001600160401b03808211156200018f57600080fd5b6200019d88838901620000a9565b95506020870151915080821115620001b457600080fd5b620001c288838901620000a9565b94506040870151915080821115620001d957600080fd5b50620001e887828801620000a9565b606087015190935090506001600160a01b03811681146200020857600080fd5b939692955090935050565b600181811c908216806200022857607f821691505b6020821081036200024957634e487b7160e01b600052602260045260246000fd5b50919050565b601f8211156200029d57600081815260208120601f850160051c81016020861015620002785750805b601f850160051c820191505b81811015620002995782815560010162000284565b5050505b505050565b81516001600160401b03811115620002be57620002be62000093565b620002d681620002cf845462000213565b846200024f565b602080601f8311600181146200030e5760008415620002f55750858301515b600019600386901b1c1916600185901b17855562000299565b600085815260208120601f198616915b828110156200033f578886015182559484019460019091019084016200031e565b50858210156200035e5787850151600019600388901b60f8161c191681555b5050505050600190811b01905550565b6080516163d56200039860003960008181610448015281816147620152614b6201526163d56000f3fe6080604052600436106103385760003560e01c80636c0360eb116101b0578063a5d059ca116100ec578063d633b02d11610095578063e985e9c51161006f578063e985e9c514610b3e578063ef0e239b14610b79578063f908bc7714610ba6578063ffa1ad7414610bc657610356565b8063d633b02d14610af8578063dff7672414610b18578063e23f6fb414610b2b57610356565b8063b88d4fde116100c6578063b88d4fde14610a98578063c87b56dd14610ab8578063ccc9305d14610ad857610356565b8063a5d059ca14610a13578063a60e4c3c14610a4a578063a6f9dae114610a7857610356565b806386a2bdd41161015957806392080b231161013357806392080b231461099057806395d89b41146109be578063a22cb465146109d3578063a3fbbaae146109f357610356565b806386a2bdd41461090b5780638a2bd86f1461092b5780638da5cb5b1461097057610356565b8063718934d81161018a578063718934d81461088757806373b8b6a2146108cb57806382694b1d146108eb57610356565b80636c0360eb146108325780636f99f15c1461084757806370a082311461086757610356565b8063421448541161027f5780634f558e791161022857806359ae1e151161020257806359ae1e15146107685780635e4507fa146107885780636352211e146107a857806363dd7615146107c857610356565b80634f558e79146107085780634f6ccce71461072857806355f804b31461074857610356565b8063481c6a7511610259578063481c6a75146106925780634d486f85146106b25780634eb780da146106d257610356565b8063421448541461058f5780634236aff8146105dd57806342842e0e1461067257610356565b806318160ddd116102e157806323b872dd116102bb57806323b872dd1461051a578063323e01071461053a578063406f14ad1461056f57610356565b806318160ddd1461049a5780631de286ba146104be57806321e4f7bb146104ec57610356565b8063095ea7b311610312578063095ea7b3146104145780630d1cfcae1461043657806317351f7e1461046a57610356565b806301ffc9a71461036f57806306fdde03146103a4578063081812fc146103c657610356565b3661035657604051630afc5a5160e41b815260040160405180910390fd5b604051630afc5a5160e41b815260040160405180910390fd5b34801561037b57600080fd5b5061038f61038a3660046153b5565b610c0f565b60405190151581526020015b60405180910390f35b3480156103b057600080fd5b506103b9610cac565b60405161039b9190615435565b3480156103d257600080fd5b506103fc6103e1366004615448565b6004602052600090815260409020546001600160a01b031681565b6040516001600160a01b03909116815260200161039b565b34801561042057600080fd5b5061043461042f366004615476565b610d3a565b005b34801561044257600080fd5b506103fc7f000000000000000000000000000000000000000000000000000000000000000081565b34801561047657600080fd5b5061038f6104853660046154a2565b60146020526000908152604090205460ff1681565b3480156104a657600080fd5b506104b060095481565b60405190815260200161039b565b3480156104ca57600080fd5b506104de6104d9366004615448565b610e30565b60405161039b9291906154bf565b3480156104f857600080fd5b5061050c610507366004615526565b611091565b60405161039b92919061558c565b34801561052657600080fd5b506104346105353660046155ad565b61117f565b34801561054657600080fd5b5061055a610555366004615526565b611374565b60405163ffffffff909116815260200161039b565b34801561057b57600080fd5b5061055a61058a366004615526565b6113bd565b34801561059b57600080fd5b506105c56105aa366004615448565b6010602052600090815260409020546001600160601b031681565b6040516001600160601b03909116815260200161039b565b3480156105e957600080fd5b5061065e6105f8366004615448565b60156020526000908152604090208054600182015460028301546003909301546001600160601b03831693600160601b938490046001600160a01b031693909163ffffffff808216926401000000008304821692600160401b8104909216910460ff1688565b60405161039b989796959493929190615626565b34801561067e57600080fd5b5061043461068d3660046155ad565b6113d9565b34801561069e57600080fd5b506007546103fc906001600160a01b031681565b3480156106be57600080fd5b5061050c6106cd366004615448565b6114ce565b3480156106de57600080fd5b506103fc6106ed3660046154a2565b6011602052600090815260409020546001600160a01b031681565b34801561071457600080fd5b5061038f610723366004615448565b611629565b34801561073457600080fd5b506104b0610743366004615448565b61164b565b34801561075457600080fd5b50610434610763366004615752565b6116a9565b34801561077457600080fd5b506104b06107833660046158eb565b611752565b34801561079457600080fd5b506103fc6107a3366004615526565b611a6c565b3480156107b457600080fd5b506103fc6107c3366004615448565b611aa4565b3480156107d457600080fd5b5061080e6107e3366004615448565b600e6020526000908152604090205463ffffffff81169064010000000090046001600160601b031682565b6040805163ffffffff90931683526001600160601b0390911660208301520161039b565b34801561083e57600080fd5b506103b9611b09565b34801561085357600080fd5b50600b546105c5906001600160601b031681565b34801561087357600080fd5b506104b06108823660046154a2565b611b16565b34801561089357600080fd5b506108a76108a2366004615526565b611b8a565b604080516001600160a01b03909316835263ffffffff90911660208301520161039b565b3480156108d757600080fd5b5061038f6108e63660046159ec565b611bd0565b3480156108f757600080fd5b5061038f610906366004615ab6565b612048565b34801561091757600080fd5b506104b0610926366004615526565b6120e1565b34801561093757600080fd5b506104b0610946366004615476565b60a01b6001600160a01b03909116176000908152601060205260409020546001600160601b031690565b34801561097c57600080fd5b506006546103fc906001600160a01b031681565b34801561099c57600080fd5b506109b06109ab366004615af4565b612112565b60405161039b929190615b4c565b3480156109ca57600080fd5b506103b961224d565b3480156109df57600080fd5b506104346109ee366004615ab6565b61225a565b3480156109ff57600080fd5b50610434610a0e3660046154a2565b6122c6565b348015610a1f57600080fd5b50610a33610a2e366004615476565b612377565b60408051921515835260208301919091520161039b565b348015610a5657600080fd5b50610a6a610a65366004615448565b612830565b60405161039b929190615b65565b348015610a8457600080fd5b50610434610a933660046154a2565b612894565b348015610aa457600080fd5b50610434610ab3366004615bb3565b612945565b348015610ac457600080fd5b506103b9610ad3366004615448565b612a2a565b348015610ae457600080fd5b50610a33610af3366004615476565b612a5e565b348015610b0457600080fd5b5061038f610b13366004615c52565b612fd2565b61038f610b26366004615cfa565b61357d565b61038f610b39366004615476565b613e04565b348015610b4a57600080fd5b5061038f610b59366004615d7a565b600560209081526000928352604080842090915290825290205460ff1681565b348015610b8557600080fd5b50610b99610b94366004615448565b61420c565b60405161039b9190615da8565b348015610bb257600080fd5b506103fc610bc1366004615e5d565b61439d565b348015610bd257600080fd5b506103b96040518060400160405280600581526020017f312e302e3000000000000000000000000000000000000000000000000000000081525081565b60007f01ffc9a7000000000000000000000000000000000000000000000000000000006001600160e01b031983161480610c7257507f80ac58cd000000000000000000000000000000000000000000000000000000006001600160e01b03198316145b80610ca657507f5b5e139f000000000000000000000000000000000000000000000000000000006001600160e01b03198316145b92915050565b60008054610cb990615ed1565b80601f0160208091040260200160405190810160405280929190818152602001828054610ce590615ed1565b8015610d325780601f10610d0757610100808354040283529160200191610d32565b820191906000526020600020905b815481529060010190602001808311610d1557829003601f168201915b505050505081565b6000818152600260205260409020546001600160a01b031633811480610d8357506001600160a01b038116600090815260056020908152604080832033845290915290205460ff165b610dd45760405162461bcd60e51b815260206004820152600e60248201527f4e4f545f415554484f52495a454400000000000000000000000000000000000060448201526064015b60405180910390fd5b60008281526004602052604080822080546001600160a01b0319166001600160a01b0387811691821790925591518593918516917f8c5be1e5ebec7d5bd14f71427d1e84f3dd0314c0f7b2291e5b200ac8c7c3b92591a4505050565b600081815260156020908152604080832081516101208101835281546001600160601b03811682526001600160a01b03600160601b9182900416948201949094526001820154928101929092526002810154606083810191909152600382015463ffffffff80821660808601526401000000008204811660a0860152600160401b82041660c085015290938593929160e084019160ff9104166005811115610eda57610eda6155ee565b6005811115610eeb57610eeb6155ee565b815260200160048201805480602002602001604051908101604052809291908181526020018280548015610f6a57602002820191906000526020600020906000905b82829054906101000a900463ffffffff1663ffffffff1681526020019060040190602082600301049283019260010382029150808411610f2d5790505b50505050508152505090508061010001515192508267ffffffffffffffff811115610f9757610f9761568a565b604051908082528060200260200182016040528015610fdc57816020015b6040805180820190915260008082526020820152815260200190600190039081610fb55790505b50915060005b8381101561108a5760008590506020836101000151838151811061100857611008615f0b565b60209081029190910181015163ffffffff90811690921b929092176000818152600e845260409081902081518083019092525492831681526401000000009092046001600160601b031692820192909252845185908490811061106d5761106d615f0b565b6020026020010181905250508061108390615f37565b9050610fe2565b5050915091565b602081811b83176000818152600f909252604090912054906060908267ffffffffffffffff8111156110c5576110c561568a565b6040519080825280602002602001820160405280156110ee578160200160208202803683370190505b50915060005b83811015611176576000828152600f6020526040902080548290811061111c5761111c615f0b565b9060005260206000200160009054906101000a90046001600160a01b031683828151811061114c5761114c615f0b565b6001600160a01b03909216602092830291909101909101528061116e81615f37565b9150506110f4565b50509250929050565b6000818152600260205260409020546001600160a01b038481169116146111e85760405162461bcd60e51b815260206004820152600a60248201527f57524f4e475f46524f4d000000000000000000000000000000000000000000006044820152606401610dcb565b6001600160a01b03821661123e5760405162461bcd60e51b815260206004820152601160248201527f494e56414c49445f524543495049454e540000000000000000000000000000006044820152606401610dcb565b336001600160a01b038416148061127857506001600160a01b038316600090815260056020908152604080832033845290915290205460ff165b8061129957506000818152600460205260409020546001600160a01b031633145b6112e55760405162461bcd60e51b815260206004820152600e60248201527f4e4f545f415554484f52495a45440000000000000000000000000000000000006044820152606401610dcb565b6001600160a01b0380841660008181526003602090815260408083208054600019019055938616808352848320805460010190558583526002825284832080546001600160a01b03199081168317909155600490925284832080549092169091559251849392917fddf252ad1be2c89b69c2b068fc378daa952ba7f163c4a11628f55a4df523b3ef91a4505050565b6012602052816000526040600020818154811061139057600080fd5b9060005260206000209060089182820401919006600402915091509054906101000a900463ffffffff1681565b6013602052816000526040600020818154811061139057600080fd5b6113e483838361117f565b6001600160a01b0382163b156114c957604051630a85bd0160e11b8082523360048301526001600160a01b03858116602484015260448301849052608060648401526000608484015290919084169063150b7a029060a4016020604051808303816000875af115801561145b573d6000803e3d6000fd5b505050506040513d601f19601f8201168201806040525081019061147f9190615f50565b6001600160e01b031916146114c95760405162461bcd60e51b815260206004820152601060248201526f155394d0519157d49150d2541251539560821b6044820152606401610dcb565b505050565b600081815260156020908152604080832081516101208101835281546001600160601b03811682526001600160a01b03600160601b9182900416948201949094526001820154928101929092526002810154606083810191909152600382015463ffffffff80821660808601526401000000008204811660a0860152600160401b82041660c085015290938593929160e084019160ff9104166005811115611578576115786155ee565b6005811115611589576115896155ee565b81526020016004820180548060200260200160405190810160405280929190818152602001828054801561160857602002820191906000526020600020906000905b82829054906101000a900463ffffffff1663ffffffff16815260200190600401906020826003010492830192600103820291508084116115cb5790505b505050505081525050905061161d818561498c565b91508151925050915091565b60008082118015610ca65750600954611643906001615f6d565b821092915050565b6000611658826001615f6d565b90506009548111156116a4576009546040517f7ae59685000000000000000000000000000000000000000000000000000000008152610dcb918391600401918252602082015260400190565b919050565b6006546001600160a01b031633146116e95760065460405163521eb56d60e11b81523360048201526001600160a01b039091166024820152604401610dcb565b805160000361170b57604051637c946ed760e01b815260040160405180910390fd5b60086117178282615fd3565b507f5411e8ebf1636d9e83d5fc4900bf80cbac82e8790da2a4c94db4895e889eedf6816040516117479190615435565b60405180910390a150565b60006001600a541115611778576040516345f5ce8b60e11b815260040160405180910390fd5b6002600a556007546001600160a01b031633146117bd5760075460405163312d21ff60e11b81523360048201526001600160a01b039091166024820152604401610dcb565b6001600160a01b0387166117e45760405163d92e233d60e01b815260040160405180910390fd5b6117f086868686614adf565b60005b84518110156118845783818151811061180e5761180e615f0b565b60200260200101516000015163ffffffff1660001480611854575083818151811061183b5761183b615f0b565b6020026020010151602001516001600160601b03166000145b1561187257604051637c946ed760e01b815260040160405180910390fd5b8061187c81615f37565b9150506117f3565b50506009548061189381615f37565b9150506118e56040805161012081018252600080825260208201819052918101829052606081018290526080810182905260a0810182905260c081018290529060e08201908152602001606081525090565b6040810187905263ffffffff83166080820152600060a082015260608101869052600160e08201818152505061191f818686885186614ce2565b6119298883614fab565b6000828152601560209081526040918290208351918401516001600160a01b0316600160601b9081026001600160601b0390931692909217815591830151600183015560608301516002830155608083015160038301805460a086015160c087015163ffffffff908116600160401b026bffffffff0000000000000000199282166401000000000267ffffffffffffffff199094169190951617919091179081168317825560e0860151869594909360ff60601b19166cffffffffff0000000000000000199092169190911790836005811115611a0857611a086155ee565b02179055506101008201518051611a29916004840191602090910190615244565b505050600982905560405182907f9169d45eacd63571e315a0504da919b7c89de505493e7b34051802dd0816a06990600090a2506001600a559695505050505050565b600f6020528160005260406000208181548110611a8857600080fd5b6000918252602090912001546001600160a01b03169150829050565b6000818152600260205260409020546001600160a01b0316806116a45760405162461bcd60e51b815260206004820152600a60248201527f4e4f545f4d494e544544000000000000000000000000000000000000000000006044820152606401610dcb565b60088054610cb990615ed1565b60006001600160a01b038216611b6e5760405162461bcd60e51b815260206004820152600c60248201527f5a45524f5f4144445245535300000000000000000000000000000000000000006044820152606401610dcb565b506001600160a01b031660009081526003602052604090205490565b600d6020528160005260406000208181548110611ba657600080fd5b6000918252602090912001546001600160a01b0381169250600160a01b900463ffffffff16905082565b600081815260156020908152604080832081516101208101835281546001600160601b0381168252600160601b908190046001600160a01b03169482019490945260018201549281019290925260028101546060830152600381015463ffffffff80821660808501526401000000008204811660a0850152600160401b82041660c0840152849360e08401910460ff166005811115611c7157611c716155ee565b6005811115611c8257611c826155ee565b815260200160048201805480602002602001604051908101604052809291908181526020018280548015611d0157602002820191906000526020600020906000905b82829054906101000a900463ffffffff1663ffffffff1681526020019060040190602082600301049283019260010382029150808411611cc45790505b505050505081525050905060046005811115611d1f57611d1f6155ee565b8160e001516005811115611d3557611d356155ee565b14611d74578060e001516005811115611d5057611d506155ee565b604051633c053f9d60e21b8152600481019190915260248101849052604401610dcb565b8351855114611da357845184516040516308151c1160e41b815260048101929092526024820152604401610dcb565b80602001516001600160a01b0316336001600160a01b031614611e105760208101516040517f79f91cd30000000000000000000000000000000000000000000000000000000081523360048201526001600160a01b03909116602482015260448101849052606401610dcb565b845160005b8181101561203b57600060116000898481518110611e3557611e35615f0b565b6020908102919091018101516001600160a01b03908116835282820193909352604091820160009081205490931660a08a901b81178085526010909252919092205489519193506001600160601b03169081908a9086908110611e9a57611e9a615f0b565b60200260200101516001611eae9190616093565b6001600160601b03161115611f0857600b8054829190600090611edb9084906001600160601b0316616093565b92506101000a8154816001600160601b0302191690836001600160601b0316021790555060009050611f8c565b888481518110611f1a57611f1a615f0b565b6020908102919091010151600b8054600090611f409084906001600160601b0316616093565b92506101000a8154816001600160601b0302191690836001600160601b03160217905550888481518110611f7657611f76615f0b565b602002602001015181611f8991906160be565b90505b600082815260106020526040902080546bffffffffffffffffffffffff19166001600160601b038316179055885188906001600160a01b038516907fa2e524bd0f71903485fbb3d6d50cb305f61005ceea2047c3ac92aa7e0d104306908c9088908110611ffb57611ffb615f0b565b602002602001015160405161201f91906001600160601b0391909116815260200190565b60405180910390a35050508061203490615f37565b9050611e15565b5060019695505050505050565b6006546000906001600160a01b0316331461208b5760065460405163521eb56d60e11b81523360048201526001600160a01b039091166024820152604401610dcb565b6001600160a01b0383166120b25760405163d92e233d60e01b815260040160405180910390fd5b506001600160a01b03919091166000908152601460205260409020805460ff1916911515919091179055600190565b600c60205281600052604060002081815481106120fd57600080fd5b90600052602060002001600091509150505481565b6000606081846001811115612129576121296155ee565b036121ba57600083815260126020908152604091829020805483518184028101840190945280845290918301828280156121ae57602002820191906000526020600020906000905b82829054906101000a900463ffffffff1663ffffffff16815260200190600401906020826003010492830192600103820291508084116121715790505b50505050509050612242565b6000838152601360209081526040918290208054835181840281018401909452808452909183018282801561223a57602002820191906000526020600020906000905b82829054906101000a900463ffffffff1663ffffffff16815260200190600401906020826003010492830192600103820291508084116121fd5790505b505050505090505b805191509250929050565b60018054610cb990615ed1565b3360008181526005602090815260408083206001600160a01b03871680855290835292819020805460ff191686151590811790915590519081529192917f17307eab39ab6107e8899845ad3d59bd9653f200f220920489ca2b5937696c31910160405180910390a35050565b6006546001600160a01b031633146123065760065460405163521eb56d60e11b81523360048201526001600160a01b039091166024820152604401610dcb565b6001600160a01b03811661232d5760405163d92e233d60e01b815260040160405180910390fd5b600780546001600160a01b0319166001600160a01b0383169081179091556040517f2c1c11af44aa5608f1dca38c00275c30ea091e02417d36e70e9a1538689c433d90600090a250565b6000806001600a54111561239e576040516345f5ce8b60e11b815260040160405180910390fd5b6002600a556007546001600160a01b031633146123e35760075460405163312d21ff60e11b81523360048201526001600160a01b039091166024820152604401610dcb565b6001600160a01b03841661240a5760405163d92e233d60e01b815260040160405180910390fd5b600083815260156020526040902060056003820154600160601b900460ff16600581111561243a5761243a6155ee565b14612483576003810154600160601b900460ff16600581111561245f5761245f6155ee565b604051633c053f9d60e21b8152600481019190915260248101859052604401610dcb565b60a084901b6001600160a01b038616176000818152600d6020908152604080832080548251818502810185019093528083529192909190849084015b8282101561250b57600084815260209081902060408051808201909152908401546001600160a01b0381168252600160a01b900463ffffffff16818301528252600190920191016124bf565b5050825192935050506000819003612561576040517fdf2ddd730000000000000000000000000000000000000000000000000000000081526001600160a01b038916600482015260248101889052604401610dcb565b808460030160088282829054906101000a900463ffffffff1661258491906160e6565b92506101000a81548163ffffffff021916908363ffffffff1602179055508360030160089054906101000a900463ffffffff1663ffffffff166000036125da5760038401805460ff60601b1916600160601b1790555b6000945060005b818110156126a6576000889050602084838151811061260257612602615f0b565b60209081029190910181015181015163ffffffff1690911b919091176000818152600e9092526040909120546126499064010000000090046001600160601b031688615f6d565b96506011600085848151811061266157612661615f0b565b602090810291909101810151516001600160a01b0316825281019190915260400160002080546001600160a01b0319169055508061269e81615f37565b9150506125e1565b506000838152600d602052604081206126be916152f3565b6000838152601060205260409020546001600160601b0316808611156126eb57806001600160601b031695505b85156127e45760008481526010602052604080822080546bffffffffffffffffffffffff19169055516001600160a01b038b169088908381818185875af1925050503d8060008114612759576040519150601f19603f3d011682016040523d82523d6000602084013e61275e565b606091505b505090508061279f5760405163cd3f165960e01b8152600060048201523060248201526001600160a01b038b16604482015260648101889052608401610dcb565b896001600160a01b03167fbb28353e4598c3b9199101a66e0989549b659a59a54d2c27fbb183f1932c8e6d886040516127da91815260200190565b60405180910390a2505b60405188906001600160a01b038b16907f5ebf7fe30be09f0f03b9195632508d95c8b67bf010c93abda67f70d5d9599d1e90600090a350506001600a8190559793965092945050505050565b6000818152600c60209081526040808320805482518185028101850190935280835260609383018282801561288457602002820191906000526020600020905b815481526020019060010190808311612870575b5050505050905080519150915091565b6006546001600160a01b031633146128d45760065460405163521eb56d60e11b81523360048201526001600160a01b039091166024820152604401610dcb565b6001600160a01b0381166128fb5760405163d92e233d60e01b815260040160405180910390fd5b600680546001600160a01b0319166001600160a01b0383169081179091556040517f4ffd725fc4a22075e9ec71c59edf9c38cdeb588a91b24fc5b61388c5be41282b90600090a250565b61295085858561117f565b6001600160a01b0384163b15612a2357604051630a85bd0160e11b808252906001600160a01b0386169063150b7a02906129969033908a90899089908990600401616103565b6020604051808303816000875af11580156129b5573d6000803e3d6000fd5b505050506040513d601f19601f820116820180604052508101906129d99190615f50565b6001600160e01b03191614612a235760405162461bcd60e51b815260206004820152601060248201526f155394d0519157d49150d2541251539560821b6044820152606401610dcb565b5050505050565b60606008612a378361509b565b604051602001612a48929190616157565b6040516020818303038152906040529050919050565b6000806001600a541115612a85576040516345f5ce8b60e11b815260040160405180910390fd5b6002600a556007546001600160a01b03163314612aca5760075460405163312d21ff60e11b81523360048201526001600160a01b039091166024820152604401610dcb565b6000612ad584611aa4565b9050846001600160a01b0316816001600160a01b031614612b1c5760405163521eb56d60e11b81526001600160a01b03808716600483015282166024820152604401610dcb565b600084815260156020908152604080832081516101208101835281546001600160601b03811682526001600160a01b03600160601b91829004169482019490945260018201549281019290925260028101546060830152600381015463ffffffff80821660808501526401000000008204811660a0850152600160401b82041660c08401529192909160e084019160ff9104166005811115612bc057612bc06155ee565b6005811115612bd157612bd16155ee565b815260200160048201805480602002602001604051908101604052809291908181526020018280548015612c5057602002820191906000526020600020906000905b82829054906101000a900463ffffffff1663ffffffff1681526020019060040190602082600301049283019260010382029150808411612c135790505b505050505081525050905060016005811115612c6e57612c6e6155ee565b8160e001516005811115612c8457612c846155ee565b1480612ca5575060058160e001516005811115612ca357612ca36155ee565b145b15612ce4578060e001516005811115612cc057612cc06155ee565b604051633c053f9d60e21b8152600481019190915260248101869052604401610dcb565b60c081015163ffffffff1615612d0057600560e0820152612d08565b600160e08201525b6000858152601560209081526040918290208351918401516001600160a01b0316600160601b9081026001600160601b0390931692909217815591830151600183015560608301516002830155608083015160038301805460a086015160c087015163ffffffff908116600160401b026bffffffff0000000000000000199282166401000000000267ffffffffffffffff199094169190951617919091179081168317825560e0860151869594909360ff60601b19166cffffffffff0000000000000000199092169190911790836005811115612de757612de76155ee565b02179055506101008201518051612e08916004840191602090910190615244565b5050506000858152601260205260408120612e2291615314565b6000858152601360205260408120612e3991615314565b60005b81610100015151811015612eac57600086905060208361010001518381518110612e6857612e68615f0b565b602002602001015163ffffffff16901b81179050600f60008281526020019081526020016000206000612e9b9190615339565b50612ea581615f37565b9050612e3c565b5080600001516001600160601b031692506000866001600160a01b03168460405160006040518083038185875af1925050503d8060008114612f0a576040519150601f19603f3d011682016040523d82523d6000602084013e612f0f565b606091505b5050905080612f505760405163cd3f165960e01b8152600060048201523060248201526001600160a01b038816604482015260648101859052608401610dcb565b866001600160a01b03167fbb28353e4598c3b9199101a66e0989549b659a59a54d2c27fbb183f1932c8e6d85604051612f8b91815260200190565b60405180910390a260405186907fe45f5b9540df4f71b7e044809fa318806328c1ea2388a70c7373d97ccf8a0faa90600090a250506001600a819055959194509092505050565b6007546000906001600160a01b031633146130155760075460405163312d21ff60e11b81523360048201526001600160a01b039091166024820152604401610dcb565b600061302083611aa4565b9050886001600160a01b0316816001600160a01b0316146130675760405163521eb56d60e11b81526001600160a01b03808b16600483015282166024820152604401610dcb565b600083815260156020908152604080832081516101208101835281546001600160601b03811682526001600160a01b03600160601b91829004169482019490945260018201549281019290925260028101546060830152600381015463ffffffff80821660808501526401000000008204811660a0850152600160401b82041660c08401529192909160e084019160ff910416600581111561310b5761310b6155ee565b600581111561311c5761311c6155ee565b81526020016004820180548060200260200160405190810160405280929190818152602001828054801561319b57602002820191906000526020600020906000905b82829054906101000a900463ffffffff1663ffffffff168152602001906004019060208260030104928301926001038202915080841161315e5790505b5050505050815250509050600160058111156131b9576131b96155ee565b8160e0015160058111156131cf576131cf6155ee565b146131ea578060e00151600581111561245f5761245f6155ee565b6131f689898989614adf565b6040810189905263ffffffff85166080820152600060a08201819052875167ffffffffffffffff81111561322c5761322c61568a565b604051908082528060200260200182016040528015613255578160200160208202803683370190505b5090506000885167ffffffffffffffff8111156132745761327461568a565b6040519080825280602002602001820160405280156132b957816020015b60408051808201909152600080825260208201528152602001906001900390816132925790505b5090506000805b8a518110156133ee578981815181106132db576132db615f0b565b60200260200101516000015163ffffffff1660000361335057600088905060208c838151811061330d5761330d615f0b565b60209081029190910181015163ffffffff1690911b919091176000908152600e9091526040902080546fffffffffffffffffffffffffffffffff191690556133dc565b8a818151811061336257613362615f0b565b602002602001015184838151811061337c5761337c615f0b565b602002602001019063ffffffff16908163ffffffff16815250508981815181106133a8576133a8615f0b565b60200260200101518383815181106133c2576133c2615f0b565b602002602001018190525081806133d890615f37565b9250505b806133e681615f37565b9150506132c0565b5060608401518b8114613424576000888152600c6020908152604082208054600181018255908352912001819055606085018c90525b613431858585858c614ce2565b6000888152601560209081526040918290208751918801516001600160a01b0316600160601b9081026001600160601b0390931692909217815591870151600183015560608701516002830155608087015160038301805460a08a015160c08b015163ffffffff908116600160401b026bffffffff0000000000000000199282166401000000000267ffffffffffffffff199094169190951617919091179081168317825560e08a01518a9594909360ff60601b19166cffffffffff0000000000000000199092169190911790836005811115613510576135106155ee565b02179055506101008201518051613531916004840191602090910190615244565b50506040518d81528991507fff312ce131c4d73ac90ece91266be7090486c5e15f78b7ea2b108c36dfd475299060200160405180910390a25060019d9c50505050505050505050505050565b60006001600a5411156135a3576040516345f5ce8b60e11b815260040160405180910390fd5b6002600a556007546001600160a01b031633146135e85760075460405163312d21ff60e11b81523360048201526001600160a01b039091166024820152604401610dcb565b815183511461361757825182516040516308151c1160e41b815260048101929092526024820152604401610dcb565b600084815260156020908152604080832081516101208101835281546001600160601b03811682526001600160a01b03600160601b91829004169482019490945260018201549281019290925260028101546060830152600381015463ffffffff80821660808501526401000000008204811660a0850152600160401b82041660c08401529192909160e084019160ff91041660058111156136bb576136bb6155ee565b60058111156136cc576136cc6155ee565b81526020016004820180548060200260200160405190810160405280929190818152602001828054801561374b57602002820191906000526020600020906000905b82829054906101000a900463ffffffff1663ffffffff168152602001906004019060208260030104928301926001038202915080841161370e5790505b505050505081525050905060026005811115613769576137696155ee565b8160e00151600581111561377f5761377f6155ee565b1461379a578060e001516005811115612cc057612cc06155ee565b83516000805b828110156138a857600088905060208783815181106137c1576137c1615f0b565b60209081029190910181015163ffffffff90811690921b929092176000818152600e845260408082208151808301909252549384168082526401000000009094046001600160601b031694810194909452909291900361387b5787838151811061382d5761382d615f0b565b60200260200101518a6040517fca0caf94000000000000000000000000000000000000000000000000000000008152600401610dcb92919063ffffffff929092168252602082015260400190565b6020810151613893906001600160601b031685615f6d565b93505050806138a190615f37565b90506137a0565b508034146138f2576040517ffd7795720000000000000000000000000000000000000000000000000000000081523460048201526024810182905260448101889052606401610dcb565b6001600160a01b03888116600090815260116020526040902054161561392e576040516322ddebd960e21b815260048101889052602401610dcb565b60a087901b6001600160a01b0389161760005b83811015613c3b57600088828151811061395d5761395d615f0b565b60200260200101519050600088838151811061397b5761397b615f0b565b60200260200101519050816001600160a01b03168c6001600160a01b0316036139ba576040516322ddebd960e21b8152600481018c9052602401610dcb565b6001600160a01b038281166000908152601160205260409020541615613a2a576001600160a01b03828116600090815260116020526040908190205490517f631695bd00000000000000000000000000000000000000000000000000000000815291166004820152602401610dcb565b60008b905060208a8581518110613a4357613a43615f0b565b60209081029190910181015163ffffffff90811690921b929092176000818152600e8452604080822054600f90955290205490929091169003613ab5576040517f12b4401c000000000000000000000000000000000000000000000000000000008152600481018d9052602401610dcb565b6000818152600f602090815260408083208054600181810183559185528385200180546001600160a01b03808a166001600160a01b031990921682179092558a8652600d8552838620845180860190955290845263ffffffff808916858701908152825494850183559187529490952092519290910180549451909316600160a01b027fffffffffffffffff00000000000000000000000000000000000000000000000090941691161791909117905560c08801805190613b75826161d5565b63ffffffff1663ffffffff16815250508c60116000856001600160a01b03166001600160a01b0316815260200190815260200160002060006101000a8154816001600160a01b0302191690836001600160a01b03160217905550826001600160a01b03168c8e6001600160a01b03167f6835389a6da5341647f18cbe0a89c56f473f4c17bfaee6e6d07d61f1928e0b7c85604051613c1f919063ffffffff91909116815260200190565b60405180910390a450505080613c3490615f37565b9050613941565b508360a0015163ffffffff168460c0015163ffffffff1603613c5f57600360e08501525b6000888152601560209081526040918290208651918701516001600160a01b0316600160601b9081026001600160601b0390931692909217815591860151600183015560608601516002830155608086015160038301805460a089015160c08a015163ffffffff908116600160401b026bffffffff0000000000000000199282166401000000000267ffffffffffffffff199094169190951617919091179081168317825560e0890151899594909360ff60601b19166cffffffffff0000000000000000199092169190911790836005811115613d3e57613d3e6155ee565b02179055506101008201518051613d5f916004840191602090910190615244565b50505060008181526010602052604081208054349290613d899084906001600160601b0316616093565b92506101000a8154816001600160601b0302191690836001600160601b03160217905550886001600160a01b03167fe1fffcc4923d04b559f4d29a8bfc6cda04eb5b0d3c460751c2402c5c5cc9109c34604051613de891815260200190565b60405180910390a250506001600a819055979650505050505050565b60006001600a541115613e2a576040516345f5ce8b60e11b815260040160405180910390fd5b6002600a556007546001600160a01b03163314613e6f5760075460405163312d21ff60e11b81523360048201526001600160a01b039091166024820152604401610dcb565b6000613e7a83611aa4565b9050836001600160a01b0316816001600160a01b031614613ec15760405163521eb56d60e11b81526001600160a01b03808616600483015282166024820152604401610dcb565b600083815260156020908152604080832081516101208101835281546001600160601b03811682526001600160a01b03600160601b91829004169482019490945260018201549281019290925260028101546060830152600381015463ffffffff80821660808501526401000000008204811660a0850152600160401b82041660c08401529192909160e084019160ff9104166005811115613f6557613f656155ee565b6005811115613f7657613f766155ee565b815260200160048201805480602002602001604051908101604052809291908181526020018280548015613ff557602002820191906000526020600020906000905b82829054906101000a900463ffffffff1663ffffffff1681526020019060040190602082600301049283019260010382029150808411613fb85790505b505050505081525050905060016005811115614013576140136155ee565b8160e001516005811115614029576140296155ee565b14614063576040517fb2c1a45e00000000000000000000000000000000000000000000000000000000815260048101859052602401610dcb565b80600001516001600160601b031634146140c45780516040517fe1855dd80000000000000000000000000000000000000000000000000000000081523460048201526001600160601b03909116602482015260448101859052606401610dcb565b600260e08201819052506000848152601560209081526040918290208351918401516001600160a01b0316600160601b9081026001600160601b0390931692909217815591830151600183015560608301516002830155608083015160038301805460a086015160c087015163ffffffff908116600160401b026bffffffff0000000000000000199282166401000000000267ffffffffffffffff199094169190951617919091179081168317825560e0860151869594909360ff60601b19166cffffffffff00000000000000001990921691909117908360058111156141ad576141ad6155ee565b021790555061010082015180516141ce916004840191602090910190615244565b50506040518591507fa48b531f972c0e4aca57afcc5c099c52a7bd21bc5e2a1b733eec3be9e88da97a90600090a250506001600a8190559392505050565b61425b6040805161012081018252600080825260208201819052918101829052606081018290526080810182905260a0810182905260c081018290529060e08201908152602001606081525090565b60008281526015602090815260409182902082516101208101845281546001600160601b0381168252600160601b908190046001600160a01b03169382019390935260018201549381019390935260028101546060840152600381015463ffffffff80821660808601526401000000008204811660a0860152600160401b82041660c0850152909160e08401910460ff1660058111156142fd576142fd6155ee565b600581111561430e5761430e6155ee565b81526020016004820180548060200260200160405190810160405280929190818152602001828054801561438d57602002820191906000526020600020906000905b82829054906101000a900463ffffffff1663ffffffff16815260200190600401906020826003010492830192600103820291508084116143505790505b5050505050815250509050919050565b60006001600a5411156143c3576040516345f5ce8b60e11b815260040160405180910390fd5b6002600a556007546001600160a01b031633146144085760075460405163312d21ff60e11b81523360048201526001600160a01b039091166024820152604401610dcb565b600061441385611aa4565b9050856001600160a01b0316816001600160a01b03161461445a5760405163521eb56d60e11b81526001600160a01b03808816600483015282166024820152604401610dcb565b6001600160a01b03841660009081526014602052604090205460ff166144b7576040517f14460f200000000000000000000000000000000000000000000000000000000081526001600160a01b0385166004820152602401610dcb565b600085815260156020908152604080832081516101208101835281546001600160601b03811682526001600160a01b03600160601b91829004169482019490945260018201549281019290925260028101546060830152600381015463ffffffff80821660808501526401000000008204811660a0850152600160401b82041660c08401529192909160e084019160ff910416600581111561455b5761455b6155ee565b600581111561456c5761456c6155ee565b8152602001600482018054806020026020016040519081016040528092919081815260200182805480156145eb57602002820191906000526020600020906000905b82829054906101000a900463ffffffff1663ffffffff16815260200190600401906020826003010492830192600103820291508084116145ae5790505b505050505081525050905060036005811115614609576146096155ee565b8160e00151600581111561461f5761461f6155ee565b1461465e578060e00151600581111561463a5761463a6155ee565b604051633c053f9d60e21b8152600481019190915260248101879052604401610dcb565b600061466a828861498c565b60808301516040517ff398dba80000000000000000000000000000000000000000000000000000000081529192506001600160a01b0388169163f398dba8916146ba918591908a906004016161f8565b6020604051808303816000875af11580156146d9573d6000803e3d6000fd5b505050506040513d601f19601f820116820180604052508101906146fd9190616233565b935081610100015160136000898152602001908152602001600020908051906020019061472b929190615244565b506101008201516040517f09b3b87e0000000000000000000000000000000000000000000000000000000081526001600160a01b037f000000000000000000000000000000000000000000000000000000000000000016916309b3b87e916147969190600401616250565b600060405180830381865afa1580156147b3573d6000803e3d6000fd5b505050506040513d6000823e601f3d908101601f191682016040526147db9190810190616263565b600088815260126020908152604090912082516147fe9391929190910190615244565b506001600160a01b0384166020830152600460e08301819052506000878152601560209081526040918290208451918501516001600160a01b0316600160601b9081026001600160601b0390931692909217815591840151600183015560608401516002830155608084015160038301805460a087015160c088015163ffffffff908116600160401b026bffffffff0000000000000000199282166401000000000267ffffffffffffffff199094169190951617919091179081168317825560e0870151879594909360ff60601b19166cffffffffff00000000000000001990921691909117908360058111156148f7576148f76155ee565b02179055506101008201518051614918916004840191602090910190615244565b50506040516001600160a01b038616915088907f2d53f895cd5faf3cddba94a25c2ced2105885b5b37450ff430ffa3cbdf332c7490600090a360405187907fa133ed72c03a7d008deaae618a61613c4fd41c67bba1cad1a6bc0a1c5a9c156e90600090a250506001600a5550949350505050565b60608260c0015163ffffffff1667ffffffffffffffff8111156149b1576149b161568a565b6040519080825280602002602001820160405280156149da578160200160208202803683370190505b5090506000805b84610100015151811015614ad757600084905060208661010001518381518110614a0d57614a0d615f0b565b602002602001015163ffffffff16901b8117905060005b6000828152600f6020526040902054811015614ac2576000828152600f60205260409020805482908110614a5a57614a5a615f0b565b9060005260206000200160009054906101000a90046001600160a01b0316858581518110614a8a57614a8a615f0b565b6001600160a01b039092166020928302919091019091015283614aac81615f37565b9450508080614aba90615f37565b915050614a24565b50508080614acf90615f37565b9150506149e1565b505092915050565b6000849003614b0157604051637c946ed760e01b815260040160405180910390fd5b6000839003614b2357604051637c946ed760e01b815260040160405180910390fd5b81511580614b3357508051825114155b15614b5e57815181516040516308151c1160e41b815260048101929092526024820152604401610dcb565b60007f00000000000000000000000000000000000000000000000000000000000000006001600160a01b03166318160ddd6040518163ffffffff1660e01b8152600401602060405180830381865afa158015614bbe573d6000803e3d6000fd5b505050506040513d601f19601f82011682018060405250810190614be291906162fd565b90506000805b8451811015614cd957614bfc826001615f6d565b858281518110614c0e57614c0e615f0b565b602002602001015163ffffffff161080614c46575082858281518110614c3657614c36615f0b565b602002602001015163ffffffff16115b15614ca457848181518110614c5d57614c5d615f0b565b60200260200101516040517faac42c2c000000000000000000000000000000000000000000000000000000008152600401610dcb919063ffffffff91909116815260200190565b848181518110614cb657614cb6615f0b565b602002602001015163ffffffff1691508080614cd190615f37565b915050614be8565b50505050505050565b60008267ffffffffffffffff811115614cfd57614cfd61568a565b604051908082528060200260200182016040528015614d26578160200160208202803683370190505b5061010087015260005b83811015614eb857858181518110614d4a57614d4a615f0b565b60200260200101518761010001518281518110614d6957614d69615f0b565b63ffffffff9092166020928302919091018201528651849190889084908110614d9457614d94615f0b565b602002602001015163ffffffff16901b81179050858281518110614dba57614dba615f0b565b6020908102919091018101516000838152600e8352604090208151815492909301516001600160601b0316640100000000026fffffffffffffffffffffffffffffffff1990921663ffffffff909316929092171790558551869083908110614e2457614e24615f0b565b6020026020010151600001518860a001818151614e419190616316565b63ffffffff1690525085516001600160601b03841690879084908110614e6957614e69615f0b565b6020026020010151602001516001600160601b03161115614ea557858281518110614e9657614e96615f0b565b60200260200101516020015192505b5080614eb081615f37565b915050614d30565b506001600160601b038116865260a0860151600090614ed8906002616335565b614ee3906001616316565b63ffffffff169050614ef6600382616377565b600003614f0f57614f0860038261638b565b9050614f28565b614f1a60038261638b565b614f25906001615f6d565b90505b80876080015163ffffffff161080614f5357508660a0015163ffffffff16876080015163ffffffff16115b15614cd957608087015160a08801516040517feb3a8ba300000000000000000000000000000000000000000000000000000000815263ffffffff92831660048201526024810184905291166044820152606401610dcb565b614fb5828261511e565b6001600160a01b0382163b1561509757604051630a85bd0160e11b80825233600483015260006024830181905260448301849052608060648401526084830152906001600160a01b0384169063150b7a029060a4016020604051808303816000875af1158015615029573d6000803e3d6000fd5b505050506040513d601f19601f8201168201806040525081019061504d9190615f50565b6001600160e01b031916146150975760405162461bcd60e51b815260206004820152601060248201526f155394d0519157d49150d2541251539560821b6044820152606401610dcb565b5050565b6060816000036150de57505060408051808201909152600181527f3000000000000000000000000000000000000000000000000000000000000000602082015290565b604e6040519150808252608082016040525b821561510f57600a8084066030018284015290920491600019016150f0565b604e8190039101908152919050565b6001600160a01b0382166151745760405162461bcd60e51b815260206004820152601160248201527f494e56414c49445f524543495049454e540000000000000000000000000000006044820152606401610dcb565b6000818152600260205260409020546001600160a01b0316156151d95760405162461bcd60e51b815260206004820152600e60248201527f414c52454144595f4d494e5445440000000000000000000000000000000000006044820152606401610dcb565b6001600160a01b038216600081815260036020908152604080832080546001019055848352600290915280822080546001600160a01b0319168417905551839291907fddf252ad1be2c89b69c2b068fc378daa952ba7f163c4a11628f55a4df523b3ef908290a45050565b828054828255906000526020600020906007016008900481019282156152e35791602002820160005b838211156152b157835183826101000a81548163ffffffff021916908363ffffffff160217905550926020019260040160208160030104928301926001030261526d565b80156152e15782816101000a81549063ffffffff02191690556004016020816003010492830192600103026152b1565b505b506152ef929150615353565b5090565b50805460008255906000526020600020908101906153119190615368565b50565b5080546000825560070160089004906000526020600020908101906153119190615353565b508054600082559060005260206000209081019061531191905b5b808211156152ef5760008155600101615354565b5b808211156152ef5780547fffffffffffffffff000000000000000000000000000000000000000000000000168155600101615369565b6001600160e01b03198116811461531157600080fd5b6000602082840312156153c757600080fd5b81356153d28161539f565b9392505050565b60005b838110156153f45781810151838201526020016153dc565b83811115615403576000848401525b50505050565b600081518084526154218160208601602086016153d9565b601f01601f19169290920160200192915050565b6020815260006153d26020830184615409565b60006020828403121561545a57600080fd5b5035919050565b6001600160a01b038116811461531157600080fd5b6000806040838503121561548957600080fd5b823561549481615461565b946020939093013593505050565b6000602082840312156154b457600080fd5b81356153d281615461565b6000604080830185845260208281860152818651808452606087019150828801935060005b81811015615518578451805163ffffffff1684528401516001600160601b03168484015293830193918501916001016154e4565b509098975050505050505050565b6000806040838503121561553957600080fd5b50508035926020909101359150565b600081518084526020808501945080840160005b838110156155815781516001600160a01b03168752958201959082019060010161555c565b509495945050505050565b8281526040602082015260006155a56040830184615548565b949350505050565b6000806000606084860312156155c257600080fd5b83356155cd81615461565b925060208401356155dd81615461565b929592945050506040919091013590565b634e487b7160e01b600052602160045260246000fd5b6006811061562257634e487b7160e01b600052602160045260246000fd5b9052565b6001600160601b03891681526001600160a01b0388166020820152604081018790526060810186905263ffffffff858116608083015284811660a0830152831660c0820152610100810161567d60e0830184615604565b9998505050505050505050565b634e487b7160e01b600052604160045260246000fd5b6040805190810167ffffffffffffffff811182821017156156c3576156c361568a565b60405290565b604051601f8201601f1916810167ffffffffffffffff811182821017156156f2576156f261568a565b604052919050565b600067ffffffffffffffff8311156157145761571461568a565b615727601f8401601f19166020016156c9565b905082815283838301111561573b57600080fd5b828260208301376000602084830101529392505050565b60006020828403121561576457600080fd5b813567ffffffffffffffff81111561577b57600080fd5b8201601f8101841361578c57600080fd5b6155a5848235602084016156fa565b600067ffffffffffffffff8211156157b5576157b561568a565b5060051b60200190565b63ffffffff8116811461531157600080fd5b600082601f8301126157e257600080fd5b813560206157f76157f28361579b565b6156c9565b82815260059290921b8401810191818101908684111561581657600080fd5b8286015b8481101561583a57803561582d816157bf565b835291830191830161581a565b509695505050505050565b80356001600160601b03811681146116a457600080fd5b600082601f83011261586d57600080fd5b8135602061587d6157f28361579b565b82815260069290921b8401810191818101908684111561589c57600080fd5b8286015b8481101561583a57604081890312156158b95760008081fd5b6158c16156a0565b81356158cc816157bf565b81526158d9828601615845565b818601528352918301916040016158a0565b60008060008060008060c0878903121561590457600080fd5b863561590f81615461565b95506020870135945060408701359350606087013567ffffffffffffffff8082111561593a57600080fd5b6159468a838b016157d1565b9450608089013591508082111561595c57600080fd5b5061596989828a0161585c565b92505060a087013561597a816157bf565b809150509295509295509295565b600082601f83011261599957600080fd5b813560206159a96157f28361579b565b82815260059290921b840181019181810190868411156159c857600080fd5b8286015b8481101561583a5780356159df81615461565b83529183019183016159cc565b600080600060608486031215615a0157600080fd5b833567ffffffffffffffff80821115615a1957600080fd5b615a2587838801615988565b9450602091508186013581811115615a3c57600080fd5b86019050601f81018713615a4f57600080fd5b8035615a5d6157f28261579b565b81815260059190911b82018301908381019089831115615a7c57600080fd5b928401925b82841015615aa157615a9284615845565b82529284019290840190615a81565b96999698505050506040949094013593505050565b60008060408385031215615ac957600080fd5b8235615ad481615461565b915060208301358015158114615ae957600080fd5b809150509250929050565b60008060408385031215615b0757600080fd5b82356002811061549457600080fd5b600081518084526020808501945080840160005b8381101561558157815163ffffffff1687529582019590820190600101615b2a565b8281526040602082015260006155a56040830184615b16565b6000604082018483526020604081850152818551808452606086019150828701935060005b81811015615ba657845183529383019391830191600101615b8a565b5090979650505050505050565b600080600080600060808688031215615bcb57600080fd5b8535615bd681615461565b94506020860135615be681615461565b935060408601359250606086013567ffffffffffffffff80821115615c0a57600080fd5b818801915088601f830112615c1e57600080fd5b813581811115615c2d57600080fd5b896020828501011115615c3f57600080fd5b9699959850939650602001949392505050565b600080600080600080600060e0888a031215615c6d57600080fd5b8735615c7881615461565b96506020880135955060408801359450606088013567ffffffffffffffff80821115615ca357600080fd5b615caf8b838c016157d1565b955060808a0135915080821115615cc557600080fd5b50615cd28a828b0161585c565b93505060a0880135615ce3816157bf565b8092505060c0880135905092959891949750929550565b60008060008060808587031215615d1057600080fd5b8435615d1b81615461565b935060208501359250604085013567ffffffffffffffff80821115615d3f57600080fd5b615d4b88838901615988565b93506060870135915080821115615d6157600080fd5b50615d6e878288016157d1565b91505092959194509250565b60008060408385031215615d8d57600080fd5b8235615d9881615461565b91506020830135615ae981615461565b60208152615dc26020820183516001600160601b03169052565b60006020830151615dde60408401826001600160a01b03169052565b5060408301516060830152606083015160808301526080830151615e0a60a084018263ffffffff169052565b5060a083015163ffffffff811660c08401525060c083015163ffffffff811660e08401525060e0830151610100615e4381850183615604565b8401516101208481015290506155a5610140840182615b16565b60008060008060808587031215615e7357600080fd5b8435615e7e81615461565b9350602085013592506040850135615e9581615461565b9150606085013567ffffffffffffffff811115615eb157600080fd5b8501601f81018713615ec257600080fd5b615d6e878235602084016156fa565b600181811c90821680615ee557607f821691505b602082108103615f0557634e487b7160e01b600052602260045260246000fd5b50919050565b634e487b7160e01b600052603260045260246000fd5b634e487b7160e01b600052601160045260246000fd5b600060018201615f4957615f49615f21565b5060010190565b600060208284031215615f6257600080fd5b81516153d28161539f565b60008219821115615f8057615f80615f21565b500190565b601f8211156114c957600081815260208120601f850160051c81016020861015615fac5750805b601f850160051c820191505b81811015615fcb57828155600101615fb8565b505050505050565b815167ffffffffffffffff811115615fed57615fed61568a565b61600181615ffb8454615ed1565b84615f85565b602080601f831160018114616036576000841561601e5750858301515b600019600386901b1c1916600185901b178555615fcb565b600085815260208120601f198616915b8281101561606557888601518255948401946001909101908401616046565b50858210156160835787850151600019600388901b60f8161c191681555b5050505050600190811b01905550565b60006001600160601b038083168185168083038211156160b5576160b5615f21565b01949350505050565b60006001600160601b03838116908316818110156160de576160de615f21565b039392505050565b600063ffffffff838116908316818110156160de576160de615f21565b60006001600160a01b03808816835280871660208401525084604083015260806060830152826080830152828460a0840137600060a0848401015260a0601f19601f85011683010190509695505050505050565b600080845461616581615ed1565b6001828116801561617d5760018114616192576161c1565b60ff19841687528215158302870194506161c1565b8860005260208060002060005b858110156161b85781548a82015290840190820161619f565b50505082870194505b5050505083516160b58183602088016153d9565b600063ffffffff8083168181036161ee576161ee615f21565b6001019392505050565b60608152600061620b6060830186615548565b63ffffffff8516602084015282810360408401526162298185615409565b9695505050505050565b60006020828403121561624557600080fd5b81516153d281615461565b6020815260006153d26020830184615b16565b6000602080838503121561627657600080fd5b825167ffffffffffffffff81111561628d57600080fd5b8301601f8101851361629e57600080fd5b80516162ac6157f28261579b565b81815260059190911b820183019083810190878311156162cb57600080fd5b928401925b828410156162f25783516162e3816157bf565b825292840192908401906162d0565b979650505050505050565b60006020828403121561630f57600080fd5b5051919050565b600063ffffffff8083168185168083038211156160b5576160b5615f21565b600063ffffffff8083168185168183048111821515161561635857616358615f21565b02949350505050565b634e487b7160e01b600052601260045260246000fd5b60008261638657616386616361565b500690565b60008261639a5761639a616361565b50049056fea264697066735822122001ff09354eb33b67c749a518ee121635aeee2d977ab24f007d80c6ad333c9fe164736f6c634300080f0033",
  "linkReferences": {},
  "deployedLinkReferences": {}
}