{
  "_format": "hh-sol-artifact-1",
  "contractName": "ServiceRegistry",
  "sourceName": "lib/autonolas-registries/contracts/ServiceRegistry.sol",
  "abi": [
    {
      "inputs": [
        {
          "internalType": "string",
          "name": "_name",
          "type": "string"
        },
        {
          "internalType": "string",
          "name": "_symbol",
          "type": "string"
        },
        {
          "internalType": "string",
          "name": "_baseURI",
          "type": "string"
        },
        {
          "internalType": "address",
          "name": "_agentRegistry",
          "type": "address"
        }
      ],
      "stateMutability": "nonpayable",
      "type": "constructor"
    },
    {
      "inputs": [
        {
          "internalType": "address",
          "name": "operator",
          "type": "address"
        }
      ],
      "name": "AgentInstanceRegistered",
      "type": "error"
    },
    {
      "inputs": [
        {
          "internalType": "uint256",
          "name": "serviceId",
          "type": "uint256"
        }
      ],
      "name": "AgentInstancesSlotsFilled",
      "type": "error"
    },
    {
      "inputs": [
        {
          "internalType": "uint256",
          "name": "agentId",
          "type": "uint256"
        }
      ],
      "name": "AgentNotFound",
      "type": "error"
    },
    {
      "inputs": [
        {
          "internalType": "uint256",
          "name": "agentId",
          "type": "uint256"
        },
        {
          "internalType": "uint256",
          "name": "serviceId",
          "type": "uint256"
        }
      ],
      "name": "AgentNotInService",
      "type": "error"
    },
    {
      "inputs": [
        {
          "internalType": "uint256",
          "name": "componentId",
          "type": "uint256"
        }
      ],
      "name": "ComponentNotFound",
      "type": "error"
    },
    {
      "inputs": [],
      "name": "HashExists",
      "type": "error"
    },
    {
      "inputs": [
        {
          "internalType": "uint256",
          "name": "sent",
          "type": "uint256"
        },
        {
          "internalType": "uint256",
          "name": "expected",
          "type": "uint256"
        },
        {
          "internalType": "uint256",
          "name": "serviceId",
          "type": "uint256"
        }
      ],
      "name": "IncorrectAgentBondingValue",
      "type": "error"
    },
    {
      "inputs": [
        {
          "internalType": "uint256",
          "name": "sent",
          "type": "uint256"
        },
        {
          "internalType": "uint256",
          "name": "expected",
          "type": "uint256"
        },
        {
          "internalType": "uint256",
          "name": "serviceId",
          "type": "uint256"
        }
      ],
      "name": "IncorrectRegistrationDepositValue",
      "type": "error"
    },
    {
      "inputs": [
        {
          "internalType": "address",
          "name": "sender",
          "type": "address"
        },
        {
          "internalType": "address",
          "name": "manager",
          "type": "address"
        }
      ],
      "name": "ManagerOnly",
      "type": "error"
    },
    {
      "inputs": [
        {
          "internalType": "address",
          "name": "provided",
          "type": "address"
        },
        {
          "internalType": "address",
          "name": "expected",
          "type": "address"
        },
        {
          "internalType": "uint256",
          "name": "serviceId",
          "type": "uint256"
        }
      ],
      "name": "OnlyOwnServiceMultisig",
      "type": "error"
    },
    {
      "inputs": [
        {
          "internalType": "address",
          "name": "operator",
          "type": "address"
        },
        {
          "internalType": "uint256",
          "name": "serviceId",
          "type": "uint256"
        }
      ],
      "name": "OperatorHasNoInstances",
      "type": "error"
    },
    {
      "inputs": [
        {
          "internalType": "uint256",
          "name": "provided",
          "type": "uint256"
        },
        {
          "internalType": "uint256",
          "name": "max",
          "type": "uint256"
        }
      ],
      "name": "Overflow",
      "type": "error"
    },
    {
      "inputs": [
        {
          "internalType": "address",
          "name": "sender",
          "type": "address"
        },
        {
          "internalType": "address",
          "name": "owner",
          "type": "address"
        }
      ],
      "name": "OwnerOnly",
      "type": "error"
    },
    {
      "inputs": [],
      "name": "Paused",
      "type": "error"
    },
    {
      "inputs": [],
      "name": "ReentrancyGuard",
      "type": "error"
    },
    {
      "inputs": [
        {
          "internalType": "uint256",
          "name": "serviceId",
          "type": "uint256"
        }
      ],
      "name": "ServiceMustBeInactive",
      "type": "error"
    },
    {
      "inputs": [
        {
          "internalType": "address",
          "name": "token",
          "type": "address"
        },
        {
          "internalType": "address",
          "name": "from",
          "type": "address"
        },
        {
          "internalType": "address",
          "name": "to",
          "type": "address"
        },
        {
          "internalType": "uint256",
          "name": "value",
          "type": "uint256"
        }
      ],
      "name": "TransferFailed",
      "type": "error"
    },
    {
      "inputs": [
        {
          "internalType": "address",
          "name": "multisig",
          "type": "address"
        }
      ],
      "name": "UnauthorizedMultisig",
      "type": "error"
    },
    {
      "inputs": [
        {
          "internalType": "uint256",
          "name": "agentId",
          "type": "uint256"
        }
      ],
      "name": "WrongAgentId",
      "type": "error"
    },
    {
      "inputs": [
        {
          "internalType": "uint256",
          "name": "numValues1",
          "type": "uint256"
        },
        {
          "internalType": "uint256",
          "name": "numValues2",
          "type": "uint256"
        }
      ],
      "name": "WrongArrayLength",
      "type": "error"
    },
    {
      "inputs": [
        {
          "internalType": "uint256",
          "name": "serviceId",
          "type": "uint256"
        }
      ],
      "name": "WrongOperator",
      "type": "error"
    },
    {
      "inputs": [
        {
          "internalType": "uint256",
          "name": "state",
          "type": "uint256"
        },
        {
          "internalType": "uint256",
          "name": "serviceId",
          "type": "uint256"
        }
      ],
      "name": "WrongServiceState",
      "type": "error"
    },
    {
      "inputs": [
        {
          "internalType": "uint256",
          "name": "currentThreshold",
          "type": "uint256"
        },
        {
          "internalType": "uint256",
          "name": "minThreshold",
          "type": "uint256"
        },
        {
          "internalType": "uint256",
          "name": "maxThreshold",
          "type": "uint256"
        }
      ],
      "name": "WrongThreshold",
      "type": "error"
    },
    {
      "inputs": [],
      "name": "ZeroAddress",
      "type": "error"
    },
    {
      "inputs": [],
      "name": "ZeroValue",
      "type": "error"
    },
    {
      "anonymous": false,
      "inputs": [
        {
          "indexed": true,
          "internalType": "uint256",
          "name": "serviceId",
          "type": "uint256"
        }
      ],
      "name": "ActivateRegistration",
      "type": "event"
    },
    {
      "anonymous": false,
      "inputs": [
        {
          "indexed": true,
          "internalType": "address",
          "name": "owner",
          "type": "address"
        },
        {
          "indexed": true,
          "internalType": "address",
          "name": "spender",
          "type": "address"
        },
        {
          "indexed": true,
          "internalType": "uint256",
          "name": "id",
          "type": "uint256"
        }
      ],
      "name": "Approval",
      "type": "event"
    },
    {
      "anonymous": false,
      "inputs": [
        {
          "indexed": true,
          "internalType": "address",
          "name": "owner",
          "type": "address"
        },
        {
          "indexed": true,
          "internalType": "address",
          "name": "operator",
          "type": "address"
        },
        {
          "indexed": false,
          "internalType": "bool",
          "name": "approved",
          "type": "bool"
        }
      ],
      "name": "ApprovalForAll",
      "type": "event"
    },
    {
      "anonymous": false,
      "inputs": [
        {
          "indexed": false,
          "internalType": "string",
          "name": "baseURI",
          "type": "string"
        }
      ],
      "name": "BaseURIChanged",
      "type": "event"
    },
    {
      "anonymous": false,
      "inputs": [
        {
          "indexed": true,
          "internalType": "uint256",
          "name": "serviceId",
          "type": "uint256"
        },
        {
          "indexed": true,
          "internalType": "address",
          "name": "multisig",
          "type": "address"
        }
      ],
      "name": "CreateMultisigWithAgents",
      "type": "event"
    },
    {
      "anonymous": false,
      "inputs": [
        {
          "indexed": true,
          "internalType": "uint256",
          "name": "serviceId",
          "type": "uint256"
        }
      ],
      "name": "CreateService",
      "type": "event"
    },
    {
      "anonymous": false,
      "inputs": [
        {
          "indexed": true,
          "internalType": "uint256",
          "name": "serviceId",
          "type": "uint256"
        }
      ],
      "name": "DeployService",
      "type": "event"
    },
    {
      "anonymous": false,
      "inputs": [
        {
          "indexed": true,
          "internalType": "address",
          "name": "sender",
          "type": "address"
        },
        {
          "indexed": false,
          "internalType": "uint256",
          "name": "amount",
          "type": "uint256"
        }
      ],
      "name": "Deposit",
      "type": "event"
    },
    {
      "anonymous": false,
      "inputs": [
        {
          "indexed": true,
          "internalType": "address",
          "name": "drainer",
          "type": "address"
        },
        {
          "indexed": false,
          "internalType": "uint256",
          "name": "amount",
          "type": "uint256"
        }
      ],
      "name": "Drain",
      "type": "event"
    },
    {
      "anonymous": false,
      "inputs": [
        {
          "indexed": true,
          "internalType": "address",
          "name": "drainer",
          "type": "address"
        }
      ],
      "name": "DrainerUpdated",
      "type": "event"
    },
    {
      "anonymous": false,
      "inputs": [
        {
          "indexed": true,
          "internalType": "address",
          "name": "manager",
          "type": "address"
        }
      ],
      "name": "ManagerUpdated",
      "type": "event"
    },
    {
      "anonymous": false,
      "inputs": [
        {
          "indexed": false,
          "internalType": "uint256",
          "name": "amount",
          "type": "uint256"
        },
        {
          "indexed": true,
          "internalType": "address",
          "name": "operator",
          "type": "address"
        },
        {
          "indexed": true,
          "internalType": "uint256",
          "name": "serviceId",
          "type": "uint256"
        }
      ],
      "name": "OperatorSlashed",
      "type": "event"
    },
    {
      "anonymous": false,
      "inputs": [
        {
          "indexed": true,
          "internalType": "address",
          "name": "operator",
          "type": "address"
        },
        {
          "indexed": true,
          "internalType": "uint256",
          "name": "serviceId",
          "type": "uint256"
        }
      ],
      "name": "OperatorUnbond",
      "type": "event"
    },
    {
      "anonymous": false,
      "inputs": [
        {
          "indexed": true,
          "internalType": "address",
          "name": "owner",
          "type": "address"
        }
      ],
      "name": "OwnerUpdated",
      "type": "event"
    },
    {
      "anonymous": false,
      "inputs": [
        {
          "indexed": true,
          "internalType": "address",
          "name": "receiver",
          "type": "address"
        },
        {
          "indexed": false,
          "internalType": "uint256",
          "name": "amount",
          "type": "uint256"
        }
      ],
      "name": "Refund",
      "type": "event"
    },
    {
      "anonymous": false,
      "inputs": [
        {
          "indexed": true,
          "internalType": "address",
          "name": "operator",
          "type": "address"
        },
        {
          "indexed": true,
          "internalType": "uint256",
          "name": "serviceId",
          "type": "uint256"
        },
        {
          "indexed": true,
          "internalType": "address",
          "name": "agentInstance",
          "type": "address"
        },
        {
          "indexed": false,
          "internalType": "uint256",
          "name": "agentId",
          "type": "uint256"
        }
      ],
      "name": "RegisterInstance",
      "type": "event"
    },
    {
      "anonymous": false,
      "inputs": [
        {
          "indexed": true,
          "internalType": "uint256",
          "name": "serviceId",
          "type": "uint256"
        }
      ],
      "name": "TerminateService",
      "type": "event"
    },
    {
      "anonymous": false,
      "inputs": [
        {
          "indexed": true,
          "internalType": "address",
          "name": "from",
          "type": "address"
        },
        {
          "indexed": true,
          "internalType": "address",
          "name": "to",
          "type": "address"
        },
        {
          "indexed": true,
          "internalType": "uint256",
          "name": "id",
          "type": "uint256"
        }
      ],
      "name": "Transfer",
      "type": "event"
    },
    {
      "anonymous": false,
      "inputs": [
        {
          "indexed": true,
          "internalType": "uint256",
          "name": "serviceId",
          "type": "uint256"
        },
        {
          "indexed": false,
          "internalType": "bytes32",
          "name": "configHash",
          "type": "bytes32"
        }
      ],
      "name": "UpdateService",
      "type": "event"
    },
    {
      "inputs": [],
      "name": "CID_PREFIX",
      "outputs": [
        {
          "internalType": "string",
          "name": "",
          "type": "string"
        }
      ],
      "stateMutability": "view",
      "type": "function"
    },
    {
      "inputs": [],
      "name": "VERSION",
      "outputs": [
        {
          "internalType": "string",
          "name": "",
          "type": "string"
        }
      ],
      "stateMutability": "view",
      "type": "function"
    },
    {
      "inputs": [
        {
          "internalType": "address",
          "name": "serviceOwner",
          "type": "address"
        },
        {
          "internalType": "uint256",
          "name": "serviceId",
          "type": "uint256"
        }
      ],
      "name": "activateRegistration",
      "outputs": [
        {
          "internalType": "bool",
          "name": "success",
          "type": "bool"
        }
      ],
      "stateMutability": "payable",
      "type": "function"
    },
    {
      "inputs": [],
      "name": "agentRegistry",
      "outputs": [
        {
          "internalType": "address",
          "name": "",
          "type": "address"
        }
      ],
      "stateMutability": "view",
      "type": "function"
    },
    {
      "inputs": [
        {
          "internalType": "address",
          "name": "spender",
          "type": "address"
        },
        {
          "internalType": "uint256",
          "name": "id",
          "type": "uint256"
        }
      ],
      "name": "approve",
      "outputs": [],
      "stateMutability": "nonpayable",
      "type": "function"
    },
    {
      "inputs": [
        {
          "internalType": "address",
          "name": "owner",
          "type": "address"
        }
      ],
      "name": "balanceOf",
      "outputs": [
        {
          "internalType": "uint256",
          "name": "",
          "type": "uint256"
        }
      ],
      "stateMutability": "view",
      "type": "function"
    },
    {
      "inputs": [],
      "name": "baseURI",
      "outputs": [
        {
          "internalType": "string",
          "name": "",
          "type": "string"
        }
      ],
      "stateMutability": "view",
      "type": "function"
    },
    {
      "inputs": [
        {
          "internalType": "address",
          "name": "newDrainer",
          "type": "address"
        }
      ],
      "name": "changeDrainer",
      "outputs": [],
      "stateMutability": "nonpayable",
      "type": "function"
    },
    {
      "inputs": [
        {
          "internalType": "address",
          "name": "newManager",
          "type": "address"
        }
      ],
      "name": "changeManager",
      "outputs": [],
      "stateMutability": "nonpayable",
      "type": "function"
    },
    {
      "inputs": [
        {
          "internalType": "address",
          "name": "multisig",
          "type": "address"
        },
        {
          "internalType": "bool",
          "name": "permission",
          "type": "bool"
        }
      ],
      "name": "changeMultisigPermission",
      "outputs": [
        {
          "internalType": "bool",
          "name": "success",
          "type": "bool"
        }
      ],
      "stateMutability": "nonpayable",
      "type": "function"
    },
    {
      "inputs": [
        {
          "internalType": "address",
          "name": "newOwner",
          "type": "address"
        }
      ],
      "name": "changeOwner",
      "outputs": [],
      "stateMutability": "nonpayable",
      "type": "function"
    },
    {
      "inputs": [
        {
          "internalType": "address",
          "name": "serviceOwner",
          "type": "address"
        },
        {
          "internalType": "bytes32",
          "name": "configHash",
          "type": "bytes32"
        },
        {
          "internalType": "uint32[]",
          "name": "agentIds",
          "type": "uint32[]"
        },
        {
          "components": [
            {
              "internalType": "uint32",
              "name": "slots",
              "type": "uint32"
            },
            {
              "internalType": "uint96",
              "name": "bond",
              "type": "uint96"
            }
          ],
          "internalType": "struct AgentParams[]",
          "name": "agentParams",
          "type": "tuple[]"
        },
        {
          "internalType": "uint32",
          "name": "threshold",
          "type": "uint32"
        }
      ],
      "name": "create",
      "outputs": [
        {
          "internalType": "uint256",
          "name": "serviceId",
          "type": "uint256"
        }
      ],
      "stateMutability": "nonpayable",
      "type": "function"
    },
    {
      "inputs": [
        {
          "internalType": "address",
          "name": "serviceOwner",
          "type": "address"
        },
        {
          "internalType": "uint256",
          "name": "serviceId",
          "type": "uint256"
        },
        {
          "internalType": "address",
          "name": "multisigImplementation",
          "type": "address"
        },
        {
          "internalType": "bytes",
          "name": "data",
          "type": "bytes"
        }
      ],
      "name": "deploy",
      "outputs": [
        {
          "internalType": "address",
          "name": "multisig",
          "type": "address"
        }
      ],
      "stateMutability": "nonpayable",
      "type": "function"
    },
    {
      "inputs": [],
      "name": "drain",
      "outputs": [
        {
          "internalType": "uint256",
          "name": "amount",
          "type": "uint256"
        }
      ],
      "stateMutability": "nonpayable",
      "type": "function"
    },
    {
      "inputs": [],
      "name": "drainer",
      "outputs": [
        {
          "internalType": "address",
          "name": "",
          "type": "address"
        }
      ],
      "stateMutability": "view",
      "type": "function"
    },
    {
      "inputs": [
        {
          "internalType": "uint256",
          "name": "unitId",
          "type": "uint256"
        }
      ],
      "name": "exists",
      "outputs": [
        {
          "internalType": "bool",
          "name": "",
          "type": "bool"
        }
      ],
      "stateMutability": "view",
      "type": "function"
    },
    {
      "inputs": [
        {
          "internalType": "uint256",
          "name": "serviceId",
          "type": "uint256"
        }
      ],
      "name": "getAgentInstances",
      "outputs": [
        {
          "internalType": "uint256",
          "name": "numAgentInstances",
          "type": "uint256"
        },
        {
          "internalType": "address[]",
          "name": "agentInstances",
          "type": "address[]"
        }
      ],
      "stateMutability": "view",
      "type": "function"
    },
    {
      "inputs": [
        {
          "internalType": "uint256",
          "name": "serviceId",
          "type": "uint256"
        }
      ],
      "name": "getAgentParams",
      "outputs": [
        {
          "internalType": "uint256",
          "name": "numAgentIds",
          "type": "uint256"
        },
        {
          "components": [
            {
              "internalType": "uint32",
              "name": "slots",
              "type": "uint32"
            },
            {
              "internalType": "uint96",
              "name": "bond",
              "type": "uint96"
            }
          ],
          "internalType": "struct AgentParams[]",
          "name": "agentParams",
          "type": "tuple[]"
        }
      ],
      "stateMutability": "view",
      "type": "function"
    },
    {
      "inputs": [
        {
          "internalType": "uint256",
          "name": "",
          "type": "uint256"
        }
      ],
      "name": "getApproved",
      "outputs": [
        {
          "internalType": "address",
          "name": "",
          "type": "address"
        }
      ],
      "stateMutability": "view",
      "type": "function"
    },
    {
      "inputs": [
        {
          "internalType": "uint256",
          "name": "serviceId",
          "type": "uint256"
        },
        {
          "internalType": "uint256",
          "name": "agentId",
          "type": "uint256"
        }
      ],
      "name": "getInstancesForAgentId",
      "outputs": [
        {
          "internalType": "uint256",
          "name": "numAgentInstances",
          "type": "uint256"
        },
        {
          "internalType": "address[]",
          "name": "agentInstances",
          "type": "address[]"
        }
      ],
      "stateMutability": "view",
      "type": "function"
    },
    {
      "inputs": [
        {
          "internalType": "address",
          "name": "operator",
          "type": "address"
        },
        {
          "internalType": "uint256",
          "name": "serviceId",
          "type": "uint256"
        }
      ],
      "name": "getOperatorBalance",
      "outputs": [
        {
          "internalType": "uint256",
          "name": "balance",
          "type": "uint256"
        }
      ],
      "stateMutability": "view",
      "type": "function"
    },
    {
      "inputs": [
        {
          "internalType": "uint256",
          "name": "serviceId",
          "type": "uint256"
        }
      ],
      "name": "getPreviousHashes",
      "outputs": [
        {
          "internalType": "uint256",
          "name": "numHashes",
          "type": "uint256"
        },
        {
          "internalType": "bytes32[]",
          "name": "configHashes",
          "type": "bytes32[]"
        }
      ],
      "stateMutability": "view",
      "type": "function"
    },
    {
      "inputs": [
        {
          "internalType": "uint256",
          "name": "serviceId",
          "type": "uint256"
        }
      ],
      "name": "getService",
      "outputs": [
        {
          "components": [
            {
              "internalType": "uint96",
              "name": "securityDeposit",
              "type": "uint96"
            },
            {
              "internalType": "address",
              "name": "multisig",
              "type": "address"
            },
            {
              "internalType": "bytes32",
              "name": "configHash",
              "type": "bytes32"
            },
            {
              "internalType": "uint32",
              "name": "threshold",
              "type": "uint32"
            },
            {
              "internalType": "uint32",
              "name": "maxNumAgentInstances",
              "type": "uint32"
            },
            {
              "internalType": "uint32",
              "name": "numAgentInstances",
              "type": "uint32"
            },
            {
              "internalType": "enum ServiceRegistry.ServiceState",
              "name": "state",
              "type": "uint8"
            },
            {
              "internalType": "uint32[]",
              "name": "agentIds",
              "type": "uint32[]"
            }
          ],
          "internalType": "struct ServiceRegistry.Service",
          "name": "service",
          "type": "tuple"
        }
      ],
      "stateMutability": "view",
      "type": "function"
    },
    {
      "inputs": [
        {
          "internalType": "enum IRegistry.UnitType",
          "name": "unitType",
          "type": "uint8"
        },
        {
          "internalType": "uint256",
          "name": "serviceId",
          "type": "uint256"
        }
      ],
      "name": "getUnitIdsOfService",
      "outputs": [
        {
          "internalType": "uint256",
          "name": "numUnitIds",
          "type": "uint256"
        },
        {
          "internalType": "uint32[]",
          "name": "unitIds",
          "type": "uint32[]"
        }
      ],
      "stateMutability": "view",
      "type": "function"
    },
    {
      "inputs": [
        {
          "internalType": "address",
          "name": "",
          "type": "address"
        },
        {
          "internalType": "address",
          "name": "",
          "type": "address"
        }
      ],
      "name": "isApprovedForAll",
      "outputs": [
        {
          "internalType": "bool",
          "name": "",
          "type": "bool"
        }
      ],
      "stateMutability": "view",
      "type": "function"
    },
    {
      "inputs": [],
      "name": "manager",
      "outputs": [
        {
          "internalType": "address",
          "name": "",
          "type": "address"
        }
      ],
      "stateMutability": "view",
      "type": "function"
    },
    {
      "inputs": [
        {
          "internalType": "address",
          "name": "",
          "type": "address"
        }
      ],
      "name": "mapAgentInstanceOperators",
      "outputs": [
        {
          "internalType": "address",
          "name": "",
          "type": "address"
        }
      ],
      "stateMutability": "view",
      "type": "function"
    },
    {
      "inputs": [
        {
          "internalType": "uint256",
          "name": "",
          "type": "uint256"
        },
        {
          "internalType": "uint256",
          "name": "",
          "type": "uint256"
        }
      ],
      "name": "mapConfigHashes",
      "outputs": [
        {
          "internalType": "bytes32",
          "name": "",
          "type": "bytes32"
        }
      ],
      "stateMutability": "view",
      "type": "function"
    },
    {
      "inputs": [
        {
          "internalType": "address",
          "name": "",
          "type": "address"
        }
      ],
      "name": "mapMultisigs",
      "outputs": [
        {
          "internalType": "bool",
          "name": "",
          "type": "bool"
        }
      ],
      "stateMutability": "view",
      "type": "function"
    },
    {
      "inputs": [
        {
          "internalType": "uint256",
          "name": "",
          "type": "uint256"
        },
        {
          "internalType": "uint256",
          "name": "",
          "type": "uint256"
        }
      ],
      "name": "mapOperatorAndServiceIdAgentInstances",
      "outputs": [
        {
          "internalType": "address",
          "name": "instance",
          "type": "address"
        },
        {
          "internalType": "uint32",
          "name": "agentId",
          "type": "uint32"
        }
      ],
      "stateMutability": "view",
      "type": "function"
    },
    {
      "inputs": [
        {
          "internalType": "uint256",
          "name": "",
          "type": "uint256"
        }
      ],
      "name": "mapOperatorAndServiceIdOperatorBalances",
      "outputs": [
        {
          "internalType": "uint96",
          "name": "",
          "type": "uint96"
        }
      ],
      "stateMutability": "view",
      "type": "function"
    },
    {
      "inputs": [
        {
          "internalType": "uint256",
          "name": "",
          "type": "uint256"
        },
        {
          "internalType": "uint256",
          "name": "",
          "type": "uint256"
        }
      ],
      "name": "mapServiceAndAgentIdAgentInstances",
      "outputs": [
        {
          "internalType": "address",
          "name": "",
          "type": "address"
        }
      ],
      "stateMutability": "view",
      "type": "function"
    },
    {
      "inputs": [
        {
          "internalType": "uint256",
          "name": "",
          "type": "uint256"
        }
      ],
      "name": "mapServiceAndAgentIdAgentParams",
      "outputs": [
        {
          "internalType": "uint32",
          "name": "slots",
          "type": "uint32"
        },
        {
          "internalType": "uint96",
          "name": "bond",
          "type": "uint96"
        }
      ],
      "stateMutability": "view",
      "type": "function"
    },
    {
      "inputs": [
        {
          "internalType": "uint256",
          "name": "",
          "type": "uint256"
        },
        {
          "internalType": "uint256",
          "name": "",
          "type": "uint256"
        }
      ],
      "name": "mapServiceIdSetAgentIds",
      "outputs": [
        {
          "internalType": "uint32",
          "name": "",
          "type": "uint32"
        }
      ],
      "stateMutability": "view",
      "type": "function"
    },
    {
      "inputs": [
        {
          "internalType": "uint256",
          "name": "",
          "type": "uint256"
        },
        {
          "internalType": "uint256",
          "name": "",
          "type": "uint256"
        }
      ],
      "name": "mapServiceIdSetComponentIds",
      "outputs": [
        {
          "internalType": "uint32",
          "name": "",
          "type": "uint32"
        }
      ],
      "stateMutability": "view",
      "type": "function"
    },
    {
      "inputs": [
        {
          "internalType": "uint256",
          "name": "",
          "type": "uint256"
        }
      ],
      "name": "mapServices",
      "outputs": [
        {
          "internalType": "uint96",
          "name": "securityDeposit",
          "type": "uint96"
        },
        {
          "internalType": "address",
          "name": "multisig",
          "type": "address"
        },
        {
          "internalType": "bytes32",
          "name": "configHash",
          "type": "bytes32"
        },
        {
          "internalType": "uint32",
          "name": "threshold",
          "type": "uint32"
        },
        {
          "internalType": "uint32",
          "name": "maxNumAgentInstances",
          "type": "uint32"
        },
        {
          "internalType": "uint32",
          "name": "numAgentInstances",
          "type": "uint32"
        },
        {
          "internalType": "enum ServiceRegistry.ServiceState",
          "name": "state",
          "type": "uint8"
        }
      ],
      "stateMutability": "view",
      "type": "function"
    },
    {
      "inputs": [],
      "name": "name",
      "outputs": [
        {
          "internalType": "string",
          "name": "",
          "type": "string"
        }
      ],
      "stateMutability": "view",
      "type": "function"
    },
    {
      "inputs": [],
      "name": "owner",
      "outputs": [
        {
          "internalType": "address",
          "name": "",
          "type": "address"
        }
      ],
      "stateMutability": "view",
      "type": "function"
    },
    {
      "inputs": [
        {
          "internalType": "uint256",
          "name": "id",
          "type": "uint256"
        }
      ],
      "name": "ownerOf",
      "outputs": [
        {
          "internalType": "address",
          "name": "owner",
          "type": "address"
        }
      ],
      "stateMutability": "view",
      "type": "function"
    },
    {
      "inputs": [
        {
          "internalType": "address",
          "name": "operator",
          "type": "address"
        },
        {
          "internalType": "uint256",
          "name": "serviceId",
          "type": "uint256"
        },
        {
          "internalType": "address[]",
          "name": "agentInstances",
          "type": "address[]"
        },
        {
          "internalType": "uint32[]",
          "name": "agentIds",
          "type": "uint32[]"
        }
      ],
      "name": "registerAgents",
      "outputs": [
        {
          "internalType": "bool",
          "name": "success",
          "type": "bool"
        }
      ],
      "stateMutability": "payable",
      "type": "function"
    },
    {
      "inputs": [
        {
          "internalType": "address",
          "name": "from",
          "type": "address"
        },
        {
          "internalType": "address",
          "name": "to",
          "type": "address"
        },
        {
          "internalType": "uint256",
          "name": "id",
          "type": "uint256"
        }
      ],
      "name": "safeTransferFrom",
      "outputs": [],
      "stateMutability": "nonpayable",
      "type": "function"
    },
    {
      "inputs": [
        {
          "internalType": "address",
          "name": "from",
          "type": "address"
        },
        {
          "internalType": "address",
          "name": "to",
          "type": "address"
        },
        {
          "internalType": "uint256",
          "name": "id",
          "type": "uint256"
        },
        {
          "internalType": "bytes",
          "name": "data",
          "type": "bytes"
        }
      ],
      "name": "safeTransferFrom",
      "outputs": [],
      "stateMutability": "nonpayable",
      "type": "function"
    },
    {
      "inputs": [
        {
          "internalType": "address",
          "name": "operator",
          "type": "address"
        },
        {
          "internalType": "bool",
          "name": "approved",
          "type": "bool"
        }
      ],
      "name": "setApprovalForAll",
      "outputs": [],
      "stateMutability": "nonpayable",
      "type": "function"
    },
    {
      "inputs": [
        {
          "internalType": "string",
          "name": "bURI",
          "type": "string"
        }
      ],
      "name": "setBaseURI",
      "outputs": [],
      "stateMutability": "nonpayable",
      "type": "function"
    },
    {
      "inputs": [
        {
          "internalType": "address[]",
          "name": "agentInstances",
          "type": "address[]"
        },
        {
          "internalType": "uint96[]",
          "name": "amounts",
          "type": "uint96[]"
        },
        {
          "internalType": "uint256",
          "name": "serviceId",
          "type": "uint256"
        }
      ],
      "name": "slash",
      "outputs": [
        {
          "internalType": "bool",
          "name": "success",
          "type": "bool"
        }
      ],
      "stateMutability": "nonpayable",
      "type": "function"
    },
    {
      "inputs": [],
      "name": "slashedFunds",
      "outputs": [
        {
          "internalType": "uint96",
          "name": "",
          "type": "uint96"
        }
      ],
      "stateMutability": "view",
      "type": "function"
    },
    {
      "inputs": [
        {
          "internalType": "bytes4",
          "name": "interfaceId",
          "type": "bytes4"
        }
      ],
      "name": "supportsInterface",
      "outputs": [
        {
          "internalType": "bool",
          "name": "",
          "type": "bool"
        }
      ],
      "stateMutability": "view",
      "type": "function"
    },
    {
      "inputs": [],
      "name": "symbol",
      "outputs": [
        {
          "internalType": "string",
          "name": "",
          "type": "string"
        }
      ],
      "stateMutability": "view",
      "type": "function"
    },
    {
      "inputs": [
        {
          "internalType": "address",
          "name": "serviceOwner",
          "type": "address"
        },
        {
          "internalType": "uint256",
          "name": "serviceId",
          "type": "uint256"
        }
      ],
      "name": "terminate",
      "outputs": [
        {
          "internalType": "bool",
          "name": "success",
          "type": "bool"
        },
        {
          "internalType": "uint256",
          "name": "refund",
          "type": "uint256"
        }
      ],
      "stateMutability": "nonpayable",
      "type": "function"
    },
    {
      "inputs": [
        {
          "internalType": "uint256",
          "name": "id",
          "type": "uint256"
        }
      ],
      "name": "tokenByIndex",
      "outputs": [
        {
          "internalType": "uint256",
          "name": "unitId",
          "type": "uint256"
        }
      ],
      "stateMutability": "view",
      "type": "function"
    },
    {
      "inputs": [
        {
          "internalType": "uint256",
          "name": "unitId",
          "type": "uint256"
        }
      ],
      "name": "tokenURI",
      "outputs": [
        {
          "internalType": "string",
          "name": "",
          "type": "string"
        }
      ],
      "stateMutability": "view",
      "type": "function"
    },
    {
      "inputs": [],
      "name": "totalSupply",
      "outputs": [
        {
          "internalType": "uint256",
          "name": "",
          "type": "uint256"
        }
      ],
      "stateMutability": "view",
      "type": "function"
    },
    {
      "inputs": [
        {
          "internalType": "address",
          "name": "from",
          "type": "address"
        },
        {
          "internalType": "address",
          "name": "to",
          "type": "address"
        },
        {
          "internalType": "uint256",
          "name": "id",
          "type": "uint256"
        }
      ],
      "name": "transferFrom",
      "outputs": [],
      "stateMutability": "nonpayable",
      "type": "function"
    },
    {
      "inputs": [
        {
          "internalType": "address",
          "name": "operator",
          "type": "address"
        },
        {
          "internalType": "uint256",
          "name": "serviceId",
          "type": "uint256"
        }
      ],
      "name": "unbond",
      "outputs": [
        {
          "internalType": "bool",
          "name": "success",
          "type": "bool"
        },
        {
          "internalType": "uint256",
          "name": "refund",
          "type": "uint256"
        }
      ],
      "stateMutability": "nonpayable",
      "type": "function"
    },
    {
      "inputs": [
        {
          "internalType": "address",
          "name": "serviceOwner",
          "type": "address"
        },
        {
          "internalType": "bytes32",
          "name": "configHash",
          "type": "bytes32"
        },
        {
          "internalType": "uint32[]",
          "name": "agentIds",
          "type": "uint32[]"
        },
        {
          "components": [
            {
              "internalType": "uint32",
              "name": "slots",
              "type": "uint32"
            },
            {
              "internalType": "uint96",
              "name": "bond",
              "type": "uint96"
            }
          ],
          "internalType": "struct AgentParams[]",
          "name": "agentParams",
          "type": "tuple[]"
        },
        {
          "internalType": "uint32",
          "name": "threshold",
          "type": "uint32"
        },
        {
          "internalType": "uint256",
          "name": "serviceId",
          "type": "uint256"
        }
      ],
      "name": "update",
      "outputs": [
        {
          "internalType": "bool",
          "name": "success",
          "type": "bool"
        }
      ],
      "stateMutability": "nonpayable",
      "type": "function"
    }
  ],
  "bytecode": "0x60a06040526001600a553480156200001657600080fd5b506040516200656c3803806200656c833981016040819052620000399162000160565b83836000620000498382620002a2565b506001620000588282620002a2565b50600891506200006b90508382620002a2565b506001600160a01b03166080525050600680546001600160a01b03191633179055506200036e565b634e487b7160e01b600052604160045260246000fd5b600082601f830112620000bb57600080fd5b81516001600160401b0380821115620000d857620000d862000093565b604051601f8301601f19908116603f0116810190828211818310171562000103576200010362000093565b816040528381526020925086838588010111156200012057600080fd5b600091505b8382101562000144578582018301518183018401529082019062000125565b83821115620001565760008385830101525b9695505050505050565b600080600080608085870312156200017757600080fd5b84516001600160401b03808211156200018f57600080fd5b6200019d88838901620000a9565b95506020870151915080821115620001b457600080fd5b620001c288838901620000a9565b94506040870151915080821115620001d957600080fd5b50620001e887828801620000a9565b606087015190935090506001600160a01b03811681146200020857600080fd5b939692955090935050565b600181811c908216806200022857607f821691505b6020821081036200024957634e487b7160e01b600052602260045260246000fd5b50919050565b601f8211156200029d57600081815260208120601f850160051c81016020861015620002785750805b601f850160051c820191505b81811015620002995782815560010162000284565b5050505b505050565b81516001600160401b03811115620002be57620002be62000093565b620002d681620002cf845462000213565b846200024f565b602080601f8311600181146200030e5760008415620002f55750858301515b600019600386901b1c1916600185901b17855562000299565b600085815260208120601f198616915b828110156200033f578886015182559484019460019091019084016200031e565b50858210156200035e5787850151600019600388901b60f8161c191681555b5050505050600190811b01905550565b6080516161d4620003986000396000818161043e0152818161405f015261482101526161d46000f3fe6080604052600436106103605760003560e01c80636f99f15c116101c6578063a5d059ca116100f7578063dff7672411610095578063ef0e239b1161006f578063ef0e239b14610bda578063f908bc7714610c07578063fbdeb3d714610c27578063ffa1ad7414610c4757600080fd5b8063dff7672414610b79578063e23f6fb414610b8c578063e985e9c514610b9f57600080fd5b8063b88d4fde116100d1578063b88d4fde14610af9578063c87b56dd14610b19578063cbf994f814610b39578063ccc9305d14610b5957600080fd5b8063a5d059ca14610a74578063a60e4c3c14610aab578063a6f9dae114610ad957600080fd5b80638a2bd86f1161016457806395d89b411161013e57806395d89b4114610a0a5780639890220b14610a1f578063a22cb46514610a34578063a3fbbaae14610a5457600080fd5b80638a2bd86f146109775780638da5cb5b146109bc57806392080b23146109dc57600080fd5b806373b8b6a2116101a057806373b8b6a2146108e25780637c5e63e01461090257806382694b1d1461093757806386a2bdd41461095757600080fd5b80636f99f15c1461085e57806370a082311461087e578063718934d81461089e57600080fd5b806342144854116102a05780634f6ccce71161023e5780635e4507fa116102185780635e4507fa1461079f5780636352211e146107bf57806363dd7615146107df5780636c0360eb1461084957600080fd5b80634f6ccce71461073857806355f804b31461075857806357838e851461077857600080fd5b8063481c6a751161027a578063481c6a75146106a25780634d486f85146106c25780634eb780da146106e25780634f558e791461071857600080fd5b806342144854146105a55780634236aff8146105f357806342842e0e1461068257600080fd5b806317351f7e1161030d57806321e4f7bb116102e757806321e4f7bb1461050257806323b872dd14610530578063323e010714610550578063406f14ad1461058557600080fd5b806317351f7e1461048057806318160ddd146104b05780631de286ba146104d457600080fd5b8063095ea7b31161033e578063095ea7b31461040a5780630d1cfcae1461042c57806310c6aa191461046057600080fd5b806301ffc9a71461036557806306fdde031461039a578063081812fc146103bc575b600080fd5b34801561037157600080fd5b50610385610380366004615049565b610c90565b60405190151581526020015b60405180910390f35b3480156103a657600080fd5b506103af610d2d565b60405161039191906150c9565b3480156103c857600080fd5b506103f26103d73660046150dc565b6004602052600090815260409020546001600160a01b031681565b6040516001600160a01b039091168152602001610391565b34801561041657600080fd5b5061042a61042536600461510a565b610dbb565b005b34801561043857600080fd5b506103f27f000000000000000000000000000000000000000000000000000000000000000081565b34801561046c57600080fd5b5061042a61047b366004615136565b610eb1565b34801561048c57600080fd5b5061038561049b366004615136565b60146020526000908152604090205460ff1681565b3480156104bc57600080fd5b506104c660095481565b604051908152602001610391565b3480156104e057600080fd5b506104f46104ef3660046150dc565b610f6a565b604051610391929190615153565b34801561050e57600080fd5b5061052261051d3660046151ba565b6111c0565b604051610391929190615220565b34801561053c57600080fd5b5061042a61054b366004615241565b6112ae565b34801561055c57600080fd5b5061057061056b3660046151ba565b6114a3565b60405163ffffffff9091168152602001610391565b34801561059157600080fd5b506105706105a03660046151ba565b6114ec565b3480156105b157600080fd5b506105db6105c03660046150dc565b6010602052600090815260409020546001600160601b031681565b6040516001600160601b039091168152602001610391565b3480156105ff57600080fd5b5061066f61060e3660046150dc565b6015602052600090815260409020805460018201546002909201546001600160601b03821692600160601b928390046001600160a01b031692909163ffffffff808216926401000000008304821692600160401b8104909216910460ff1687565b60405161039197969594939291906152ba565b34801561068e57600080fd5b5061042a61069d366004615241565b611508565b3480156106ae57600080fd5b506007546103f2906001600160a01b031681565b3480156106ce57600080fd5b506105226106dd3660046150dc565b6115fd565b3480156106ee57600080fd5b506103f26106fd366004615136565b6011602052600090815260409020546001600160a01b031681565b34801561072457600080fd5b506103856107333660046150dc565b61174f565b34801561074457600080fd5b506104c66107533660046150dc565b611771565b34801561076457600080fd5b5061042a6107733660046153dd565b6117cf565b34801561078457600080fd5b50600b546103f290600160601b90046001600160a01b031681565b3480156107ab57600080fd5b506103f26107ba3660046151ba565b611878565b3480156107cb57600080fd5b506103f26107da3660046150dc565b6118b0565b3480156107eb57600080fd5b506108256107fa3660046150dc565b600e6020526000908152604090205463ffffffff81169064010000000090046001600160601b031682565b6040805163ffffffff90931683526001600160601b03909116602083015201610391565b34801561085557600080fd5b506103af611915565b34801561086a57600080fd5b50600b546105db906001600160601b031681565b34801561088a57600080fd5b506104c6610899366004615136565b611922565b3480156108aa57600080fd5b506108be6108b93660046151ba565b611996565b604080516001600160a01b03909316835263ffffffff909116602083015201610391565b3480156108ee57600080fd5b506103856108fd3660046154d5565b6119dc565b34801561090e57600080fd5b506103af6040518060400160405280600981526020016806630313730313232360bc1b81525081565b34801561094357600080fd5b5061038561095236600461559f565b611e4a565b34801561096357600080fd5b506104c66109723660046151ba565b611ee3565b34801561098357600080fd5b506104c661099236600461510a565b60a01b6001600160a01b03909116176000908152601060205260409020546001600160601b031690565b3480156109c857600080fd5b506006546103f2906001600160a01b031681565b3480156109e857600080fd5b506109fc6109f73660046155dd565b611f14565b604051610391929190615635565b348015610a1657600080fd5b506103af61204f565b348015610a2b57600080fd5b506104c661205c565b348015610a4057600080fd5b5061042a610a4f36600461559f565b6121ba565b348015610a6057600080fd5b5061042a610a6f366004615136565b612226565b348015610a8057600080fd5b50610a94610a8f36600461510a565b6122d7565b604080519215158352602083019190915201610391565b348015610ab757600080fd5b50610acb610ac63660046150dc565b61278c565b60405161039192919061564e565b348015610ae557600080fd5b5061042a610af4366004615136565b6127f0565b348015610b0557600080fd5b5061042a610b1436600461569c565b6128a1565b348015610b2557600080fd5b506103af610b343660046150dc565b612986565b348015610b4557600080fd5b50610385610b54366004615840565b612a00565b348015610b6557600080fd5b50610a94610b7436600461510a565b612f8e565b610385610b873660046158dd565b61331e565b610385610b9a36600461510a565b613984565b348015610bab57600080fd5b50610385610bba36600461595d565b600560209081526000928352604080842090915290825290205460ff1681565b348015610be657600080fd5b50610bfa610bf53660046150dc565b613b35565b604051610391919061598b565b348015610c1357600080fd5b506103f2610c22366004615a27565b613cb5565b348015610c3357600080fd5b506104c6610c42366004615a9b565b6141a7565b348015610c5357600080fd5b506103af6040518060400160405280600581526020017f312e302e3000000000000000000000000000000000000000000000000000000081525081565b60007f01ffc9a7000000000000000000000000000000000000000000000000000000006001600160e01b031983161480610cf357507f80ac58cd000000000000000000000000000000000000000000000000000000006001600160e01b03198316145b80610d2757507f5b5e139f000000000000000000000000000000000000000000000000000000006001600160e01b03198316145b92915050565b60008054610d3a90615b30565b80601f0160208091040260200160405190810160405280929190818152602001828054610d6690615b30565b8015610db35780601f10610d8857610100808354040283529160200191610db3565b820191906000526020600020905b815481529060010190602001808311610d9657829003601f168201915b505050505081565b6000818152600260205260409020546001600160a01b031633811480610e0457506001600160a01b038116600090815260056020908152604080832033845290915290205460ff165b610e555760405162461bcd60e51b815260206004820152600e60248201527f4e4f545f415554484f52495a454400000000000000000000000000000000000060448201526064015b60405180910390fd5b60008281526004602052604080822080546001600160a01b0319166001600160a01b0387811691821790925591518593918516917f8c5be1e5ebec7d5bd14f71427d1e84f3dd0314c0f7b2291e5b200ac8c7c3b92591a4505050565b6006546001600160a01b03163314610ef15760065460405163521eb56d60e11b81523360048201526001600160a01b039091166024820152604401610e4c565b6001600160a01b038116610f185760405163d92e233d60e01b815260040160405180910390fd5b600b80546001600160601b0316600160601b6001600160a01b038416908102919091179091556040517f8d1e8547016120917daad7f81c42b48f7fee379badc48f1889f0f43bb619472590600090a250565b600081815260156020908152604080832081516101008101835281546001600160601b03811682526001600160a01b03600160601b918290041694820194909452600182015492810192909252600281015463ffffffff808216606085810191909152640100000000830482166080860152600160401b830490911660a0850152938593929160c084019160ff910416600581111561100b5761100b615282565b600581111561101c5761101c615282565b81526020016003820180548060200260200160405190810160405280929190818152602001828054801561109b57602002820191906000526020600020906000905b82829054906101000a900463ffffffff1663ffffffff168152602001906004019060208260030104928301926001038202915080841161105e5790505b50505050508152505090508060e001515192508267ffffffffffffffff8111156110c7576110c7615315565b60405190808252806020026020018201604052801561110c57816020015b60408051808201909152600080825260208201528152602001906001900390816110e55790505b50915060005b838110156111b957600085905060208360e00151838151811061113757611137615b6a565b60209081029190910181015163ffffffff90811690921b929092176000818152600e845260409081902081518083019092525492831681526401000000009092046001600160601b031692820192909252845185908490811061119c5761119c615b6a565b602002602001018190525050806111b290615b96565b9050611112565b5050915091565b602081811b83176000818152600f909252604090912054906060908267ffffffffffffffff8111156111f4576111f4615315565b60405190808252806020026020018201604052801561121d578160200160208202803683370190505b50915060005b838110156112a5576000828152600f6020526040902080548290811061124b5761124b615b6a565b9060005260206000200160009054906101000a90046001600160a01b031683828151811061127b5761127b615b6a565b6001600160a01b03909216602092830291909101909101528061129d81615b96565b915050611223565b50509250929050565b6000818152600260205260409020546001600160a01b038481169116146113175760405162461bcd60e51b815260206004820152600a60248201527f57524f4e475f46524f4d000000000000000000000000000000000000000000006044820152606401610e4c565b6001600160a01b03821661136d5760405162461bcd60e51b815260206004820152601160248201527f494e56414c49445f524543495049454e540000000000000000000000000000006044820152606401610e4c565b336001600160a01b03841614806113a757506001600160a01b038316600090815260056020908152604080832033845290915290205460ff165b806113c857506000818152600460205260409020546001600160a01b031633145b6114145760405162461bcd60e51b815260206004820152600e60248201527f4e4f545f415554484f52495a45440000000000000000000000000000000000006044820152606401610e4c565b6001600160a01b0380841660008181526003602090815260408083208054600019019055938616808352848320805460010190558583526002825284832080546001600160a01b03199081168317909155600490925284832080549092169091559251849392917fddf252ad1be2c89b69c2b068fc378daa952ba7f163c4a11628f55a4df523b3ef91a4505050565b601260205281600052604060002081815481106114bf57600080fd5b9060005260206000209060089182820401919006600402915091509054906101000a900463ffffffff1681565b601360205281600052604060002081815481106114bf57600080fd5b6115138383836112ae565b6001600160a01b0382163b156115f857604051630a85bd0160e11b8082523360048301526001600160a01b03858116602484015260448301849052608060648401526000608484015290919084169063150b7a029060a4016020604051808303816000875af115801561158a573d6000803e3d6000fd5b505050506040513d601f19601f820116820180604052508101906115ae9190615baf565b6001600160e01b031916146115f85760405162461bcd60e51b815260206004820152601060248201526f155394d0519157d49150d2541251539560821b6044820152606401610e4c565b505050565b600081815260156020908152604080832081516101008101835281546001600160601b03811682526001600160a01b03600160601b918290041694820194909452600182015492810192909252600281015463ffffffff808216606085810191909152640100000000830482166080860152600160401b830490911660a0850152938593929160c084019160ff910416600581111561169e5761169e615282565b60058111156116af576116af615282565b81526020016003820180548060200260200160405190810160405280929190818152602001828054801561172e57602002820191906000526020600020906000905b82829054906101000a900463ffffffff1663ffffffff16815260200190600401906020826003010492830192600103820291508084116116f15790505b5050505050815250509050611743818561449f565b91508151925050915091565b60008082118015610d275750600954611769906001615bcc565b821092915050565b600061177e826001615bcc565b90506009548111156117ca576009546040517f7ae59685000000000000000000000000000000000000000000000000000000008152610e4c918391600401918252602082015260400190565b919050565b6006546001600160a01b0316331461180f5760065460405163521eb56d60e11b81523360048201526001600160a01b039091166024820152604401610e4c565b805160000361183157604051637c946ed760e01b815260040160405180910390fd5b600861183d8282615c2a565b507f5411e8ebf1636d9e83d5fc4900bf80cbac82e8790da2a4c94db4895e889eedf68160405161186d91906150c9565b60405180910390a150565b600f602052816000526040600020818154811061189457600080fd5b6000918252602090912001546001600160a01b03169150829050565b6000818152600260205260409020546001600160a01b0316806117ca5760405162461bcd60e51b815260206004820152600a60248201527f4e4f545f4d494e544544000000000000000000000000000000000000000000006044820152606401610e4c565b60088054610d3a90615b30565b60006001600160a01b03821661197a5760405162461bcd60e51b815260206004820152600c60248201527f5a45524f5f4144445245535300000000000000000000000000000000000000006044820152606401610e4c565b506001600160a01b031660009081526003602052604090205490565b600d60205281600052604060002081815481106119b257600080fd5b6000918252602090912001546001600160a01b0381169250600160a01b900463ffffffff16905082565b600081815260156020908152604080832081516101008101835281546001600160601b0381168252600160601b908190046001600160a01b031694820194909452600182015492810192909252600281015463ffffffff8082166060850152640100000000820481166080850152600160401b82041660a0840152849360c08401910460ff166005811115611a7357611a73615282565b6005811115611a8457611a84615282565b815260200160038201805480602002602001604051908101604052809291908181526020018280548015611b0357602002820191906000526020600020906000905b82829054906101000a900463ffffffff1663ffffffff1681526020019060040190602082600301049283019260010382029150808411611ac65790505b505050505081525050905060046005811115611b2157611b21615282565b8160c001516005811115611b3757611b37615282565b14611b76578060c001516005811115611b5257611b52615282565b604051633c053f9d60e21b8152600481019190915260248101849052604401610e4c565b8351855114611ba557845184516040516308151c1160e41b815260048101929092526024820152604401610e4c565b80602001516001600160a01b0316336001600160a01b031614611c125760208101516040517f79f91cd30000000000000000000000000000000000000000000000000000000081523360048201526001600160a01b03909116602482015260448101849052606401610e4c565b845160005b81811015611e3d57600060116000898481518110611c3757611c37615b6a565b6020908102919091018101516001600160a01b03908116835282820193909352604091820160009081205490931660a08a901b81178085526010909252919092205489519193506001600160601b03169081908a9086908110611c9c57611c9c615b6a565b60200260200101516001611cb09190615cea565b6001600160601b03161115611d0a57600b8054829190600090611cdd9084906001600160601b0316615cea565b92506101000a8154816001600160601b0302191690836001600160601b0316021790555060009050611d8e565b888481518110611d1c57611d1c615b6a565b6020908102919091010151600b8054600090611d429084906001600160601b0316615cea565b92506101000a8154816001600160601b0302191690836001600160601b03160217905550888481518110611d7857611d78615b6a565b602002602001015181611d8b9190615d15565b90505b600082815260106020526040902080546bffffffffffffffffffffffff19166001600160601b038316179055885188906001600160a01b038516907fa2e524bd0f71903485fbb3d6d50cb305f61005ceea2047c3ac92aa7e0d104306908c9088908110611dfd57611dfd615b6a565b6020026020010151604051611e2191906001600160601b0391909116815260200190565b60405180910390a350505080611e3690615b96565b9050611c17565b5060019695505050505050565b6006546000906001600160a01b03163314611e8d5760065460405163521eb56d60e11b81523360048201526001600160a01b039091166024820152604401610e4c565b6001600160a01b038316611eb45760405163d92e233d60e01b815260040160405180910390fd5b506001600160a01b03919091166000908152601460205260409020805460ff1916911515919091179055600190565b600c6020528160005260406000208181548110611eff57600080fd5b90600052602060002001600091509150505481565b6000606081846001811115611f2b57611f2b615282565b03611fbc5760008381526012602090815260409182902080548351818402810184019094528084529091830182828015611fb057602002820191906000526020600020906000905b82829054906101000a900463ffffffff1663ffffffff1681526020019060040190602082600301049283019260010382029150808411611f735790505b50505050509050612044565b6000838152601360209081526040918290208054835181840281018401909452808452909183018282801561203c57602002820191906000526020600020906000905b82829054906101000a900463ffffffff1663ffffffff1681526020019060040190602082600301049283019260010382029150808411611fff5790505b505050505090505b805191509250929050565b60018054610d3a90615b30565b60006001600a541115612082576040516345f5ce8b60e11b815260040160405180910390fd5b6002600a55600b54600160601b90046001600160a01b031633146120d457600b5460405163312d21ff60e11b8152336004820152600160601b9091046001600160a01b03166024820152604401610e4c565b50600b546001600160601b031680156121b257600b80546bffffffffffffffffffffffff19169055604051600090339083908381818185875af1925050503d806000811461213e576040519150601f19603f3d011682016040523d82523d6000602084013e612143565b606091505b505090508061217b5760405163cd3f165960e01b81526000600482015230602482015233604482015260648101839052608401610e4c565b60405182815233907ff36f4d6622e16a536bbb049064af779cdd483a0b388d347d3752a65f1058bf5b9060200160405180910390a2505b6001600a5590565b3360008181526005602090815260408083206001600160a01b03871680855290835292819020805460ff191686151590811790915590519081529192917f17307eab39ab6107e8899845ad3d59bd9653f200f220920489ca2b5937696c31910160405180910390a35050565b6006546001600160a01b031633146122665760065460405163521eb56d60e11b81523360048201526001600160a01b039091166024820152604401610e4c565b6001600160a01b03811661228d5760405163d92e233d60e01b815260040160405180910390fd5b600780546001600160a01b0319166001600160a01b0383169081179091556040517f2c1c11af44aa5608f1dca38c00275c30ea091e02417d36e70e9a1538689c433d90600090a250565b6000806001600a5411156122fe576040516345f5ce8b60e11b815260040160405180910390fd5b6002600a556007546001600160a01b031633146123435760075460405163312d21ff60e11b81523360048201526001600160a01b039091166024820152604401610e4c565b6001600160a01b03841661236a5760405163d92e233d60e01b815260040160405180910390fd5b600083815260156020526040902060056002820154600160601b900460ff16600581111561239a5761239a615282565b146123e3576002810154600160601b900460ff1660058111156123bf576123bf615282565b604051633c053f9d60e21b8152600481019190915260248101859052604401610e4c565b60a084901b6001600160a01b038616176000818152600d6020908152604080832080548251818502810185019093528083529192909190849084015b8282101561246b57600084815260209081902060408051808201909152908401546001600160a01b0381168252600160a01b900463ffffffff168183015282526001909201910161241f565b50508251929350505060008190036124c1576040517fdf2ddd730000000000000000000000000000000000000000000000000000000081526001600160a01b038916600482015260248101889052604401610e4c565b808460020160088282829054906101000a900463ffffffff166124e49190615d3d565b92506101000a81548163ffffffff021916908363ffffffff1602179055508360020160089054906101000a900463ffffffff1663ffffffff1660000361253a5760028401805460ff60601b1916600160601b1790555b60005b81811015612602576000889050602084838151811061255e5761255e615b6a565b60209081029190910181015181015163ffffffff1690911b919091176000818152600e9092526040909120546125a59064010000000090046001600160601b031688615bcc565b9650601160008584815181106125bd576125bd615b6a565b602090810291909101810151516001600160a01b0316825281019190915260400160002080546001600160a01b031916905550806125fa81615b96565b91505061253d565b506000838152600d6020526040812061261a91614e86565b6000838152601060205260409020546001600160601b03168086111561264757806001600160601b031695505b85156127405760008481526010602052604080822080546bffffffffffffffffffffffff19169055516001600160a01b038b169088908381818185875af1925050503d80600081146126b5576040519150601f19603f3d011682016040523d82523d6000602084013e6126ba565b606091505b50509050806126fb5760405163cd3f165960e01b8152600060048201523060248201526001600160a01b038b16604482015260648101889052608401610e4c565b896001600160a01b03167fbb28353e4598c3b9199101a66e0989549b659a59a54d2c27fbb183f1932c8e6d8860405161273691815260200190565b60405180910390a2505b60405188906001600160a01b038b16907f5ebf7fe30be09f0f03b9195632508d95c8b67bf010c93abda67f70d5d9599d1e90600090a350506001600a8190559793965092945050505050565b6000818152600c6020908152604080832080548251818502810185019093528083526060938301828280156127e057602002820191906000526020600020905b8154815260200190600101908083116127cc575b5050505050905080519150915091565b6006546001600160a01b031633146128305760065460405163521eb56d60e11b81523360048201526001600160a01b039091166024820152604401610e4c565b6001600160a01b0381166128575760405163d92e233d60e01b815260040160405180910390fd5b600680546001600160a01b0319166001600160a01b0383169081179091556040517f4ffd725fc4a22075e9ec71c59edf9c38cdeb588a91b24fc5b61388c5be41282b90600090a250565b6128ac8585856112ae565b6001600160a01b0384163b1561297f57604051630a85bd0160e11b808252906001600160a01b0386169063150b7a02906128f29033908a90899089908990600401615d5a565b6020604051808303816000875af1158015612911573d6000803e3d6000fd5b505050506040513d601f19601f820116820180604052508101906129359190615baf565b6001600160e01b0319161461297f5760405162461bcd60e51b815260206004820152601060248201526f155394d0519157d49150d2541251539560821b6044820152606401610e4c565b5050505050565b6000818152601560205260408120600101546060915060086040518060400160405280600981526020016806630313730313232360bc1b8152506129c9836145f0565b6129d6608085901b6145f0565b6040516020016129e99493929190615dae565b604051602081830303815290604052915050919050565b6007546000906001600160a01b03163314612a435760075460405163312d21ff60e11b81523360048201526001600160a01b039091166024820152604401610e4c565b6000612a4e836118b0565b9050876001600160a01b0316816001600160a01b031614612a955760405163521eb56d60e11b81526001600160a01b03808a16600483015282166024820152604401610e4c565b600083815260156020908152604080832081516101008101835281546001600160601b03811682526001600160a01b03600160601b918290041694820194909452600182015492810192909252600281015463ffffffff8082166060850152640100000000820481166080850152600160401b82041660a08401529192909160c084019160ff9104166005811115612b2f57612b2f615282565b6005811115612b4057612b40615282565b815260200160038201805480602002602001604051908101604052809291908181526020018280548015612bbf57602002820191906000526020600020906000905b82829054906101000a900463ffffffff1663ffffffff1681526020019060040190602082600301049283019260010382029150808411612b825790505b505050505081525050905060016005811115612bdd57612bdd615282565b8160c001516005811115612bf357612bf3615282565b14612c0e578060c0015160058111156123bf576123bf615282565b612c198888886147c0565b63ffffffff85166060820152600060808201819052875167ffffffffffffffff811115612c4857612c48615315565b604051908082528060200260200182016040528015612c71578160200160208202803683370190505b5090506000885167ffffffffffffffff811115612c9057612c90615315565b604051908082528060200260200182016040528015612cd557816020015b6040805180820190915260008082526020820152815260200190600190039081612cae5790505b5090506000805b8a51811015612e0a57898181518110612cf757612cf7615b6a565b60200260200101516000015163ffffffff16600003612d6c57600088905060208c8381518110612d2957612d29615b6a565b60209081029190910181015163ffffffff1690911b919091176000908152600e9091526040902080546fffffffffffffffffffffffffffffffff19169055612df8565b8a8181518110612d7e57612d7e615b6a565b6020026020010151848381518110612d9857612d98615b6a565b602002602001019063ffffffff16908163ffffffff1681525050898181518110612dc457612dc4615b6a565b6020026020010151838381518110612dde57612dde615b6a565b60200260200101819052508180612df490615b96565b9250505b80612e0281615b96565b915050612cdc565b5060408401518b8114612e41576000888152600c602090815260408083208054600181018255908452919092200182905585018c90525b612e4e858585858c6149a0565b6000888152601560209081526040918290208751918801516001600160a01b0316600160601b9081026001600160601b03909316929092178155918701516001830155606087015160028301805460808a015160a08b015163ffffffff908116600160401b026bffffffff0000000000000000199282166401000000000267ffffffffffffffff199094169190951617919091179081168317825560c08a01518a9594909360ff60601b19166cffffffffff0000000000000000199092169190911790836005811115612f2357612f23615282565b021790555060e08201518051612f43916003840191602090910190614ea7565b50506040518d81528991507fff312ce131c4d73ac90ece91266be7090486c5e15f78b7ea2b108c36dfd475299060200160405180910390a25060019c9b505050505050505050505050565b6000806001600a541115612fb5576040516345f5ce8b60e11b815260040160405180910390fd5b6002600a556007546001600160a01b03163314612ffa5760075460405163312d21ff60e11b81523360048201526001600160a01b039091166024820152604401610e4c565b6000613005846118b0565b9050846001600160a01b0316816001600160a01b03161461304c5760405163521eb56d60e11b81526001600160a01b03808716600483015282166024820152604401610e4c565b600084815260156020526040902060016002820154600160601b900460ff16600581111561307c5761307c615282565b14806130a7575060056002820154600160601b900460ff1660058111156130a5576130a5615282565b145b156130f0576002810154600160601b900460ff1660058111156130cc576130cc615282565b604051633c053f9d60e21b8152600481019190915260248101869052604401610e4c565b6002810154600160401b900463ffffffff161561312a5760028101805460ff60601b19166c05000000000000000000000000179055613140565b60028101805460ff60601b1916600160601b1790555b600085815260126020526040812061315791614f56565b600085815260136020526040812061316e91614f56565b60005b60038201548110156131fb576000869050602083600301838154811061319957613199615b6a565b90600052602060002090600891828204019190066004029054906101000a900463ffffffff1663ffffffff16901b81179050600f600082815260200190815260200160002060006131ea9190614f7b565b506131f481615b96565b9050613171565b5080546040516001600160601b0390911693506000906001600160a01b0388169085908381818185875af1925050503d8060008114613256576040519150601f19603f3d011682016040523d82523d6000602084013e61325b565b606091505b505090508061329c5760405163cd3f165960e01b8152600060048201523060248201526001600160a01b038816604482015260648101859052608401610e4c565b866001600160a01b03167fbb28353e4598c3b9199101a66e0989549b659a59a54d2c27fbb183f1932c8e6d856040516132d791815260200190565b60405180910390a260405186907fe45f5b9540df4f71b7e044809fa318806328c1ea2388a70c7373d97ccf8a0faa90600090a250506001600a819055959194509092505050565b6007546000906001600160a01b031633146133615760075460405163312d21ff60e11b81523360048201526001600160a01b039091166024820152604401610e4c565b815183511461339057825182516040516308151c1160e41b815260048101929092526024820152604401610e4c565b6000848152601560205260409020600280820154600160601b900460ff1660058111156133bf576133bf615282565b146133e4576002810154600160601b900460ff1660058111156130cc576130cc615282565b83516000805b828110156134f2576000889050602087838151811061340b5761340b615b6a565b60209081029190910181015163ffffffff90811690921b929092176000818152600e845260408082208151808301909252549384168082526401000000009094046001600160601b03169481019490945290929190036134c55787838151811061347757613477615b6a565b60200260200101518a6040517fca0caf94000000000000000000000000000000000000000000000000000000008152600401610e4c92919063ffffffff929092168252602082015260400190565b60208101516134dd906001600160601b031685615bcc565b93505050806134eb90615b96565b90506133ea565b5080341461353c576040517ffd7795720000000000000000000000000000000000000000000000000000000081523460048201526024810182905260448101889052606401610e4c565b6001600160a01b038881166000908152601160205260409020541615613578576040516322ddebd960e21b815260048101889052602401610e4c565b60a087901b6001600160a01b0389161760005b838110156138a55760008882815181106135a7576135a7615b6a565b6020026020010151905060008883815181106135c5576135c5615b6a565b60200260200101519050816001600160a01b03168c6001600160a01b031603613604576040516322ddebd960e21b8152600481018c9052602401610e4c565b6001600160a01b038281166000908152601160205260409020541615613674576001600160a01b03828116600090815260116020526040908190205490517f631695bd00000000000000000000000000000000000000000000000000000000815291166004820152602401610e4c565b60008b905060208a858151811061368d5761368d615b6a565b60209081029190910181015163ffffffff90811690921b929092176000818152600e8452604080822054600f909552902054909290911690036136ff576040517f12b4401c000000000000000000000000000000000000000000000000000000008152600481018d9052602401610e4c565b6000818152600f602090815260408083208054600181810183559185528385200180546001600160a01b03808a166001600160a01b031990921682179092558a8652600d8552838620845180860190955290845263ffffffff8089168587019081528254948501835591875294909520925192909101805494518416600160a01b027fffffffffffffffff000000000000000000000000000000000000000000000000909516929091169190911792909217909155600289018054600160401b90049091169060086137d083615e40565b91906101000a81548163ffffffff021916908363ffffffff160217905550508c60116000856001600160a01b03166001600160a01b0316815260200190815260200160002060006101000a8154816001600160a01b0302191690836001600160a01b03160217905550826001600160a01b03168c8e6001600160a01b03167f6835389a6da5341647f18cbe0a89c56f473f4c17bfaee6e6d07d61f1928e0b7c85604051613889919063ffffffff91909116815260200190565b60405180910390a45050508061389e90615b96565b905061358b565b50600284015463ffffffff64010000000082048116600160401b90920416036138e75760028401805460ff60601b19166c030000000000000000000000001790555b6000818152601060205260408120805434929061390e9084906001600160601b0316615cea565b92506101000a8154816001600160601b0302191690836001600160601b03160217905550886001600160a01b03167fe1fffcc4923d04b559f4d29a8bfc6cda04eb5b0d3c460751c2402c5c5cc9109c3460405161396d91815260200190565b60405180910390a250600198975050505050505050565b6007546000906001600160a01b031633146139c75760075460405163312d21ff60e11b81523360048201526001600160a01b039091166024820152604401610e4c565b60006139d2836118b0565b9050836001600160a01b0316816001600160a01b031614613a195760405163521eb56d60e11b81526001600160a01b03808616600483015282166024820152604401610e4c565b600083815260156020526040902060016002820154600160601b900460ff166005811115613a4957613a49615282565b14613a83576040517fb2c1a45e00000000000000000000000000000000000000000000000000000000815260048101859052602401610e4c565b80546001600160601b03163414613ae15780546040517fe1855dd80000000000000000000000000000000000000000000000000000000081523460048201526001600160601b03909116602482015260448101859052606401610e4c565b60028101805460ff60601b19166c0200000000000000000000000017905560405184907fa48b531f972c0e4aca57afcc5c099c52a7bd21bc5e2a1b733eec3be9e88da97a90600090a2506001949350505050565b613b7d6040805161010081018252600080825260208201819052918101829052606081018290526080810182905260a081018290529060c08201908152602001606081525090565b60008281526015602090815260409182902082516101008101845281546001600160601b0381168252600160601b908190046001600160a01b031693820193909352600182015493810193909352600281015463ffffffff8082166060860152640100000000820481166080860152600160401b82041660a0850152909160c08401910460ff166005811115613c1557613c15615282565b6005811115613c2657613c26615282565b815260200160038201805480602002602001604051908101604052809291908181526020018280548015613ca557602002820191906000526020600020906000905b82829054906101000a900463ffffffff1663ffffffff1681526020019060040190602082600301049283019260010382029150808411613c685790505b5050505050815250509050919050565b60006001600a541115613cdb576040516345f5ce8b60e11b815260040160405180910390fd5b6002600a556007546001600160a01b03163314613d205760075460405163312d21ff60e11b81523360048201526001600160a01b039091166024820152604401610e4c565b6000613d2b856118b0565b9050856001600160a01b0316816001600160a01b031614613d725760405163521eb56d60e11b81526001600160a01b03808816600483015282166024820152604401610e4c565b6001600160a01b03841660009081526014602052604090205460ff16613dcf576040517f14460f200000000000000000000000000000000000000000000000000000000081526001600160a01b0385166004820152602401610e4c565b600085815260156020526040902060036002820154600160601b900460ff166005811115613dff57613dff615282565b14613e48576002810154600160601b900460ff166005811115613e2457613e24615282565b604051633c053f9d60e21b8152600481019190915260248101879052604401610e4c565b604080516101008101825282546001600160601b0381168252600160601b908190046001600160a01b03166020830152600184015492820192909252600283015463ffffffff8082166060840152640100000000820481166080840152600160401b82041660a0830152600092613f759291859160c08401910460ff166005811115613ed657613ed6615282565b6005811115613ee757613ee7615282565b815260200160038201805480602002602001604051908101604052809291908181526020018280548015613f6657602002820191906000526020600020906000905b82829054906101000a900463ffffffff1663ffffffff1681526020019060040190602082600301049283019260010382029150808411613f295790505b5050505050815250508861449f565b60028301546040517ff398dba80000000000000000000000000000000000000000000000000000000081529192506001600160a01b0388169163f398dba891613fcb91859163ffffffff16908a90600401615e63565b6020604051808303816000875af1158015613fea573d6000803e3d6000fd5b505050506040513d601f19601f8201168201806040525081019061400e9190615e9e565b600088815260136020526040902060038401805492965061402e92614f99565b506040517f09b3b87e0000000000000000000000000000000000000000000000000000000081526001600160a01b037f000000000000000000000000000000000000000000000000000000000000000016906309b3b87e90614097906003860190600401615ebb565b600060405180830381865afa1580156140b4573d6000803e3d6000fd5b505050506040513d6000823e601f3d908101601f191682016040526140dc9190810190616043565b600088815260126020908152604090912082516140ff9391929190910190614ea7565b5081546001600160601b0316600160601b6001600160a01b03861690810291909117835560028301805460ff60601b19166c0400000000000000000000000017905560405188907f2d53f895cd5faf3cddba94a25c2ced2105885b5b37450ff430ffa3cbdf332c7490600090a360405187907fa133ed72c03a7d008deaae618a61613c4fd41c67bba1cad1a6bc0a1c5a9c156e90600090a250506001600a5550949350505050565b60006001600a5411156141cd576040516345f5ce8b60e11b815260040160405180910390fd5b6002600a556007546001600160a01b031633146142125760075460405163312d21ff60e11b81523360048201526001600160a01b039091166024820152604401610e4c565b6001600160a01b0386166142395760405163d92e233d60e01b815260040160405180910390fd5b6142448585856147c0565b60005b84518110156142d85783818151811061426257614262615b6a565b60200260200101516000015163ffffffff16600014806142a8575083818151811061428f5761428f615b6a565b6020026020010151602001516001600160601b03166000145b156142c657604051637c946ed760e01b815260040160405180910390fd5b806142d081615b96565b915050614247565b5050600954806142e781615b96565b9150506143326040805161010081018252600080825260208201819052918101829052606081018290526080810182905260a081018290529060c08201908152602001606081525090565b63ffffffff8316606082015260408101869052600160c08201818152505061435e8186868851866149a0565b6000828152601560209081526040918290208351918401516001600160a01b0316600160601b9081026001600160601b039093169290921781559183015160018301556060830151600283018054608086015160a087015163ffffffff908116600160401b026bffffffff0000000000000000199282166401000000000267ffffffffffffffff199094169190951617919091179081168317825560c0860151869594909360ff60601b19166cffffffffff000000000000000019909216919091179083600581111561443357614433615282565b021790555060e08201518051614453916003840191602090910190614ea7565b50505060098290556144658783614c70565b60405182907f9169d45eacd63571e315a0504da919b7c89de505493e7b34051802dd0816a06990600090a2506001600a5595945050505050565b60608260a0015163ffffffff1667ffffffffffffffff8111156144c4576144c4615315565b6040519080825280602002602001820160405280156144ed578160200160208202803683370190505b5090506000805b8460e00151518110156145e857600084905060208660e00151838151811061451e5761451e615b6a565b602002602001015163ffffffff16901b8117905060005b6000828152600f60205260409020548110156145d3576000828152600f6020526040902080548290811061456b5761456b615b6a565b9060005260206000200160009054906101000a90046001600160a01b031685858151811061459b5761459b615b6a565b6001600160a01b0390921660209283029190910190910152836145bd81615b96565b94505080806145cb90615b96565b915050614535565b505080806145e090615b96565b9150506144f4565b505092915050565b7aff00000000000000ff00000000000000ff00000000000000ff00006bffffffff0000000000000000604083901c9081167bffffffff00000000000000000000000000000000000000000000000084161760201c6fffffffff000000000000000000000000919091166001600160e01b031984161717601081901c9182167eff00000000000000ff00000000000000ff00000000000000ff000000000000821617600890811c7bff00000000000000ff00000000000000ff00000000000000ff000000939093167fff00000000000000ff00000000000000ff00000000000000ff000000000000009290921691909117919091179081901c7e0f000f000f000f000f000f000f000f000f000f000f000f000f000f000f000f167f0f000f000f000f000f000f000f000f000f000f000f000f000f000f000f000f00600492831c16179061475c827f0606060606060606060606060606060606060606060606060606060606060606615bcc565b901c7f0f0f0f0f0f0f0f0f0f0f0f0f0f0f0f0f0f0f0f0f0f0f0f0f0f0f0f0f0f0f0f0f16602761478c91906160dd565b6147b6827f3030303030303030303030303030303030303030303030303030303030303030615bcc565b610d279190615bcc565b60008390036147e257604051637c946ed760e01b815260040160405180910390fd5b815115806147f257508051825114155b1561481d57815181516040516308151c1160e41b815260048101929092526024820152604401610e4c565b60007f00000000000000000000000000000000000000000000000000000000000000006001600160a01b03166318160ddd6040518163ffffffff1660e01b8152600401602060405180830381865afa15801561487d573d6000803e3d6000fd5b505050506040513d601f19601f820116820180604052508101906148a191906160fc565b90506000805b8451811015614998576148bb826001615bcc565b8582815181106148cd576148cd615b6a565b602002602001015163ffffffff1610806149055750828582815181106148f5576148f5615b6a565b602002602001015163ffffffff16115b156149635784818151811061491c5761491c615b6a565b60200260200101516040517faac42c2c000000000000000000000000000000000000000000000000000000008152600401610e4c919063ffffffff91909116815260200190565b84818151811061497557614975615b6a565b602002602001015163ffffffff169150808061499090615b96565b9150506148a7565b505050505050565b60008267ffffffffffffffff8111156149bb576149bb615315565b6040519080825280602002602001820160405280156149e4578160200160208202803683370190505b5060e087015260005b83811015614b7457858181518110614a0757614a07615b6a565b60200260200101518760e001518281518110614a2557614a25615b6a565b63ffffffff9092166020928302919091018201528651849190889084908110614a5057614a50615b6a565b602002602001015163ffffffff16901b81179050858281518110614a7657614a76615b6a565b6020908102919091018101516000838152600e8352604090208151815492909301516001600160601b0316640100000000026fffffffffffffffffffffffffffffffff1990921663ffffffff909316929092171790558551869083908110614ae057614ae0615b6a565b60200260200101516000015188608001818151614afd9190616115565b63ffffffff1690525085516001600160601b03841690879084908110614b2557614b25615b6a565b6020026020010151602001516001600160601b03161115614b6157858281518110614b5257614b52615b6a565b60200260200101516020015192505b5080614b6c81615b96565b9150506149ed565b506001600160601b03811686526080860151600090614b94906002616134565b614b9f906001616115565b63ffffffff169050614bb2600382616176565b600003614bcb57614bc460038261618a565b9050614be4565b614bd660038261618a565b614be1906001615bcc565b90505b80876060015163ffffffff161080614c0f5750866080015163ffffffff16876060015163ffffffff16115b15614c6757606087015160808801516040517feb3a8ba300000000000000000000000000000000000000000000000000000000815263ffffffff92831660048201526024810184905291166044820152606401610e4c565b50505050505050565b614c7a8282614d60565b6001600160a01b0382163b15614d5c57604051630a85bd0160e11b80825233600483015260006024830181905260448301849052608060648401526084830152906001600160a01b0384169063150b7a029060a4016020604051808303816000875af1158015614cee573d6000803e3d6000fd5b505050506040513d601f19601f82011682018060405250810190614d129190615baf565b6001600160e01b03191614614d5c5760405162461bcd60e51b815260206004820152601060248201526f155394d0519157d49150d2541251539560821b6044820152606401610e4c565b5050565b6001600160a01b038216614db65760405162461bcd60e51b815260206004820152601160248201527f494e56414c49445f524543495049454e540000000000000000000000000000006044820152606401610e4c565b6000818152600260205260409020546001600160a01b031615614e1b5760405162461bcd60e51b815260206004820152600e60248201527f414c52454144595f4d494e5445440000000000000000000000000000000000006044820152606401610e4c565b6001600160a01b038216600081815260036020908152604080832080546001019055848352600290915280822080546001600160a01b0319168417905551839291907fddf252ad1be2c89b69c2b068fc378daa952ba7f163c4a11628f55a4df523b3ef908290a45050565b5080546000825590600052602060002090810190614ea49190614fe7565b50565b82805482825590600052602060002090600701600890048101928215614f465791602002820160005b83821115614f1457835183826101000a81548163ffffffff021916908363ffffffff1602179055509260200192600401602081600301049283019260010302614ed0565b8015614f445782816101000a81549063ffffffff0219169055600401602081600301049283019260010302614f14565b505b50614f5292915061501e565b5090565b508054600082556007016008900490600052602060002090810190614ea4919061501e565b5080546000825590600052602060002090810190614ea4919061501e565b82805482825590600052602060002090600701600890048101928215614f46576000526020600020916007016008900482015b82811115614f46578254825591600101919060010190614fcc565b5b80821115614f525780547fffffffffffffffff000000000000000000000000000000000000000000000000168155600101614fe8565b5b80821115614f52576000815560010161501f565b6001600160e01b031981168114614ea457600080fd5b60006020828403121561505b57600080fd5b813561506681615033565b9392505050565b60005b83811015615088578181015183820152602001615070565b83811115615097576000848401525b50505050565b600081518084526150b581602086016020860161506d565b601f01601f19169290920160200192915050565b602081526000615066602083018461509d565b6000602082840312156150ee57600080fd5b5035919050565b6001600160a01b0381168114614ea457600080fd5b6000806040838503121561511d57600080fd5b8235615128816150f5565b946020939093013593505050565b60006020828403121561514857600080fd5b8135615066816150f5565b6000604080830185845260208281860152818651808452606087019150828801935060005b818110156151ac578451805163ffffffff1684528401516001600160601b0316848401529383019391850191600101615178565b509098975050505050505050565b600080604083850312156151cd57600080fd5b50508035926020909101359150565b600081518084526020808501945080840160005b838110156152155781516001600160a01b0316875295820195908201906001016151f0565b509495945050505050565b82815260406020820152600061523960408301846151dc565b949350505050565b60008060006060848603121561525657600080fd5b8335615261816150f5565b92506020840135615271816150f5565b929592945050506040919091013590565b634e487b7160e01b600052602160045260246000fd5b600681106152b657634e487b7160e01b600052602160045260246000fd5b9052565b6001600160601b03881681526001600160a01b03871660208201526040810186905263ffffffff85811660608301528481166080830152831660a082015260e0810161530960c0830184615298565b98975050505050505050565b634e487b7160e01b600052604160045260246000fd5b6040805190810167ffffffffffffffff8111828210171561534e5761534e615315565b60405290565b604051601f8201601f1916810167ffffffffffffffff8111828210171561537d5761537d615315565b604052919050565b600067ffffffffffffffff83111561539f5761539f615315565b6153b2601f8401601f1916602001615354565b90508281528383830111156153c657600080fd5b828260208301376000602084830101529392505050565b6000602082840312156153ef57600080fd5b813567ffffffffffffffff81111561540657600080fd5b8201601f8101841361541757600080fd5b61523984823560208401615385565b600067ffffffffffffffff82111561544057615440615315565b5060051b60200190565b600082601f83011261545b57600080fd5b8135602061547061546b83615426565b615354565b82815260059290921b8401810191818101908684111561548f57600080fd5b8286015b848110156154b35780356154a6816150f5565b8352918301918301615493565b509695505050505050565b80356001600160601b03811681146117ca57600080fd5b6000806000606084860312156154ea57600080fd5b833567ffffffffffffffff8082111561550257600080fd5b61550e8783880161544a565b945060209150818601358181111561552557600080fd5b86019050601f8101871361553857600080fd5b803561554661546b82615426565b81815260059190911b8201830190838101908983111561556557600080fd5b928401925b8284101561558a5761557b846154be565b8252928401929084019061556a565b96999698505050506040949094013593505050565b600080604083850312156155b257600080fd5b82356155bd816150f5565b9150602083013580151581146155d257600080fd5b809150509250929050565b600080604083850312156155f057600080fd5b82356002811061512857600080fd5b600081518084526020808501945080840160005b8381101561521557815163ffffffff1687529582019590820190600101615613565b82815260406020820152600061523960408301846155ff565b6000604082018483526020604081850152818551808452606086019150828701935060005b8181101561568f57845183529383019391830191600101615673565b5090979650505050505050565b6000806000806000608086880312156156b457600080fd5b85356156bf816150f5565b945060208601356156cf816150f5565b935060408601359250606086013567ffffffffffffffff808211156156f357600080fd5b818801915088601f83011261570757600080fd5b81358181111561571657600080fd5b89602082850101111561572857600080fd5b9699959850939650602001949392505050565b63ffffffff81168114614ea457600080fd5b600082601f83011261575e57600080fd5b8135602061576e61546b83615426565b82815260059290921b8401810191818101908684111561578d57600080fd5b8286015b848110156154b35780356157a48161573b565b8352918301918301615791565b600082601f8301126157c257600080fd5b813560206157d261546b83615426565b82815260069290921b840181019181810190868411156157f157600080fd5b8286015b848110156154b3576040818903121561580e5760008081fd5b61581661532b565b81356158218161573b565b815261582e8286016154be565b818601528352918301916040016157f5565b60008060008060008060c0878903121561585957600080fd5b8635615864816150f5565b955060208701359450604087013567ffffffffffffffff8082111561588857600080fd5b6158948a838b0161574d565b955060608901359150808211156158aa57600080fd5b506158b789828a016157b1565b93505060808701356158c88161573b565b8092505060a087013590509295509295509295565b600080600080608085870312156158f357600080fd5b84356158fe816150f5565b935060208501359250604085013567ffffffffffffffff8082111561592257600080fd5b61592e8883890161544a565b9350606087013591508082111561594457600080fd5b506159518782880161574d565b91505092959194509250565b6000806040838503121561597057600080fd5b823561597b816150f5565b915060208301356155d2816150f5565b602081526001600160601b0382511660208201526001600160a01b03602083015116604082015260408201516060820152600060608301516159d5608084018263ffffffff169052565b50608083015163ffffffff811660a08401525060a083015163ffffffff811660c08401525060c0830151615a0c60e0840182615298565b5060e0830151610100838101526152396101208401826155ff565b60008060008060808587031215615a3d57600080fd5b8435615a48816150f5565b9350602085013592506040850135615a5f816150f5565b9150606085013567ffffffffffffffff811115615a7b57600080fd5b8501601f81018713615a8c57600080fd5b61595187823560208401615385565b600080600080600060a08688031215615ab357600080fd5b8535615abe816150f5565b945060208601359350604086013567ffffffffffffffff80821115615ae257600080fd5b615aee89838a0161574d565b94506060880135915080821115615b0457600080fd5b50615b11888289016157b1565b9250506080860135615b228161573b565b809150509295509295909350565b600181811c90821680615b4457607f821691505b602082108103615b6457634e487b7160e01b600052602260045260246000fd5b50919050565b634e487b7160e01b600052603260045260246000fd5b634e487b7160e01b600052601160045260246000fd5b600060018201615ba857615ba8615b80565b5060010190565b600060208284031215615bc157600080fd5b815161506681615033565b60008219821115615bdf57615bdf615b80565b500190565b601f8211156115f857600081815260208120601f850160051c81016020861015615c0b5750805b601f850160051c820191505b8181101561499857828155600101615c17565b815167ffffffffffffffff811115615c4457615c44615315565b615c5881615c528454615b30565b84615be4565b602080601f831160018114615c8d5760008415615c755750858301515b600019600386901b1c1916600185901b178555614998565b600085815260208120601f198616915b82811015615cbc57888601518255948401946001909101908401615c9d565b5085821015615cda5787850151600019600388901b60f8161c191681555b5050505050600190811b01905550565b60006001600160601b03808316818516808303821115615d0c57615d0c615b80565b01949350505050565b60006001600160601b0383811690831681811015615d3557615d35615b80565b039392505050565b600063ffffffff83811690831681811015615d3557615d35615b80565b60006001600160a01b03808816835280871660208401525084604083015260806060830152826080830152828460a0840137600060a0848401015260a0601f19601f85011683010190509695505050505050565b6000808654615dbc81615b30565b60018281168015615dd45760018114615de957615e18565b60ff1984168752821515830287019450615e18565b8a60005260208060002060005b85811015615e0f5781548a820152908401908201615df6565b50505082870194505b505050508551615e2c818360208a0161506d565b019384525050602082015260400192915050565b600063ffffffff808316818103615e5957615e59615b80565b6001019392505050565b606081526000615e7660608301866151dc565b63ffffffff851660208401528281036040840152615e94818561509d565b9695505050505050565b600060208284031215615eb057600080fd5b8151615066816150f5565b60006020808301818452808554615ed6818490815260200190565b60008881526020812094509092505b81600782011015615f5b57835463ffffffff808216855281871c811687860152604082811c821690860152606082811c821690860152608082811c82169086015260a082811c82169086015260c082811c9091169085015260e090811c9084015260019093019261010090920191600801615ee5565b92549281811015615f775763ffffffff84168352918401916001015b81811015615f925783851c63ffffffff168352918401916001015b81811015615faf57604084901c63ffffffff168352918401916001015b81811015615fcc57606084901c63ffffffff168352918401916001015b81811015615fe957608084901c63ffffffff168352918401916001015b818110156160065760a084901c63ffffffff168352918401916001015b818110156160235760c084901c63ffffffff168352918401916001015b818110156160375760e084901c8352918401915b50909695505050505050565b6000602080838503121561605657600080fd5b825167ffffffffffffffff81111561606d57600080fd5b8301601f8101851361607e57600080fd5b805161608c61546b82615426565b81815260059190911b820183019083810190878311156160ab57600080fd5b928401925b828410156160d25783516160c38161573b565b825292840192908401906160b0565b979650505050505050565b60008160001904831182151516156160f7576160f7615b80565b500290565b60006020828403121561610e57600080fd5b5051919050565b600063ffffffff808316818516808303821115615d0c57615d0c615b80565b600063ffffffff8083168185168183048111821515161561615757616157615b80565b02949350505050565b634e487b7160e01b600052601260045260246000fd5b60008261618557616185616160565b500690565b60008261619957616199616160565b50049056fea2646970667358221220a3b6096e72c8217477cf232a1dafee260cff029c284e7a5f0458f3ae9001f28364736f6c634300080f0033",
  "linkReferences": {},
  "deployedLinkReferences": {}
}