{
  "_format": "hh-sol-artifact-1",
  "contractName": "ServiceRegistry",
  "sourceName": "lib/autonolas-registries/contracts/ServiceRegistry.sol",
  "abi": [
    {
      "inputs": [
        {
          "internalType": "string",
          "name": "_name",
          "type": "string"
        },
        {
          "internalType": "string",
          "name": "_symbol",
          "type": "string"
        },
        {
          "internalType": "address",
          "name": "_agentRegistry",
          "type": "address"
        }
      ],
      "stateMutability": "nonpayable",
      "type": "constructor"
    },
    {
      "inputs": [
        {
          "internalType": "address",
          "name": "operator",
          "type": "address"
        }
      ],
      "name": "AgentInstanceRegistered",
      "type": "error"
    },
    {
      "inputs": [
        {
          "internalType": "uint256",
          "name": "serviceId",
          "type": "uint256"
        }
      ],
      "name": "AgentInstancesSlotsFilled",
      "type": "error"
    },
    {
      "inputs": [
        {
          "internalType": "uint256",
          "name": "actual",
          "type": "uint256"
        },
        {
          "internalType": "uint256",
          "name": "maxNumAgentInstances",
          "type": "uint256"
        },
        {
          "internalType": "uint256",
          "name": "serviceId",
          "type": "uint256"
        }
      ],
      "name": "AgentInstancesSlotsNotFilled",
      "type": "error"
    },
    {
      "inputs": [
        {
          "internalType": "uint256",
          "name": "agentId",
          "type": "uint256"
        }
      ],
      "name": "AgentNotFound",
      "type": "error"
    },
    {
      "inputs": [
        {
          "internalType": "uint256",
          "name": "agentId",
          "type": "uint256"
        },
        {
          "internalType": "uint256",
          "name": "serviceId",
          "type": "uint256"
        }
      ],
      "name": "AgentNotInService",
      "type": "error"
    },
    {
      "inputs": [
        {
          "internalType": "uint256",
          "name": "provided",
          "type": "uint256"
        },
        {
          "internalType": "uint256",
          "name": "expected",
          "type": "uint256"
        }
      ],
      "name": "AmountLowerThan",
      "type": "error"
    },
    {
      "inputs": [
        {
          "internalType": "uint256",
          "name": "componentId",
          "type": "uint256"
        }
      ],
      "name": "ComponentNotFound",
      "type": "error"
    },
    {
      "inputs": [],
      "name": "EmptyString",
      "type": "error"
    },
    {
      "inputs": [],
      "name": "HashExists",
      "type": "error"
    },
    {
      "inputs": [
        {
          "internalType": "uint256",
          "name": "sent",
          "type": "uint256"
        },
        {
          "internalType": "uint256",
          "name": "expected",
          "type": "uint256"
        },
        {
          "internalType": "uint256",
          "name": "serviceId",
          "type": "uint256"
        }
      ],
      "name": "IncorrectAgentBondingValue",
      "type": "error"
    },
    {
      "inputs": [
        {
          "internalType": "uint256",
          "name": "sent",
          "type": "uint256"
        },
        {
          "internalType": "uint256",
          "name": "expected",
          "type": "uint256"
        },
        {
          "internalType": "uint256",
          "name": "serviceId",
          "type": "uint256"
        }
      ],
      "name": "IncorrectRegistrationDepositValue",
      "type": "error"
    },
    {
      "inputs": [
        {
          "internalType": "uint256",
          "name": "provided",
          "type": "uint256"
        },
        {
          "internalType": "uint256",
          "name": "expected",
          "type": "uint256"
        }
      ],
      "name": "InsufficientAllowance",
      "type": "error"
    },
    {
      "inputs": [
        {
          "internalType": "address",
          "name": "account",
          "type": "address"
        },
        {
          "internalType": "uint256",
          "name": "deadline",
          "type": "uint256"
        },
        {
          "internalType": "uint256",
          "name": "curTime",
          "type": "uint256"
        }
      ],
      "name": "LockExpired",
      "type": "error"
    },
    {
      "inputs": [
        {
          "internalType": "address",
          "name": "account",
          "type": "address"
        },
        {
          "internalType": "uint256",
          "name": "deadline",
          "type": "uint256"
        },
        {
          "internalType": "uint256",
          "name": "curTime",
          "type": "uint256"
        }
      ],
      "name": "LockNotExpired",
      "type": "error"
    },
    {
      "inputs": [
        {
          "internalType": "address",
          "name": "account",
          "type": "address"
        },
        {
          "internalType": "uint256",
          "name": "amount",
          "type": "uint256"
        }
      ],
      "name": "LockedValueNotZero",
      "type": "error"
    },
    {
      "inputs": [
        {
          "internalType": "address",
          "name": "sender",
          "type": "address"
        },
        {
          "internalType": "address",
          "name": "manager",
          "type": "address"
        }
      ],
      "name": "ManagerOnly",
      "type": "error"
    },
    {
      "inputs": [
        {
          "internalType": "address",
          "name": "account",
          "type": "address"
        },
        {
          "internalType": "uint256",
          "name": "maxUnlockTime",
          "type": "uint256"
        },
        {
          "internalType": "uint256",
          "name": "providedUnlockTime",
          "type": "uint256"
        }
      ],
      "name": "MaxUnlockTimeReached",
      "type": "error"
    },
    {
      "inputs": [
        {
          "internalType": "uint256",
          "name": "amount",
          "type": "uint256"
        }
      ],
      "name": "MintRejectedByInflationPolicy",
      "type": "error"
    },
    {
      "inputs": [
        {
          "internalType": "address",
          "name": "account",
          "type": "address"
        }
      ],
      "name": "NoValueLocked",
      "type": "error"
    },
    {
      "inputs": [
        {
          "internalType": "address",
          "name": "account",
          "type": "address"
        }
      ],
      "name": "NonDelegatable",
      "type": "error"
    },
    {
      "inputs": [
        {
          "internalType": "address",
          "name": "account",
          "type": "address"
        }
      ],
      "name": "NonTransferable",
      "type": "error"
    },
    {
      "inputs": [],
      "name": "NonZeroValue",
      "type": "error"
    },
    {
      "inputs": [
        {
          "internalType": "address",
          "name": "provided",
          "type": "address"
        },
        {
          "internalType": "address",
          "name": "expected",
          "type": "address"
        },
        {
          "internalType": "uint256",
          "name": "serviceId",
          "type": "uint256"
        }
      ],
      "name": "OnlyOwnServiceMultisig",
      "type": "error"
    },
    {
      "inputs": [
        {
          "internalType": "address",
          "name": "operator",
          "type": "address"
        },
        {
          "internalType": "uint256",
          "name": "serviceId",
          "type": "uint256"
        }
      ],
      "name": "OperatorHasNoInstances",
      "type": "error"
    },
    {
      "inputs": [
        {
          "internalType": "uint256",
          "name": "provided",
          "type": "uint256"
        },
        {
          "internalType": "uint256",
          "name": "max",
          "type": "uint256"
        }
      ],
      "name": "Overflow",
      "type": "error"
    },
    {
      "inputs": [
        {
          "internalType": "address",
          "name": "tokenAddress",
          "type": "address"
        },
        {
          "internalType": "uint256",
          "name": "productId",
          "type": "uint256"
        },
        {
          "internalType": "uint256",
          "name": "deadline",
          "type": "uint256"
        },
        {
          "internalType": "uint256",
          "name": "curTime",
          "type": "uint256"
        }
      ],
      "name": "ProductExpired",
      "type": "error"
    },
    {
      "inputs": [
        {
          "internalType": "address",
          "name": "tokenAddress",
          "type": "address"
        },
        {
          "internalType": "uint256",
          "name": "productId",
          "type": "uint256"
        },
        {
          "internalType": "uint256",
          "name": "requested",
          "type": "uint256"
        },
        {
          "internalType": "uint256",
          "name": "actual",
          "type": "uint256"
        }
      ],
      "name": "ProductSupplyLow",
      "type": "error"
    },
    {
      "inputs": [],
      "name": "ReentrancyGuard",
      "type": "error"
    },
    {
      "inputs": [
        {
          "internalType": "uint256",
          "name": "serviceId",
          "type": "uint256"
        }
      ],
      "name": "ServiceDoesNotExist",
      "type": "error"
    },
    {
      "inputs": [
        {
          "internalType": "uint256",
          "name": "serviceId",
          "type": "uint256"
        }
      ],
      "name": "ServiceMustBeActive",
      "type": "error"
    },
    {
      "inputs": [
        {
          "internalType": "uint256",
          "name": "serviceId",
          "type": "uint256"
        }
      ],
      "name": "ServiceMustBeInactive",
      "type": "error"
    },
    {
      "inputs": [
        {
          "internalType": "uint256",
          "name": "serviceId",
          "type": "uint256"
        }
      ],
      "name": "ServiceNotFound",
      "type": "error"
    },
    {
      "inputs": [
        {
          "internalType": "uint256",
          "name": "teminationBlock",
          "type": "uint256"
        },
        {
          "internalType": "uint256",
          "name": "curBlock",
          "type": "uint256"
        },
        {
          "internalType": "uint256",
          "name": "serviceId",
          "type": "uint256"
        }
      ],
      "name": "ServiceTerminated",
      "type": "error"
    },
    {
      "inputs": [
        {
          "internalType": "address",
          "name": "token",
          "type": "address"
        },
        {
          "internalType": "address",
          "name": "from",
          "type": "address"
        },
        {
          "internalType": "address",
          "name": "to",
          "type": "address"
        },
        {
          "internalType": "uint256",
          "name": "value",
          "type": "uint256"
        }
      ],
      "name": "TransferFailed",
      "type": "error"
    },
    {
      "inputs": [
        {
          "internalType": "address",
          "name": "account",
          "type": "address"
        }
      ],
      "name": "UnauthorizedAccount",
      "type": "error"
    },
    {
      "inputs": [
        {
          "internalType": "address",
          "name": "multisig",
          "type": "address"
        }
      ],
      "name": "UnauthorizedMultisig",
      "type": "error"
    },
    {
      "inputs": [
        {
          "internalType": "address",
          "name": "tokenAddress",
          "type": "address"
        }
      ],
      "name": "UnauthorizedToken",
      "type": "error"
    },
    {
      "inputs": [
        {
          "internalType": "address",
          "name": "account",
          "type": "address"
        },
        {
          "internalType": "uint256",
          "name": "minUnlockTime",
          "type": "uint256"
        },
        {
          "internalType": "uint256",
          "name": "providedUnlockTime",
          "type": "uint256"
        }
      ],
      "name": "UnlockTimeIncorrect",
      "type": "error"
    },
    {
      "inputs": [
        {
          "internalType": "uint256",
          "name": "agentId",
          "type": "uint256"
        }
      ],
      "name": "WrongAgentId",
      "type": "error"
    },
    {
      "inputs": [
        {
          "internalType": "uint256",
          "name": "provided",
          "type": "uint256"
        },
        {
          "internalType": "uint256",
          "name": "expected",
          "type": "uint256"
        }
      ],
      "name": "WrongAmount",
      "type": "error"
    },
    {
      "inputs": [
        {
          "internalType": "uint256",
          "name": "numValues1",
          "type": "uint256"
        },
        {
          "internalType": "uint256",
          "name": "numValues2",
          "type": "uint256"
        }
      ],
      "name": "WrongArrayLength",
      "type": "error"
    },
    {
      "inputs": [
        {
          "internalType": "uint256",
          "name": "providedBlockNumber",
          "type": "uint256"
        },
        {
          "internalType": "uint256",
          "name": "actualBlockNumber",
          "type": "uint256"
        }
      ],
      "name": "WrongBlockNumber",
      "type": "error"
    },
    {
      "inputs": [
        {
          "internalType": "uint256",
          "name": "componentId",
          "type": "uint256"
        }
      ],
      "name": "WrongComponentId",
      "type": "error"
    },
    {
      "inputs": [],
      "name": "WrongFunction",
      "type": "error"
    },
    {
      "inputs": [
        {
          "internalType": "uint8",
          "name": "hashFunctionProvided",
          "type": "uint8"
        },
        {
          "internalType": "uint8",
          "name": "hashFunctionNeeded",
          "type": "uint8"
        },
        {
          "internalType": "uint8",
          "name": "sizeProvided",
          "type": "uint8"
        },
        {
          "internalType": "uint8",
          "name": "sizeNeeded",
          "type": "uint8"
        }
      ],
      "name": "WrongHash",
      "type": "error"
    },
    {
      "inputs": [
        {
          "internalType": "uint256",
          "name": "serviceId",
          "type": "uint256"
        }
      ],
      "name": "WrongOperator",
      "type": "error"
    },
    {
      "inputs": [
        {
          "internalType": "uint256",
          "name": "state",
          "type": "uint256"
        },
        {
          "internalType": "uint256",
          "name": "serviceId",
          "type": "uint256"
        }
      ],
      "name": "WrongServiceState",
      "type": "error"
    },
    {
      "inputs": [
        {
          "internalType": "uint256",
          "name": "currentThreshold",
          "type": "uint256"
        },
        {
          "internalType": "uint256",
          "name": "minThreshold",
          "type": "uint256"
        },
        {
          "internalType": "uint256",
          "name": "maxThreshold",
          "type": "uint256"
        }
      ],
      "name": "WrongThreshold",
      "type": "error"
    },
    {
      "inputs": [
        {
          "internalType": "address",
          "name": "provided",
          "type": "address"
        },
        {
          "internalType": "address",
          "name": "expected",
          "type": "address"
        }
      ],
      "name": "WrongTokenAddress",
      "type": "error"
    },
    {
      "inputs": [],
      "name": "ZeroAddress",
      "type": "error"
    },
    {
      "inputs": [],
      "name": "ZeroValue",
      "type": "error"
    },
    {
      "anonymous": false,
      "inputs": [
        {
          "indexed": false,
          "internalType": "address",
          "name": "owner",
          "type": "address"
        },
        {
          "indexed": false,
          "internalType": "uint256",
          "name": "serviceId",
          "type": "uint256"
        }
      ],
      "name": "ActivateRegistration",
      "type": "event"
    },
    {
      "anonymous": false,
      "inputs": [
        {
          "indexed": true,
          "internalType": "address",
          "name": "owner",
          "type": "address"
        },
        {
          "indexed": true,
          "internalType": "address",
          "name": "approved",
          "type": "address"
        },
        {
          "indexed": true,
          "internalType": "uint256",
          "name": "tokenId",
          "type": "uint256"
        }
      ],
      "name": "Approval",
      "type": "event"
    },
    {
      "anonymous": false,
      "inputs": [
        {
          "indexed": true,
          "internalType": "address",
          "name": "owner",
          "type": "address"
        },
        {
          "indexed": true,
          "internalType": "address",
          "name": "operator",
          "type": "address"
        },
        {
          "indexed": false,
          "internalType": "bool",
          "name": "approved",
          "type": "bool"
        }
      ],
      "name": "ApprovalForAll",
      "type": "event"
    },
    {
      "anonymous": false,
      "inputs": [
        {
          "indexed": false,
          "internalType": "uint256",
          "name": "serviceId",
          "type": "uint256"
        },
        {
          "indexed": false,
          "internalType": "address",
          "name": "multisig",
          "type": "address"
        },
        {
          "indexed": false,
          "internalType": "address[]",
          "name": "agentInstances",
          "type": "address[]"
        },
        {
          "indexed": false,
          "internalType": "uint256",
          "name": "threshold",
          "type": "uint256"
        }
      ],
      "name": "CreateMultisigWithAgents",
      "type": "event"
    },
    {
      "anonymous": false,
      "inputs": [
        {
          "indexed": false,
          "internalType": "address",
          "name": "owner",
          "type": "address"
        },
        {
          "indexed": false,
          "internalType": "string",
          "name": "name",
          "type": "string"
        },
        {
          "indexed": false,
          "internalType": "uint256",
          "name": "threshold",
          "type": "uint256"
        },
        {
          "indexed": false,
          "internalType": "uint256",
          "name": "serviceId",
          "type": "uint256"
        }
      ],
      "name": "CreateService",
      "type": "event"
    },
    {
      "anonymous": false,
      "inputs": [
        {
          "indexed": false,
          "internalType": "address",
          "name": "owner",
          "type": "address"
        },
        {
          "indexed": false,
          "internalType": "uint256",
          "name": "serviceId",
          "type": "uint256"
        }
      ],
      "name": "DeployService",
      "type": "event"
    },
    {
      "anonymous": false,
      "inputs": [
        {
          "indexed": false,
          "internalType": "address",
          "name": "sender",
          "type": "address"
        },
        {
          "indexed": false,
          "internalType": "uint256",
          "name": "amount",
          "type": "uint256"
        }
      ],
      "name": "Deposit",
      "type": "event"
    },
    {
      "anonymous": false,
      "inputs": [
        {
          "indexed": false,
          "internalType": "address",
          "name": "owner",
          "type": "address"
        },
        {
          "indexed": false,
          "internalType": "uint256",
          "name": "serviceId",
          "type": "uint256"
        }
      ],
      "name": "DestroyService",
      "type": "event"
    },
    {
      "anonymous": false,
      "inputs": [
        {
          "indexed": false,
          "internalType": "uint256",
          "name": "amount",
          "type": "uint256"
        },
        {
          "indexed": false,
          "internalType": "address",
          "name": "operator",
          "type": "address"
        },
        {
          "indexed": false,
          "internalType": "uint256",
          "name": "serviceId",
          "type": "uint256"
        }
      ],
      "name": "OperatorSlashed",
      "type": "event"
    },
    {
      "anonymous": false,
      "inputs": [
        {
          "indexed": false,
          "internalType": "address",
          "name": "operator",
          "type": "address"
        },
        {
          "indexed": false,
          "internalType": "uint256",
          "name": "serviceId",
          "type": "uint256"
        }
      ],
      "name": "OperatorUnbond",
      "type": "event"
    },
    {
      "anonymous": false,
      "inputs": [
        {
          "indexed": true,
          "internalType": "address",
          "name": "previousOwner",
          "type": "address"
        },
        {
          "indexed": true,
          "internalType": "address",
          "name": "newOwner",
          "type": "address"
        }
      ],
      "name": "OwnershipTransferred",
      "type": "event"
    },
    {
      "anonymous": false,
      "inputs": [
        {
          "indexed": false,
          "internalType": "address",
          "name": "sendee",
          "type": "address"
        },
        {
          "indexed": false,
          "internalType": "uint256",
          "name": "amount",
          "type": "uint256"
        }
      ],
      "name": "Refund",
      "type": "event"
    },
    {
      "anonymous": false,
      "inputs": [
        {
          "indexed": false,
          "internalType": "address",
          "name": "operator",
          "type": "address"
        },
        {
          "indexed": false,
          "internalType": "uint256",
          "name": "serviceId",
          "type": "uint256"
        },
        {
          "indexed": false,
          "internalType": "address",
          "name": "agent",
          "type": "address"
        },
        {
          "indexed": false,
          "internalType": "uint256",
          "name": "agentId",
          "type": "uint256"
        }
      ],
      "name": "RegisterInstance",
      "type": "event"
    },
    {
      "anonymous": false,
      "inputs": [
        {
          "indexed": false,
          "internalType": "address",
          "name": "manager",
          "type": "address"
        }
      ],
      "name": "ServiceRegistryManagerUpdated",
      "type": "event"
    },
    {
      "anonymous": false,
      "inputs": [
        {
          "indexed": false,
          "internalType": "address",
          "name": "owner",
          "type": "address"
        },
        {
          "indexed": false,
          "internalType": "uint256",
          "name": "serviceId",
          "type": "uint256"
        }
      ],
      "name": "TerminateService",
      "type": "event"
    },
    {
      "anonymous": false,
      "inputs": [
        {
          "indexed": true,
          "internalType": "address",
          "name": "from",
          "type": "address"
        },
        {
          "indexed": true,
          "internalType": "address",
          "name": "to",
          "type": "address"
        },
        {
          "indexed": true,
          "internalType": "uint256",
          "name": "tokenId",
          "type": "uint256"
        }
      ],
      "name": "Transfer",
      "type": "event"
    },
    {
      "anonymous": false,
      "inputs": [
        {
          "indexed": false,
          "internalType": "address",
          "name": "owner",
          "type": "address"
        },
        {
          "indexed": false,
          "internalType": "string",
          "name": "name",
          "type": "string"
        },
        {
          "indexed": false,
          "internalType": "uint256",
          "name": "threshold",
          "type": "uint256"
        },
        {
          "indexed": false,
          "internalType": "uint256",
          "name": "serviceId",
          "type": "uint256"
        }
      ],
      "name": "UpdateService",
      "type": "event"
    },
    {
      "stateMutability": "payable",
      "type": "fallback"
    },
    {
      "inputs": [
        {
          "internalType": "address",
          "name": "owner",
          "type": "address"
        },
        {
          "internalType": "uint256",
          "name": "serviceId",
          "type": "uint256"
        }
      ],
      "name": "activateRegistration",
      "outputs": [
        {
          "internalType": "bool",
          "name": "success",
          "type": "bool"
        }
      ],
      "stateMutability": "payable",
      "type": "function"
    },
    {
      "inputs": [],
      "name": "agentRegistry",
      "outputs": [
        {
          "internalType": "address",
          "name": "",
          "type": "address"
        }
      ],
      "stateMutability": "view",
      "type": "function"
    },
    {
      "inputs": [
        {
          "internalType": "address",
          "name": "to",
          "type": "address"
        },
        {
          "internalType": "uint256",
          "name": "tokenId",
          "type": "uint256"
        }
      ],
      "name": "approve",
      "outputs": [],
      "stateMutability": "nonpayable",
      "type": "function"
    },
    {
      "inputs": [
        {
          "internalType": "address",
          "name": "owner",
          "type": "address"
        }
      ],
      "name": "balanceOf",
      "outputs": [
        {
          "internalType": "uint256",
          "name": "",
          "type": "uint256"
        }
      ],
      "stateMutability": "view",
      "type": "function"
    },
    {
      "inputs": [
        {
          "internalType": "address",
          "name": "newManager",
          "type": "address"
        }
      ],
      "name": "changeManager",
      "outputs": [],
      "stateMutability": "nonpayable",
      "type": "function"
    },
    {
      "inputs": [
        {
          "internalType": "address",
          "name": "multisig",
          "type": "address"
        },
        {
          "internalType": "bool",
          "name": "permission",
          "type": "bool"
        }
      ],
      "name": "changeMultisigPermission",
      "outputs": [
        {
          "internalType": "bool",
          "name": "success",
          "type": "bool"
        }
      ],
      "stateMutability": "nonpayable",
      "type": "function"
    },
    {
      "inputs": [
        {
          "internalType": "address",
          "name": "owner",
          "type": "address"
        },
        {
          "internalType": "string",
          "name": "name",
          "type": "string"
        },
        {
          "internalType": "string",
          "name": "description",
          "type": "string"
        },
        {
          "components": [
            {
              "internalType": "bytes32",
              "name": "hash",
              "type": "bytes32"
            },
            {
              "internalType": "uint8",
              "name": "hashFunction",
              "type": "uint8"
            },
            {
              "internalType": "uint8",
              "name": "size",
              "type": "uint8"
            }
          ],
          "internalType": "struct IStructs.Multihash",
          "name": "configHash",
          "type": "tuple"
        },
        {
          "internalType": "uint256[]",
          "name": "agentIds",
          "type": "uint256[]"
        },
        {
          "components": [
            {
              "internalType": "uint256",
              "name": "slots",
              "type": "uint256"
            },
            {
              "internalType": "uint256",
              "name": "bond",
              "type": "uint256"
            }
          ],
          "internalType": "struct IStructs.AgentParams[]",
          "name": "agentParams",
          "type": "tuple[]"
        },
        {
          "internalType": "uint256",
          "name": "threshold",
          "type": "uint256"
        }
      ],
      "name": "createService",
      "outputs": [
        {
          "internalType": "uint256",
          "name": "serviceId",
          "type": "uint256"
        }
      ],
      "stateMutability": "nonpayable",
      "type": "function"
    },
    {
      "inputs": [
        {
          "internalType": "address",
          "name": "owner",
          "type": "address"
        },
        {
          "internalType": "uint256",
          "name": "serviceId",
          "type": "uint256"
        },
        {
          "internalType": "address",
          "name": "multisigImplementation",
          "type": "address"
        },
        {
          "internalType": "bytes",
          "name": "data",
          "type": "bytes"
        }
      ],
      "name": "deploy",
      "outputs": [
        {
          "internalType": "address",
          "name": "multisig",
          "type": "address"
        }
      ],
      "stateMutability": "nonpayable",
      "type": "function"
    },
    {
      "inputs": [
        {
          "internalType": "address",
          "name": "owner",
          "type": "address"
        },
        {
          "internalType": "uint256",
          "name": "serviceId",
          "type": "uint256"
        }
      ],
      "name": "destroy",
      "outputs": [
        {
          "internalType": "bool",
          "name": "success",
          "type": "bool"
        }
      ],
      "stateMutability": "nonpayable",
      "type": "function"
    },
    {
      "inputs": [
        {
          "internalType": "uint256",
          "name": "serviceId",
          "type": "uint256"
        }
      ],
      "name": "exists",
      "outputs": [
        {
          "internalType": "bool",
          "name": "",
          "type": "bool"
        }
      ],
      "stateMutability": "view",
      "type": "function"
    },
    {
      "inputs": [
        {
          "internalType": "uint256",
          "name": "serviceId",
          "type": "uint256"
        }
      ],
      "name": "getAgentIdsOfServiceId",
      "outputs": [
        {
          "internalType": "uint256",
          "name": "numAgentIds",
          "type": "uint256"
        },
        {
          "internalType": "uint256[]",
          "name": "agentIds",
          "type": "uint256[]"
        }
      ],
      "stateMutability": "view",
      "type": "function"
    },
    {
      "inputs": [
        {
          "internalType": "uint256",
          "name": "tokenId",
          "type": "uint256"
        }
      ],
      "name": "getApproved",
      "outputs": [
        {
          "internalType": "address",
          "name": "",
          "type": "address"
        }
      ],
      "stateMutability": "view",
      "type": "function"
    },
    {
      "inputs": [
        {
          "internalType": "uint256",
          "name": "serviceId",
          "type": "uint256"
        }
      ],
      "name": "getComponentIdsOfServiceId",
      "outputs": [
        {
          "internalType": "uint256",
          "name": "numComponentIds",
          "type": "uint256"
        },
        {
          "internalType": "uint256[]",
          "name": "componentIds",
          "type": "uint256[]"
        }
      ],
      "stateMutability": "view",
      "type": "function"
    },
    {
      "inputs": [
        {
          "internalType": "uint256",
          "name": "serviceId",
          "type": "uint256"
        }
      ],
      "name": "getConfigHashes",
      "outputs": [
        {
          "internalType": "uint256",
          "name": "numHashes",
          "type": "uint256"
        },
        {
          "components": [
            {
              "internalType": "bytes32",
              "name": "hash",
              "type": "bytes32"
            },
            {
              "internalType": "uint8",
              "name": "hashFunction",
              "type": "uint8"
            },
            {
              "internalType": "uint8",
              "name": "size",
              "type": "uint8"
            }
          ],
          "internalType": "struct IStructs.Multihash[]",
          "name": "configHashes",
          "type": "tuple[]"
        }
      ],
      "stateMutability": "view",
      "type": "function"
    },
    {
      "inputs": [
        {
          "internalType": "uint256",
          "name": "serviceId",
          "type": "uint256"
        },
        {
          "internalType": "uint256",
          "name": "agentId",
          "type": "uint256"
        }
      ],
      "name": "getInstancesForAgentId",
      "outputs": [
        {
          "internalType": "uint256",
          "name": "numAgentInstances",
          "type": "uint256"
        },
        {
          "internalType": "address[]",
          "name": "agentInstances",
          "type": "address[]"
        }
      ],
      "stateMutability": "view",
      "type": "function"
    },
    {
      "inputs": [
        {
          "internalType": "address",
          "name": "operator",
          "type": "address"
        },
        {
          "internalType": "uint256",
          "name": "serviceId",
          "type": "uint256"
        }
      ],
      "name": "getOperatorBalance",
      "outputs": [
        {
          "internalType": "uint256",
          "name": "balance",
          "type": "uint256"
        }
      ],
      "stateMutability": "view",
      "type": "function"
    },
    {
      "inputs": [
        {
          "internalType": "uint256",
          "name": "serviceId",
          "type": "uint256"
        }
      ],
      "name": "getServiceInfo",
      "outputs": [
        {
          "internalType": "address",
          "name": "owner",
          "type": "address"
        },
        {
          "internalType": "string",
          "name": "name",
          "type": "string"
        },
        {
          "internalType": "string",
          "name": "description",
          "type": "string"
        },
        {
          "components": [
            {
              "internalType": "bytes32",
              "name": "hash",
              "type": "bytes32"
            },
            {
              "internalType": "uint8",
              "name": "hashFunction",
              "type": "uint8"
            },
            {
              "internalType": "uint8",
              "name": "size",
              "type": "uint8"
            }
          ],
          "internalType": "struct IStructs.Multihash",
          "name": "configHash",
          "type": "tuple"
        },
        {
          "internalType": "uint256",
          "name": "threshold",
          "type": "uint256"
        },
        {
          "internalType": "uint256",
          "name": "numAgentIds",
          "type": "uint256"
        },
        {
          "internalType": "uint256[]",
          "name": "agentIds",
          "type": "uint256[]"
        },
        {
          "components": [
            {
              "internalType": "uint256",
              "name": "slots",
              "type": "uint256"
            },
            {
              "internalType": "uint256",
              "name": "bond",
              "type": "uint256"
            }
          ],
          "internalType": "struct IStructs.AgentParams[]",
          "name": "agentParams",
          "type": "tuple[]"
        },
        {
          "internalType": "uint256",
          "name": "numAgentInstances",
          "type": "uint256"
        },
        {
          "internalType": "address[]",
          "name": "agentInstances",
          "type": "address[]"
        },
        {
          "internalType": "address",
          "name": "multisig",
          "type": "address"
        }
      ],
      "stateMutability": "view",
      "type": "function"
    },
    {
      "inputs": [
        {
          "internalType": "uint256",
          "name": "serviceId",
          "type": "uint256"
        }
      ],
      "name": "getServiceState",
      "outputs": [
        {
          "internalType": "enum ServiceRegistry.ServiceState",
          "name": "state",
          "type": "uint8"
        }
      ],
      "stateMutability": "view",
      "type": "function"
    },
    {
      "inputs": [
        {
          "internalType": "address",
          "name": "owner",
          "type": "address"
        },
        {
          "internalType": "address",
          "name": "operator",
          "type": "address"
        }
      ],
      "name": "isApprovedForAll",
      "outputs": [
        {
          "internalType": "bool",
          "name": "",
          "type": "bool"
        }
      ],
      "stateMutability": "view",
      "type": "function"
    },
    {
      "inputs": [
        {
          "internalType": "address",
          "name": "",
          "type": "address"
        }
      ],
      "name": "mapMultisigs",
      "outputs": [
        {
          "internalType": "bool",
          "name": "",
          "type": "bool"
        }
      ],
      "stateMutability": "view",
      "type": "function"
    },
    {
      "inputs": [],
      "name": "name",
      "outputs": [
        {
          "internalType": "string",
          "name": "",
          "type": "string"
        }
      ],
      "stateMutability": "view",
      "type": "function"
    },
    {
      "inputs": [],
      "name": "owner",
      "outputs": [
        {
          "internalType": "address",
          "name": "",
          "type": "address"
        }
      ],
      "stateMutability": "view",
      "type": "function"
    },
    {
      "inputs": [
        {
          "internalType": "uint256",
          "name": "tokenId",
          "type": "uint256"
        }
      ],
      "name": "ownerOf",
      "outputs": [
        {
          "internalType": "address",
          "name": "",
          "type": "address"
        }
      ],
      "stateMutability": "view",
      "type": "function"
    },
    {
      "inputs": [
        {
          "internalType": "address",
          "name": "operator",
          "type": "address"
        },
        {
          "internalType": "uint256",
          "name": "serviceId",
          "type": "uint256"
        },
        {
          "internalType": "address[]",
          "name": "agentInstances",
          "type": "address[]"
        },
        {
          "internalType": "uint256[]",
          "name": "agentIds",
          "type": "uint256[]"
        }
      ],
      "name": "registerAgents",
      "outputs": [
        {
          "internalType": "bool",
          "name": "success",
          "type": "bool"
        }
      ],
      "stateMutability": "payable",
      "type": "function"
    },
    {
      "inputs": [],
      "name": "renounceOwnership",
      "outputs": [],
      "stateMutability": "nonpayable",
      "type": "function"
    },
    {
      "inputs": [
        {
          "internalType": "address",
          "name": "from",
          "type": "address"
        },
        {
          "internalType": "address",
          "name": "to",
          "type": "address"
        },
        {
          "internalType": "uint256",
          "name": "tokenId",
          "type": "uint256"
        }
      ],
      "name": "safeTransferFrom",
      "outputs": [],
      "stateMutability": "nonpayable",
      "type": "function"
    },
    {
      "inputs": [
        {
          "internalType": "address",
          "name": "from",
          "type": "address"
        },
        {
          "internalType": "address",
          "name": "to",
          "type": "address"
        },
        {
          "internalType": "uint256",
          "name": "tokenId",
          "type": "uint256"
        },
        {
          "internalType": "bytes",
          "name": "_data",
          "type": "bytes"
        }
      ],
      "name": "safeTransferFrom",
      "outputs": [],
      "stateMutability": "nonpayable",
      "type": "function"
    },
    {
      "inputs": [
        {
          "internalType": "address",
          "name": "operator",
          "type": "address"
        },
        {
          "internalType": "bool",
          "name": "approved",
          "type": "bool"
        }
      ],
      "name": "setApprovalForAll",
      "outputs": [],
      "stateMutability": "nonpayable",
      "type": "function"
    },
    {
      "inputs": [
        {
          "internalType": "address[]",
          "name": "agentInstances",
          "type": "address[]"
        },
        {
          "internalType": "uint256[]",
          "name": "amounts",
          "type": "uint256[]"
        },
        {
          "internalType": "uint256",
          "name": "serviceId",
          "type": "uint256"
        }
      ],
      "name": "slash",
      "outputs": [
        {
          "internalType": "bool",
          "name": "success",
          "type": "bool"
        }
      ],
      "stateMutability": "nonpayable",
      "type": "function"
    },
    {
      "inputs": [],
      "name": "slashedFunds",
      "outputs": [
        {
          "internalType": "uint256",
          "name": "",
          "type": "uint256"
        }
      ],
      "stateMutability": "view",
      "type": "function"
    },
    {
      "inputs": [
        {
          "internalType": "bytes4",
          "name": "interfaceId",
          "type": "bytes4"
        }
      ],
      "name": "supportsInterface",
      "outputs": [
        {
          "internalType": "bool",
          "name": "",
          "type": "bool"
        }
      ],
      "stateMutability": "view",
      "type": "function"
    },
    {
      "inputs": [],
      "name": "symbol",
      "outputs": [
        {
          "internalType": "string",
          "name": "",
          "type": "string"
        }
      ],
      "stateMutability": "view",
      "type": "function"
    },
    {
      "inputs": [
        {
          "internalType": "address",
          "name": "owner",
          "type": "address"
        },
        {
          "internalType": "uint256",
          "name": "serviceId",
          "type": "uint256"
        }
      ],
      "name": "terminate",
      "outputs": [
        {
          "internalType": "bool",
          "name": "success",
          "type": "bool"
        },
        {
          "internalType": "uint256",
          "name": "refund",
          "type": "uint256"
        }
      ],
      "stateMutability": "nonpayable",
      "type": "function"
    },
    {
      "inputs": [
        {
          "internalType": "uint256",
          "name": "index",
          "type": "uint256"
        }
      ],
      "name": "tokenByIndex",
      "outputs": [
        {
          "internalType": "uint256",
          "name": "",
          "type": "uint256"
        }
      ],
      "stateMutability": "view",
      "type": "function"
    },
    {
      "inputs": [
        {
          "internalType": "address",
          "name": "owner",
          "type": "address"
        },
        {
          "internalType": "uint256",
          "name": "index",
          "type": "uint256"
        }
      ],
      "name": "tokenOfOwnerByIndex",
      "outputs": [
        {
          "internalType": "uint256",
          "name": "",
          "type": "uint256"
        }
      ],
      "stateMutability": "view",
      "type": "function"
    },
    {
      "inputs": [
        {
          "internalType": "uint256",
          "name": "tokenId",
          "type": "uint256"
        }
      ],
      "name": "tokenURI",
      "outputs": [
        {
          "internalType": "string",
          "name": "",
          "type": "string"
        }
      ],
      "stateMutability": "view",
      "type": "function"
    },
    {
      "inputs": [],
      "name": "totalSupply",
      "outputs": [
        {
          "internalType": "uint256",
          "name": "",
          "type": "uint256"
        }
      ],
      "stateMutability": "view",
      "type": "function"
    },
    {
      "inputs": [
        {
          "internalType": "address",
          "name": "from",
          "type": "address"
        },
        {
          "internalType": "address",
          "name": "to",
          "type": "address"
        },
        {
          "internalType": "uint256",
          "name": "tokenId",
          "type": "uint256"
        }
      ],
      "name": "transferFrom",
      "outputs": [],
      "stateMutability": "nonpayable",
      "type": "function"
    },
    {
      "inputs": [
        {
          "internalType": "address",
          "name": "newOwner",
          "type": "address"
        }
      ],
      "name": "transferOwnership",
      "outputs": [],
      "stateMutability": "nonpayable",
      "type": "function"
    },
    {
      "inputs": [
        {
          "internalType": "address",
          "name": "operator",
          "type": "address"
        },
        {
          "internalType": "uint256",
          "name": "serviceId",
          "type": "uint256"
        }
      ],
      "name": "unbond",
      "outputs": [
        {
          "internalType": "bool",
          "name": "success",
          "type": "bool"
        },
        {
          "internalType": "uint256",
          "name": "refund",
          "type": "uint256"
        }
      ],
      "stateMutability": "nonpayable",
      "type": "function"
    },
    {
      "inputs": [
        {
          "internalType": "address",
          "name": "owner",
          "type": "address"
        },
        {
          "internalType": "string",
          "name": "name",
          "type": "string"
        },
        {
          "internalType": "string",
          "name": "description",
          "type": "string"
        },
        {
          "components": [
            {
              "internalType": "bytes32",
              "name": "hash",
              "type": "bytes32"
            },
            {
              "internalType": "uint8",
              "name": "hashFunction",
              "type": "uint8"
            },
            {
              "internalType": "uint8",
              "name": "size",
              "type": "uint8"
            }
          ],
          "internalType": "struct IStructs.Multihash",
          "name": "configHash",
          "type": "tuple"
        },
        {
          "internalType": "uint256[]",
          "name": "agentIds",
          "type": "uint256[]"
        },
        {
          "components": [
            {
              "internalType": "uint256",
              "name": "slots",
              "type": "uint256"
            },
            {
              "internalType": "uint256",
              "name": "bond",
              "type": "uint256"
            }
          ],
          "internalType": "struct IStructs.AgentParams[]",
          "name": "agentParams",
          "type": "tuple[]"
        },
        {
          "internalType": "uint256",
          "name": "threshold",
          "type": "uint256"
        },
        {
          "internalType": "uint256",
          "name": "serviceId",
          "type": "uint256"
        }
      ],
      "name": "update",
      "outputs": [
        {
          "internalType": "bool",
          "name": "success",
          "type": "bool"
        }
      ],
      "stateMutability": "nonpayable",
      "type": "function"
    },
    {
      "stateMutability": "payable",
      "type": "receive"
    }
  ],
  "bytecode": "0x60a06040523480156200001157600080fd5b506040516200607d3803806200607d83398101604081905262000034916200024c565b8282620000413362000089565b815162000056906001906020850190620000d9565b5080516200006c906002906020840190620000d9565b50506001600b55506001600160a01b031660805250620003159050565b600080546001600160a01b038381166001600160a01b0319831681178455604051919092169283917f8be0079c531659141344cd1fd0a4f28419497f9722a3daafe3b4186f6b6457e09190a35050565b828054620000e790620002d9565b90600052602060002090601f0160209004810192826200010b576000855562000156565b82601f106200012657805160ff191683800117855562000156565b8280016001018555821562000156579182015b828111156200015657825182559160200191906001019062000139565b506200016492915062000168565b5090565b5b8082111562000164576000815560010162000169565b634e487b7160e01b600052604160045260246000fd5b600082601f830112620001a757600080fd5b81516001600160401b0380821115620001c457620001c46200017f565b604051601f8301601f19908116603f01168101908282118183101715620001ef57620001ef6200017f565b816040528381526020925086838588010111156200020c57600080fd5b600091505b8382101562000230578582018301518183018401529082019062000211565b83821115620002425760008385830101525b9695505050505050565b6000806000606084860312156200026257600080fd5b83516001600160401b03808211156200027a57600080fd5b620002888783880162000195565b945060208601519150808211156200029f57600080fd5b50620002ae8682870162000195565b604086015190935090506001600160a01b0381168114620002ce57600080fd5b809150509250925092565b600181811c90821680620002ee57607f821691505b6020821081036200030f57634e487b7160e01b600052602260045260246000fd5b50919050565b608051615d3e6200033f600039600081816103e4015281816137a501526144580152615d3e6000f3fe6080604052600436106102ca5760003560e01c8063715018a611610179578063a24835d1116100d6578063ccc9305d1161008a578063e985e9c511610064578063e985e9c514610851578063f2fde38b1461089a578063f908bc77146108ba576102e8565b8063ccc9305d1461080b578063d30d5c121461082b578063e23f6fb41461083e576102e8565b8063a5d059ca116100bb578063a5d059ca14610794578063b88d4fde146107cb578063c87b56dd146107eb576102e8565b8063a24835d114610754578063a3fbbaae14610774576102e8565b80638da5cb5b1161012d57806395d89b411161011257806395d89b41146106ff578063993fd3ce14610714578063a22cb46514610734576102e8565b80638da5cb5b146106b3578063922b7abe146106d1576102e8565b806382694b1d1161015e57806382694b1d1461063c57806382a8ea581461065c5780638a2bd86f14610693576102e8565b8063715018a614610607578063772a36711461061c576102e8565b80632f745c59116102275780635419bb8c116101db5780636352211e116101c05780636352211e146105b15780636f99f15c146105d157806370a08231146105e7576102e8565b80635419bb8c14610563578063590fba2914610583576102e8565b806342842e0e1161020c57806342842e0e146105035780634f558e79146105235780634f6ccce714610543576102e8565b80632f745c59146104a357806340c2b69f146104c3576102e8565b80630d1cfcae1161027e57806318160ddd1161026357806318160ddd1461043657806321e4f7bb1461045557806323b872dd14610483576102e8565b80630d1cfcae146103d257806317351f7e14610406576102e8565b8063081812fc116102af578063081812fc146103585780630901ca1414610390578063095ea7b3146103b0576102e8565b806301ffc9a71461030157806306fdde0314610336576102e8565b366102e857604051630afc5a5160e41b815260040160405180910390fd5b604051630afc5a5160e41b815260040160405180910390fd5b34801561030d57600080fd5b5061032161031c366004614f82565b6108da565b60405190151581526020015b60405180910390f35b34801561034257600080fd5b5061034b61091e565b60405161032d9190614ff7565b34801561036457600080fd5b5061037861037336600461500a565b6109b0565b6040516001600160a01b03909116815260200161032d565b34801561039c57600080fd5b506103216103ab3660046152af565b610a4a565b3480156103bc57600080fd5b506103d06103cb366004615394565b610e1e565b005b3480156103de57600080fd5b506103787f000000000000000000000000000000000000000000000000000000000000000081565b34801561041257600080fd5b506103216104213660046153c0565b60136020526000908152604090205460ff1681565b34801561044257600080fd5b506009545b60405190815260200161032d565b34801561046157600080fd5b506104756104703660046153dd565b610f4f565b60405161032d929190615443565b34801561048f57600080fd5b506103d061049e36600461545c565b611083565b3480156104af57600080fd5b506104476104be366004615394565b61110a565b3480156104cf57600080fd5b506104f66104de36600461500a565b6000908152600f60205260409020600e015460ff1690565b60405161032d91906154b3565b34801561050f57600080fd5b506103d061051e36600461545c565b6111b2565b34801561052f57600080fd5b5061032161053e36600461500a565b6111cd565b34801561054f57600080fd5b5061044761055e36600461500a565b6111ec565b34801561056f57600080fd5b5061032161057e36600461553f565b611290565b34801561058f57600080fd5b506105a361059e36600461500a565b61151c565b60405161032d9291906155dc565b3480156105bd57600080fd5b506103786105cc36600461500a565b611580565b3480156105dd57600080fd5b50610447600d5481565b3480156105f357600080fd5b506104476106023660046153c0565b61160b565b34801561061357600080fd5b506103d06116a5565b34801561062857600080fd5b506104476106373660046155f5565b61170b565b34801561064857600080fd5b506103216106573660046156de565b61190f565b34801561066857600080fd5b5061067c61067736600461500a565b6119c0565b60405161032d9b9a99989796959493929190615717565b34801561069f57600080fd5b506104476106ae366004615394565b611d5c565b3480156106bf57600080fd5b506000546001600160a01b0316610378565b3480156106dd57600080fd5b506106f16106ec36600461500a565b611dc2565b60405161032d929190615819565b34801561070b57600080fd5b5061034b611e97565b34801561072057600080fd5b506105a361072f36600461500a565b611ea6565b34801561074057600080fd5b506103d061074f3660046156de565b611f08565b34801561076057600080fd5b5061032161076f366004615394565b611f17565b34801561078057600080fd5b506103d061078f3660046153c0565b612092565b3480156107a057600080fd5b506107b46107af366004615394565b612140565b60408051921515835260208301919091520161032d565b3480156107d757600080fd5b506103d06107e636600461588d565b61256a565b3480156107f757600080fd5b5061034b61080636600461500a565b6125f8565b34801561081757600080fd5b506107b4610826366004615394565b6126ee565b6103216108393660046158f9565b6129f4565b61032161084c366004615394565b612ff2565b34801561085d57600080fd5b5061032161086c36600461596d565b6001600160a01b03918216600090815260066020908152604080832093909416825291909152205460ff1690565b3480156108a657600080fd5b506103d06108b53660046153c0565b613211565b3480156108c657600080fd5b506103786108d536600461599b565b6132f3565b60006001600160e01b031982167f780e9d630000000000000000000000000000000000000000000000000000000014806109185750610918826135dc565b92915050565b60606001805461092d906159ef565b80601f0160208091040260200160405190810160405280929190818152602001828054610959906159ef565b80156109a65780601f1061097b576101008083540402835291602001916109a6565b820191906000526020600020905b81548152906001019060200180831161098957829003601f168201915b5050505050905090565b6000818152600360205260408120546001600160a01b0316610a2e5760405162461bcd60e51b815260206004820152602c60248201527f4552433732313a20617070726f76656420717565727920666f72206e6f6e657860448201526b34b9ba32b73a103a37b5b2b760a11b60648201526084015b60405180910390fd5b506000908152600560205260409020546001600160a01b031690565b600e546000906001600160a01b03163314610a8d57600e5460405163312d21ff60e11b81523360048201526001600160a01b039091166024820152604401610a25565b88826001600160a01b0382161580610aba57506000818152600360205260409020546001600160a01b0316155b80610adf5750816001600160a01b0316610ad382611580565b6001600160a01b031614155b15610b0057604051636cf2027b60e01b815260048101829052602401610a25565b6000848152600f602052604090206001600e82015460ff166006811115610b2957610b2961549d565b14610b6b57600e81015460ff166006811115610b4757610b4761549d565b604051633c053f9d60e21b8152600481019190915260248101869052604401610a25565b610b788b8b8b8b8b613677565b6000885167ffffffffffffffff811115610b9457610b94615048565b604051908082528060200260200182016040528015610bbd578160200160208202803683370190505b5090506000895167ffffffffffffffff811115610bdc57610bdc615048565b604051908082528060200260200182016040528015610c2157816020015b6040805180820190915260008082526020820152815260200190600190039081610bfa5790505b5090506000805b8b51811015610d26578a8181518110610c4357610c43615a29565b602002602001015160000151600003610c965784600a0160008d8381518110610c6e57610c6e615a29565b6020908102919091018101518252810191909152604001600090812081815560010155610d14565b8b8181518110610ca857610ca8615a29565b6020026020010151848381518110610cc257610cc2615a29565b6020026020010181815250508a8181518110610ce057610ce0615a29565b6020026020010151838381518110610cfa57610cfa615a29565b60200260200101819052508180610d1090615a55565b9250505b80610d1e81615a55565b915050610c28565b50610d35600985016000614e3b565b8b51600585018054610d4990600190615a6e565b81548110610d5957610d59615a29565b90600052602060002090600202016000015414610dbd576005840180546001818101835560009283526020928390208f51600290930201918255918e01519101805460408f015160ff9081166101000261ffff199092169316929092179190911790555b610dcc848f8f8c8787876138d9565b7f3b6d9b8cf9767363ab370f8631a32e3a7d78516f151e3cf1bcf3fb5b11b431608f8f8b8b604051610e019493929190615a85565b60405180910390a15060019e9d5050505050505050505050505050565b6000610e2982611580565b9050806001600160a01b0316836001600160a01b031603610eb25760405162461bcd60e51b815260206004820152602160248201527f4552433732313a20617070726f76616c20746f2063757272656e74206f776e6560448201527f72000000000000000000000000000000000000000000000000000000000000006064820152608401610a25565b336001600160a01b0382161480610ece5750610ece813361086c565b610f405760405162461bcd60e51b815260206004820152603860248201527f4552433732313a20617070726f76652063616c6c6572206973206e6f74206f7760448201527f6e6572206e6f7220617070726f76656420666f7220616c6c00000000000000006064820152608401610a25565b610f4a8383613b1b565b505050565b60008281526003602052604081205460609084906001600160a01b0316610f8c5760405163f036789160e01b815260048101829052602401610a25565b6000858152600f60209081526040808320878452600b81019092529091205493508367ffffffffffffffff811115610fc657610fc6615048565b604051908082528060200260200182016040528015610fef578160200160208202803683370190505b50925060005b84811015611079576000868152600b83016020526040902080548290811061101f5761101f615a29565b9060005260206000200160009054906101000a90046001600160a01b031684828151811061104f5761104f615a29565b6001600160a01b03909216602092830291909101909101528061107181615a55565b915050610ff5565b5050509250929050565b61108d3382613b89565b6110ff5760405162461bcd60e51b815260206004820152603160248201527f4552433732313a207472616e736665722063616c6c6572206973206e6f74206f60448201527f776e6572206e6f7220617070726f7665640000000000000000000000000000006064820152608401610a25565b610f4a838383613c80565b60006111158361160b565b82106111895760405162461bcd60e51b815260206004820152602b60248201527f455243373231456e756d657261626c653a206f776e657220696e646578206f7560448201527f74206f6620626f756e64730000000000000000000000000000000000000000006064820152608401610a25565b506001600160a01b03919091166000908152600760209081526040808320938352929052205490565b610f4a8383836040518060200160405280600081525061256a565b6000818152600360205260408120546001600160a01b03161515610918565b60006111f760095490565b821061126b5760405162461bcd60e51b815260206004820152602c60248201527f455243373231456e756d657261626c653a20676c6f62616c20696e646578206f60448201527f7574206f6620626f756e647300000000000000000000000000000000000000006064820152608401610a25565b6009828154811061127e5761127e615a29565b90600052602060002001549050919050565b60008181526003602052604081205482906001600160a01b03166112ca5760405163f036789160e01b815260048101829052602401610a25565b83518551146112f957845184516040516308151c1160e41b815260048101929092526024820152604401610a25565b6000838152600f6020526040902060028101546001600160a01b0316331461136b5760028101546040517f79f91cd30000000000000000000000000000000000000000000000000000000081523360048201526001600160a01b03909116602482015260448101859052606401610a25565b855160005b8181101561150e576000601060008a848151811061139057611390615a29565b6020908102919091018101516001600160a01b039081168352828201939093526040918201600090812054909316808452600d880190915291205489519192509081908a90859081106113e5576113e5615a29565b6020026020010151106114135780600d60008282546114049190615aba565b909155506000915061146d9050565b88838151811061142557611425615a29565b6020026020010151600d600082825461143e9190615aba565b9250508190555088838151811061145757611457615a29565b60200260200101518161146a9190615a6e565b90505b6001600160a01b0382166000908152600d86016020526040902081905588517fa2e524bd0f71903485fbb3d6d50cb305f61005ceea2047c3ac92aa7e0d104306908a90859081106114c0576114c0615a29565b6020026020010151838a6040516114f3939291909283526001600160a01b03919091166020830152604082015260600190565b60405180910390a150508061150790615a55565b9050611370565b506001979650505050505050565b6000818152601260209081526040808320805482518185028101850190935280835260609383018282801561157057602002820191906000526020600020905b81548152602001906001019080831161155c575b5050505050905080519150915091565b6000818152600360205260408120546001600160a01b0316806109185760405162461bcd60e51b815260206004820152602960248201527f4552433732313a206f776e657220717565727920666f72206e6f6e657869737460448201527f656e7420746f6b656e00000000000000000000000000000000000000000000006064820152608401610a25565b60006001600160a01b0382166116895760405162461bcd60e51b815260206004820152602a60248201527f4552433732313a2062616c616e636520717565727920666f7220746865207a6560448201527f726f2061646472657373000000000000000000000000000000000000000000006064820152608401610a25565b506001600160a01b031660009081526004602052604090205490565b6000546001600160a01b031633146116ff5760405162461bcd60e51b815260206004820181905260248201527f4f776e61626c653a2063616c6c6572206973206e6f7420746865206f776e65726044820152606401610a25565b6117096000613e58565b565b600e546000906001600160a01b0316331461174e57600e5460405163312d21ff60e11b81523360048201526001600160a01b039091166024820152604401610a25565b6001600160a01b0388166117755760405163d92e233d60e01b815260040160405180910390fd5b6117828787878787613677565b60005b8451811015611820578381815181106117a0576117a0615a29565b602002602001015160000151600014806117d757508381815181106117c7576117c7615a29565b6020026020010151602001516000145b1561180e576040517f7c946ed700000000000000000000000000000000000000000000000000000000815260040160405180910390fd5b8061181881615a55565b915050611785565b50600c805490600061183183615a55565b9091555050600c546000818152600f6020908152604080832060058101805460018181018355918652948490208b51600290960201948555928a0151939092018054918a015160ff9081166101000261ffff19909316941693909317179091558551919250906118ac9082908a908a9087908a908a906138d9565b6118b68983613ea8565b600e8101805460ff191660011790556040517feaa3e48609d3060c7aaa154c27b78fafc59d92ed248276ace8e79aa3c36092f7906118fb908b908b9087908790615a85565b60405180910390a150979650505050505050565b600080546001600160a01b0316331461196a5760405162461bcd60e51b815260206004820181905260248201527f4f776e61626c653a2063616c6c6572206973206e6f7420746865206f776e65726044820152606401610a25565b6001600160a01b0383166119915760405163d92e233d60e01b815260040160405180910390fd5b506001600160a01b03919091166000908152601360205260409020805460ff1916911515919091179055600190565b60408051606081810183526000808352602083018190529282018390529081906000806060806000606060008b611a0e816000908152600360205260409020546001600160a01b0316151590565b611a2e5760405163f036789160e01b815260048101829052602401610a25565b60008d8152600f60205260409020600981015467ffffffffffffffff811115611a5957611a59615048565b604051908082528060200260200182016040528015611a9e57816020015b6040805180820190915260008082526020820152815260200190600190039081611a775790505b50955080600801549450611ab181613ec2565b935060005b6009820154811015611b455781600a016000836009018381548110611add57611add615a29565b9060005260206000200154815260200190815260200160002060405180604001604052908160008201548152602001600182015481525050878281518110611b2757611b27615a29565b60200260200101819052508080611b3d90615a55565b915050611ab6565b50611b4f8e611580565b9c50806003018054611b60906159ef565b80601f0160208091040260200160405190810160405280929190818152602001828054611b8c906159ef565b8015611bd95780601f10611bae57610100808354040283529160200191611bd9565b820191906000526020600020905b815481529060010190602001808311611bbc57829003601f168201915b50505050509b50806004018054611bef906159ef565b80601f0160208091040260200160405190810160405280929190818152602001828054611c1b906159ef565b8015611c685780601f10611c3d57610100808354040283529160200191611c68565b820191906000526020600020905b815481529060010190602001808311611c4b57829003601f168201915b5050506005840154929d50600092611c84925060019150615a6e565b9050816005018181548110611c9b57611c9b615a29565b6000918252602091829020604080516060810182526002909302909101805483526001015460ff8082168486015261010090910416828201526006850154600986018054835181870281018701909452808452939f50909d50919b50918b90830182828015611d2957602002820191906000526020600020905b815481526020019060010190808311611d15575b505050505097508160020160009054906101000a90046001600160a01b0316935050505091939597999b90929496989a50565b60008181526003602052604081205482906001600160a01b0316611d965760405163f036789160e01b815260048101829052602401610a25565b50506000908152600f602090815260408083206001600160a01b039094168352600d9093019052205490565b60008181526003602052604081205460609083906001600160a01b0316611dff5760405163f036789160e01b815260048101829052602401610a25565b6000848152600f6020908152604080832060058101805483518186028101860190945280845291949193909291839185919084015b82821015611e8657600084815260209081902060408051606081018252600286029092018054835260019081015460ff8082168587015261010090910416918301919091529083529092019101611e34565b505050509050935093505050915091565b60606002805461092d906159ef565b60008181526011602090815260408083208054825181850281018501909352808352606093830182828015611570576020028201919060005260206000209081548152602001906001019080831161155c575050505050905080519150915091565b611f13338383614002565b5050565b600e546000906001600160a01b03163314611f5a57600e5460405163312d21ff60e11b81523360048201526001600160a01b039091166024820152604401610a25565b82826001600160a01b0382161580611f8757506000818152600360205260409020546001600160a01b0316155b80611fac5750816001600160a01b0316611fa082611580565b6001600160a01b031614155b15611fcd57604051636cf2027b60e01b815260048101829052602401610a25565b6000848152600f602052604090206006600e82015460ff166006811115611ff657611ff661549d565b1415801561201d57506001600e82015460ff16600681111561201a5761201a61549d565b14155b1561203b57600e81015460ff166006811115610b4757610b4761549d565b612044856140d0565b604080516001600160a01b0388168152602081018790527fbabd5b766777e228ce586bda23024f76f3a2f32e12decdd1643b3720d4fbc9ab910160405180910390a150600195945050505050565b6000546001600160a01b031633146120ec5760405162461bcd60e51b815260206004820181905260248201527f4f776e61626c653a2063616c6c6572206973206e6f7420746865206f776e65726044820152606401610a25565b600e80546001600160a01b0319166001600160a01b0383169081179091556040519081527f652bc4d75d8e64a449c2fa9657f9660b43512e2f8beb9ded08bc06f7e7c182049060200160405180910390a150565b600e5460009081906001600160a01b0316331461218557600e5460405163312d21ff60e11b81523360048201526001600160a01b039091166024820152604401610a25565b6002600b54036121d75760405162461bcd60e51b815260206004820152601f60248201527f5265656e7472616e637947756172643a207265656e7472616e742063616c6c006044820152606401610a25565b6002600b556000838152600f602052604090206005600e82015460ff1660068111156122055761220561549d565b1461224757600e81015460ff1660068111156122235761222361549d565b604051633c053f9d60e21b8152600481019190915260248101859052604401610a25565b6001600160a01b0385166000908152600c82016020908152604080832080548251818502810185019093528083529192909190849084015b828210156122c7576000848152602090819020604080518082019091526002850290910180546001600160a01b0316825260019081015482840152908352909201910161227f565b505082519293505050600081900361231d576040517fdf2ddd730000000000000000000000000000000000000000000000000000000081526001600160a01b038816600482015260248101879052604401610a25565b808360080160008282546123319190615a6e565b9091555050600883015460000361235257600e8301805460ff191660061790555b6000935060005b818110156123fe5783600a01600084838151811061237957612379615a29565b602002602001015160200151815260200190815260200160002060010154856123a29190615aba565b9450601060008483815181106123ba576123ba615a29565b602090810291909101810151516001600160a01b0316825281019190915260400160002080546001600160a01b0319169055806123f681615a55565b915050612359565b506001600160a01b0387166000908152600d8401602052604090205480851115612426578094505b84156124d0576001600160a01b0388166000818152600d860160205260408082208290555190919087908381818185875af1925050503d8060008114612488576040519150601f19603f3d011682016040523d82523d6000602084013e61248d565b606091505b50509050806124ce5760405163cd3f165960e01b8152600060048201523060248201526001600160a01b038a16604482015260648101879052608401610a25565b505b604080516001600160a01b038a168152602081018790527fbb28353e4598c3b9199101a66e0989549b659a59a54d2c27fbb183f1932c8e6d910160405180910390a1604080516001600160a01b038a168152602081018990527f5ebf7fe30be09f0f03b9195632508d95c8b67bf010c93abda67f70d5d9599d1e91015b60405180910390a150506001600b81905596929550919350505050565b6125743383613b89565b6125e65760405162461bcd60e51b815260206004820152603160248201527f4552433732313a207472616e736665722063616c6c6572206973206e6f74206f60448201527f776e6572206e6f7220617070726f7665640000000000000000000000000000006064820152608401610a25565b6125f284848484614177565b50505050565b6000818152600360205260409020546060906001600160a01b03166126855760405162461bcd60e51b815260206004820152602f60248201527f4552433732314d657461646174613a2055524920717565727920666f72206e6f60448201527f6e6578697374656e7420746f6b656e00000000000000000000000000000000006064820152608401610a25565b600061269c60408051602081019091526000815290565b905060008151116126bc57604051806020016040528060008152506126e7565b806126c6846141f5565b6040516020016126d7929190615ad2565b6040516020818303038152906040525b9392505050565b600e5460009081906001600160a01b0316331461273357600e5460405163312d21ff60e11b81523360048201526001600160a01b039091166024820152604401610a25565b83836001600160a01b038216158061276057506000818152600360205260409020546001600160a01b0316155b806127855750816001600160a01b031661277982611580565b6001600160a01b031614155b156127a657604051636cf2027b60e01b815260048101829052602401610a25565b6002600b54036127f85760405162461bcd60e51b815260206004820152601f60248201527f5265656e7472616e637947756172643a207265656e7472616e742063616c6c006044820152606401610a25565b6002600b556000858152600f602052604090206001600e82015460ff1660068111156128265761282661549d565b148061284a57506005600e82015460ff1660068111156128485761284861549d565b145b8061286d57506006600e82015460ff16600681111561286b5761286b61549d565b145b156128af57600e81015460ff16600681111561288b5761288b61549d565b604051633c053f9d60e21b8152600481019190915260248101879052604401610a25565b6008810154156128cd57600e8101805460ff191660051790556128dd565b600e8101805460ff191660061790555b80546040519094506000906001600160a01b0389169086908381818185875af1925050503d806000811461292d576040519150601f19603f3d011682016040523d82523d6000602084013e612932565b606091505b50509050806129735760405163cd3f165960e01b8152600060048201523060248201526001600160a01b038916604482015260648101869052608401610a25565b604080516001600160a01b038a168152602081018790527fbb28353e4598c3b9199101a66e0989549b659a59a54d2c27fbb183f1932c8e6d910160405180910390a1604080516001600160a01b038a168152602081018990527f4b129b8c1cdc29ce3eccd3294658699d802a89981b7425b46b5bb5d37546db31910161254d565b600e546000906001600160a01b03163314612a3757600e5460405163312d21ff60e11b81523360048201526001600160a01b039091166024820152604401610a25565b6002600b5403612a895760405162461bcd60e51b815260206004820152601f60248201527f5265656e7472616e637947756172643a207265656e7472616e742063616c6c006044820152606401610a25565b6002600b558151835114612abd57825182516040516308151c1160e41b815260048101929092526024820152604401610a25565b6000848152600f602052604090206002600e82015460ff166006811115612ae657612ae661549d565b14612b0457600e81015460ff166006811115610b4757610b4761549d565b83516000805b82811015612bbe576000868281518110612b2657612b26615a29565b6020026020010151905084600a01600082815260200190815260200160002060000154600003612b8c576040517fca0caf9400000000000000000000000000000000000000000000000000000000815260048101829052602481018a9052604401610a25565b6000818152600a86016020526040902060010154612baa9084615aba565b92505080612bb790615a55565b9050612b0a565b50803414612c08576040517ffd7795720000000000000000000000000000000000000000000000000000000081523460048201526024810182905260448101889052606401610a25565b60005b82811015612f4f576000878281518110612c2757612c27615a29565b602002602001015190506000878381518110612c4557612c45615a29565b60200260200101519050816001600160a01b03168b6001600160a01b03161480612c8857506001600160a01b038b81166000908152601060205260409020541615155b15612cc2576040517f8b77af64000000000000000000000000000000000000000000000000000000008152600481018b9052602401610a25565b6001600160a01b038281166000908152601060205260409020541615612d32576001600160a01b03828116600090815260106020526040908190205490517f631695bd00000000000000000000000000000000000000000000000000000000815291166004820152602401610a25565b6000818152600a87016020908152604080832054600b8a019092529091205403612d8b576040517f12b4401c000000000000000000000000000000000000000000000000000000008152600481018b9052602401610a25565b85600b016000828152602001908152602001600020829080600181540180825580915050600190039060005260206000200160009091909190916101000a8154816001600160a01b0302191690836001600160a01b0316021790555085600c0160008c6001600160a01b03166001600160a01b031681526020019081526020016000206040518060400160405280846001600160a01b0316815260200183815250908060018154018082558091505060019003906000526020600020906002020160009091909190915060008201518160000160006101000a8154816001600160a01b0302191690836001600160a01b03160217905550602082015181600101555050856008016000815480929190612ea390615a55565b90915550506001600160a01b03808316600090815260106020526040908190208054928e166001600160a01b031990931692909217909155517f6835389a6da5341647f18cbe0a89c56f473f4c17bfaee6e6d07d61f1928e0b7c90612f34908d908d90869086906001600160a01b039485168152602081019390935292166040820152606081019190915260800190565b60405180910390a1505080612f4890615a55565b9050612c0b565b508260070154836008015403612f6f57600e8301805460ff191660031790555b6001600160a01b0388166000908152600d8401602052604081208054349290612f99908490615aba565b9091555050604080516001600160a01b038a1681523460208201527fe1fffcc4923d04b559f4d29a8bfc6cda04eb5b0d3c460751c2402c5c5cc9109c910160405180910390a150506001600b8190559695505050505050565b600e546000906001600160a01b0316331461303557600e5460405163312d21ff60e11b81523360048201526001600160a01b039091166024820152604401610a25565b82826001600160a01b038216158061306257506000818152600360205260409020546001600160a01b0316155b806130875750816001600160a01b031661307b82611580565b6001600160a01b031614155b156130a857604051636cf2027b60e01b815260048101829052602401610a25565b6002600b54036130fa5760405162461bcd60e51b815260206004820152601f60248201527f5265656e7472616e637947756172643a207265656e7472616e742063616c6c006044820152606401610a25565b6002600b556000848152600f602052604090206001600e82015460ff1660068111156131285761312861549d565b14613162576040517fb2c1a45e00000000000000000000000000000000000000000000000000000000815260048101869052602401610a25565b805434146131af5780546040517fe1855dd8000000000000000000000000000000000000000000000000000000008152346004820152602481019190915260448101869052606401610a25565b600e8101805460ff19166002179055604080516001600160a01b0388168152602081018790527f1ce3906173019d252d1f9e5e788bf566ad4e79446f16b12ab17ff51344cda922910160405180910390a150506001600b819055949350505050565b6000546001600160a01b0316331461326b5760405162461bcd60e51b815260206004820181905260248201527f4f776e61626c653a2063616c6c6572206973206e6f7420746865206f776e65726044820152606401610a25565b6001600160a01b0381166132e75760405162461bcd60e51b815260206004820152602660248201527f4f776e61626c653a206e6577206f776e657220697320746865207a65726f206160448201527f64647265737300000000000000000000000000000000000000000000000000006064820152608401610a25565b6132f081613e58565b50565b600e546000906001600160a01b0316331461333657600e5460405163312d21ff60e11b81523360048201526001600160a01b039091166024820152604401610a25565b84846001600160a01b038216158061336357506000818152600360205260409020546001600160a01b0316155b806133885750816001600160a01b031661337c82611580565b6001600160a01b031614155b156133a957604051636cf2027b60e01b815260048101829052602401610a25565b6001600160a01b03851660009081526013602052604090205460ff16613406576040517f14460f200000000000000000000000000000000000000000000000000000000081526001600160a01b0386166004820152602401610a25565b6000868152600f602052604090206003600e82015460ff16600681111561342f5761342f61549d565b1461347157600e81015460ff16600681111561344d5761344d61549d565b604051633c053f9d60e21b8152600481019190915260248101889052604401610a25565b600061347c82613ec2565b60068301546040517ff398dba80000000000000000000000000000000000000000000000000000000081529192506001600160a01b0389169163f398dba8916134cc918591908b90600401615b01565b6020604051808303816000875af11580156134eb573d6000803e3d6000fd5b505050506040513d601f19601f8201168201806040525081019061350f9190615b36565b94507fd4b49f31bfd9d5edfa2d4066f13b1e8f9d1855fa2c59d15c862631f931291603888683856006015460405161354a9493929190615b53565b60405180910390a161355b8861432a565b6002820180546001600160a01b0319166001600160a01b038716179055600e820180546004919060ff19166001830217905550604080516001600160a01b038b168152602081018a90527f235f6069cfc10dedd4ae3ceaf9d0a1f036261da37a0d4f8e7c176902e819cc2f910160405180910390a150505050949350505050565b60006001600160e01b031982167f80ac58cd00000000000000000000000000000000000000000000000000000000148061363f57506001600160e01b031982167f5b5e139f00000000000000000000000000000000000000000000000000000000145b8061091857507f01ffc9a7000000000000000000000000000000000000000000000000000000006001600160e01b0319831614610918565b8451158061368457508351155b156136bb576040517fecd7b0d100000000000000000000000000000000000000000000000000000000815260040160405180910390fd5b826020015160ff1660121415806136da5750826040015160ff16602014155b156137385760208381015160408086015190517f76916ba500000000000000000000000000000000000000000000000000000000815260ff928316600482015260126024820152911660448201526064810191909152608401610a25565b8151158061374857508051825114155b1561377357815181516040516308151c1160e41b815260048101929092526024820152604401610a25565b6000805b83518110156138d0578184828151811061379357613793615a29565b602002602001015111158061384d57507f00000000000000000000000000000000000000000000000000000000000000006001600160a01b0316634f558e798583815181106137e4576137e4615a29565b60200260200101516040518263ffffffff1660e01b815260040161380a91815260200190565b602060405180830381865afa158015613827573d6000803e3d6000fd5b505050506040513d601f19601f8201168201806040525081019061384b9190615b8c565b155b156138a15783818151811061386457613864615a29565b60200260200101516040517faac42c2c000000000000000000000000000000000000000000000000000000008152600401610a2591815260200190565b8381815181106138b3576138b3615a29565b6020026020010151915080806138c890615a55565b915050613777565b50505050505050565b85516138ee9060038901906020890190614e59565b5084516139049060048901906020880190614e59565b5060068701849055600060078801819055805b82811015613a45578860090185828151811061393557613935615a29565b60209081029190910181015182546001810184556000938452919092200155835184908290811061396857613968615a29565b602002602001015189600a01600087848151811061398857613988615a29565b6020026020010151815260200190815260200160002060008201518160000155602082015181600101559050508381815181106139c7576139c7615a29565b6020026020010151600001518960070160008282546139e69190615aba565b9250508190555081848281518110613a0057613a00615a29565b6020026020010151602001511115613a3357838181518110613a2457613a24615a29565b60200260200101516020015191505b80613a3d81615a55565b915050613917565b508088556007880154600090613a5c906002615ba9565b613a67906001615aba565b9050613a74600382615bde565b600003613a8d57613a86600382615bf2565b9050613aa6565b613a98600382615bf2565b613aa3906001615aba565b90505b8089600601541080613abf575088600701548960060154115b15613b1057600689015460078a01546040517feb3a8ba30000000000000000000000000000000000000000000000000000000081526004810192909252602482018390526044820152606401610a25565b505050505050505050565b600081815260056020526040902080546001600160a01b0319166001600160a01b0384169081179091558190613b5082611580565b6001600160a01b03167f8c5be1e5ebec7d5bd14f71427d1e84f3dd0314c0f7b2291e5b200ac8c7c3b92560405160405180910390a45050565b6000818152600360205260408120546001600160a01b0316613c025760405162461bcd60e51b815260206004820152602c60248201527f4552433732313a206f70657261746f7220717565727920666f72206e6f6e657860448201526b34b9ba32b73a103a37b5b2b760a11b6064820152608401610a25565b6000613c0d83611580565b9050806001600160a01b0316846001600160a01b03161480613c5457506001600160a01b0380821660009081526006602090815260408083209388168352929052205460ff165b80613c785750836001600160a01b0316613c6d846109b0565b6001600160a01b0316145b949350505050565b826001600160a01b0316613c9382611580565b6001600160a01b031614613d0f5760405162461bcd60e51b815260206004820152602560248201527f4552433732313a207472616e736665722066726f6d20696e636f72726563742060448201527f6f776e65720000000000000000000000000000000000000000000000000000006064820152608401610a25565b6001600160a01b038216613d8a5760405162461bcd60e51b8152602060048201526024808201527f4552433732313a207472616e7366657220746f20746865207a65726f2061646460448201527f72657373000000000000000000000000000000000000000000000000000000006064820152608401610a25565b613d958383836148db565b613da0600082613b1b565b6001600160a01b0383166000908152600460205260408120805460019290613dc9908490615a6e565b90915550506001600160a01b0382166000908152600460205260408120805460019290613df7908490615aba565b909155505060008181526003602052604080822080546001600160a01b0319166001600160a01b0386811691821790925591518493918716917fddf252ad1be2c89b69c2b068fc378daa952ba7f163c4a11628f55a4df523b3ef91a4505050565b600080546001600160a01b038381166001600160a01b0319831681178455604051919092169283917f8be0079c531659141344cd1fd0a4f28419497f9722a3daafe3b4186f6b6457e09190a35050565b611f13828260405180602001604052806000815250614993565b6060816008015467ffffffffffffffff811115613ee157613ee1615048565b604051908082528060200260200182016040528015613f0a578160200160208202803683370190505b5090506000805b6009840154811015613ffb576000846009018281548110613f3457613f34615a29565b9060005260206000200154905060005b6000828152600b87016020526040902054811015613fe6576000828152600b870160205260409020805482908110613f7e57613f7e615a29565b9060005260206000200160009054906101000a90046001600160a01b0316858581518110613fae57613fae615a29565b6001600160a01b039092166020928302919091019091015283613fd081615a55565b9450508080613fde90615a55565b915050613f44565b50508080613ff390615a55565b915050613f11565b5050919050565b816001600160a01b0316836001600160a01b0316036140635760405162461bcd60e51b815260206004820152601960248201527f4552433732313a20617070726f766520746f2063616c6c6572000000000000006044820152606401610a25565b6001600160a01b03838116600081815260066020908152604080832094871680845294825291829020805460ff191686151590811790915591519182527f17307eab39ab6107e8899845ad3d59bd9653f200f220920489ca2b5937696c31910160405180910390a3505050565b60006140db82611580565b90506140e9816000846148db565b6140f4600083613b1b565b6001600160a01b038116600090815260046020526040812080546001929061411d908490615a6e565b909155505060008281526003602052604080822080546001600160a01b0319169055518391906001600160a01b038416907fddf252ad1be2c89b69c2b068fc378daa952ba7f163c4a11628f55a4df523b3ef908390a45050565b614182848484613c80565b61418e84848484614a11565b6125f25760405162461bcd60e51b815260206004820152603260248201527f4552433732313a207472616e7366657220746f206e6f6e20455243373231526560448201527131b2b4bb32b91034b6b83632b6b2b73a32b960711b6064820152608401610a25565b60608160000361423857505060408051808201909152600181527f3000000000000000000000000000000000000000000000000000000000000000602082015290565b8160005b8115614262578061424c81615a55565b915061425b9050600a83615bf2565b915061423c565b60008167ffffffffffffffff81111561427d5761427d615048565b6040519080825280601f01601f1916602001820160405280156142a7576020820181803683370190505b5090505b8415613c78576142bc600183615a6e565b91506142c9600a86615bde565b6142d4906030615aba565b60f81b8183815181106142e9576142e9615a29565b60200101907effffffffffffffffffffffffffffffffffffffffffffffffffffffffffffff1916908160001a905350614323600a86615bf2565b94506142ab565b6000818152600f602090815260408083206012909252909120600982018054614354929190614edd565b506000816009018054806020026020016040519081016040528092919081815260200182805480156143a557602002820191906000526020600020905b815481526020019060010190808311614391575b5050505050905060008151905060008167ffffffffffffffff8111156143cd576143cd615048565b6040519080825280602002602001820160405280156143f6578160200160208202803683370190505b50905060008267ffffffffffffffff81111561441457614414615048565b60405190808252806020026020018201604052801561444757816020015b60608152602001906001900390816144325790505b5090506000805b84811015614574577f00000000000000000000000000000000000000000000000000000000000000006001600160a01b031663661a0d0b87838151811061449757614497615a29565b60200260200101516040518263ffffffff1660e01b81526004016144bd91815260200190565b600060405180830381865afa1580156144da573d6000803e3d6000fd5b505050506040513d6000823e601f3d908101601f191682016040526145029190810190615c06565b85838151811061451457614514615a29565b6020026020010185848151811061452d5761452d615a29565b6020026020010182905282815250505083818151811061454f5761454f615a29565b6020026020010151826145629190615aba565b915061456d81615a55565b905061444e565b5060008167ffffffffffffffff81111561459057614590615048565b6040519080825280602002602001820160405280156145b9578160200160208202803683370190505b50905060008567ffffffffffffffff8111156145d7576145d7615048565b604051908082528060200260200182016040528015614600578160200160208202803683370190505b5090506000805b8481101561481357600080600019815b8b81101561479f575b8a818151811061463257614632615a29565b602002602001015187828151811061464c5761464c615a29565b6020026020010151101561478f5789818151811061466c5761466c615a29565b602002602001015187828151811061468657614686615a29565b60200260200101518151811061469e5761469e615a29565b602002602001015186101561476457818a82815181106146c0576146c0615a29565b60200260200101518883815181106146da576146da615a29565b6020026020010151815181106146f2576146f2615a29565b602002602001015110156147525789818151811061471257614712615a29565b602002602001015187828151811061472c5761472c615a29565b60200260200101518151811061474457614744615a29565b602002602001015191508093505b8261475c81615a55565b93505061478f565b86818151811061477657614776615a29565b60200260200101805161478890615a55565b9052614620565b61479881615a55565b9050614617565b5093508381156147f757848785815181106147bc576147bc615a29565b6020026020010181815250508583815181106147da576147da615a29565b6020026020010180518091906147ef90615a55565b9052506147ff565b505050614813565b5050508061480c90615a55565b9050614607565b60008167ffffffffffffffff81111561482e5761482e615048565b604051908082528060200260200182016040528015614857578160200160208202803683370190505b50905060005b828110156148ac5785818151811061487757614877615a29565b602002602001015182828151811061489157614891615a29565b60209081029190910101526148a581615a55565b905061485d565b5060008c815260116020908152604090912082516148cc92840190614f1d565b50505050505050505050505050565b6001600160a01b0383166149365761493181600980546000838152600a60205260408120829055600182018355919091527f6e1540171b6c0c960b71a7020d9f60077f6af931a8bbf590da0223dacf75c7af0155565b614959565b816001600160a01b0316836001600160a01b031614614959576149598382614b5d565b6001600160a01b03821661497057610f4a81614bfa565b826001600160a01b0316826001600160a01b031614610f4a57610f4a8282614ca9565b61499d8383614ced565b6149aa6000848484614a11565b610f4a5760405162461bcd60e51b815260206004820152603260248201527f4552433732313a207472616e7366657220746f206e6f6e20455243373231526560448201527131b2b4bb32b91034b6b83632b6b2b73a32b960711b6064820152608401610a25565b60006001600160a01b0384163b15614b5257604051630a85bd0160e11b81526001600160a01b0385169063150b7a0290614a55903390899088908890600401615ca3565b6020604051808303816000875af1925050508015614a90575060408051601f3d908101601f19168201909252614a8d91810190615cd5565b60015b614b38573d808015614abe576040519150601f19603f3d011682016040523d82523d6000602084013e614ac3565b606091505b508051600003614b305760405162461bcd60e51b815260206004820152603260248201527f4552433732313a207472616e7366657220746f206e6f6e20455243373231526560448201527131b2b4bb32b91034b6b83632b6b2b73a32b960711b6064820152608401610a25565b805181602001fd5b6001600160e01b031916630a85bd0160e11b149050613c78565b506001949350505050565b60006001614b6a8461160b565b614b749190615a6e565b600083815260086020526040902054909150808214614bc7576001600160a01b03841660009081526007602090815260408083208584528252808320548484528184208190558352600890915290208190555b5060009182526008602090815260408084208490556001600160a01b039094168352600781528383209183525290812055565b600954600090614c0c90600190615a6e565b6000838152600a602052604081205460098054939450909284908110614c3457614c34615a29565b906000526020600020015490508060098381548110614c5557614c55615a29565b6000918252602080832090910192909255828152600a90915260408082208490558582528120556009805480614c8d57614c8d615cf2565b6001900381819060005260206000200160009055905550505050565b6000614cb48361160b565b6001600160a01b039093166000908152600760209081526040808320868452825280832085905593825260089052919091209190915550565b6001600160a01b038216614d435760405162461bcd60e51b815260206004820181905260248201527f4552433732313a206d696e7420746f20746865207a65726f20616464726573736044820152606401610a25565b6000818152600360205260409020546001600160a01b031615614da85760405162461bcd60e51b815260206004820152601c60248201527f4552433732313a20746f6b656e20616c7265616479206d696e746564000000006044820152606401610a25565b614db4600083836148db565b6001600160a01b0382166000908152600460205260408120805460019290614ddd908490615aba565b909155505060008181526003602052604080822080546001600160a01b0319166001600160a01b03861690811790915590518392907fddf252ad1be2c89b69c2b068fc378daa952ba7f163c4a11628f55a4df523b3ef908290a45050565b50805460008255906000526020600020908101906132f09190614f57565b828054614e65906159ef565b90600052602060002090601f016020900481019282614e875760008555614ecd565b82601f10614ea057805160ff1916838001178555614ecd565b82800160010185558215614ecd579182015b82811115614ecd578251825591602001919060010190614eb2565b50614ed9929150614f57565b5090565b828054828255906000526020600020908101928215614ecd5760005260206000209182015b82811115614ecd578254825591600101919060010190614f02565b828054828255906000526020600020908101928215614ecd5791602002820182811115614ecd578251825591602001919060010190614eb2565b5b80821115614ed95760008155600101614f58565b6001600160e01b0319811681146132f057600080fd5b600060208284031215614f9457600080fd5b81356126e781614f6c565b60005b83811015614fba578181015183820152602001614fa2565b838111156125f25750506000910152565b60008151808452614fe3816020860160208601614f9f565b601f01601f19169290920160200192915050565b6020815260006126e76020830184614fcb565b60006020828403121561501c57600080fd5b5035919050565b6001600160a01b03811681146132f057600080fd5b803561504381615023565b919050565b634e487b7160e01b600052604160045260246000fd5b6040805190810167ffffffffffffffff8111828210171561508157615081615048565b60405290565b604051601f8201601f1916810167ffffffffffffffff811182821017156150b0576150b0615048565b604052919050565b600082601f8301126150c957600080fd5b813567ffffffffffffffff8111156150e3576150e3615048565b6150f6601f8201601f1916602001615087565b81815284602083860101111561510b57600080fd5b816020850160208301376000918101602001919091529392505050565b803560ff8116811461504357600080fd5b60006060828403121561514b57600080fd5b6040516060810181811067ffffffffffffffff8211171561516e5761516e615048565b6040528235815290508061518460208401615128565b602082015261519560408401615128565b60408201525092915050565b600067ffffffffffffffff8211156151bb576151bb615048565b5060051b60200190565b600082601f8301126151d657600080fd5b813560206151eb6151e6836151a1565b615087565b82815260059290921b8401810191818101908684111561520a57600080fd5b8286015b84811015615225578035835291830191830161520e565b509695505050505050565b600082601f83011261524157600080fd5b813560206152516151e6836151a1565b82815260069290921b8401810191818101908684111561527057600080fd5b8286015b84811015615225576040818903121561528d5760008081fd5b61529561505e565b813581528482013585820152835291830191604001615274565b600080600080600080600080610140898b0312156152cc57600080fd5b6152d589615038565b9750602089013567ffffffffffffffff808211156152f257600080fd5b6152fe8c838d016150b8565b985060408b013591508082111561531457600080fd5b6153208c838d016150b8565b975061532f8c60608d01615139565b965060c08b013591508082111561534557600080fd5b6153518c838d016151c5565b955060e08b013591508082111561536757600080fd5b506153748b828c01615230565b935050610100890135915061012089013590509295985092959890939650565b600080604083850312156153a757600080fd5b82356153b281615023565b946020939093013593505050565b6000602082840312156153d257600080fd5b81356126e781615023565b600080604083850312156153f057600080fd5b50508035926020909101359150565b600081518084526020808501945080840160005b838110156154385781516001600160a01b031687529582019590820190600101615413565b509495945050505050565b828152604060208201526000613c7860408301846153ff565b60008060006060848603121561547157600080fd5b833561547c81615023565b9250602084013561548c81615023565b929592945050506040919091013590565b634e487b7160e01b600052602160045260246000fd5b60208101600783106154d557634e487b7160e01b600052602160045260246000fd5b91905290565b600082601f8301126154ec57600080fd5b813560206154fc6151e6836151a1565b82815260059290921b8401810191818101908684111561551b57600080fd5b8286015b8481101561522557803561553281615023565b835291830191830161551f565b60008060006060848603121561555457600080fd5b833567ffffffffffffffff8082111561556c57600080fd5b615578878388016154db565b9450602086013591508082111561558e57600080fd5b5061559b868287016151c5565b925050604084013590509250925092565b600081518084526020808501945080840160005b83811015615438578151875295820195908201906001016155c0565b828152604060208201526000613c7860408301846155ac565b6000806000806000806000610120888a03121561561157600080fd5b61561a88615038565b9650602088013567ffffffffffffffff8082111561563757600080fd5b6156438b838c016150b8565b975060408a013591508082111561565957600080fd5b6156658b838c016150b8565b96506156748b60608c01615139565b955060c08a013591508082111561568a57600080fd5b6156968b838c016151c5565b945060e08a01359150808211156156ac57600080fd5b506156b98a828b01615230565b925050610100880135905092959891949750929550565b80151581146132f057600080fd5b600080604083850312156156f157600080fd5b82356156fc81615023565b9150602083013561570c816156d0565b809150509250929050565b60006101a06001600160a01b038e1683526020818185015261573b8285018f614fcb565b9150604084830381860152615750838f614fcb565b8d51606087015260208e015160ff908116608088015260408f01511660a087015292508b60c08601528a60e0860152848303610100860152615792838b6155ac565b8581036101208701528951808252838b0194509083019060005b818110156157d1578551805184528501518584015294840194918301916001016157ac565b5050886101408701528581036101608701526157ed81896153ff565b9450505050506158096101808301846001600160a01b03169052565b9c9b505050505050505050505050565b600060408201848352602060408185015281855180845260609350838601915082870160005b8281101561587f5761586f8483518051825260ff602082015116602083015260ff60408201511660408301525050565b928501929084019060010161583f565b509198975050505050505050565b600080600080608085870312156158a357600080fd5b84356158ae81615023565b935060208501356158be81615023565b925060408501359150606085013567ffffffffffffffff8111156158e157600080fd5b6158ed878288016150b8565b91505092959194509250565b6000806000806080858703121561590f57600080fd5b843561591a81615023565b935060208501359250604085013567ffffffffffffffff8082111561593e57600080fd5b61594a888389016154db565b9350606087013591508082111561596057600080fd5b506158ed878288016151c5565b6000806040838503121561598057600080fd5b823561598b81615023565b9150602083013561570c81615023565b600080600080608085870312156159b157600080fd5b84356159bc81615023565b93506020850135925060408501356159d381615023565b9150606085013567ffffffffffffffff8111156158e157600080fd5b600181811c90821680615a0357607f821691505b602082108103615a2357634e487b7160e01b600052602260045260246000fd5b50919050565b634e487b7160e01b600052603260045260246000fd5b634e487b7160e01b600052601160045260246000fd5b600060018201615a6757615a67615a3f565b5060010190565b600082821015615a8057615a80615a3f565b500390565b6001600160a01b0385168152608060208201526000615aa76080830186614fcb565b6040830194909452506060015292915050565b60008219821115615acd57615acd615a3f565b500190565b60008351615ae4818460208801614f9f565b835190830190615af8818360208801614f9f565b01949350505050565b606081526000615b1460608301866153ff565b8460208401528281036040840152615b2c8185614fcb565b9695505050505050565b600060208284031215615b4857600080fd5b81516126e781615023565b8481526001600160a01b0384166020820152608060408201526000615b7b60808301856153ff565b905082606083015295945050505050565b600060208284031215615b9e57600080fd5b81516126e7816156d0565b6000816000190483118215151615615bc357615bc3615a3f565b500290565b634e487b7160e01b600052601260045260246000fd5b600082615bed57615bed615bc8565b500690565b600082615c0157615c01615bc8565b500490565b60008060408385031215615c1957600080fd5b8251915060208084015167ffffffffffffffff811115615c3857600080fd5b8401601f81018613615c4957600080fd5b8051615c576151e6826151a1565b81815260059190911b82018301908381019088831115615c7657600080fd5b928401925b82841015615c9457835182529284019290840190615c7b565b80955050505050509250929050565b60006001600160a01b03808716835280861660208401525083604083015260806060830152615b2c6080830184614fcb565b600060208284031215615ce757600080fd5b81516126e781614f6c565b634e487b7160e01b600052603160045260246000fdfea2646970667358221220f376f6bd22c01ee2cbd802202ca000b18a05ff655762678b0eaa5f24a56a4c3464736f6c634300080e0033",
  "linkReferences": {},
  "deployedLinkReferences": {}
}