{
    "_format": "hh-sol-artifact-1",
    "contractName": "ServiceManager",
    "sourceName": "contracts/ServiceManager.sol",
    "abi": [
        {
            "inputs": [
                {
                    "internalType": "address",
                    "name": "_serviceRegistry",
                    "type": "address"
                }
            ],
            "stateMutability": "nonpayable",
            "type": "constructor"
        },
        {
            "inputs": [
                {
                    "internalType": "address",
                    "name": "operator",
                    "type": "address"
                }
            ],
            "name": "AgentInstanceRegistered",
            "type": "error"
        },
        {
            "inputs": [
                {
                    "internalType": "uint256",
                    "name": "serviceId",
                    "type": "uint256"
                }
            ],
            "name": "AgentInstancesSlotsFilled",
            "type": "error"
        },
        {
            "inputs": [
                {
                    "internalType": "uint256",
                    "name": "agentId",
                    "type": "uint256"
                }
            ],
            "name": "AgentNotFound",
            "type": "error"
        },
        {
            "inputs": [
                {
                    "internalType": "uint256",
                    "name": "agentId",
                    "type": "uint256"
                },
                {
                    "internalType": "uint256",
                    "name": "serviceId",
                    "type": "uint256"
                }
            ],
            "name": "AgentNotInService",
            "type": "error"
        },
        {
            "inputs": [
                {
                    "internalType": "uint256",
                    "name": "componentId",
                    "type": "uint256"
                }
            ],
            "name": "ComponentNotFound",
            "type": "error"
        },
        {
            "inputs": [],
            "name": "HashExists",
            "type": "error"
        },
        {
            "inputs": [
                {
                    "internalType": "uint256",
                    "name": "sent",
                    "type": "uint256"
                },
                {
                    "internalType": "uint256",
                    "name": "expected",
                    "type": "uint256"
                },
                {
                    "internalType": "uint256",
                    "name": "serviceId",
                    "type": "uint256"
                }
            ],
            "name": "IncorrectAgentBondingValue",
            "type": "error"
        },
        {
            "inputs": [
                {
                    "internalType": "uint256",
                    "name": "sent",
                    "type": "uint256"
                },
                {
                    "internalType": "uint256",
                    "name": "expected",
                    "type": "uint256"
                },
                {
                    "internalType": "uint256",
                    "name": "serviceId",
                    "type": "uint256"
                }
            ],
            "name": "IncorrectRegistrationDepositValue",
            "type": "error"
        },
        {
            "inputs": [
                {
                    "internalType": "address",
                    "name": "sender",
                    "type": "address"
                },
                {
                    "internalType": "address",
                    "name": "manager",
                    "type": "address"
                }
            ],
            "name": "ManagerOnly",
            "type": "error"
        },
        {
            "inputs": [
                {
                    "internalType": "address",
                    "name": "provided",
                    "type": "address"
                },
                {
                    "internalType": "address",
                    "name": "expected",
                    "type": "address"
                },
                {
                    "internalType": "uint256",
                    "name": "serviceId",
                    "type": "uint256"
                }
            ],
            "name": "OnlyOwnServiceMultisig",
            "type": "error"
        },
        {
            "inputs": [
                {
                    "internalType": "address",
                    "name": "operator",
                    "type": "address"
                },
                {
                    "internalType": "uint256",
                    "name": "serviceId",
                    "type": "uint256"
                }
            ],
            "name": "OperatorHasNoInstances",
            "type": "error"
        },
        {
            "inputs": [
                {
                    "internalType": "uint256",
                    "name": "provided",
                    "type": "uint256"
                },
                {
                    "internalType": "uint256",
                    "name": "max",
                    "type": "uint256"
                }
            ],
            "name": "Overflow",
            "type": "error"
        },
        {
            "inputs": [
                {
                    "internalType": "address",
                    "name": "sender",
                    "type": "address"
                },
                {
                    "internalType": "address",
                    "name": "owner",
                    "type": "address"
                }
            ],
            "name": "OwnerOnly",
            "type": "error"
        },
        {
            "inputs": [],
            "name": "Paused",
            "type": "error"
        },
        {
            "inputs": [],
            "name": "ReentrancyGuard",
            "type": "error"
        },
        {
            "inputs": [
                {
                    "internalType": "uint256",
                    "name": "serviceId",
                    "type": "uint256"
                }
            ],
            "name": "ServiceMustBeInactive",
            "type": "error"
        },
        {
            "inputs": [
                {
                    "internalType": "address",
                    "name": "token",
                    "type": "address"
                },
                {
                    "internalType": "address",
                    "name": "from",
                    "type": "address"
                },
                {
                    "internalType": "address",
                    "name": "to",
                    "type": "address"
                },
                {
                    "internalType": "uint256",
                    "name": "value",
                    "type": "uint256"
                }
            ],
            "name": "TransferFailed",
            "type": "error"
        },
        {
            "inputs": [
                {
                    "internalType": "address",
                    "name": "multisig",
                    "type": "address"
                }
            ],
            "name": "UnauthorizedMultisig",
            "type": "error"
        },
        {
            "inputs": [
                {
                    "internalType": "uint256",
                    "name": "agentId",
                    "type": "uint256"
                }
            ],
            "name": "WrongAgentId",
            "type": "error"
        },
        {
            "inputs": [
                {
                    "internalType": "uint256",
                    "name": "numValues1",
                    "type": "uint256"
                },
                {
                    "internalType": "uint256",
                    "name": "numValues2",
                    "type": "uint256"
                }
            ],
            "name": "WrongArrayLength",
            "type": "error"
        },
        {
            "inputs": [
                {
                    "internalType": "uint256",
                    "name": "serviceId",
                    "type": "uint256"
                }
            ],
            "name": "WrongOperator",
            "type": "error"
        },
        {
            "inputs": [
                {
                    "internalType": "uint256",
                    "name": "state",
                    "type": "uint256"
                },
                {
                    "internalType": "uint256",
                    "name": "serviceId",
                    "type": "uint256"
                }
            ],
            "name": "WrongServiceState",
            "type": "error"
        },
        {
            "inputs": [
                {
                    "internalType": "uint256",
                    "name": "currentThreshold",
                    "type": "uint256"
                },
                {
                    "internalType": "uint256",
                    "name": "minThreshold",
                    "type": "uint256"
                },
                {
                    "internalType": "uint256",
                    "name": "maxThreshold",
                    "type": "uint256"
                }
            ],
            "name": "WrongThreshold",
            "type": "error"
        },
        {
            "inputs": [],
            "name": "ZeroAddress",
            "type": "error"
        },
        {
            "inputs": [],
            "name": "ZeroValue",
            "type": "error"
        },
        {
            "anonymous": false,
            "inputs": [
                {
                    "indexed": true,
                    "internalType": "address",
                    "name": "multisig",
                    "type": "address"
                }
            ],
            "name": "CreateMultisig",
            "type": "event"
        },
        {
            "anonymous": false,
            "inputs": [
                {
                    "indexed": true,
                    "internalType": "address",
                    "name": "owner",
                    "type": "address"
                }
            ],
            "name": "OwnerUpdated",
            "type": "event"
        },
        {
            "anonymous": false,
            "inputs": [
                {
                    "indexed": true,
                    "internalType": "address",
                    "name": "owner",
                    "type": "address"
                }
            ],
            "name": "Pause",
            "type": "event"
        },
        {
            "anonymous": false,
            "inputs": [
                {
                    "indexed": true,
                    "internalType": "address",
                    "name": "owner",
                    "type": "address"
                }
            ],
            "name": "Unpause",
            "type": "event"
        },
        {
            "inputs": [
                {
                    "internalType": "uint256",
                    "name": "serviceId",
                    "type": "uint256"
                }
            ],
            "name": "activateRegistration",
            "outputs": [
                {
                    "internalType": "bool",
                    "name": "success",
                    "type": "bool"
                }
            ],
            "stateMutability": "payable",
            "type": "function"
        },
        {
            "inputs": [
                {
                    "internalType": "address",
                    "name": "newOwner",
                    "type": "address"
                }
            ],
            "name": "changeOwner",
            "outputs": [],
            "stateMutability": "nonpayable",
            "type": "function"
        },
        {
            "inputs": [
                {
                    "internalType": "address",
                    "name": "serviceOwner",
                    "type": "address"
                },
                {
                    "internalType": "bytes32",
                    "name": "configHash",
                    "type": "bytes32"
                },
                {
                    "internalType": "uint32[]",
                    "name": "agentIds",
                    "type": "uint32[]"
                },
                {
                    "components": [
                        {
                            "internalType": "uint32",
                            "name": "slots",
                            "type": "uint32"
                        },
                        {
                            "internalType": "uint96",
                            "name": "bond",
                            "type": "uint96"
                        }
                    ],
                    "internalType": "struct IService.AgentParams[]",
                    "name": "agentParams",
                    "type": "tuple[]"
                },
                {
                    "internalType": "uint32",
                    "name": "threshold",
                    "type": "uint32"
                }
            ],
            "name": "create",
            "outputs": [
                {
                    "internalType": "uint256",
                    "name": "",
                    "type": "uint256"
                }
            ],
            "stateMutability": "nonpayable",
            "type": "function"
        },
        {
            "inputs": [
                {
                    "internalType": "uint256",
                    "name": "serviceId",
                    "type": "uint256"
                },
                {
                    "internalType": "address",
                    "name": "multisigImplementation",
                    "type": "address"
                },
                {
                    "internalType": "bytes",
                    "name": "data",
                    "type": "bytes"
                }
            ],
            "name": "deploy",
            "outputs": [
                {
                    "internalType": "address",
                    "name": "multisig",
                    "type": "address"
                }
            ],
            "stateMutability": "nonpayable",
            "type": "function"
        },
        {
            "inputs": [],
            "name": "owner",
            "outputs": [
                {
                    "internalType": "address",
                    "name": "",
                    "type": "address"
                }
            ],
            "stateMutability": "view",
            "type": "function"
        },
        {
            "inputs": [],
            "name": "pause",
            "outputs": [],
            "stateMutability": "nonpayable",
            "type": "function"
        },
        {
            "inputs": [],
            "name": "paused",
            "outputs": [
                {
                    "internalType": "bool",
                    "name": "",
                    "type": "bool"
                }
            ],
            "stateMutability": "view",
            "type": "function"
        },
        {
            "inputs": [
                {
                    "internalType": "uint256",
                    "name": "serviceId",
                    "type": "uint256"
                },
                {
                    "internalType": "address[]",
                    "name": "agentInstances",
                    "type": "address[]"
                },
                {
                    "internalType": "uint32[]",
                    "name": "agentIds",
                    "type": "uint32[]"
                }
            ],
            "name": "registerAgents",
            "outputs": [
                {
                    "internalType": "bool",
                    "name": "success",
                    "type": "bool"
                }
            ],
            "stateMutability": "payable",
            "type": "function"
        },
        {
            "inputs": [],
            "name": "serviceRegistry",
            "outputs": [
                {
                    "internalType": "address",
                    "name": "",
                    "type": "address"
                }
            ],
            "stateMutability": "view",
            "type": "function"
        },
        {
            "inputs": [
                {
                    "internalType": "uint256",
                    "name": "serviceId",
                    "type": "uint256"
                }
            ],
            "name": "terminate",
            "outputs": [
                {
                    "internalType": "bool",
                    "name": "success",
                    "type": "bool"
                },
                {
                    "internalType": "uint256",
                    "name": "refund",
                    "type": "uint256"
                }
            ],
            "stateMutability": "nonpayable",
            "type": "function"
        },
        {
            "inputs": [
                {
                    "internalType": "uint256",
                    "name": "serviceId",
                    "type": "uint256"
                }
            ],
            "name": "unbond",
            "outputs": [
                {
                    "internalType": "bool",
                    "name": "success",
                    "type": "bool"
                },
                {
                    "internalType": "uint256",
                    "name": "refund",
                    "type": "uint256"
                }
            ],
            "stateMutability": "nonpayable",
            "type": "function"
        },
        {
            "inputs": [],
            "name": "unpause",
            "outputs": [],
            "stateMutability": "nonpayable",
            "type": "function"
        },
        {
            "inputs": [
                {
                    "internalType": "bytes32",
                    "name": "configHash",
                    "type": "bytes32"
                },
                {
                    "internalType": "uint32[]",
                    "name": "agentIds",
                    "type": "uint32[]"
                },
                {
                    "components": [
                        {
                            "internalType": "uint32",
                            "name": "slots",
                            "type": "uint32"
                        },
                        {
                            "internalType": "uint96",
                            "name": "bond",
                            "type": "uint96"
                        }
                    ],
                    "internalType": "struct IService.AgentParams[]",
                    "name": "agentParams",
                    "type": "tuple[]"
                },
                {
                    "internalType": "uint32",
                    "name": "threshold",
                    "type": "uint32"
                },
                {
                    "internalType": "uint256",
                    "name": "serviceId",
                    "type": "uint256"
                }
            ],
            "name": "update",
            "outputs": [
                {
                    "internalType": "bool",
                    "name": "",
                    "type": "bool"
                }
            ],
            "stateMutability": "nonpayable",
            "type": "function"
        }
    ],
    "bytecode": "0x60a060405234801561001057600080fd5b5060405161113e38038061113e83398101604081905261002f91610052565b6001600160a01b0316608052600080546001600160a01b03191633179055610082565b60006020828403121561006457600080fd5b81516001600160a01b038116811461007b57600080fd5b9392505050565b6080516110706100ce6000396000818161024d015281816102ca015281816103af015281816104c9015281816105580152818161060d01528181610784015261086301526110706000f3fe6080604052600436106100d25760003560e01c80637a828b281161007f578063a6f9dae111610059578063a6f9dae11461021b578063cbcf252a1461023b578063d03ca40a1461026f578063fbdeb3d71461028257600080fd5b80637a828b28146101c65780638456cb59146101e65780638da5cb5b146101fb57600080fd5b80634d5a5827116100b05780634d5a5827146101625780635c975abb146101855780636503f7e1146101a657600080fd5b80630d0d57a8146100d757806327de9e32146101145780633f4ba83a1461014b575b600080fd5b3480156100e357600080fd5b506100f76100f236600461096b565b6102b0565b6040516001600160a01b0390911681526020015b60405180910390f35b34801561012057600080fd5b5061013461012f366004610a1c565b610386565b60408051921515835260208301919091520161010b565b34801561015757600080fd5b50610160610426565b005b610175610170366004610a1c565b6104a2565b604051901515815260200161010b565b34801561019157600080fd5b5060005461017590600160a01b900460ff1681565b3480156101b257600080fd5b506101756101c1366004610b85565b61053e565b3480156101d257600080fd5b506101346101e1366004610a1c565b6105e4565b3480156101f257600080fd5b5061016061063c565b34801561020757600080fd5b506000546100f7906001600160a01b031681565b34801561022757600080fd5b50610160610236366004610c0b565b6106b9565b34801561024757600080fd5b506100f77f000000000000000000000000000000000000000000000000000000000000000081565b61017561027d366004610c2f565b610780565b34801561028e57600080fd5b506102a261029d366004610cfc565b610820565b60405190815260200161010b565b60405163f908bc7760e01b81526000906001600160a01b037f0000000000000000000000000000000000000000000000000000000000000000169063f908bc7790610305903390889088908890600401610d8d565b6020604051808303816000875af1158015610324573d6000803e3d6000fd5b505050506040513d601f19601f820116820180604052508101906103489190610dff565b6040519091506001600160a01b038216907fec97633905b1dbe9773a7536e9a986dcf89803e1193934b7b6d76587c68beb4090600090a29392505050565b6040516352e82ce560e11b81523360048201526024810182905260009081906001600160a01b037f0000000000000000000000000000000000000000000000000000000000000000169063a5d059ca906044015b60408051808303816000875af11580156103f8573d6000803e3d6000fd5b505050506040513d601f19601f8201168201806040525081019061041c9190610e2c565b9094909350915050565b6000546001600160a01b0316331461046b5760005460405163521eb56d60e11b81523360048201526001600160a01b0390911660248201526044015b60405180910390fd5b6000805460ff60a01b1916815560405133917faeb196d352664784d1900b0e7414a8face7d29f4dae8c4b0cf68ed477423bbf491a2565b60405163388fdbed60e21b8152336004820152602481018290526000906001600160a01b037f0000000000000000000000000000000000000000000000000000000000000000169063e23f6fb490349060440160206040518083038185885af1158015610513573d6000803e3d6000fd5b50505050506040513d601f19601f820116820180604052508101906105389190610e58565b92915050565b60405163197f329f60e31b81526000906001600160a01b037f0000000000000000000000000000000000000000000000000000000000000000169063cbf994f8906105979033908a908a908a908a908a90600401610f03565b6020604051808303816000875af11580156105b6573d6000803e3d6000fd5b505050506040513d601f19601f820116820180604052508101906105da9190610e58565b9695505050505050565b60405163ccc9305d60e01b81523360048201526024810182905260009081906001600160a01b037f0000000000000000000000000000000000000000000000000000000000000000169063ccc9305d906044016103da565b6000546001600160a01b0316331461067c5760005460405163521eb56d60e11b81523360048201526001600160a01b039091166024820152604401610462565b6000805460ff60a01b1916600160a01b17815560405133917f5ee71a369c8672edded508e624ffc9257fa1ae6886ef32905c18e60196bca39991a2565b6000546001600160a01b031633146106f95760005460405163521eb56d60e11b81523360048201526001600160a01b039091166024820152604401610462565b6001600160a01b0381166107205760405163d92e233d60e01b815260040160405180910390fd5b600080547fffffffffffffffffffffffff0000000000000000000000000000000000000000166001600160a01b038316908117825560405190917f4ffd725fc4a22075e9ec71c59edf9c38cdeb588a91b24fc5b61388c5be41282b91a250565b60007f00000000000000000000000000000000000000000000000000000000000000006001600160a01b031663dff7672434338787876040518663ffffffff1660e01b81526004016107d59493929190610f59565b60206040518083038185885af11580156107f3573d6000803e3d6000fd5b50505050506040513d601f19601f820116820180604052508101906108189190610e58565b949350505050565b60008054600160a01b900460ff161561084c576040516313d0ff5960e31b815260040160405180910390fd5b60405163fbdeb3d760e01b81526001600160a01b037f0000000000000000000000000000000000000000000000000000000000000000169063fbdeb3d7906108a09089908990899089908990600401610fce565b6020604051808303816000875af11580156108bf573d6000803e3d6000fd5b505050506040513d601f19601f820116820180604052508101906105da9190611021565b6001600160a01b03811681146108f857600080fd5b50565b634e487b7160e01b600052604160045260246000fd5b6040805190810167ffffffffffffffff81118282101715610934576109346108fb565b60405290565b604051601f8201601f1916810167ffffffffffffffff81118282101715610963576109636108fb565b604052919050565b60008060006060848603121561098057600080fd5b83359250602080850135610993816108e3565b9250604085013567ffffffffffffffff808211156109b057600080fd5b818701915087601f8301126109c457600080fd5b8135818111156109d6576109d66108fb565b6109e8601f8201601f1916850161093a565b915080825288848285010111156109fe57600080fd5b80848401858401376000848284010152508093505050509250925092565b600060208284031215610a2e57600080fd5b5035919050565b600067ffffffffffffffff821115610a4f57610a4f6108fb565b5060051b60200190565b803563ffffffff81168114610a6d57600080fd5b919050565b600082601f830112610a8357600080fd5b81356020610a98610a9383610a35565b61093a565b82815260059290921b84018101918181019086841115610ab757600080fd5b8286015b84811015610ad957610acc81610a59565b8352918301918301610abb565b509695505050505050565b600082601f830112610af557600080fd5b81356020610b05610a9383610a35565b82815260069290921b84018101918181019086841115610b2457600080fd5b8286015b84811015610ad95760408189031215610b415760008081fd5b610b49610911565b610b5282610a59565b8152848201356bffffffffffffffffffffffff81168114610b735760008081fd5b81860152835291830191604001610b28565b600080600080600060a08688031215610b9d57600080fd5b85359450602086013567ffffffffffffffff80821115610bbc57600080fd5b610bc889838a01610a72565b95506040880135915080821115610bde57600080fd5b50610beb88828901610ae4565b935050610bfa60608701610a59565b949793965091946080013592915050565b600060208284031215610c1d57600080fd5b8135610c28816108e3565b9392505050565b600080600060608486031215610c4457600080fd5b8335925060208085013567ffffffffffffffff80821115610c6457600080fd5b818701915087601f830112610c7857600080fd5b8135610c86610a9382610a35565b81815260059190911b8301840190848101908a831115610ca557600080fd5b938501935b82851015610ccc578435610cbd816108e3565b82529385019390850190610caa565b965050506040870135925080831115610ce457600080fd5b5050610cf286828701610a72565b9150509250925092565b600080600080600060a08688031215610d1457600080fd5b8535610d1f816108e3565b945060208601359350604086013567ffffffffffffffff80821115610d4357600080fd5b610d4f89838a01610a72565b94506060880135915080821115610d6557600080fd5b50610d7288828901610ae4565b925050610d8160808701610a59565b90509295509295909350565b60006001600160a01b038087168352602086818501528186166040850152608060608501528451915081608085015260005b82811015610ddb5785810182015185820160a001528101610dbf565b5050600060a0828501015260a0601f19601f83011684010191505095945050505050565b600060208284031215610e1157600080fd5b8151610c28816108e3565b80518015158114610a6d57600080fd5b60008060408385031215610e3f57600080fd5b610e4883610e1c565b9150602083015190509250929050565b600060208284031215610e6a57600080fd5b610c2882610e1c565b600081518084526020808501945080840160005b83811015610ea957815163ffffffff1687529582019590820190600101610e87565b509495945050505050565b600081518084526020808501945080840160005b83811015610ea9578151805163ffffffff1688528301516bffffffffffffffffffffffff168388015260409096019590820190600101610ec8565b6001600160a01b038716815285602082015260c060408201526000610f2b60c0830187610e73565b8281036060840152610f3d8187610eb4565b63ffffffff959095166080840152505060a00152949350505050565b6000608082016001600160a01b038088168452602087818601526080604086015282875180855260a087019150828901945060005b81811015610fac578551851683529483019491830191600101610f8e565b50508581036060870152610fc08188610e73565b9a9950505050505050505050565b6001600160a01b038616815284602082015260a060408201526000610ff660a0830186610e73565b82810360608401526110088186610eb4565b91505063ffffffff831660808301529695505050505050565b60006020828403121561103357600080fd5b505191905056fea26469706673582212200d441fd292fb8401bc7bd86e3c620d2da28a6dd4b26317a9308b941130ce728364736f6c63430008130033",
    "linkReferences": {},
    "deployedLinkReferences": {}
}