{
    "abi": [
        {
            "type": "constructor",
            "inputs": [
                {
                    "name": "_serviceRegistry",
                    "type": "address",
                    "internalType": "address"
                },
                {
                    "name": "_serviceRegistryTokenUtility",
                    "type": "address",
                    "internalType": "address"
                }
            ],
            "stateMutability": "nonpayable"
        },
        {
            "type": "function",
            "name": "BOND_WRAPPER",
            "inputs": [],
            "outputs": [
                {
                    "name": "",
                    "type": "uint96",
                    "internalType": "uint96"
                }
            ],
            "stateMutability": "view"
        },
        {
            "type": "function",
            "name": "DOMAIN_SEPARATOR_TYPE_HASH",
            "inputs": [],
            "outputs": [
                {
                    "name": "",
                    "type": "bytes32",
                    "internalType": "bytes32"
                }
            ],
            "stateMutability": "view"
        },
        {
            "type": "function",
            "name": "ETH_TOKEN_ADDRESS",
            "inputs": [],
            "outputs": [
                {
                    "name": "",
                    "type": "address",
                    "internalType": "address"
                }
            ],
            "stateMutability": "view"
        },
        {
            "type": "function",
            "name": "NAME",
            "inputs": [],
            "outputs": [
                {
                    "name": "",
                    "type": "string",
                    "internalType": "string"
                }
            ],
            "stateMutability": "view"
        },
        {
            "type": "function",
            "name": "PROXY_SERVICE_MANAGER",
            "inputs": [],
            "outputs": [
                {
                    "name": "",
                    "type": "bytes32",
                    "internalType": "bytes32"
                }
            ],
            "stateMutability": "view"
        },
        {
            "type": "function",
            "name": "REGISTER_AGENTS_TYPE_HASH",
            "inputs": [],
            "outputs": [
                {
                    "name": "",
                    "type": "bytes32",
                    "internalType": "bytes32"
                }
            ],
            "stateMutability": "view"
        },
        {
            "type": "function",
            "name": "UNBOND_TYPE_HASH",
            "inputs": [],
            "outputs": [
                {
                    "name": "",
                    "type": "bytes32",
                    "internalType": "bytes32"
                }
            ],
            "stateMutability": "view"
        },
        {
            "type": "function",
            "name": "VERSION",
            "inputs": [],
            "outputs": [
                {
                    "name": "",
                    "type": "string",
                    "internalType": "string"
                }
            ],
            "stateMutability": "view"
        },
        {
            "type": "function",
            "name": "activateRegistration",
            "inputs": [
                {
                    "name": "serviceId",
                    "type": "uint256",
                    "internalType": "uint256"
                }
            ],
            "outputs": [
                {
                    "name": "success",
                    "type": "bool",
                    "internalType": "bool"
                }
            ],
            "stateMutability": "payable"
        },
        {
            "type": "function",
            "name": "changeImplementation",
            "inputs": [
                {
                    "name": "implementation",
                    "type": "address",
                    "internalType": "address"
                }
            ],
            "outputs": [],
            "stateMutability": "nonpayable"
        },
        {
            "type": "function",
            "name": "changeOwner",
            "inputs": [
                {
                    "name": "newOwner",
                    "type": "address",
                    "internalType": "address"
                }
            ],
            "outputs": [],
            "stateMutability": "nonpayable"
        },
        {
            "type": "function",
            "name": "create",
            "inputs": [
                {
                    "name": "serviceOwner",
                    "type": "address",
                    "internalType": "address"
                },
                {
                    "name": "token",
                    "type": "address",
                    "internalType": "address"
                },
                {
                    "name": "configHash",
                    "type": "bytes32",
                    "internalType": "bytes32"
                },
                {
                    "name": "agentIds",
                    "type": "uint32[]",
                    "internalType": "uint32[]"
                },
                {
                    "name": "agentParams",
                    "type": "tuple[]",
                    "internalType": "struct IService.AgentParams[]",
                    "components": [
                        {
                            "name": "slots",
                            "type": "uint32",
                            "internalType": "uint32"
                        },
                        {
                            "name": "bond",
                            "type": "uint96",
                            "internalType": "uint96"
                        }
                    ]
                },
                {
                    "name": "threshold",
                    "type": "uint32",
                    "internalType": "uint32"
                }
            ],
            "outputs": [
                {
                    "name": "serviceId",
                    "type": "uint256",
                    "internalType": "uint256"
                }
            ],
            "stateMutability": "nonpayable"
        },
        {
            "type": "function",
            "name": "deploy",
            "inputs": [
                {
                    "name": "serviceId",
                    "type": "uint256",
                    "internalType": "uint256"
                },
                {
                    "name": "multisigImplementation",
                    "type": "address",
                    "internalType": "address"
                },
                {
                    "name": "data",
                    "type": "bytes",
                    "internalType": "bytes"
                }
            ],
            "outputs": [
                {
                    "name": "multisig",
                    "type": "address",
                    "internalType": "address"
                }
            ],
            "stateMutability": "nonpayable"
        },
        {
            "type": "function",
            "name": "getDomainSeparator",
            "inputs": [],
            "outputs": [
                {
                    "name": "",
                    "type": "bytes32",
                    "internalType": "bytes32"
                }
            ],
            "stateMutability": "view"
        },
        {
            "type": "function",
            "name": "getOperatorRegisterAgentsNonce",
            "inputs": [
                {
                    "name": "operator",
                    "type": "address",
                    "internalType": "address"
                },
                {
                    "name": "serviceId",
                    "type": "uint256",
                    "internalType": "uint256"
                }
            ],
            "outputs": [
                {
                    "name": "nonce",
                    "type": "uint256",
                    "internalType": "uint256"
                }
            ],
            "stateMutability": "view"
        },
        {
            "type": "function",
            "name": "getOperatorUnbondNonce",
            "inputs": [
                {
                    "name": "operator",
                    "type": "address",
                    "internalType": "address"
                },
                {
                    "name": "serviceId",
                    "type": "uint256",
                    "internalType": "uint256"
                }
            ],
            "outputs": [
                {
                    "name": "nonce",
                    "type": "uint256",
                    "internalType": "uint256"
                }
            ],
            "stateMutability": "view"
        },
        {
            "type": "function",
            "name": "getRegisterAgentsHash",
            "inputs": [
                {
                    "name": "operator",
                    "type": "address",
                    "internalType": "address"
                },
                {
                    "name": "serviceOwner",
                    "type": "address",
                    "internalType": "address"
                },
                {
                    "name": "serviceId",
                    "type": "uint256",
                    "internalType": "uint256"
                },
                {
                    "name": "agentInstances",
                    "type": "address[]",
                    "internalType": "address[]"
                },
                {
                    "name": "agentIds",
                    "type": "uint32[]",
                    "internalType": "uint32[]"
                },
                {
                    "name": "nonce",
                    "type": "uint256",
                    "internalType": "uint256"
                }
            ],
            "outputs": [
                {
                    "name": "",
                    "type": "bytes32",
                    "internalType": "bytes32"
                }
            ],
            "stateMutability": "view"
        },
        {
            "type": "function",
            "name": "getUnbondHash",
            "inputs": [
                {
                    "name": "operator",
                    "type": "address",
                    "internalType": "address"
                },
                {
                    "name": "serviceOwner",
                    "type": "address",
                    "internalType": "address"
                },
                {
                    "name": "serviceId",
                    "type": "uint256",
                    "internalType": "uint256"
                },
                {
                    "name": "nonce",
                    "type": "uint256",
                    "internalType": "uint256"
                }
            ],
            "outputs": [
                {
                    "name": "",
                    "type": "bytes32",
                    "internalType": "bytes32"
                }
            ],
            "stateMutability": "view"
        },
        {
            "type": "function",
            "name": "initialize",
            "inputs": [],
            "outputs": [],
            "stateMutability": "nonpayable"
        },
        {
            "type": "function",
            "name": "isOperatorHashApproved",
            "inputs": [
                {
                    "name": "operator",
                    "type": "address",
                    "internalType": "address"
                },
                {
                    "name": "hash",
                    "type": "bytes32",
                    "internalType": "bytes32"
                }
            ],
            "outputs": [
                {
                    "name": "",
                    "type": "bool",
                    "internalType": "bool"
                }
            ],
            "stateMutability": "view"
        },
        {
            "type": "function",
            "name": "mapOperatorApprovedHashes",
            "inputs": [
                {
                    "name": "",
                    "type": "address",
                    "internalType": "address"
                },
                {
                    "name": "",
                    "type": "bytes32",
                    "internalType": "bytes32"
                }
            ],
            "outputs": [
                {
                    "name": "",
                    "type": "bool",
                    "internalType": "bool"
                }
            ],
            "stateMutability": "view"
        },
        {
            "type": "function",
            "name": "mapOperatorRegisterAgentsNonces",
            "inputs": [
                {
                    "name": "",
                    "type": "uint256",
                    "internalType": "uint256"
                }
            ],
            "outputs": [
                {
                    "name": "",
                    "type": "uint256",
                    "internalType": "uint256"
                }
            ],
            "stateMutability": "view"
        },
        {
            "type": "function",
            "name": "mapOperatorUnbondNonces",
            "inputs": [
                {
                    "name": "",
                    "type": "uint256",
                    "internalType": "uint256"
                }
            ],
            "outputs": [
                {
                    "name": "",
                    "type": "uint256",
                    "internalType": "uint256"
                }
            ],
            "stateMutability": "view"
        },
        {
            "type": "function",
            "name": "nameHash",
            "inputs": [],
            "outputs": [
                {
                    "name": "",
                    "type": "bytes32",
                    "internalType": "bytes32"
                }
            ],
            "stateMutability": "view"
        },
        {
            "type": "function",
            "name": "operatorApproveHash",
            "inputs": [
                {
                    "name": "hash",
                    "type": "bytes32",
                    "internalType": "bytes32"
                }
            ],
            "outputs": [],
            "stateMutability": "nonpayable"
        },
        {
            "type": "function",
            "name": "operatorWhitelist",
            "inputs": [],
            "outputs": [
                {
                    "name": "",
                    "type": "address",
                    "internalType": "address"
                }
            ],
            "stateMutability": "view"
        },
        {
            "type": "function",
            "name": "owner",
            "inputs": [],
            "outputs": [
                {
                    "name": "",
                    "type": "address",
                    "internalType": "address"
                }
            ],
            "stateMutability": "view"
        },
        {
            "type": "function",
            "name": "pause",
            "inputs": [],
            "outputs": [],
            "stateMutability": "nonpayable"
        },
        {
            "type": "function",
            "name": "paused",
            "inputs": [],
            "outputs": [
                {
                    "name": "",
                    "type": "bool",
                    "internalType": "bool"
                }
            ],
            "stateMutability": "view"
        },
        {
            "type": "function",
            "name": "registerAgents",
            "inputs": [
                {
                    "name": "serviceId",
                    "type": "uint256",
                    "internalType": "uint256"
                },
                {
                    "name": "agentInstances",
                    "type": "address[]",
                    "internalType": "address[]"
                },
                {
                    "name": "agentIds",
                    "type": "uint32[]",
                    "internalType": "uint32[]"
                }
            ],
            "outputs": [
                {
                    "name": "success",
                    "type": "bool",
                    "internalType": "bool"
                }
            ],
            "stateMutability": "payable"
        },
        {
            "type": "function",
            "name": "registerAgentsWithSignature",
            "inputs": [
                {
                    "name": "operator",
                    "type": "address",
                    "internalType": "address"
                },
                {
                    "name": "serviceId",
                    "type": "uint256",
                    "internalType": "uint256"
                },
                {
                    "name": "agentInstances",
                    "type": "address[]",
                    "internalType": "address[]"
                },
                {
                    "name": "agentIds",
                    "type": "uint32[]",
                    "internalType": "uint32[]"
                },
                {
                    "name": "signature",
                    "type": "bytes",
                    "internalType": "bytes"
                }
            ],
            "outputs": [
                {
                    "name": "success",
                    "type": "bool",
                    "internalType": "bool"
                }
            ],
            "stateMutability": "payable"
        },
        {
            "type": "function",
            "name": "serviceRegistry",
            "inputs": [],
            "outputs": [
                {
                    "name": "",
                    "type": "address",
                    "internalType": "address"
                }
            ],
            "stateMutability": "view"
        },
        {
            "type": "function",
            "name": "serviceRegistryTokenUtility",
            "inputs": [],
            "outputs": [
                {
                    "name": "",
                    "type": "address",
                    "internalType": "address"
                }
            ],
            "stateMutability": "view"
        },
        {
            "type": "function",
            "name": "setOperatorWhitelist",
            "inputs": [
                {
                    "name": "newOperatorWhitelist",
                    "type": "address",
                    "internalType": "address"
                }
            ],
            "outputs": [],
            "stateMutability": "nonpayable"
        },
        {
            "type": "function",
            "name": "terminate",
            "inputs": [
                {
                    "name": "serviceId",
                    "type": "uint256",
                    "internalType": "uint256"
                }
            ],
            "outputs": [
                {
                    "name": "success",
                    "type": "bool",
                    "internalType": "bool"
                },
                {
                    "name": "refund",
                    "type": "uint256",
                    "internalType": "uint256"
                }
            ],
            "stateMutability": "nonpayable"
        },
        {
            "type": "function",
            "name": "unbond",
            "inputs": [
                {
                    "name": "serviceId",
                    "type": "uint256",
                    "internalType": "uint256"
                }
            ],
            "outputs": [
                {
                    "name": "success",
                    "type": "bool",
                    "internalType": "bool"
                },
                {
                    "name": "refund",
                    "type": "uint256",
                    "internalType": "uint256"
                }
            ],
            "stateMutability": "nonpayable"
        },
        {
            "type": "function",
            "name": "unbondWithSignature",
            "inputs": [
                {
                    "name": "operator",
                    "type": "address",
                    "internalType": "address"
                },
                {
                    "name": "serviceId",
                    "type": "uint256",
                    "internalType": "uint256"
                },
                {
                    "name": "signature",
                    "type": "bytes",
                    "internalType": "bytes"
                }
            ],
            "outputs": [
                {
                    "name": "success",
                    "type": "bool",
                    "internalType": "bool"
                },
                {
                    "name": "refund",
                    "type": "uint256",
                    "internalType": "uint256"
                }
            ],
            "stateMutability": "nonpayable"
        },
        {
            "type": "function",
            "name": "unpause",
            "inputs": [],
            "outputs": [],
            "stateMutability": "nonpayable"
        },
        {
            "type": "function",
            "name": "update",
            "inputs": [
                {
                    "name": "token",
                    "type": "address",
                    "internalType": "address"
                },
                {
                    "name": "configHash",
                    "type": "bytes32",
                    "internalType": "bytes32"
                },
                {
                    "name": "agentIds",
                    "type": "uint32[]",
                    "internalType": "uint32[]"
                },
                {
                    "name": "agentParams",
                    "type": "tuple[]",
                    "internalType": "struct IService.AgentParams[]",
                    "components": [
                        {
                            "name": "slots",
                            "type": "uint32",
                            "internalType": "uint32"
                        },
                        {
                            "name": "bond",
                            "type": "uint96",
                            "internalType": "uint96"
                        }
                    ]
                },
                {
                    "name": "threshold",
                    "type": "uint32",
                    "internalType": "uint32"
                },
                {
                    "name": "serviceId",
                    "type": "uint256",
                    "internalType": "uint256"
                }
            ],
            "outputs": [
                {
                    "name": "success",
                    "type": "bool",
                    "internalType": "bool"
                }
            ],
            "stateMutability": "nonpayable"
        },
        {
            "type": "function",
            "name": "versionHash",
            "inputs": [],
            "outputs": [
                {
                    "name": "",
                    "type": "bytes32",
                    "internalType": "bytes32"
                }
            ],
            "stateMutability": "view"
        },
        {
            "type": "event",
            "name": "CreateMultisig",
            "inputs": [
                {
                    "name": "multisig",
                    "type": "address",
                    "indexed": true,
                    "internalType": "address"
                }
            ],
            "anonymous": false
        },
        {
            "type": "event",
            "name": "ImplementationUpdated",
            "inputs": [
                {
                    "name": "implementation",
                    "type": "address",
                    "indexed": true,
                    "internalType": "address"
                }
            ],
            "anonymous": false
        },
        {
            "type": "event",
            "name": "OperatorHashApproved",
            "inputs": [
                {
                    "name": "operator",
                    "type": "address",
                    "indexed": true,
                    "internalType": "address"
                },
                {
                    "name": "hash",
                    "type": "bytes32",
                    "indexed": false,
                    "internalType": "bytes32"
                }
            ],
            "anonymous": false
        },
        {
            "type": "event",
            "name": "OperatorWhitelistUpdated",
            "inputs": [
                {
                    "name": "operatorWhitelist",
                    "type": "address",
                    "indexed": true,
                    "internalType": "address"
                }
            ],
            "anonymous": false
        },
        {
            "type": "event",
            "name": "OwnerUpdated",
            "inputs": [
                {
                    "name": "owner",
                    "type": "address",
                    "indexed": true,
                    "internalType": "address"
                }
            ],
            "anonymous": false
        },
        {
            "type": "event",
            "name": "Pause",
            "inputs": [
                {
                    "name": "owner",
                    "type": "address",
                    "indexed": true,
                    "internalType": "address"
                }
            ],
            "anonymous": false
        },
        {
            "type": "event",
            "name": "RegisterAgentsWithSignatureExecuted",
            "inputs": [
                {
                    "name": "operator",
                    "type": "address",
                    "indexed": true,
                    "internalType": "address"
                },
                {
                    "name": "serviceId",
                    "type": "uint256",
                    "indexed": true,
                    "internalType": "uint256"
                },
                {
                    "name": "agentInstances",
                    "type": "address[]",
                    "indexed": false,
                    "internalType": "address[]"
                },
                {
                    "name": "agentIds",
                    "type": "uint32[]",
                    "indexed": false,
                    "internalType": "uint32[]"
                }
            ],
            "anonymous": false
        },
        {
            "type": "event",
            "name": "UnbondWithSignatureExecuted",
            "inputs": [
                {
                    "name": "operator",
                    "type": "address",
                    "indexed": true,
                    "internalType": "address"
                },
                {
                    "name": "serviceId",
                    "type": "uint256",
                    "indexed": true,
                    "internalType": "uint256"
                },
                {
                    "name": "refund",
                    "type": "uint256",
                    "indexed": false,
                    "internalType": "uint256"
                }
            ],
            "anonymous": false
        },
        {
            "type": "event",
            "name": "Unpause",
            "inputs": [
                {
                    "name": "owner",
                    "type": "address",
                    "indexed": true,
                    "internalType": "address"
                }
            ],
            "anonymous": false
        },
        {
            "type": "error",
            "name": "AgentInstanceRegistered",
            "inputs": [
                {
                    "name": "operator",
                    "type": "address",
                    "internalType": "address"
                }
            ]
        },
        {
            "type": "error",
            "name": "AgentInstancesSlotsFilled",
            "inputs": [
                {
                    "name": "serviceId",
                    "type": "uint256",
                    "internalType": "uint256"
                }
            ]
        },
        {
            "type": "error",
            "name": "AgentNotFound",
            "inputs": [
                {
                    "name": "agentId",
                    "type": "uint256",
                    "internalType": "uint256"
                }
            ]
        },
        {
            "type": "error",
            "name": "AgentNotInService",
            "inputs": [
                {
                    "name": "agentId",
                    "type": "uint256",
                    "internalType": "uint256"
                },
                {
                    "name": "serviceId",
                    "type": "uint256",
                    "internalType": "uint256"
                }
            ]
        },
        {
            "type": "error",
            "name": "AlreadyInitialized",
            "inputs": []
        },
        {
            "type": "error",
            "name": "ComponentNotFound",
            "inputs": [
                {
                    "name": "componentId",
                    "type": "uint256",
                    "internalType": "uint256"
                }
            ]
        },
        {
            "type": "error",
            "name": "HashExists",
            "inputs": []
        },
        {
            "type": "error",
            "name": "HashNotApproved",
            "inputs": [
                {
                    "name": "operator",
                    "type": "address",
                    "internalType": "address"
                },
                {
                    "name": "msgHash",
                    "type": "bytes32",
                    "internalType": "bytes32"
                },
                {
                    "name": "signature",
                    "type": "bytes",
                    "internalType": "bytes"
                }
            ]
        },
        {
            "type": "error",
            "name": "HashNotValidated",
            "inputs": [
                {
                    "name": "operator",
                    "type": "address",
                    "internalType": "address"
                },
                {
                    "name": "msgHash",
                    "type": "bytes32",
                    "internalType": "bytes32"
                },
                {
                    "name": "signature",
                    "type": "bytes",
                    "internalType": "bytes"
                }
            ]
        },
        {
            "type": "error",
            "name": "IncorrectAgentBondingValue",
            "inputs": [
                {
                    "name": "sent",
                    "type": "uint256",
                    "internalType": "uint256"
                },
                {
                    "name": "expected",
                    "type": "uint256",
                    "internalType": "uint256"
                },
                {
                    "name": "serviceId",
                    "type": "uint256",
                    "internalType": "uint256"
                }
            ]
        },
        {
            "type": "error",
            "name": "IncorrectRegistrationDepositValue",
            "inputs": [
                {
                    "name": "sent",
                    "type": "uint256",
                    "internalType": "uint256"
                },
                {
                    "name": "expected",
                    "type": "uint256",
                    "internalType": "uint256"
                },
                {
                    "name": "serviceId",
                    "type": "uint256",
                    "internalType": "uint256"
                }
            ]
        },
        {
            "type": "error",
            "name": "IncorrectSignatureLength",
            "inputs": [
                {
                    "name": "signature",
                    "type": "bytes",
                    "internalType": "bytes"
                },
                {
                    "name": "provided",
                    "type": "uint256",
                    "internalType": "uint256"
                },
                {
                    "name": "expected",
                    "type": "uint256",
                    "internalType": "uint256"
                }
            ]
        },
        {
            "type": "error",
            "name": "ManagerOnly",
            "inputs": [
                {
                    "name": "sender",
                    "type": "address",
                    "internalType": "address"
                },
                {
                    "name": "manager",
                    "type": "address",
                    "internalType": "address"
                }
            ]
        },
        {
            "type": "error",
            "name": "OnlyOwnServiceMultisig",
            "inputs": [
                {
                    "name": "provided",
                    "type": "address",
                    "internalType": "address"
                },
                {
                    "name": "expected",
                    "type": "address",
                    "internalType": "address"
                },
                {
                    "name": "serviceId",
                    "type": "uint256",
                    "internalType": "uint256"
                }
            ]
        },
        {
            "type": "error",
            "name": "OperatorHasNoInstances",
            "inputs": [
                {
                    "name": "operator",
                    "type": "address",
                    "internalType": "address"
                },
                {
                    "name": "serviceId",
                    "type": "uint256",
                    "internalType": "uint256"
                }
            ]
        },
        {
            "type": "error",
            "name": "Overflow",
            "inputs": [
                {
                    "name": "provided",
                    "type": "uint256",
                    "internalType": "uint256"
                },
                {
                    "name": "max",
                    "type": "uint256",
                    "internalType": "uint256"
                }
            ]
        },
        {
            "type": "error",
            "name": "OwnerOnly",
            "inputs": [
                {
                    "name": "sender",
                    "type": "address",
                    "internalType": "address"
                },
                {
                    "name": "owner",
                    "type": "address",
                    "internalType": "address"
                }
            ]
        },
        {
            "type": "error",
            "name": "Paused",
            "inputs": []
        },
        {
            "type": "error",
            "name": "ReentrancyGuard",
            "inputs": []
        },
        {
            "type": "error",
            "name": "ServiceMustBeInactive",
            "inputs": [
                {
                    "name": "serviceId",
                    "type": "uint256",
                    "internalType": "uint256"
                }
            ]
        },
        {
            "type": "error",
            "name": "TransferFailed",
            "inputs": [
                {
                    "name": "token",
                    "type": "address",
                    "internalType": "address"
                },
                {
                    "name": "from",
                    "type": "address",
                    "internalType": "address"
                },
                {
                    "name": "to",
                    "type": "address",
                    "internalType": "address"
                },
                {
                    "name": "value",
                    "type": "uint256",
                    "internalType": "uint256"
                }
            ]
        },
        {
            "type": "error",
            "name": "UnauthorizedMultisig",
            "inputs": [
                {
                    "name": "multisig",
                    "type": "address",
                    "internalType": "address"
                }
            ]
        },
        {
            "type": "error",
            "name": "WrongAgentId",
            "inputs": [
                {
                    "name": "agentId",
                    "type": "uint256",
                    "internalType": "uint256"
                }
            ]
        },
        {
            "type": "error",
            "name": "WrongArrayLength",
            "inputs": [
                {
                    "name": "numValues1",
                    "type": "uint256",
                    "internalType": "uint256"
                },
                {
                    "name": "numValues2",
                    "type": "uint256",
                    "internalType": "uint256"
                }
            ]
        },
        {
            "type": "error",
            "name": "WrongOperator",
            "inputs": [
                {
                    "name": "serviceId",
                    "type": "uint256",
                    "internalType": "uint256"
                }
            ]
        },
        {
            "type": "error",
            "name": "WrongOperatorAddress",
            "inputs": [
                {
                    "name": "provided",
                    "type": "address",
                    "internalType": "address"
                },
                {
                    "name": "expected",
                    "type": "address",
                    "internalType": "address"
                }
            ]
        },
        {
            "type": "error",
            "name": "WrongServiceState",
            "inputs": [
                {
                    "name": "state",
                    "type": "uint256",
                    "internalType": "uint256"
                },
                {
                    "name": "serviceId",
                    "type": "uint256",
                    "internalType": "uint256"
                }
            ]
        },
        {
            "type": "error",
            "name": "WrongThreshold",
            "inputs": [
                {
                    "name": "currentThreshold",
                    "type": "uint256",
                    "internalType": "uint256"
                },
                {
                    "name": "minThreshold",
                    "type": "uint256",
                    "internalType": "uint256"
                },
                {
                    "name": "maxThreshold",
                    "type": "uint256",
                    "internalType": "uint256"
                }
            ]
        },
        {
            "type": "error",
            "name": "ZeroAddress",
            "inputs": []
        },
        {
            "type": "error",
            "name": "ZeroOperatorAddress",
            "inputs": []
        },
        {
            "type": "error",
            "name": "ZeroValue",
            "inputs": []
        }
    ],
    "bytecode": {
        "object": "0x610100604052348015610010575f5ffd5b5060405161340d38038061340d83398101604081905261002f916100fb565b604080518082018252601481527f4f4c41532053657276696365204d616e616765720000000000000000000000006020808301918252835180850190945260058452640312e322e360dc1b908401908152915190206080529051902060a0526001600160a01b03821615806100ab57506001600160a01b038116155b156100c95760405163d92e233d60e01b815260040160405180910390fd5b6001600160a01b0391821660c0521660e05261012c565b80516001600160a01b03811681146100f6575f5ffd5b919050565b5f5f6040838503121561010c575f5ffd5b610115836100e0565b9150610123602084016100e0565b90509250929050565b60805160a05160c05160e0516131f161021c5f395f818161041c01528181610c1101528181610e57015281816110b0015281816112a60152818161160301528181611aa001528181611cf101528181611e2101526122f501525f818161077f0152818161095f01528181610afd01528181610c9401528181610d5a01528181610ee001528181610f6c0152818161114501528181611365015281816113fe015281816116ae01528181611a0801528181611c5801528181611efb01528181611f98015281816120af015261225e01525f818161031d015261262c01525f8181610869015261260401526131f15ff3fe6080604052600436106102ab575f3560e01c80637a828b2811610165578063cbcf252a116100c6578063e5da07531161007c578063f172a4ce11610062578063f172a4ce14610858578063f5dcb7bb1461088b578063ffa1ad74146108be575f5ffd5b8063e5da075314610825578063ed24911d14610844575f5ffd5b8063d03ca40a116100ac578063d03ca40a146107c0578063dc1d9525146107d3578063e42cdd7c14610806575f5ffd5b8063cbcf252a1461076e578063cbf994f8146107a1575f5ffd5b8063948879111161011b578063a3f4df7e11610101578063a3f4df7e146106db578063a6a7187f14610730578063a6f9dae11461074f575f5ffd5b8063948879111461066e578063a2e2ad7e146106a1575f5ffd5b80638456cb591161014b5780638456cb59146106115780638a39fa16146106255780638da5cb5b14610650575f5ffd5b80637a828b28146105de5780638129fc1c146105fd575f5ffd5b80633af5d04e1161020f57806356bda507116101c557806359a1d184116101ab57806359a1d1841461056d5780635c975abb146105a0578063757b1156146105bf575f5ffd5b806356bda50714610522578063599be46f1461054e575f5ffd5b806341b60677116101f557806341b60677146104aa5780634d5a5827146104d55780635405ecb9146104e8575f5ffd5b80633af5d04e1461045d5780633f4ba83a14610496575f5ffd5b80631ee81fb51161026457806327de9e321161024a57806327de9e32146103d5578063287140511461040b57806328f223421461043e575f5ffd5b80631ee81fb51461039357806321561bfc146103b6575f5ffd5b8063152b5c0f11610294578063152b5c0f1461030c57806317a68dd81461034d5780631878d1f11461036c575f5ffd5b806307a3e0a8146102af5780630d0d57a8146102d0575b5f5ffd5b3480156102ba575f5ffd5b506102ce6102c936600461267c565b6108ee565b005b3480156102db575f5ffd5b506102ef6102ea366004612784565b610946565b6040516001600160a01b0390911681526020015b60405180910390f35b348015610317575f5ffd5b5061033f7f000000000000000000000000000000000000000000000000000000000000000081565b604051908152602001610303565b348015610358575f5ffd5b506102ce6103673660046127d9565b610a17565b348015610377575f5ffd5b506102ef73eeeeeeeeeeeeeeeeeeeeeeeeeeeeeeeeeeeeeeee81565b6103a66103a136600461290b565b610adb565b6040519015158152602001610303565b3480156103c1575f5ffd5b506004546102ef906001600160a01b031681565b3480156103e0575f5ffd5b506103f46103ef36600461267c565b610e2d565b604080519215158352602083019190915201610303565b348015610416575f5ffd5b506102ef7f000000000000000000000000000000000000000000000000000000000000000081565b348015610449575f5ffd5b506103f46104583660046129b5565b610f67565b348015610468575f5ffd5b506103a66104773660046129f4565b600360209081525f928352604080842090915290825290205460ff1681565b3480156104a1575f5ffd5b506102ce611210565b3480156104b5575f5ffd5b5061033f6104c436600461267c565b60026020525f908152604090205481565b6103a66104e336600461267c565b611284565b3480156104f3575f5ffd5b5061033f6105023660046129f4565b60a01b6001600160a01b03909116175f9081526001602052604090205490565b34801561052d575f5ffd5b50610536600181565b6040516001600160601b039091168152602001610303565b348015610559575f5ffd5b506102ce6105683660046127d9565b61147c565b348015610578575f5ffd5b5061033f7fe39e69948a448ce9239ad71b908b6c5b46225f86ffa735b25a8cd6408031585581565b3480156105ab575f5ffd5b505f546103a690600160a01b900460ff1681565b3480156105ca575f5ffd5b5061033f6105d9366004612a1e565b611510565b3480156105e9575f5ffd5b506103f46105f836600461267c565b6115fe565b348015610608575f5ffd5b506102ce6116e5565b34801561061c575f5ffd5b506102ce61172d565b348015610630575f5ffd5b5061033f61063f36600461267c565b60016020525f908152604090205481565b34801561065b575f5ffd5b505f546102ef906001600160a01b031681565b348015610679575f5ffd5b5061033f7f92b2008d2a99f26809ac9d1989fe92334aa84124767331997ba0eec16050ecf481565b3480156106ac575f5ffd5b5061033f6106bb3660046129f4565b60a01b6001600160a01b03909116175f9081526002602052604090205490565b3480156106e6575f5ffd5b506107236040518060400160405280601481526020017f4f4c41532053657276696365204d616e6167657200000000000000000000000081525081565b6040516103039190612ae8565b34801561073b575f5ffd5b5061033f61074a366004612afa565b6117a7565b34801561075a575f5ffd5b506102ce6107693660046127d9565b611862565b348015610779575f5ffd5b506102ef7f000000000000000000000000000000000000000000000000000000000000000081565b3480156107ac575f5ffd5b506103a66107bb366004612bdc565b61191b565b6103a66107ce366004612c76565b611d66565b3480156107de575f5ffd5b5061033f7fde64b4c9fac43e1615e938b03573b078604f57b4d2e78d3a27d7b20ba017e12681565b348015610811575f5ffd5b5061033f610820366004612cd9565b612021565b348015610830575f5ffd5b506103a661083f3660046129f4565b612330565b34801561084f575f5ffd5b5061033f61235d565b348015610863575f5ffd5b5061033f7f000000000000000000000000000000000000000000000000000000000000000081565b348015610896575f5ffd5b5061033f7f8b73c3c69bb8fe3d512ecc4cf759cc79239f7b179b0ffacaa9a75d522b39400f81565b3480156108c9575f5ffd5b50610723604051806040016040528060058152602001640312e322e360dc1b81525081565b335f818152600360209081526040808320858452825291829020805460ff1916600117905590518381527f85eb1f050732417c0566422b6004a6c5cbded9ded1a406de04060719af52a13a910160405180910390a250565b60405163f908bc7760e01b81525f906001600160a01b037f0000000000000000000000000000000000000000000000000000000000000000169063f908bc779061099a903390889088908890600401612d7a565b6020604051808303815f875af11580156109b6573d5f5f3e3d5ffd5b505050506040513d601f19601f820116820180604052508101906109da9190612db0565b6040519091506001600160a01b038216907fec97633905b1dbe9773a7536e9a986dcf89803e1193934b7b6d76587c68beb40905f90a29392505050565b5f546001600160a01b03163314610a5a575f5460405163521eb56d60e11b81523360048201526001600160a01b0390911660248201526044015b60405180910390fd5b6001600160a01b038116610a815760405163d92e233d60e01b815260040160405180910390fd5b7fe39e69948a448ce9239ad71b908b6c5b46225f86ffa735b25a8cd640803158558190556040516001600160a01b038216907f310ba5f1d2ed074b51e2eccd052a47ae9ab7c6b800d1fca3db3999d6a592ca03905f90a250565b6040516331a9108f60e11b8152600481018590525f9081906001600160a01b037f00000000000000000000000000000000000000000000000000000000000000001690636352211e90602401602060405180830381865afa158015610b42573d5f5f3e3d5ffd5b505050506040513d601f19601f82011682018060405250810190610b669190612db0565b9050336001600160a01b03821614610ba25760405163521eb56d60e11b81523360048201526001600160a01b0382166024820152604401610a51565b60a086901b6001600160a01b038816175f8181526002602052604081205490610bcf8a858b8b8b87611510565b9050610bdc8a828861236b565b81610be681612ddf565b5f858152600260205260408082208390555163dc4f8bc560e01b815291945091506001600160a01b037f0000000000000000000000000000000000000000000000000000000000000000169063dc4f8bc590610c4a908e908e908d90600401612e37565b6020604051808303815f875af1158015610c66573d5f5f3e3d5ffd5b505050506040513d601f19601f82011682018060405250810190610c8a9190612e76565b90508015610d43577f00000000000000000000000000000000000000000000000000000000000000006001600160a01b031663dff7672460016001600160601b03168b51610cd89190612e8f565b8d8d8d8d6040518663ffffffff1660e01b8152600401610cfb9493929190612edf565b60206040518083038185885af1158015610d17573d5f5f3e3d5ffd5b50505050506040513d601f19601f82011682018060405250810190610d3c9190612e76565b9550610ddb565b6040516337fdd9c960e21b81526001600160a01b037f0000000000000000000000000000000000000000000000000000000000000000169063dff76724903490610d97908f908f908f908f90600401612edf565b60206040518083038185885af1158015610db3573d5f5f3e3d5ffd5b50505050506040513d601f19601f82011682018060405250810190610dd89190612e76565b95505b898b6001600160a01b03167f47a2897a8312375227b416439e2cb5be833bfc439617a187a197ccda818c109f8b8b604051610e17929190612f23565b60405180910390a3505050505095945050505050565b60405163161e984960e31b8152336004820152602481018290525f90819081906001600160a01b037f0000000000000000000000000000000000000000000000000000000000000000169063b0f4c248906044016020604051808303815f875af1158015610e9d573d5f5f3e3d5ffd5b505050506040513d601f19601f82011682018060405250810190610ec19190612f47565b6040516352e82ce560e11b8152336004820152602481018690529091507f00000000000000000000000000000000000000000000000000000000000000006001600160a01b03169063a5d059ca906044015b60408051808303815f875af1158015610f2e573d5f5f3e3d5ffd5b505050506040513d601f19601f82011682018060405250810190610f529190612f5e565b90935091508015610f61578091505b50915091565b5f5f5f7f00000000000000000000000000000000000000000000000000000000000000006001600160a01b0316636352211e866040518263ffffffff1660e01b8152600401610fb891815260200190565b602060405180830381865afa158015610fd3573d5f5f3e3d5ffd5b505050506040513d601f19601f82011682018060405250810190610ff79190612db0565b9050336001600160a01b038216146110335760405163521eb56d60e11b81523360048201526001600160a01b0382166024820152604401610a51565b60a085901b6001600160a01b038716175f818152600160205260408120549061105e89858a856117a7565b905061106b89828961236b565b8161107581612ddf565b5f858152600160205260408082208390555163161e984960e31b81526001600160a01b038d81166004830152602482018d90529295509092507f00000000000000000000000000000000000000000000000000000000000000009091169063b0f4c248906044016020604051808303815f875af11580156110f8573d5f5f3e3d5ffd5b505050506040513d601f19601f8201168201806040525081019061111c9190612f47565b6040516352e82ce560e11b81526001600160a01b038c81166004830152602482018c90529192507f00000000000000000000000000000000000000000000000000000000000000009091169063a5d059ca9060440160408051808303815f875af115801561118c573d5f5f3e3d5ffd5b505050506040513d601f19601f820116820180604052508101906111b09190612f5e565b909750955080156111bf578095505b888a6001600160a01b03167f72cb3ccaf579e41be2521a188121c7a406c7b33d36cf08b8529e0bddf4f3c9ee886040516111fb91815260200190565b60405180910390a35050505050935093915050565b5f546001600160a01b0316331461124e575f5460405163521eb56d60e11b81523360048201526001600160a01b039091166024820152604401610a51565b5f805460ff60a01b1916815560405133917faeb196d352664784d1900b0e7414a8face7d29f4dae8c4b0cf68ed477423bbf491a2565b60405163542db44960e01b8152600481018290525f9081906001600160a01b037f0000000000000000000000000000000000000000000000000000000000000000169063542db449906024016020604051808303815f875af11580156112ec573d5f5f3e3d5ffd5b505050506040513d601f19601f820116820180604052508101906113109190612e76565b905080156113e2573460011461134957604051631c30abbb60e31b81523460048201526001602482015260448101849052606401610a51565b60405163388fdbed60e21b8152336004820152602481018490527f00000000000000000000000000000000000000000000000000000000000000006001600160a01b03169063e23f6fb49060019060440160206040518083038185885af11580156113b6573d5f5f3e3d5ffd5b50505050506040513d601f19601f820116820180604052508101906113db9190612e76565b9150611476565b60405163388fdbed60e21b8152336004820152602481018490527f00000000000000000000000000000000000000000000000000000000000000006001600160a01b03169063e23f6fb490349060440160206040518083038185885af115801561144e573d5f5f3e3d5ffd5b50505050506040513d601f19601f820116820180604052508101906114739190612e76565b91505b50919050565b5f546001600160a01b031633146114ba575f5460405163521eb56d60e11b81523360048201526001600160a01b039091166024820152604401610a51565b6004805473ffffffffffffffffffffffffffffffffffffffff19166001600160a01b0383169081179091556040517ff8e76e8a7c35558598a944d509f1ed32b104e77b1098ef1dfa5b97b86b09df8f905f90a250565b5f6115196125d8565b7fde64b4c9fac43e1615e938b03573b078604f57b4d2e78d3a27d7b20ba017e1268888888888604051602001611550929190612f23565b60408051601f198184030181528282528051602091820120908301969096526001600160a01b0394851690820152929091166060830152608082015260a081019190915260c0810184905260e001604051602081830303815290604052805190602001206040516020016115db92919061190160f01b81526002810192909252602282015260420190565b6040516020818303038152906040528051906020012090505b9695505050505050565b5f5f5f7f00000000000000000000000000000000000000000000000000000000000000006001600160a01b03166325e1afc3856040518263ffffffff1660e01b815260040161164f91815260200190565b6020604051808303815f875af115801561166b573d5f5f3e3d5ffd5b505050506040513d601f19601f8201168201806040525081019061168f9190612f47565b60405163ccc9305d60e01b8152336004820152602481018690529091507f00000000000000000000000000000000000000000000000000000000000000006001600160a01b03169063ccc9305d90604401610f13565b5f546001600160a01b03161561170d5760405162dc149f60e41b815260040160405180910390fd5b5f805473ffffffffffffffffffffffffffffffffffffffff191633179055565b5f546001600160a01b0316331461176b575f5460405163521eb56d60e11b81523360048201526001600160a01b039091166024820152604401610a51565b5f805460ff60a01b1916600160a01b17815560405133917f5ee71a369c8672edded508e624ffc9257fa1ae6886ef32905c18e60196bca39991a2565b5f6117b06125d8565b604080517f92b2008d2a99f26809ac9d1989fe92334aa84124767331997ba0eec16050ecf460208201526001600160a01b038089169282019290925290861660608201526080810185905260a0810184905260c0016040516020818303038152906040528051906020012060405160200161184292919061190160f01b81526002810192909252602282015260420190565b604051602081830303815290604052805190602001209050949350505050565b5f546001600160a01b031633146118a0575f5460405163521eb56d60e11b81523360048201526001600160a01b039091166024820152604401610a51565b6001600160a01b0381166118c75760405163d92e233d60e01b815260040160405180910390fd5b5f805473ffffffffffffffffffffffffffffffffffffffff19166001600160a01b038316908117825560405190917f4ffd725fc4a22075e9ec71c59edf9c38cdeb588a91b24fc5b61388c5be41282b91a250565b5f6001600160a01b0387166119435760405163d92e233d60e01b815260040160405180910390fd5b835173eeeeeeeeeeeeeeeeeeeeeeeeeeeeeeeeeeeeeeed196001600160a01b03891601611b04575f5b818110156119f0575f86828151811061198757611987612f88565b60200260200101515f015163ffffffff161180156119ca57508581815181106119b2576119b2612f88565b6020026020010151602001516001600160601b03165f145b156119e857604051637c946ed760e01b815260040160405180910390fd5b60010161196c565b5060405163197f329f60e31b81526001600160a01b037f0000000000000000000000000000000000000000000000000000000000000000169063cbf994f890611a479033908b908b908b908b908b90600401612fe7565b6020604051808303815f875af1158015611a63573d5f5f3e3d5ffd5b505050506040513d601f19601f82011682018060405250810190611a879190612e76565b604051630be6cc4b60e31b8152600481018590529092507f00000000000000000000000000000000000000000000000000000000000000006001600160a01b031690635f366258906024015f604051808303815f87803b158015611ae9575f5ffd5b505af1158015611afb573d5f5f3e3d5ffd5b50505050611d5b565b5f8167ffffffffffffffff811115611b1e57611b1e6126aa565b604051908082528060200260200182016040528015611b47578160200160208202803683370190505b5090505f5b82811015611c40575f878281518110611b6757611b67612f88565b60200260200101515f015163ffffffff161115611c3857868181518110611b9057611b90612f88565b6020026020010151602001516001600160601b03165f03611bc457604051637c946ed760e01b815260040160405180910390fd5b868181518110611bd657611bd6612f88565b6020026020010151602001516001600160601b0316828281518110611bfd57611bfd612f88565b6020026020010181815250506001878281518110611c1d57611c1d612f88565b6020908102919091018101516001600160601b039092169101525b600101611b4c565b5060405163197f329f60e31b81526001600160a01b037f0000000000000000000000000000000000000000000000000000000000000000169063cbf994f890611c979033908c908c908c908c908c90600401612fe7565b6020604051808303815f875af1158015611cb3573d5f5f3e3d5ffd5b505050506040513d601f19601f82011682018060405250810190611cd79190612e76565b6040516338f3a6a160e21b81529093506001600160a01b037f0000000000000000000000000000000000000000000000000000000000000000169063e3ce9a8490611d2c9087908d908c90879060040161303c565b5f604051808303815f87803b158015611d43575f5ffd5b505af1158015611d55573d5f5f3e3d5ffd5b50505050505b509695505050505050565b6004545f906001600160a01b031615611e0857600480546040516356a7b60760e01b81529182018690523360248301526001600160a01b0316906356a7b60790604401602060405180830381865afa158015611dc4573d5f5f3e3d5ffd5b505050506040513d601f19601f82011682018060405250810190611de89190612e76565b611e08576040516322ddebd960e21b815260048101859052602401610a51565b60405163dc4f8bc560e01b81525f906001600160a01b037f0000000000000000000000000000000000000000000000000000000000000000169063dc4f8bc590611e5a90339089908890600401612e37565b6020604051808303815f875af1158015611e76573d5f5f3e3d5ffd5b505050506040513d601f19601f82011682018060405250810190611e9a9190612e76565b90508015611f815783515f90611eb290600190612e8f565b9050803414611ee457604051637ebbcab960e11b81523460048201526024810182905260448101879052606401610a51565b6040516337fdd9c960e21b81526001600160a01b037f0000000000000000000000000000000000000000000000000000000000000000169063dff76724908390611f389033908b908b908b90600401612edf565b60206040518083038185885af1158015611f54573d5f5f3e3d5ffd5b50505050506040513d601f19601f82011682018060405250810190611f799190612e76565b925050612019565b6040516337fdd9c960e21b81526001600160a01b037f0000000000000000000000000000000000000000000000000000000000000000169063dff76724903490611fd59033908a908a908a90600401612edf565b60206040518083038185885af1158015611ff1573d5f5f3e3d5ffd5b50505050506040513d601f19601f820116820180604052508101906120169190612e76565b91505b509392505050565b5f8054600160a01b900460ff161561204c576040516313d0ff5960e31b815260040160405180910390fd5b6001600160a01b0386166120735760405163d92e233d60e01b815260040160405180910390fd5b73eeeeeeeeeeeeeeeeeeeeeeeeeeeeeeeeeeeeeeed196001600160a01b038716016121335760405163fbdeb3d760e01b81526001600160a01b037f0000000000000000000000000000000000000000000000000000000000000000169063fbdeb3d7906120ec908a9089908990899089906004016130a6565b6020604051808303815f875af1158015612108573d5f5f3e3d5ffd5b505050506040513d601f19601f8201168201806040525081019061212c9190612f47565b90506115f4565b82515f8167ffffffffffffffff81111561214f5761214f6126aa565b604051908082528060200260200182016040528015612178578160200160208202803683370190505b5090505f5b828110156122465785818151811061219757612197612f88565b6020026020010151602001516001600160601b03165f036121cb57604051637c946ed760e01b815260040160405180910390fd5b8581815181106121dd576121dd612f88565b6020026020010151602001516001600160601b031682828151811061220457612204612f88565b602002602001018181525050600186828151811061222457612224612f88565b6020908102919091018101516001600160601b0390921691015260010161217d565b5060405163fbdeb3d760e01b81526001600160a01b037f0000000000000000000000000000000000000000000000000000000000000000169063fbdeb3d79061229b908c908b908b908b908b906004016130a6565b6020604051808303815f875af11580156122b7573d5f5f3e3d5ffd5b505050506040513d601f19601f820116820180604052508101906122db9190612f47565b6040516338f3a6a160e21b81529093506001600160a01b037f0000000000000000000000000000000000000000000000000000000000000000169063e3ce9a8490611d2c9086908c908b90879060040161303c565b6001600160a01b0382165f90815260036020908152604080832084845290915290205460ff165b92915050565b5f6123666125d8565b905090565b6001600160a01b0383166123925760405163e63f571f60e01b815260040160405180910390fd5b80516041146123bb578051604051631d9f5a5f60e01b8152610a519183916041906004016130f8565b5f816040815181106123cf576123cf612f88565b016020015160f81c90506004811080156123f157506001600160a01b0384163b155b1561240457612401601b8261311c565b90505b602082015160408301515f60ff84166004036124d65750604051630b135d3f60e11b80825283916001600160a01b03831690631626ba7e9061244c908a908a90600401613135565b602060405180830381865afa158015612467573d5f5f3e3d5ffd5b505050506040513d601f19601f8201168201806040525081019061248b9190613155565b7fffffffff0000000000000000000000000000000000000000000000000000000016146124d15780868660405163694d54dd60e01b8152600401610a5193929190613194565b61258a565b8360ff1660050361252d57506001600160a01b0382165f908152600360209081526040808320888452909152902054829060ff166124d1578086866040516312cf832560e01b8152600401610a5193929190613194565b604080515f81526020810180835288905260ff861691810191909152606081018490526080810183905260019060a0016020604051602081039080840390855afa15801561257d573d5f5f3e3d5ffd5b5050506020604051035190505b866001600160a01b0316816001600160a01b0316146125cf5760405163a806216d60e01b81526001600160a01b03808316600483015288166024820152604401610a51565b50505050505050565b604080517f8b73c3c69bb8fe3d512ecc4cf759cc79239f7b179b0ffacaa9a75d522b39400f60208201527f0000000000000000000000000000000000000000000000000000000000000000918101919091527f000000000000000000000000000000000000000000000000000000000000000060608201524660808201523060a08201525f9060c00160405160208183030381529060405280519060200120905090565b5f6020828403121561268c575f5ffd5b5035919050565b6001600160a01b03811681146126a7575f5ffd5b50565b634e487b7160e01b5f52604160045260245ffd5b6040805190810167ffffffffffffffff811182821017156126e1576126e16126aa565b60405290565b604051601f8201601f1916810167ffffffffffffffff81118282101715612710576127106126aa565b604052919050565b5f82601f830112612727575f5ffd5b813567ffffffffffffffff811115612741576127416126aa565b612754601f8201601f19166020016126e7565b818152846020838601011115612768575f5ffd5b816020850160208301375f918101602001919091529392505050565b5f5f5f60608486031215612796575f5ffd5b8335925060208401356127a881612693565b9150604084013567ffffffffffffffff8111156127c3575f5ffd5b6127cf86828701612718565b9150509250925092565b5f602082840312156127e9575f5ffd5b81356127f481612693565b9392505050565b5f67ffffffffffffffff821115612814576128146126aa565b5060051b60200190565b5f82601f83011261282d575f5ffd5b813561284061283b826127fb565b6126e7565b8082825260208201915060208360051b860101925085831115612861575f5ffd5b602085015b8381101561288757803561287981612693565b835260209283019201612866565b5095945050505050565b803563ffffffff811681146128a4575f5ffd5b919050565b5f82601f8301126128b8575f5ffd5b81356128c661283b826127fb565b8082825260208201915060208360051b8601019250858311156128e7575f5ffd5b602085015b83811015612887576128fd81612891565b8352602092830192016128ec565b5f5f5f5f5f60a0868803121561291f575f5ffd5b853561292a81612693565b945060208601359350604086013567ffffffffffffffff81111561294c575f5ffd5b6129588882890161281e565b935050606086013567ffffffffffffffff811115612974575f5ffd5b612980888289016128a9565b925050608086013567ffffffffffffffff81111561299c575f5ffd5b6129a888828901612718565b9150509295509295909350565b5f5f5f606084860312156129c7575f5ffd5b83356129d281612693565b925060208401359150604084013567ffffffffffffffff8111156127c3575f5ffd5b5f5f60408385031215612a05575f5ffd5b8235612a1081612693565b946020939093013593505050565b5f5f5f5f5f5f60c08789031215612a33575f5ffd5b8635612a3e81612693565b95506020870135612a4e81612693565b945060408701359350606087013567ffffffffffffffff811115612a70575f5ffd5b612a7c89828a0161281e565b935050608087013567ffffffffffffffff811115612a98575f5ffd5b612aa489828a016128a9565b9699959850939692959460a09093013593505050565b5f81518084528060208401602086015e5f602082860101526020601f19601f83011685010191505092915050565b602081525f6127f46020830184612aba565b5f5f5f5f60808587031215612b0d575f5ffd5b8435612b1881612693565b93506020850135612b2881612693565b93969395505050506040820135916060013590565b5f82601f830112612b4c575f5ffd5b8135612b5a61283b826127fb565b8082825260208201915060208360061b860101925085831115612b7b575f5ffd5b602085015b838110156128875760408188031215612b97575f5ffd5b612b9f6126be565b612ba882612891565b815260208201356001600160601b0381168114612bc3575f5ffd5b6020828101919091529084529290920191604001612b80565b5f5f5f5f5f5f60c08789031215612bf1575f5ffd5b8635612bfc81612693565b955060208701359450604087013567ffffffffffffffff811115612c1e575f5ffd5b612c2a89828a016128a9565b945050606087013567ffffffffffffffff811115612c46575f5ffd5b612c5289828a01612b3d565b935050612c6160808801612891565b9598949750929591949360a090920135925050565b5f5f5f60608486031215612c88575f5ffd5b83359250602084013567ffffffffffffffff811115612ca5575f5ffd5b612cb18682870161281e565b925050604084013567ffffffffffffffff811115612ccd575f5ffd5b6127cf868287016128a9565b5f5f5f5f5f5f60c08789031215612cee575f5ffd5b8635612cf981612693565b95506020870135612d0981612693565b945060408701359350606087013567ffffffffffffffff811115612d2b575f5ffd5b612d3789828a016128a9565b935050608087013567ffffffffffffffff811115612d53575f5ffd5b612d5f89828a01612b3d565b925050612d6e60a08801612891565b90509295509295509295565b6001600160a01b03851681528360208201526001600160a01b0383166040820152608060608201525f6115f46080830184612aba565b5f60208284031215612dc0575f5ffd5b81516127f481612693565b634e487b7160e01b5f52601160045260245ffd5b5f60018201612df057612df0612dcb565b5060010190565b5f8151808452602084019350602083015f5b82811015612e2d57815163ffffffff16865260209586019590910190600101612e09565b5093949350505050565b6001600160a01b0384168152826020820152606060408201525f612e5e6060830184612df7565b95945050505050565b805180151581146128a4575f5ffd5b5f60208284031215612e86575f5ffd5b6127f482612e67565b808202811582820484141761235757612357612dcb565b5f8151808452602084019350602083015f5b82811015612e2d5781516001600160a01b0316865260209586019590910190600101612eb8565b6001600160a01b0385168152836020820152608060408201525f612f066080830185612ea6565b8281036060840152612f188185612df7565b979650505050505050565b604081525f612f356040830185612ea6565b82810360208401526120168185612df7565b5f60208284031215612f57575f5ffd5b5051919050565b5f5f60408385031215612f6f575f5ffd5b612f7883612e67565b6020939093015192949293505050565b634e487b7160e01b5f52603260045260245ffd5b5f8151808452602084019350602083015f5b82811015612e2d578151805163ffffffff1687526020908101516001600160601b03168188015260409096019590910190600101612fae565b6001600160a01b038716815285602082015260c060408201525f61300e60c0830187612df7565b82810360608401526130208187612f9c565b63ffffffff959095166080840152505060a00152949350505050565b8481526001600160a01b0384166020820152608060408201525f6130636080830185612df7565b8281036060840152835180825260208086019201905f5b8181101561309857835183526020938401939092019160010161307a565b509098975050505050505050565b6001600160a01b038616815284602082015260a060408201525f6130cd60a0830186612df7565b82810360608401526130df8186612f9c565b91505063ffffffff831660808301529695505050505050565b606081525f61310a6060830186612aba565b60208301949094525060400152919050565b60ff818116838216019081111561235757612357612dcb565b828152604060208201525f61314d6040830184612aba565b949350505050565b5f60208284031215613165575f5ffd5b81517fffffffff00000000000000000000000000000000000000000000000000000000811681146127f4575f5ffd5b6001600160a01b0384168152826020820152606060408201525f612e5e6060830184612aba56fea2646970667358221220e309a12d3d23edd8158eae4be58932c0e9212c93487c9e5e9a4c35eb7150232964736f6c634300081e0033",
        "linkReferences": {}
    },
    "methodIdentifiers": {
        "BOND_WRAPPER()": "56bda507",
        "DOMAIN_SEPARATOR_TYPE_HASH()": "f5dcb7bb",
        "ETH_TOKEN_ADDRESS()": "1878d1f1",
        "NAME()": "a3f4df7e",
        "PROXY_SERVICE_MANAGER()": "59a1d184",
        "REGISTER_AGENTS_TYPE_HASH()": "dc1d9525",
        "UNBOND_TYPE_HASH()": "94887911",
        "VERSION()": "ffa1ad74",
        "activateRegistration(uint256)": "4d5a5827",
        "changeImplementation(address)": "17a68dd8",
        "changeOwner(address)": "a6f9dae1",
        "create(address,address,bytes32,uint32[],(uint32,uint96)[],uint32)": "e42cdd7c",
        "deploy(uint256,address,bytes)": "0d0d57a8",
        "getDomainSeparator()": "ed24911d",
        "getOperatorRegisterAgentsNonce(address,uint256)": "a2e2ad7e",
        "getOperatorUnbondNonce(address,uint256)": "5405ecb9",
        "getRegisterAgentsHash(address,address,uint256,address[],uint32[],uint256)": "757b1156",
        "getUnbondHash(address,address,uint256,uint256)": "a6a7187f",
        "initialize()": "8129fc1c",
        "isOperatorHashApproved(address,bytes32)": "e5da0753",
        "mapOperatorApprovedHashes(address,bytes32)": "3af5d04e",
        "mapOperatorRegisterAgentsNonces(uint256)": "41b60677",
        "mapOperatorUnbondNonces(uint256)": "8a39fa16",
        "nameHash()": "f172a4ce",
        "operatorApproveHash(bytes32)": "07a3e0a8",
        "operatorWhitelist()": "21561bfc",
        "owner()": "8da5cb5b",
        "pause()": "8456cb59",
        "paused()": "5c975abb",
        "registerAgents(uint256,address[],uint32[])": "d03ca40a",
        "registerAgentsWithSignature(address,uint256,address[],uint32[],bytes)": "1ee81fb5",
        "serviceRegistry()": "cbcf252a",
        "serviceRegistryTokenUtility()": "28714051",
        "setOperatorWhitelist(address)": "599be46f",
        "terminate(uint256)": "7a828b28",
        "unbond(uint256)": "27de9e32",
        "unbondWithSignature(address,uint256,bytes)": "28f22342",
        "unpause()": "3f4ba83a",
        "update(address,bytes32,uint32[],(uint32,uint96)[],uint32,uint256)": "cbf994f8",
        "versionHash()": "152b5c0f"
    },
    "id": 7
}