{
  "_format": "hh-sol-artifact-1",
  "contractName": "AgentMech",
  "sourceName": "contracts/AgentMech.sol",
  "abi": [
    {
      "inputs": [
        {
          "internalType": "address",
          "name": "_serviceRegistry",
          "type": "address"
        },
        {
          "internalType": "address",
          "name": "_karma",
          "type": "address"
        }
      ],
      "stateMutability": "nonpayable",
      "type": "constructor"
    },
    {
      "inputs": [],
      "name": "AlreadyInitialized",
      "type": "error"
    },
    {
      "inputs": [
        {
          "internalType": "bytes32",
          "name": "requestId",
          "type": "bytes32"
        }
      ],
      "name": "AlreadyRequested",
      "type": "error"
    },
    {
      "inputs": [
        {
          "internalType": "bytes",
          "name": "signature",
          "type": "bytes"
        },
        {
          "internalType": "uint256",
          "name": "provided",
          "type": "uint256"
        },
        {
          "internalType": "uint256",
          "name": "expected",
          "type": "uint256"
        }
      ],
      "name": "IncorrectSignatureLength",
      "type": "error"
    },
    {
      "inputs": [
        {
          "internalType": "uint256",
          "name": "current",
          "type": "uint256"
        },
        {
          "internalType": "uint256",
          "name": "required",
          "type": "uint256"
        }
      ],
      "name": "InsufficientBalance",
      "type": "error"
    },
    {
      "inputs": [
        {
          "internalType": "uint256",
          "name": "amount",
          "type": "uint256"
        }
      ],
      "name": "NoDepositAllowed",
      "type": "error"
    },
    {
      "inputs": [
        {
          "internalType": "uint256",
          "name": "provided",
          "type": "uint256"
        },
        {
          "internalType": "uint256",
          "name": "min",
          "type": "uint256"
        },
        {
          "internalType": "uint256",
          "name": "max",
          "type": "uint256"
        }
      ],
      "name": "OutOfBounds",
      "type": "error"
    },
    {
      "inputs": [
        {
          "internalType": "uint256",
          "name": "provided",
          "type": "uint256"
        },
        {
          "internalType": "uint256",
          "name": "max",
          "type": "uint256"
        }
      ],
      "name": "Overflow",
      "type": "error"
    },
    {
      "inputs": [
        {
          "internalType": "address",
          "name": "sender",
          "type": "address"
        },
        {
          "internalType": "address",
          "name": "owner",
          "type": "address"
        }
      ],
      "name": "OwnerOnly",
      "type": "error"
    },
    {
      "inputs": [],
      "name": "ReentrancyGuard",
      "type": "error"
    },
    {
      "inputs": [
        {
          "internalType": "address",
          "name": "requester",
          "type": "address"
        },
        {
          "internalType": "bytes32",
          "name": "msgHash",
          "type": "bytes32"
        },
        {
          "internalType": "bytes",
          "name": "signature",
          "type": "bytes"
        }
      ],
      "name": "SignatureNotValidated",
      "type": "error"
    },
    {
      "inputs": [
        {
          "internalType": "address",
          "name": "token",
          "type": "address"
        },
        {
          "internalType": "address",
          "name": "from",
          "type": "address"
        },
        {
          "internalType": "address",
          "name": "to",
          "type": "address"
        },
        {
          "internalType": "uint256",
          "name": "amount",
          "type": "uint256"
        }
      ],
      "name": "TransferFailed",
      "type": "error"
    },
    {
      "inputs": [
        {
          "internalType": "address",
          "name": "account",
          "type": "address"
        }
      ],
      "name": "UnauthorizedAccount",
      "type": "error"
    },
    {
      "inputs": [
        {
          "internalType": "uint256",
          "name": "numValues1",
          "type": "uint256"
        },
        {
          "internalType": "uint256",
          "name": "numValues2",
          "type": "uint256"
        }
      ],
      "name": "WrongArrayLength",
      "type": "error"
    },
    {
      "inputs": [
        {
          "internalType": "bytes32",
          "name": "paymentType",
          "type": "bytes32"
        }
      ],
      "name": "WrongPaymentType",
      "type": "error"
    },
    {
      "inputs": [
        {
          "internalType": "uint256",
          "name": "state",
          "type": "uint256"
        },
        {
          "internalType": "uint256",
          "name": "serviceId",
          "type": "uint256"
        }
      ],
      "name": "WrongServiceState",
      "type": "error"
    },
    {
      "inputs": [],
      "name": "ZeroAddress",
      "type": "error"
    },
    {
      "inputs": [],
      "name": "ZeroValue",
      "type": "error"
    },
    {
      "anonymous": false,
      "inputs": [
        {
          "indexed": true,
          "internalType": "address",
          "name": "mech",
          "type": "address"
        },
        {
          "indexed": true,
          "internalType": "uint256",
          "name": "serviceId",
          "type": "uint256"
        },
        {
          "indexed": true,
          "internalType": "address",
          "name": "mechFactory",
          "type": "address"
        }
      ],
      "name": "CreateMech",
      "type": "event"
    },
    {
      "anonymous": false,
      "inputs": [
        {
          "indexed": true,
          "internalType": "address",
          "name": "mech",
          "type": "address"
        },
        {
          "indexed": true,
          "internalType": "address",
          "name": "mechServiceMultisig",
          "type": "address"
        },
        {
          "indexed": false,
          "internalType": "bytes32",
          "name": "requestId",
          "type": "bytes32"
        },
        {
          "indexed": false,
          "internalType": "uint256",
          "name": "deliveryRate",
          "type": "uint256"
        },
        {
          "indexed": false,
          "internalType": "bytes",
          "name": "requestData",
          "type": "bytes"
        },
        {
          "indexed": false,
          "internalType": "bytes",
          "name": "deliveryData",
          "type": "bytes"
        }
      ],
      "name": "Deliver",
      "type": "event"
    },
    {
      "anonymous": false,
      "inputs": [
        {
          "indexed": true,
          "internalType": "address",
          "name": "implementation",
          "type": "address"
        }
      ],
      "name": "ImplementationUpdated",
      "type": "event"
    },
    {
      "anonymous": false,
      "inputs": [
        {
          "indexed": true,
          "internalType": "address",
          "name": "deliveryMech",
          "type": "address"
        },
        {
          "indexed": false,
          "internalType": "address[]",
          "name": "requesters",
          "type": "address[]"
        },
        {
          "indexed": false,
          "internalType": "uint256",
          "name": "numDeliveries",
          "type": "uint256"
        },
        {
          "indexed": false,
          "internalType": "bytes32[]",
          "name": "requestIds",
          "type": "bytes32[]"
        },
        {
          "indexed": false,
          "internalType": "bool[]",
          "name": "deliveredRequests",
          "type": "bool[]"
        }
      ],
      "name": "MarketplaceDelivery",
      "type": "event"
    },
    {
      "anonymous": false,
      "inputs": [
        {
          "indexed": true,
          "internalType": "address",
          "name": "deliveryMech",
          "type": "address"
        },
        {
          "indexed": true,
          "internalType": "address",
          "name": "requester",
          "type": "address"
        },
        {
          "indexed": false,
          "internalType": "uint256",
          "name": "numDeliveries",
          "type": "uint256"
        },
        {
          "indexed": false,
          "internalType": "bytes32[]",
          "name": "requestIds",
          "type": "bytes32[]"
        }
      ],
      "name": "MarketplaceDeliveryWithSignatures",
      "type": "event"
    },
    {
      "anonymous": false,
      "inputs": [
        {
          "indexed": false,
          "internalType": "uint256",
          "name": "fee",
          "type": "uint256"
        },
        {
          "indexed": false,
          "internalType": "uint256",
          "name": "minResponseTimeout",
          "type": "uint256"
        },
        {
          "indexed": false,
          "internalType": "uint256",
          "name": "maxResponseTimeout",
          "type": "uint256"
        }
      ],
      "name": "MarketplaceParamsUpdated",
      "type": "event"
    },
    {
      "anonymous": false,
      "inputs": [
        {
          "indexed": true,
          "internalType": "address",
          "name": "priorityMech",
          "type": "address"
        },
        {
          "indexed": true,
          "internalType": "address",
          "name": "requester",
          "type": "address"
        },
        {
          "indexed": false,
          "internalType": "uint256",
          "name": "numRequests",
          "type": "uint256"
        },
        {
          "indexed": false,
          "internalType": "bytes32[]",
          "name": "requestIds",
          "type": "bytes32[]"
        },
        {
          "indexed": false,
          "internalType": "bytes[]",
          "name": "requestDatas",
          "type": "bytes[]"
        }
      ],
      "name": "MarketplaceRequest",
      "type": "event"
    },
    {
      "anonymous": false,
      "inputs": [
        {
          "indexed": true,
          "internalType": "address",
          "name": "owner",
          "type": "address"
        }
      ],
      "name": "OwnerUpdated",
      "type": "event"
    },
    {
      "anonymous": false,
      "inputs": [
        {
          "indexed": false,
          "internalType": "address[]",
          "name": "mechFactories",
          "type": "address[]"
        },
        {
          "indexed": false,
          "internalType": "bool[]",
          "name": "statuses",
          "type": "bool[]"
        }
      ],
      "name": "SetMechFactoryStatuses",
      "type": "event"
    },
    {
      "anonymous": false,
      "inputs": [
        {
          "indexed": false,
          "internalType": "bytes32[]",
          "name": "paymentTypes",
          "type": "bytes32[]"
        },
        {
          "indexed": false,
          "internalType": "address[]",
          "name": "balanceTrackers",
          "type": "address[]"
        }
      ],
      "name": "SetPaymentTypeBalanceTrackers",
      "type": "event"
    },
    {
      "inputs": [],
      "name": "DOMAIN_SEPARATOR_TYPE_HASH",
      "outputs": [
        {
          "internalType": "bytes32",
          "name": "",
          "type": "bytes32"
        }
      ],
      "stateMutability": "view",
      "type": "function"
    },
    {
      "inputs": [],
      "name": "MAX_FEE_FACTOR",
      "outputs": [
        {
          "internalType": "uint256",
          "name": "",
          "type": "uint256"
        }
      ],
      "stateMutability": "view",
      "type": "function"
    },
    {
      "inputs": [],
      "name": "MECH_MARKETPLACE_PROXY",
      "outputs": [
        {
          "internalType": "bytes32",
          "name": "",
          "type": "bytes32"
        }
      ],
      "stateMutability": "view",
      "type": "function"
    },
    {
      "inputs": [],
      "name": "VERSION",
      "outputs": [
        {
          "internalType": "string",
          "name": "",
          "type": "string"
        }
      ],
      "stateMutability": "view",
      "type": "function"
    },
    {
      "inputs": [],
      "name": "chainId",
      "outputs": [
        {
          "internalType": "uint256",
          "name": "",
          "type": "uint256"
        }
      ],
      "stateMutability": "view",
      "type": "function"
    },
    {
      "inputs": [
        {
          "internalType": "address",
          "name": "newImplementation",
          "type": "address"
        }
      ],
      "name": "changeImplementation",
      "outputs": [],
      "stateMutability": "nonpayable",
      "type": "function"
    },
    {
      "inputs": [
        {
          "internalType": "uint256",
          "name": "newFee",
          "type": "uint256"
        },
        {
          "internalType": "uint256",
          "name": "newMinResponseTimeout",
          "type": "uint256"
        },
        {
          "internalType": "uint256",
          "name": "newMaxResponseTimeout",
          "type": "uint256"
        }
      ],
      "name": "changeMarketplaceParams",
      "outputs": [],
      "stateMutability": "nonpayable",
      "type": "function"
    },
    {
      "inputs": [
        {
          "internalType": "address",
          "name": "newOwner",
          "type": "address"
        }
      ],
      "name": "changeOwner",
      "outputs": [],
      "stateMutability": "nonpayable",
      "type": "function"
    },
    {
      "inputs": [
        {
          "internalType": "address",
          "name": "mech",
          "type": "address"
        }
      ],
      "name": "checkMech",
      "outputs": [
        {
          "internalType": "address",
          "name": "multisig",
          "type": "address"
        }
      ],
      "stateMutability": "view",
      "type": "function"
    },
    {
      "inputs": [
        {
          "internalType": "uint256",
          "name": "serviceId",
          "type": "uint256"
        },
        {
          "internalType": "address",
          "name": "mechFactory",
          "type": "address"
        },
        {
          "internalType": "bytes",
          "name": "payload",
          "type": "bytes"
        }
      ],
      "name": "create",
      "outputs": [
        {
          "internalType": "address",
          "name": "mech",
          "type": "address"
        }
      ],
      "stateMutability": "nonpayable",
      "type": "function"
    },
    {
      "inputs": [
        {
          "internalType": "bytes32[]",
          "name": "requestIds",
          "type": "bytes32[]"
        },
        {
          "internalType": "uint256[]",
          "name": "deliveryRates",
          "type": "uint256[]"
        }
      ],
      "name": "deliverMarketplace",
      "outputs": [
        {
          "internalType": "bool[]",
          "name": "deliveredRequests",
          "type": "bool[]"
        }
      ],
      "stateMutability": "nonpayable",
      "type": "function"
    },
    {
      "inputs": [
        {
          "internalType": "address",
          "name": "requester",
          "type": "address"
        },
        {
          "components": [
            {
              "internalType": "bytes",
              "name": "requestData",
              "type": "bytes"
            },
            {
              "internalType": "bytes",
              "name": "signature",
              "type": "bytes"
            },
            {
              "internalType": "bytes",
              "name": "deliveryData",
              "type": "bytes"
            }
          ],
          "internalType": "struct DeliverWithSignature[]",
          "name": "deliverWithSignatures",
          "type": "tuple[]"
        },
        {
          "internalType": "uint256[]",
          "name": "deliveryRates",
          "type": "uint256[]"
        },
        {
          "internalType": "bytes",
          "name": "paymentData",
          "type": "bytes"
        }
      ],
      "name": "deliverMarketplaceWithSignatures",
      "outputs": [],
      "stateMutability": "nonpayable",
      "type": "function"
    },
    {
      "inputs": [],
      "name": "domainSeparator",
      "outputs": [
        {
          "internalType": "bytes32",
          "name": "",
          "type": "bytes32"
        }
      ],
      "stateMutability": "view",
      "type": "function"
    },
    {
      "inputs": [],
      "name": "fee",
      "outputs": [
        {
          "internalType": "uint256",
          "name": "",
          "type": "uint256"
        }
      ],
      "stateMutability": "view",
      "type": "function"
    },
    {
      "inputs": [],
      "name": "getDomainSeparator",
      "outputs": [
        {
          "internalType": "bytes32",
          "name": "",
          "type": "bytes32"
        }
      ],
      "stateMutability": "view",
      "type": "function"
    },
    {
      "inputs": [
        {
          "internalType": "address",
          "name": "mech",
          "type": "address"
        },
        {
          "internalType": "address",
          "name": "requester",
          "type": "address"
        },
        {
          "internalType": "bytes",
          "name": "data",
          "type": "bytes"
        },
        {
          "internalType": "uint256",
          "name": "deliveryRate",
          "type": "uint256"
        },
        {
          "internalType": "bytes32",
          "name": "paymentType",
          "type": "bytes32"
        },
        {
          "internalType": "uint256",
          "name": "nonce",
          "type": "uint256"
        }
      ],
      "name": "getRequestId",
      "outputs": [
        {
          "internalType": "bytes32",
          "name": "requestId",
          "type": "bytes32"
        }
      ],
      "stateMutability": "view",
      "type": "function"
    },
    {
      "inputs": [
        {
          "internalType": "bytes32",
          "name": "requestId",
          "type": "bytes32"
        }
      ],
      "name": "getRequestStatus",
      "outputs": [
        {
          "internalType": "enum MechMarketplace.RequestStatus",
          "name": "status",
          "type": "uint8"
        }
      ],
      "stateMutability": "view",
      "type": "function"
    },
    {
      "inputs": [
        {
          "internalType": "uint256",
          "name": "_fee",
          "type": "uint256"
        },
        {
          "internalType": "uint256",
          "name": "_minResponseTimeout",
          "type": "uint256"
        },
        {
          "internalType": "uint256",
          "name": "_maxResponseTimeout",
          "type": "uint256"
        }
      ],
      "name": "initialize",
      "outputs": [],
      "stateMutability": "nonpayable",
      "type": "function"
    },
    {
      "inputs": [],
      "name": "karma",
      "outputs": [
        {
          "internalType": "address",
          "name": "",
          "type": "address"
        }
      ],
      "stateMutability": "view",
      "type": "function"
    },
    {
      "inputs": [
        {
          "internalType": "address",
          "name": "",
          "type": "address"
        }
      ],
      "name": "mapAgentMechFactories",
      "outputs": [
        {
          "internalType": "address",
          "name": "",
          "type": "address"
        }
      ],
      "stateMutability": "view",
      "type": "function"
    },
    {
      "inputs": [
        {
          "internalType": "address",
          "name": "",
          "type": "address"
        }
      ],
      "name": "mapDeliveryCounts",
      "outputs": [
        {
          "internalType": "uint256",
          "name": "",
          "type": "uint256"
        }
      ],
      "stateMutability": "view",
      "type": "function"
    },
    {
      "inputs": [
        {
          "internalType": "address",
          "name": "",
          "type": "address"
        }
      ],
      "name": "mapMechDeliveryCounts",
      "outputs": [
        {
          "internalType": "uint256",
          "name": "",
          "type": "uint256"
        }
      ],
      "stateMutability": "view",
      "type": "function"
    },
    {
      "inputs": [
        {
          "internalType": "address",
          "name": "",
          "type": "address"
        }
      ],
      "name": "mapMechFactories",
      "outputs": [
        {
          "internalType": "bool",
          "name": "",
          "type": "bool"
        }
      ],
      "stateMutability": "view",
      "type": "function"
    },
    {
      "inputs": [
        {
          "internalType": "address",
          "name": "",
          "type": "address"
        }
      ],
      "name": "mapMechServiceDeliveryCounts",
      "outputs": [
        {
          "internalType": "uint256",
          "name": "",
          "type": "uint256"
        }
      ],
      "stateMutability": "view",
      "type": "function"
    },
    {
      "inputs": [
        {
          "internalType": "address",
          "name": "",
          "type": "address"
        }
      ],
      "name": "mapNonces",
      "outputs": [
        {
          "internalType": "uint256",
          "name": "",
          "type": "uint256"
        }
      ],
      "stateMutability": "view",
      "type": "function"
    },
    {
      "inputs": [
        {
          "internalType": "bytes32",
          "name": "",
          "type": "bytes32"
        }
      ],
      "name": "mapPaymentTypeBalanceTrackers",
      "outputs": [
        {
          "internalType": "address",
          "name": "",
          "type": "address"
        }
      ],
      "stateMutability": "view",
      "type": "function"
    },
    {
      "inputs": [
        {
          "internalType": "address",
          "name": "",
          "type": "address"
        }
      ],
      "name": "mapRequestCounts",
      "outputs": [
        {
          "internalType": "uint256",
          "name": "",
          "type": "uint256"
        }
      ],
      "stateMutability": "view",
      "type": "function"
    },
    {
      "inputs": [
        {
          "internalType": "bytes32",
          "name": "",
          "type": "bytes32"
        }
      ],
      "name": "mapRequestIdInfos",
      "outputs": [
        {
          "internalType": "address",
          "name": "priorityMech",
          "type": "address"
        },
        {
          "internalType": "address",
          "name": "deliveryMech",
          "type": "address"
        },
        {
          "internalType": "address",
          "name": "requester",
          "type": "address"
        },
        {
          "internalType": "uint256",
          "name": "responseTimeout",
          "type": "uint256"
        },
        {
          "internalType": "uint256",
          "name": "deliveryRate",
          "type": "uint256"
        },
        {
          "internalType": "bytes32",
          "name": "paymentType",
          "type": "bytes32"
        }
      ],
      "stateMutability": "view",
      "type": "function"
    },
    {
      "inputs": [],
      "name": "maxResponseTimeout",
      "outputs": [
        {
          "internalType": "uint256",
          "name": "",
          "type": "uint256"
        }
      ],
      "stateMutability": "view",
      "type": "function"
    },
    {
      "inputs": [],
      "name": "minResponseTimeout",
      "outputs": [
        {
          "internalType": "uint256",
          "name": "",
          "type": "uint256"
        }
      ],
      "stateMutability": "view",
      "type": "function"
    },
    {
      "inputs": [],
      "name": "numMechs",
      "outputs": [
        {
          "internalType": "uint256",
          "name": "",
          "type": "uint256"
        }
      ],
      "stateMutability": "view",
      "type": "function"
    },
    {
      "inputs": [],
      "name": "numTotalRequests",
      "outputs": [
        {
          "internalType": "uint256",
          "name": "",
          "type": "uint256"
        }
      ],
      "stateMutability": "view",
      "type": "function"
    },
    {
      "inputs": [],
      "name": "numUndeliveredRequests",
      "outputs": [
        {
          "internalType": "uint256",
          "name": "",
          "type": "uint256"
        }
      ],
      "stateMutability": "view",
      "type": "function"
    },
    {
      "inputs": [],
      "name": "owner",
      "outputs": [
        {
          "internalType": "address",
          "name": "",
          "type": "address"
        }
      ],
      "stateMutability": "view",
      "type": "function"
    },
    {
      "inputs": [
        {
          "internalType": "bytes",
          "name": "requestData",
          "type": "bytes"
        },
        {
          "internalType": "uint256",
          "name": "maxDeliveryRate",
          "type": "uint256"
        },
        {
          "internalType": "bytes32",
          "name": "paymentType",
          "type": "bytes32"
        },
        {
          "internalType": "address",
          "name": "priorityMech",
          "type": "address"
        },
        {
          "internalType": "uint256",
          "name": "responseTimeout",
          "type": "uint256"
        },
        {
          "internalType": "bytes",
          "name": "paymentData",
          "type": "bytes"
        }
      ],
      "name": "request",
      "outputs": [
        {
          "internalType": "bytes32",
          "name": "requestId",
          "type": "bytes32"
        }
      ],
      "stateMutability": "payable",
      "type": "function"
    },
    {
      "inputs": [
        {
          "internalType": "bytes[]",
          "name": "requestDatas",
          "type": "bytes[]"
        },
        {
          "internalType": "uint256",
          "name": "maxDeliveryRate",
          "type": "uint256"
        },
        {
          "internalType": "bytes32",
          "name": "paymentType",
          "type": "bytes32"
        },
        {
          "internalType": "address",
          "name": "priorityMech",
          "type": "address"
        },
        {
          "internalType": "uint256",
          "name": "responseTimeout",
          "type": "uint256"
        },
        {
          "internalType": "bytes",
          "name": "paymentData",
          "type": "bytes"
        }
      ],
      "name": "requestBatch",
      "outputs": [
        {
          "internalType": "bytes32[]",
          "name": "requestIds",
          "type": "bytes32[]"
        }
      ],
      "stateMutability": "payable",
      "type": "function"
    },
    {
      "inputs": [],
      "name": "serviceRegistry",
      "outputs": [
        {
          "internalType": "address",
          "name": "",
          "type": "address"
        }
      ],
      "stateMutability": "view",
      "type": "function"
    },
    {
      "inputs": [
        {
          "internalType": "address[]",
          "name": "mechFactories",
          "type": "address[]"
        },
        {
          "internalType": "bool[]",
          "name": "statuses",
          "type": "bool[]"
        }
      ],
      "name": "setMechFactoryStatuses",
      "outputs": [],
      "stateMutability": "nonpayable",
      "type": "function"
    },
    {
      "inputs": [
        {
          "internalType": "bytes32[]",
          "name": "paymentTypes",
          "type": "bytes32[]"
        },
        {
          "internalType": "address[]",
          "name": "balanceTrackers",
          "type": "address[]"
        }
      ],
      "name": "setPaymentTypeBalanceTrackers",
      "outputs": [],
      "stateMutability": "nonpayable",
      "type": "function"
    }
  ],
  "bytecode": "60e060405234801561000f575f5ffd5b5060405161475d38038061475d83398101604081905261002e9161009f565b6001600160a01b038216158061004b57506001600160a01b038116155b156100695760405163d92e233d60e01b815260040160405180910390fd5b6001600160a01b0391821660c0521660a052466080526100d0565b80516001600160a01b038116811461009a575f5ffd5b919050565b5f5f604083850312156100b0575f5ffd5b6100b983610084565b91506100c760208401610084565b90509250929050565b60805160a05160c0516146246101395f395f818161077401528181610ea401528181610f5d015261110c01525f818161051a01528181611a8801528181611cd9015281816128c701528181612951015261329a01525f818161066b015261229e01526146245ff3fe608060405260043610610290575f3560e01c80638da5cb5b11610165578063d64bf8b0116100c6578063ed24911d1161007c578063f6938b0911610062578063f6938b0914610899578063f698da25146108ac578063ffa1ad74146108c0575f5ffd5b8063ed24911d14610852578063f5dcb7bb14610866575f5ffd5b8063ded81286116100ac578063ded81286146107f5578063e0cb19e81461080a578063e8eca22d1461081f575f5ffd5b8063d64bf8b0146107c1578063ddca3f43146107e0575f5ffd5b8063bdf863171161011b578063c7b6a9f011610101578063c7b6a9f014610743578063cbcf252a14610763578063cbd6407a14610796575f5ffd5b8063bdf86317146106ed578063c69f6f9f14610702575f5ffd5b80639e592bb91161014b5780639e592bb91461068d578063a6f9dae1146106b9578063af4937fc146106d8575f5ffd5b80638da5cb5b1461062e5780639a8a05921461065a575f5ffd5b806345d076641161020f57806357c0762d116101c55780637ecb65f6116101ab5780637ecb65f61461053c57806380d859111461055b5780638342d20e1461057a575f5ffd5b806357c0762d146104ea57806374a8569b14610509575f5ffd5b80634ada3e61116101f55780634ada3e61146104755780634e894dd11461048a5780634eb07dd3146104a9575f5ffd5b806345d076641461042a57806346fbcbb214610456575f5ffd5b8063176b8b01116102645780631bbbeeb81161024a5780631bbbeeb8146103905780632685937b146103bb57806343be9643146103ff575f5ffd5b8063176b8b011461034657806317a68dd814610371575f5ffd5b8062427c5414610294578063087f08d4146102d25780630f41196a146102f35780631399991414610308575b5f5ffd5b34801561029f575f5ffd5b506102bf6102ae36600461378a565b600a6020525f908152604090205481565b6040519081526020015b60405180910390f35b3480156102dd575f5ffd5b506102f16102ec3660046137f4565b610915565b005b3480156102fe575f5ffd5b506102bf60025481565b348015610313575f5ffd5b5061033661032236600461378a565b600e6020525f908152604090205460ff1681565b60405190151581526020016102c9565b348015610351575f5ffd5b506102bf61036036600461378a565b600b6020525f908152604090205481565b34801561037c575f5ffd5b506102f161038b36600461378a565b610b3e565b34801561039b575f5ffd5b506102bf6103aa36600461378a565b60096020525f908152604090205481565b3480156103c6575f5ffd5b506103da6103d536600461378a565b610c65565b60405173ffffffffffffffffffffffffffffffffffffffff90911681526020016102c9565b34801561040a575f5ffd5b506102bf61041936600461378a565b600c6020525f908152604090205481565b348015610435575f5ffd5b50610449610444366004613860565b610d9b565b6040516102c99190613877565b348015610461575f5ffd5b506103da6104703660046139e5565b610e5c565b348015610480575f5ffd5b506102bf60055481565b348015610495575f5ffd5b506102f16104a4366004613a78565b611290565b3480156104b4575f5ffd5b506103da6104c3366004613860565b60106020525f908152604090205473ffffffffffffffffffffffffffffffffffffffff1681565b3480156104f5575f5ffd5b506102f1610504366004613b29565b611499565b348015610514575f5ffd5b506103da7f000000000000000000000000000000000000000000000000000000000000000081565b348015610547575f5ffd5b506102bf610556366004613b52565b61155d565b348015610566575f5ffd5b506102f1610575366004613b29565b611627565b348015610585575f5ffd5b506105e3610594366004613860565b600d6020525f908152604090208054600182015460028301546003840154600485015460059095015473ffffffffffffffffffffffffffffffffffffffff948516959385169490921692909186565b6040805173ffffffffffffffffffffffffffffffffffffffff9788168152958716602087015293909516928401929092526060830152608082015260a081019190915260c0016102c9565b348015610639575f5ffd5b506008546103da9073ffffffffffffffffffffffffffffffffffffffff1681565b348015610665575f5ffd5b506102bf7f000000000000000000000000000000000000000000000000000000000000000081565b348015610698575f5ffd5b506106ac6106a73660046137f4565b6116c0565b6040516102c99190613c07565b3480156106c4575f5ffd5b506102f16106d336600461378a565b611e7d565b3480156106e3575f5ffd5b506102bf61271081565b3480156106f8575f5ffd5b506102bf60045481565b34801561070d575f5ffd5b506103da61071c36600461378a565b600f6020525f908152604090205473ffffffffffffffffffffffffffffffffffffffff1681565b610756610751366004613c3c565b611fab565b6040516102c99190613d5f565b34801561076e575f5ffd5b506103da7f000000000000000000000000000000000000000000000000000000000000000081565b3480156107a1575f5ffd5b506102bf6107b036600461378a565b60116020525f908152604090205481565b3480156107cc575f5ffd5b506102f16107db3660046137f4565b612045565b3480156107eb575f5ffd5b506102bf60015481565b348015610800575f5ffd5b506102bf60035481565b348015610815575f5ffd5b506102bf60065481565b34801561082a575f5ffd5b506102bf7fe6194b93a7bff0a54130ed8cd277223408a77f3e48bb5104a9db96d334f962ca81565b34801561085d575f5ffd5b506102bf61229b565b348015610871575f5ffd5b506102bf7f8b73c3c69bb8fe3d512ecc4cf759cc79239f7b179b0ffacaa9a75d522b39400f81565b6102bf6108a7366004613d71565b6122d6565b3480156108b7575f5ffd5b506102bf5f5481565b3480156108cb575f5ffd5b506109086040518060400160405280600581526020017f312e312e3000000000000000000000000000000000000000000000000000000081525081565b6040516102c99190613e14565b60085473ffffffffffffffffffffffffffffffffffffffff16331461098d576008546040517fa43d6ada00000000000000000000000000000000000000000000000000000000815233600482015273ffffffffffffffffffffffffffffffffffffffff90911660248201526044015b60405180910390fd5b8281146109d0576040517f8151c1100000000000000000000000000000000000000000000000000000000081526004810184905260248101829052604401610984565b5f5b83811015610afa575f8585838181106109ed576109ed613e26565b9050602002016020810190610a02919061378a565b73ffffffffffffffffffffffffffffffffffffffff1603610a4f576040517fd92e233d00000000000000000000000000000000000000000000000000000000815260040160405180910390fd5b828282818110610a6157610a61613e26565b9050602002016020810190610a769190613e62565b600e5f878785818110610a8b57610a8b613e26565b9050602002016020810190610aa0919061378a565b73ffffffffffffffffffffffffffffffffffffffff16815260208101919091526040015f2080547fffffffffffffffffffffffffffffffffffffffffffffffffffffffffffffff00169115159190911790556001016109d2565b507f8cc6be981009d13170c616af494b7d671ed2d84b7e6891e4c8f21fe065c00dfc84848484604051610b309493929190613ec6565b60405180910390a150505050565b60085473ffffffffffffffffffffffffffffffffffffffff163314610bb1576008546040517fa43d6ada00000000000000000000000000000000000000000000000000000000815233600482015273ffffffffffffffffffffffffffffffffffffffff9091166024820152604401610984565b73ffffffffffffffffffffffffffffffffffffffff8116610bfe576040517fd92e233d00000000000000000000000000000000000000000000000000000000815260040160405180910390fd5b7fe6194b93a7bff0a54130ed8cd277223408a77f3e48bb5104a9db96d334f962ca81905560405173ffffffffffffffffffffffffffffffffffffffff8216907f310ba5f1d2ed074b51e2eccd052a47ae9ab7c6b800d1fca3db3999d6a592ca03905f90a250565b5f73ffffffffffffffffffffffffffffffffffffffff8216610cb3576040517fd92e233d00000000000000000000000000000000000000000000000000000000815260040160405180910390fd5b73ffffffffffffffffffffffffffffffffffffffff8281165f908152600f602052604090205416610d28576040517f32b2baa300000000000000000000000000000000000000000000000000000000815273ffffffffffffffffffffffffffffffffffffffff83166004820152602401610984565b8173ffffffffffffffffffffffffffffffffffffffff1663e7f43c686040518163ffffffff1660e01b8152600401602060405180830381865afa158015610d71573d5f5f3e3d5ffd5b505050506040513d601f19601f82011682018060405250810190610d959190613f20565b92915050565b5f818152600d60209081526040808320815160c081018352815473ffffffffffffffffffffffffffffffffffffffff90811680835260018401548216958301959095526002830154169281019290925260038101546060830152600481015460808301526005015460a082015290610e1557505f92915050565b602081015173ffffffffffffffffffffffffffffffffffffffff1615610e3e5750600392915050565b8060600151421115610e535750600292915050565b50600192915050565b6040517f6352211e000000000000000000000000000000000000000000000000000000008152600481018490525f90819073ffffffffffffffffffffffffffffffffffffffff7f00000000000000000000000000000000000000000000000000000000000000001690636352211e90602401602060405180830381865afa158015610ee9573d5f5f3e3d5ffd5b505050506040513d601f19601f82011682018060405250810190610f0d9190613f20565b90503373ffffffffffffffffffffffffffffffffffffffff82161461104c576040517f4236aff8000000000000000000000000000000000000000000000000000000008152600481018690525f907f000000000000000000000000000000000000000000000000000000000000000073ffffffffffffffffffffffffffffffffffffffff1690634236aff89060240160e060405180830381865afa158015610fb7573d5f5f3e3d5ffd5b505050506040513d601f19601f82011682018060405250810190610fdb9190613f4e565b50505050509150508073ffffffffffffffffffffffffffffffffffffffff163373ffffffffffffffffffffffffffffffffffffffff161461104a576040517f32b2baa3000000000000000000000000000000000000000000000000000000008152336004820152602401610984565b505b73ffffffffffffffffffffffffffffffffffffffff84165f908152600e602052604090205460ff166110c2576040517f32b2baa300000000000000000000000000000000000000000000000000000000815273ffffffffffffffffffffffffffffffffffffffff85166004820152602401610984565b6040517f0f7fb56d00000000000000000000000000000000000000000000000000000000815273ffffffffffffffffffffffffffffffffffffffff851690630f7fb56d90611138907f00000000000000000000000000000000000000000000000000000000000000009089908890600401613fe5565b6020604051808303815f875af1158015611154573d5f5f3e3d5ffd5b505050506040513d601f19601f820116820180604052508101906111789190613f20565b915073ffffffffffffffffffffffffffffffffffffffff82166111c7576040517fd92e233d00000000000000000000000000000000000000000000000000000000815260040160405180910390fd5b73ffffffffffffffffffffffffffffffffffffffff8281165f908152600f6020526040812080547fffffffffffffffffffffffff0000000000000000000000000000000000000000169287169290921790915560068054916112288361404f565b91905055508373ffffffffffffffffffffffffffffffffffffffff16858373ffffffffffffffffffffffffffffffffffffffff167f46e1ca45c09520471c43e2e88eca33bb51803011cfd456933629dcc645ecacd660405160405180910390a4509392505050565b6007546002036112cc576040517f8beb9d1600000000000000000000000000000000000000000000000000000000815260040160405180910390fd5b60026007558415806112de5750848314155b1561131f576040517f8151c1100000000000000000000000000000000000000000000000000000000081526004810186905260248101849052604401610984565b5f3373ffffffffffffffffffffffffffffffffffffffff16632763b8da6040518163ffffffff1660e01b8152600401602060405180830381865afa158015611369573d5f5f3e3d5ffd5b505050506040513d601f19601f8201168201806040525081019061138d9190614086565b90506113a5888261139e898b61409d565b88886123fb565b5f8181526010602052604090205473ffffffffffffffffffffffffffffffffffffffff1680611400576040517fd92e233d00000000000000000000000000000000000000000000000000000000815260040160405180910390fd5b6040517f6072dd2c00000000000000000000000000000000000000000000000000000000815273ffffffffffffffffffffffffffffffffffffffff821690636072dd2c9061145c9033908d908b908b908b908b906004016141dd565b5f604051808303815f87803b158015611473575f5ffd5b505af1158015611485573d5f5f3e3d5ffd5b505060016007555050505050505050505050565b60085473ffffffffffffffffffffffffffffffffffffffff16331461150c576008546040517fa43d6ada00000000000000000000000000000000000000000000000000000000815233600482015273ffffffffffffffffffffffffffffffffffffffff9091166024820152604401610984565b611517838383612a97565b60408051848152602081018490529081018290527f64d0972bd5d0c2828d80911b61084d86d61214c3081656ca3a720047a88320359060600160405180910390a1505050565b5f61156661229b565b85516020968701206040805130818a015273ffffffffffffffffffffffffffffffffffffffff9a8b1681830152989099166060890152608088015260a08701949094525060c085019190915260e08085019190915284518085039091018152610100840185528051908301207f19010000000000000000000000000000000000000000000000000000000000006101208501526101228401919091526101428084019190915283518084039091018152610162909201909252805191012090565b60085473ffffffffffffffffffffffffffffffffffffffff1615611677576040517f0dc149f000000000000000000000000000000000000000000000000000000000815260040160405180910390fd5b611682838383612a97565b61168a612bbd565b5f555050600880547fffffffffffffffffffffffff00000000000000000000000000000000000000001633179055506001600755565b60606007546002036116fe576040517f8beb9d1600000000000000000000000000000000000000000000000000000000815260040160405180910390fd5b60026007558315806117105750838214155b15611751576040517f8151c1100000000000000000000000000000000000000000000000000000000081526004810185905260248101839052604401610984565b5f61175b33610c65565b90505f858067ffffffffffffffff811115611778576117786138b6565b6040519080825280602002602001820160405280156117a1578160200160208202803683370190505b5093505f8167ffffffffffffffff8111156117be576117be6138b6565b6040519080825280602002602001820160405280156117e7578160200160208202803683370190505b5090505f8267ffffffffffffffff811115611804576118046138b6565b60405190808252806020026020018201604052801561182d578160200160208202803683370190505b5090505f3373ffffffffffffffffffffffffffffffffffffffff16632763b8da6040518163ffffffff1660e01b8152600401602060405180830381865afa15801561187a573d5f5f3e3d5ffd5b505050506040513d601f19601f8201168201806040525081019061189e9190614086565b90505f5b84811015611c2b575f600d5f8e8e858181106118c0576118c0613e26565b602090810292909201358352508101919091526040015f20805490915073ffffffffffffffffffffffffffffffffffffffff168061192a576040517fd92e233d00000000000000000000000000000000000000000000000000000000815260040160405180910390fd5b8382600501541461196a576040517f7fec71d700000000000000000000000000000000000000000000000000000000815260048101859052602401610984565b600182015473ffffffffffffffffffffffffffffffffffffffff1615611991575050611c23565b81600401548584815181106119a8576119a8613e26565b6020026020010181815250508483815181106119c6576119c6613e26565b60200260200101518c8c858181106119e0576119e0613e26565b9050602002013511156119f4575050611c23565b73ffffffffffffffffffffffffffffffffffffffff81163314611aeb578160030154421115611ae4576040517f4225d37a00000000000000000000000000000000000000000000000000000000815273ffffffffffffffffffffffffffffffffffffffff82811660048301527fffffffffffffffffffffffffffffffffffffffffffffffffffffffffffffffff60248301527f00000000000000000000000000000000000000000000000000000000000000001690634225d37a906044015f604051808303815f87803b158015611ac9575f5ffd5b505af1158015611adb573d5f5f3e3d5ffd5b50505050611aeb565b5050611c23565b6001820180547fffffffffffffffffffffffff000000000000000000000000000000000000000016331790556002820154865173ffffffffffffffffffffffffffffffffffffffff9190911690879085908110611b4a57611b4a613e26565b602002602001019073ffffffffffffffffffffffffffffffffffffffff16908173ffffffffffffffffffffffffffffffffffffffff1681525050600a5f878581518110611b9957611b99613e26565b602002602001015173ffffffffffffffffffffffffffffffffffffffff1673ffffffffffffffffffffffffffffffffffffffff1681526020019081526020015f205f815480929190611bea9061404f565b919050555060018a8481518110611c0357611c03613e26565b9115156020928302919091019091015287611c1d8161404f565b98505050505b6001016118a2565b508415611e13578460045f828254611c43919061427b565b9091555050335f908152600b602052604081208054879290611c6690849061428e565b909155505073ffffffffffffffffffffffffffffffffffffffff86165f908152600c602052604081208054879290611c9f90849061428e565b90915550506040517f4225d37a000000000000000000000000000000000000000000000000000000008152336004820152602481018690527f000000000000000000000000000000000000000000000000000000000000000073ffffffffffffffffffffffffffffffffffffffff1690634225d37a906044015f604051808303815f87803b158015611d2f575f5ffd5b505af1158015611d41573d5f5f3e3d5ffd5b5050505f8281526010602052604090205473ffffffffffffffffffffffffffffffffffffffff16905080611da1576040517fd92e233d00000000000000000000000000000000000000000000000000000000815260040160405180910390fd5b8073ffffffffffffffffffffffffffffffffffffffff166379e4afe833868b8e8e896040518763ffffffff1660e01b8152600401611de4969594939291906142e7565b5f604051808303815f87803b158015611dfb575f5ffd5b505af1158015611e0d573d5f5f3e3d5ffd5b50505050505b3373ffffffffffffffffffffffffffffffffffffffff167f894bb814a80f77e14febccf552394d95b38cc21a6dda1b0cf26434433fdf3e4c84878e8e8c604051611e61959493929190614384565b60405180910390a2505060016007555092979650505050505050565b60085473ffffffffffffffffffffffffffffffffffffffff163314611ef0576008546040517fa43d6ada00000000000000000000000000000000000000000000000000000000815233600482015273ffffffffffffffffffffffffffffffffffffffff9091166024820152604401610984565b73ffffffffffffffffffffffffffffffffffffffff8116611f3d576040517fd92e233d00000000000000000000000000000000000000000000000000000000815260040160405180910390fd5b600880547fffffffffffffffffffffffff00000000000000000000000000000000000000001673ffffffffffffffffffffffffffffffffffffffff83169081179091556040517f4ffd725fc4a22075e9ec71c59edf9c38cdeb588a91b24fc5b61388c5be41282b905f90a250565b6060600754600203611fe9576040517f8beb9d1600000000000000000000000000000000000000000000000000000000815260040160405180910390fd5b6002600781905550612034888888888888888080601f0160208091040260200160405190810160405280939291908181526020018383808284375f92019190915250612cbb92505050565b600160075598975050505050505050565b60085473ffffffffffffffffffffffffffffffffffffffff1633146120b8576008546040517fa43d6ada00000000000000000000000000000000000000000000000000000000815233600482015273ffffffffffffffffffffffffffffffffffffffff9091166024820152604401610984565b8281146120fb576040517f8151c1100000000000000000000000000000000000000000000000000000000081526004810184905260248101829052604401610984565b5f5b838110156122655784848281811061211757612117613e26565b905060200201355f5f1b03612158576040517f7c946ed700000000000000000000000000000000000000000000000000000000815260040160405180910390fd5b5f83838381811061216b5761216b613e26565b9050602002016020810190612180919061378a565b73ffffffffffffffffffffffffffffffffffffffff16036121cd576040517fd92e233d00000000000000000000000000000000000000000000000000000000815260040160405180910390fd5b8282828181106121df576121df613e26565b90506020020160208101906121f4919061378a565b60105f87878581811061220957612209613e26565b9050602002013581526020019081526020015f205f6101000a81548173ffffffffffffffffffffffffffffffffffffffff021916908373ffffffffffffffffffffffffffffffffffffffff1602179055508060010190506120fd565b507fa9759667b17e564f26a0d91ce1c5e4a1dc3910aee992dc3f5f4da0a59d48f3cb84848484604051610b3094939291906143cf565b5f7f000000000000000000000000000000000000000000000000000000000000000046146122d0576122cb612bbd565b905090565b505f5490565b5f600754600203612313576040517f8beb9d1600000000000000000000000000000000000000000000000000000000815260040160405180910390fd5b60026007556040805160018082528183019092525f91816020015b606081526020019060019003908161232e5750506040805160018082528183019092529192505f91906020808301908036833701905050905089825f8151811061237a5761237a613e26565b60200260200101819052506123c8828a8a8a8a8a8a8080601f0160208091040260200160405190810160405280939291908181526020018383808284375f92019190915250612cbb92505050565b9050805f815181106123dc576123dc613e26565b6020026020010151925060016007819055505050979650505050505050565b5f61240533610c65565b84519091505f8167ffffffffffffffff811115612424576124246138b6565b60405190808252806020026020018201604052801561244d578160200160208202803683370190505b5073ffffffffffffffffffffffffffffffffffffffff89165f908152601160205260408120549192505b838110156127815787818151811061249157612491613e26565b60200260200101515f0151515f036124d5576040517f7c946ed700000000000000000000000000000000000000000000000000000000815260040160405180910390fd5b612517338b8a84815181106124ec576124ec613e26565b60200260200101515f01518a8a8681811061250957612509613e26565b905060200201358d8761155d565b83828151811061252957612529613e26565b6020026020010181815250506125768a84838151811061254b5761254b613e26565b60200260200101518a848151811061256557612565613e26565b602002602001015160200151613441565b5f600d5f85848151811061258c5761258c613e26565b60209081029190910181015182528101919091526040015f20805490915073ffffffffffffffffffffffffffffffffffffffff1615612614578382815181106125d7576125d7613e26565b60200260200101516040517fec0db69800000000000000000000000000000000000000000000000000000000815260040161098491815260200190565b8054337fffffffffffffffffffffffff0000000000000000000000000000000000000000918216811783556001830180548316909117905560028201805490911673ffffffffffffffffffffffffffffffffffffffff8d1617905587878381811061268157612681613e26565b6020029190910135600483015550600581018a9055826126a08161404f565b9350508573ffffffffffffffffffffffffffffffffffffffff163373ffffffffffffffffffffffffffffffffffffffff167fb52c441d5d16afb15432ee2f89555eb92952fedce6726bbcb8aba672d49d28f686858151811061270457612704613e26565b60200260200101518b8b8781811061271e5761271e613e26565b905060200201358d878151811061273757612737613e26565b60200260200101515f01518e888151811061275457612754613e26565b6020026020010151604001516040516127709493929190614400565b60405180910390a350600101612477565b5073ffffffffffffffffffffffffffffffffffffffff89165f9081526011602090815260408083208490556009909152812080548592906127c390849061428e565b909155505073ffffffffffffffffffffffffffffffffffffffff89165f908152600a6020526040812080548592906127fc90849061428e565b9091555050335f908152600b60205260408120805485929061281f90849061428e565b909155505073ffffffffffffffffffffffffffffffffffffffff84165f908152600c60205260408120805485929061285890849061428e565b925050819055508260055f828254612870919061428e565b90915550506040517f55e7d04400000000000000000000000000000000000000000000000000000000815273ffffffffffffffffffffffffffffffffffffffff8a81166004830152336024830152604482018590527f000000000000000000000000000000000000000000000000000000000000000016906355e7d044906064015f604051808303815f87803b158015612908575f5ffd5b505af115801561291a573d5f5f3e3d5ffd5b50506040517f4225d37a000000000000000000000000000000000000000000000000000000008152336004820152602481018690527f000000000000000000000000000000000000000000000000000000000000000073ffffffffffffffffffffffffffffffffffffffff169250634225d37a91506044015f604051808303815f87803b1580156129a9575f5ffd5b505af11580156129bb573d5f5f3e3d5ffd5b50506040517f9680b60300000000000000000000000000000000000000000000000000000000815260048101869052339250639680b60391506024015f604051808303815f87803b158015612a0e575f5ffd5b505af1158015612a20573d5f5f3e3d5ffd5b505050508873ffffffffffffffffffffffffffffffffffffffff163373ffffffffffffffffffffffffffffffffffffffff167ff980d83e9456535b0f9f3634d171df2a5f052f5d5e706b75d30c4e0433da927d845185604051612a84929190614430565b60405180910390a3505050505050505050565b811580612aa2575080155b15612ad9576040517f7c946ed700000000000000000000000000000000000000000000000000000000815260040160405180910390fd5b612710831115612b20576040517f7ae59685000000000000000000000000000000000000000000000000000000008152600481018490526127106024820152604401610984565b80821115612b64576040517f7ae596850000000000000000000000000000000000000000000000000000000081526004810183905260248101829052604401610984565b63ffffffff811115612baf576040517f7ae596850000000000000000000000000000000000000000000000000000000081526004810182905263ffffffff6024820152604401610984565b600192909255600255600355565b5f7f8b73c3c69bb8fe3d512ecc4cf759cc79239f7b179b0ffacaa9a75d522b39400f7ff376b6313a0837eb351511248cfe7dcc1cd26c49b8e0a47e1eb369dd62c425db6040518060400160405280600581526020017f312e312e30000000000000000000000000000000000000000000000000000000815250604051602001612c469190613e14565b604080517fffffffffffffffffffffffffffffffffffffffffffffffffffffffffffffffe081840301815282825280516020918201209083019490945281019190915260608101919091524660808201523060a082015260c00160405160208183030381529060405280519060200120905090565b606063ffffffff612ccc428561428e565b1115612d1c57612cdc428461428e565b6040517f7ae59685000000000000000000000000000000000000000000000000000000008152600481019190915263ffffffff6024820152604401610984565b600254831080612d2d575060035483115b15612d7a576002546003546040517feb373cfe0000000000000000000000000000000000000000000000000000000081526004810186905260248101929092526044820152606401610984565b851580612d85575084155b15612dbc576040517f7c946ed700000000000000000000000000000000000000000000000000000000815260040160405180910390fd5b86515f819003612df8576040517f7c946ed700000000000000000000000000000000000000000000000000000000815260040160405180910390fd5b612e0185610c65565b508067ffffffffffffffff811115612e1b57612e1b6138b6565b604051908082528060200260200182016040528015612e44578160200160208202803683370190505b5091505f8573ffffffffffffffffffffffffffffffffffffffff16632cc0fcb26040518163ffffffff1660e01b8152600401602060405180830381865afa158015612e91573d5f5f3e3d5ffd5b505050506040513d601f19601f82011682018060405250810190612eb59190614086565b905087811115612efb576040517f7ae596850000000000000000000000000000000000000000000000000000000081526004810182905260248101899052604401610984565b8573ffffffffffffffffffffffffffffffffffffffff16632763b8da6040518163ffffffff1660e01b8152600401602060405180830381865afa158015612f44573d5f5f3e3d5ffd5b505050506040513d601f19601f82011682018060405250810190612f689190614086565b8714612fa3576040517f7fec71d700000000000000000000000000000000000000000000000000000000815260048101889052602401610984565b335f90815260116020526040812054905b8a51811015613156578a8181518110612fcf57612fcf613e26565b6020026020010151515f03613010576040517f7c946ed700000000000000000000000000000000000000000000000000000000815260040160405180910390fd5b61303788338d848151811061302757613027613e26565b6020026020010151868d8761155d565b85828151811061304957613049613e26565b6020026020010181815250505f600d5f87848151811061306b5761306b613e26565b60209081029190910181015182528101919091526040015f20805490915073ffffffffffffffffffffffffffffffffffffffff16156130b6578582815181106125d7576125d7613e26565b80547fffffffffffffffffffffffff00000000000000000000000000000000000000001673ffffffffffffffffffffffffffffffffffffffff8a161781556130fe428961428e565b60038201556002810180547fffffffffffffffffffffffff0000000000000000000000000000000000000000163317905560048101849055600581018a9055826131478161404f565b93505050806001019050612fb4565b50335f9081526011602090815260408083208490558a8352601090915290205473ffffffffffffffffffffffffffffffffffffffff16806131c3576040517fd92e233d00000000000000000000000000000000000000000000000000000000815260040160405180910390fd5b6040517f38603a3900000000000000000000000000000000000000000000000000000000815273ffffffffffffffffffffffffffffffffffffffff8216906338603a3990349061321d903390899089908d90600401614450565b5f604051808303818588803b158015613234575f5ffd5b505af1158015613246573d5f5f3e3d5ffd5b50506040517f55e7d04400000000000000000000000000000000000000000000000000000000815233600482015273ffffffffffffffffffffffffffffffffffffffff8c81166024830152604482018990527f00000000000000000000000000000000000000000000000000000000000000001693506355e7d044925060640190505f604051808303815f87803b1580156132df575f5ffd5b505af11580156132f1573d5f5f3e3d5ffd5b5050335f908152600960205260408120805488945090925061331490849061428e565b925050819055508360045f82825461332c919061428e565b925050819055508360055f828254613344919061428e565b90915550506040517fbe2641de00000000000000000000000000000000000000000000000000000000815273ffffffffffffffffffffffffffffffffffffffff89169063be2641de9061339d9088908f9060040161450c565b5f604051808303815f87803b1580156133b4575f5ffd5b505af11580156133c6573d5f5f3e3d5ffd5b505050503373ffffffffffffffffffffffffffffffffffffffff168873ffffffffffffffffffffffffffffffffffffffff167fb1ea35a385d4517ac7b3fb0eac4f62db4f0c5b4cf8b7aef789bbd1db097edb2586888f60405161342b93929190614530565b60405180910390a3505050509695505050505050565b73ffffffffffffffffffffffffffffffffffffffff831661348e576040517fd92e233d00000000000000000000000000000000000000000000000000000000815260040160405180910390fd5b73ffffffffffffffffffffffffffffffffffffffff83163b156135a4576040517f1626ba7e000000000000000000000000000000000000000000000000000000008082529073ffffffffffffffffffffffffffffffffffffffff851690631626ba7e90613501908690869060040161455a565b602060405180830381865afa15801561351c573d5f5f3e3d5ffd5b505050506040513d601f19601f820116820180604052508101906135409190614572565b7fffffffff00000000000000000000000000000000000000000000000000000000160361356c57505050565b8282826040517f02d51bb200000000000000000000000000000000000000000000000000000000815260040161098493929190613fe5565b80516041146135e65780516040517f1d9f5a5f0000000000000000000000000000000000000000000000000000000081526109849183916041906004016145b1565b5f816040815181106135fa576135fa613e26565b016020015160f81c9050600481101561361b57613618601b826145d5565b90505b602082015160408301517f7fffffffffffffffffffffffffffffff5d576e7357a4501ddfe92f46681b20a0811115613685578585856040517f02d51bb200000000000000000000000000000000000000000000000000000000815260040161098493929190613fe5565b604080515f8082526020820180845288905260ff861692820192909252606081018490526080810183905260019060a0016020604051602081039080840390855afa1580156136d6573d5f5f3e3d5ffd5b5050506020604051035190508673ffffffffffffffffffffffffffffffffffffffff168173ffffffffffffffffffffffffffffffffffffffff161461374d578686866040517f02d51bb200000000000000000000000000000000000000000000000000000000815260040161098493929190613fe5565b50505050505050565b73ffffffffffffffffffffffffffffffffffffffff81168114613777575f5ffd5b50565b803561378581613756565b919050565b5f6020828403121561379a575f5ffd5b81356137a581613756565b9392505050565b5f5f83601f8401126137bc575f5ffd5b50813567ffffffffffffffff8111156137d3575f5ffd5b6020830191508360208260051b85010111156137ed575f5ffd5b9250929050565b5f5f5f5f60408587031215613807575f5ffd5b843567ffffffffffffffff81111561381d575f5ffd5b613829878288016137ac565b909550935050602085013567ffffffffffffffff811115613848575f5ffd5b613854878288016137ac565b95989497509550505050565b5f60208284031215613870575f5ffd5b5035919050565b60208101600483106138b0577f4e487b71000000000000000000000000000000000000000000000000000000005f52602160045260245ffd5b91905290565b7f4e487b71000000000000000000000000000000000000000000000000000000005f52604160045260245ffd5b6040516060810167ffffffffffffffff81118282101715613906576139066138b6565b60405290565b604051601f82017fffffffffffffffffffffffffffffffffffffffffffffffffffffffffffffffe016810167ffffffffffffffff81118282101715613953576139536138b6565b604052919050565b5f82601f83011261396a575f5ffd5b813567ffffffffffffffff811115613984576139846138b6565b6139b560207fffffffffffffffffffffffffffffffffffffffffffffffffffffffffffffffe0601f8401160161390c565b8181528460208386010111156139c9575f5ffd5b816020850160208301375f918101602001919091529392505050565b5f5f5f606084860312156139f7575f5ffd5b833592506020840135613a0981613756565b9150604084013567ffffffffffffffff811115613a24575f5ffd5b613a308682870161395b565b9150509250925092565b5f5f83601f840112613a4a575f5ffd5b50813567ffffffffffffffff811115613a61575f5ffd5b6020830191508360208285010111156137ed575f5ffd5b5f5f5f5f5f5f5f6080888a031215613a8e575f5ffd5b8735613a9981613756565b9650602088013567ffffffffffffffff811115613ab4575f5ffd5b613ac08a828b016137ac565b909750955050604088013567ffffffffffffffff811115613adf575f5ffd5b613aeb8a828b016137ac565b909550935050606088013567ffffffffffffffff811115613b0a575f5ffd5b613b168a828b01613a3a565b989b979a50959850939692959293505050565b5f5f5f60608486031215613b3b575f5ffd5b505081359360208301359350604090920135919050565b5f5f5f5f5f5f60c08789031215613b67575f5ffd5b8635613b7281613756565b95506020870135613b8281613756565b9450604087013567ffffffffffffffff811115613b9d575f5ffd5b613ba989828a0161395b565b969995985095966060810135965060808101359560a090910135945092505050565b5f8151808452602084019350602083015f5b82811015613bfd5781511515865260209586019590910190600101613bdd565b5093949350505050565b602081525f6137a56020830184613bcb565b5f67ffffffffffffffff821115613c3257613c326138b6565b5060051b60200190565b5f5f5f5f5f5f5f60c0888a031215613c52575f5ffd5b873567ffffffffffffffff811115613c68575f5ffd5b8801601f81018a13613c78575f5ffd5b8035613c8b613c8682613c19565b61390c565b8082825260208201915060208360051b85010192508c831115613cac575f5ffd5b602084015b83811015613ced57803567ffffffffffffffff811115613ccf575f5ffd5b613cde8f60208389010161395b565b84525060209283019201613cb1565b5099505050506020880135955060408801359450613d0d6060890161377a565b93506080880135925060a088013567ffffffffffffffff811115613b0a575f5ffd5b5f8151808452602084019350602083015f5b82811015613bfd578151865260209586019590910190600101613d41565b602081525f6137a56020830184613d2f565b5f5f5f5f5f5f5f60c0888a031215613d87575f5ffd5b873567ffffffffffffffff811115613d9d575f5ffd5b613da98a828b0161395b565b97505060208801359550604088013594506060880135613d0d81613756565b5f81518084528060208401602086015e5f6020828601015260207fffffffffffffffffffffffffffffffffffffffffffffffffffffffffffffffe0601f83011685010191505092915050565b602081525f6137a56020830184613dc8565b7f4e487b71000000000000000000000000000000000000000000000000000000005f52603260045260245ffd5b80358015158114613785575f5ffd5b5f60208284031215613e72575f5ffd5b6137a582613e53565b8183526020830192505f815f5b84811015613bfd578135613e9b81613756565b73ffffffffffffffffffffffffffffffffffffffff1686526020958601959190910190600101613e88565b604081525f613ed9604083018688613e7b565b8281036020808501919091528482528591015f5b85811015613f1457613efe83613e53565b1515825260209283019290910190600101613eed565b50979650505050505050565b5f60208284031215613f30575f5ffd5b81516137a581613756565b805163ffffffff81168114613785575f5ffd5b5f5f5f5f5f5f5f60e0888a031215613f64575f5ffd5b87516bffffffffffffffffffffffff81168114613f7f575f5ffd5b6020890151909750613f9081613756565b60408901519096509450613fa660608901613f3b565b9350613fb460808901613f3b565b9250613fc260a08901613f3b565b915060c088015160068110613fd5575f5ffd5b8091505092959891949750929550565b73ffffffffffffffffffffffffffffffffffffffff84168152826020820152606060408201525f6140196060830184613dc8565b95945050505050565b7f4e487b71000000000000000000000000000000000000000000000000000000005f52601160045260245ffd5b5f7fffffffffffffffffffffffffffffffffffffffffffffffffffffffffffffffff820361407f5761407f614022565b5060010190565b5f60208284031215614096575f5ffd5b5051919050565b5f6140aa613c8684613c19565b8381526020810190600585901b8401368111156140c5575f5ffd5b845b8181101561418957803567ffffffffffffffff8111156140e5575f5ffd5b860160603682900312156140f7575f5ffd5b6140ff6138e3565b813567ffffffffffffffff811115614115575f5ffd5b6141213682850161395b565b825250602082013567ffffffffffffffff81111561413d575f5ffd5b6141493682850161395b565b602083015250604082013567ffffffffffffffff811115614168575f5ffd5b6141743682850161395b565b604083015250855250602093840193016140c7565b509095945050505050565b8183525f7f07ffffffffffffffffffffffffffffffffffffffffffffffffffffffffffffff8311156141c4575f5ffd5b8260051b80836020870137939093016020019392505050565b73ffffffffffffffffffffffffffffffffffffffff8716815273ffffffffffffffffffffffffffffffffffffffff86166020820152608060408201525f614228608083018688614194565b8281036060840152838152838560208301375f6020858301015260207fffffffffffffffffffffffffffffffffffffffffffffffffffffffffffffffe0601f860116820101915050979650505050505050565b81810381811115610d9557610d95614022565b80820180821115610d9557610d95614022565b5f8151808452602084019350602083015f5b82811015613bfd57815173ffffffffffffffffffffffffffffffffffffffff168652602095860195909101906001016142b3565b73ffffffffffffffffffffffffffffffffffffffff8716815260a060208201525f61431560a08301886142a1565b82810360408401526143278188613bcb565b9050828103606084015261433c818688614194565b8381036080850152845180825260208087019350909101905f5b81811015614374578351835260209384019390920191600101614356565b50909a9950505050505050505050565b608081525f61439660808301886142a1565b86602084015282810360408401526143af818688614194565b905082810360608401526143c38185613bcb565b98975050505050505050565b604081525f6143e2604083018688614194565b82810360208401526143f5818587613e7b565b979650505050505050565b848152836020820152608060408201525f61441e6080830185613dc8565b82810360608401526143f58185613dc8565b828152604060208201525f6144486040830184613d2f565b949350505050565b73ffffffffffffffffffffffffffffffffffffffff85168152836020820152826040820152608060608201525f61448a6080830184613dc8565b9695505050505050565b5f82825180855260208501945060208160051b830101602085015f5b83811015614500577fffffffffffffffffffffffffffffffffffffffffffffffffffffffffffffffe08584030188526144ea838351613dc8565b60209889019890935091909101906001016144b0565b50909695505050505050565b604081525f61451e6040830185613d2f565b82810360208401526140198185614494565b838152606060208201525f6145486060830185613d2f565b828103604084015261448a8185614494565b828152604060208201525f6144486040830184613dc8565b5f60208284031215614582575f5ffd5b81517fffffffff00000000000000000000000000000000000000000000000000000000811681146137a5575f5ffd5b606081525f6145c36060830186613dc8565b60208301949094525060400152919050565b60ff8181168382160190811115610d9557610d9561402256fea2646970667358221220b3ade762d28ef4df2564d583f30c6656002c2a634f4c111c7799c86bd7fc5d6364736f6c634300081e00330000000000000000000000009338b5153ae39bb89f50468e608ed9d764b755fd0000000000000000000000002c602c7b590abfc148d8c7c5e4d58c56be1d304a",
  "deployedBytecode": "0x608060405260043610610290575f3560e01c80638da5cb5b11610165578063d64bf8b0116100c6578063ed24911d1161007c578063f6938b0911610062578063f6938b0914610899578063f698da25146108ac578063ffa1ad74146108c0575f5ffd5b8063ed24911d14610852578063f5dcb7bb14610866575f5ffd5b8063ded81286116100ac578063ded81286146107f5578063e0cb19e81461080a578063e8eca22d1461081f575f5ffd5b8063d64bf8b0146107c1578063ddca3f43146107e0575f5ffd5b8063bdf863171161011b578063c7b6a9f011610101578063c7b6a9f014610743578063cbcf252a14610763578063cbd6407a14610796575f5ffd5b8063bdf86317146106ed578063c69f6f9f14610702575f5ffd5b80639e592bb91161014b5780639e592bb91461068d578063a6f9dae1146106b9578063af4937fc146106d8575f5ffd5b80638da5cb5b1461062e5780639a8a05921461065a575f5ffd5b806345d076641161020f57806357c0762d116101c55780637ecb65f6116101ab5780637ecb65f61461053c57806380d859111461055b5780638342d20e1461057a575f5ffd5b806357c0762d146104ea57806374a8569b14610509575f5ffd5b80634ada3e61116101f55780634ada3e61146104755780634e894dd11461048a5780634eb07dd3146104a9575f5ffd5b806345d076641461042a57806346fbcbb214610456575f5ffd5b8063176b8b01116102645780631bbbeeb81161024a5780631bbbeeb8146103905780632685937b146103bb57806343be9643146103ff575f5ffd5b8063176b8b011461034657806317a68dd814610371575f5ffd5b8062427c5414610294578063087f08d4146102d25780630f41196a146102f35780631399991414610308575b5f5ffd5b34801561029f575f5ffd5b506102bf6102ae36600461378a565b600a6020525f908152604090205481565b6040519081526020015b60405180910390f35b3480156102dd575f5ffd5b506102f16102ec3660046137f4565b610915565b005b3480156102fe575f5ffd5b506102bf60025481565b348015610313575f5ffd5b5061033661032236600461378a565b600e6020525f908152604090205460ff1681565b60405190151581526020016102c9565b348015610351575f5ffd5b506102bf61036036600461378a565b600b6020525f908152604090205481565b34801561037c575f5ffd5b506102f161038b36600461378a565b610b3e565b34801561039b575f5ffd5b506102bf6103aa36600461378a565b60096020525f908152604090205481565b3480156103c6575f5ffd5b506103da6103d536600461378a565b610c65565b60405173ffffffffffffffffffffffffffffffffffffffff90911681526020016102c9565b34801561040a575f5ffd5b506102bf61041936600461378a565b600c6020525f908152604090205481565b348015610435575f5ffd5b50610449610444366004613860565b610d9b565b6040516102c99190613877565b348015610461575f5ffd5b506103da6104703660046139e5565b610e5c565b348015610480575f5ffd5b506102bf60055481565b348015610495575f5ffd5b506102f16104a4366004613a78565b611290565b3480156104b4575f5ffd5b506103da6104c3366004613860565b60106020525f908152604090205473ffffffffffffffffffffffffffffffffffffffff1681565b3480156104f5575f5ffd5b506102f1610504366004613b29565b611499565b348015610514575f5ffd5b506103da7f0000000000000000000000002c602c7b590abfc148d8c7c5e4d58c56be1d304a81565b348015610547575f5ffd5b506102bf610556366004613b52565b61155d565b348015610566575f5ffd5b506102f1610575366004613b29565b611627565b348015610585575f5ffd5b506105e3610594366004613860565b600d6020525f908152604090208054600182015460028301546003840154600485015460059095015473ffffffffffffffffffffffffffffffffffffffff948516959385169490921692909186565b6040805173ffffffffffffffffffffffffffffffffffffffff9788168152958716602087015293909516928401929092526060830152608082015260a081019190915260c0016102c9565b348015610639575f5ffd5b506008546103da9073ffffffffffffffffffffffffffffffffffffffff1681565b348015610665575f5ffd5b506102bf7f000000000000000000000000000000000000000000000000000000000000006481565b348015610698575f5ffd5b506106ac6106a73660046137f4565b6116c0565b6040516102c99190613c07565b3480156106c4575f5ffd5b506102f16106d336600461378a565b611e7d565b3480156106e3575f5ffd5b506102bf61271081565b3480156106f8575f5ffd5b506102bf60045481565b34801561070d575f5ffd5b506103da61071c36600461378a565b600f6020525f908152604090205473ffffffffffffffffffffffffffffffffffffffff1681565b610756610751366004613c3c565b611fab565b6040516102c99190613d5f565b34801561076e575f5ffd5b506103da7f0000000000000000000000009338b5153ae39bb89f50468e608ed9d764b755fd81565b3480156107a1575f5ffd5b506102bf6107b036600461378a565b60116020525f908152604090205481565b3480156107cc575f5ffd5b506102f16107db3660046137f4565b612045565b3480156107eb575f5ffd5b506102bf60015481565b348015610800575f5ffd5b506102bf60035481565b348015610815575f5ffd5b506102bf60065481565b34801561082a575f5ffd5b506102bf7fe6194b93a7bff0a54130ed8cd277223408a77f3e48bb5104a9db96d334f962ca81565b34801561085d575f5ffd5b506102bf61229b565b348015610871575f5ffd5b506102bf7f8b73c3c69bb8fe3d512ecc4cf759cc79239f7b179b0ffacaa9a75d522b39400f81565b6102bf6108a7366004613d71565b6122d6565b3480156108b7575f5ffd5b506102bf5f5481565b3480156108cb575f5ffd5b506109086040518060400160405280600581526020017f312e312e3000000000000000000000000000000000000000000000000000000081525081565b6040516102c99190613e14565b60085473ffffffffffffffffffffffffffffffffffffffff16331461098d576008546040517fa43d6ada00000000000000000000000000000000000000000000000000000000815233600482015273ffffffffffffffffffffffffffffffffffffffff90911660248201526044015b60405180910390fd5b8281146109d0576040517f8151c1100000000000000000000000000000000000000000000000000000000081526004810184905260248101829052604401610984565b5f5b83811015610afa575f8585838181106109ed576109ed613e26565b9050602002016020810190610a02919061378a565b73ffffffffffffffffffffffffffffffffffffffff1603610a4f576040517fd92e233d00000000000000000000000000000000000000000000000000000000815260040160405180910390fd5b828282818110610a6157610a61613e26565b9050602002016020810190610a769190613e62565b600e5f878785818110610a8b57610a8b613e26565b9050602002016020810190610aa0919061378a565b73ffffffffffffffffffffffffffffffffffffffff16815260208101919091526040015f2080547fffffffffffffffffffffffffffffffffffffffffffffffffffffffffffffff00169115159190911790556001016109d2565b507f8cc6be981009d13170c616af494b7d671ed2d84b7e6891e4c8f21fe065c00dfc84848484604051610b309493929190613ec6565b60405180910390a150505050565b60085473ffffffffffffffffffffffffffffffffffffffff163314610bb1576008546040517fa43d6ada00000000000000000000000000000000000000000000000000000000815233600482015273ffffffffffffffffffffffffffffffffffffffff9091166024820152604401610984565b73ffffffffffffffffffffffffffffffffffffffff8116610bfe576040517fd92e233d00000000000000000000000000000000000000000000000000000000815260040160405180910390fd5b7fe6194b93a7bff0a54130ed8cd277223408a77f3e48bb5104a9db96d334f962ca81905560405173ffffffffffffffffffffffffffffffffffffffff8216907f310ba5f1d2ed074b51e2eccd052a47ae9ab7c6b800d1fca3db3999d6a592ca03905f90a250565b5f73ffffffffffffffffffffffffffffffffffffffff8216610cb3576040517fd92e233d00000000000000000000000000000000000000000000000000000000815260040160405180910390fd5b73ffffffffffffffffffffffffffffffffffffffff8281165f908152600f602052604090205416610d28576040517f32b2baa300000000000000000000000000000000000000000000000000000000815273ffffffffffffffffffffffffffffffffffffffff83166004820152602401610984565b8173ffffffffffffffffffffffffffffffffffffffff1663e7f43c686040518163ffffffff1660e01b8152600401602060405180830381865afa158015610d71573d5f5f3e3d5ffd5b505050506040513d601f19601f82011682018060405250810190610d959190613f20565b92915050565b5f818152600d60209081526040808320815160c081018352815473ffffffffffffffffffffffffffffffffffffffff90811680835260018401548216958301959095526002830154169281019290925260038101546060830152600481015460808301526005015460a082015290610e1557505f92915050565b602081015173ffffffffffffffffffffffffffffffffffffffff1615610e3e5750600392915050565b8060600151421115610e535750600292915050565b50600192915050565b6040517f6352211e000000000000000000000000000000000000000000000000000000008152600481018490525f90819073ffffffffffffffffffffffffffffffffffffffff7f0000000000000000000000009338b5153ae39bb89f50468e608ed9d764b755fd1690636352211e90602401602060405180830381865afa158015610ee9573d5f5f3e3d5ffd5b505050506040513d601f19601f82011682018060405250810190610f0d9190613f20565b90503373ffffffffffffffffffffffffffffffffffffffff82161461104c576040517f4236aff8000000000000000000000000000000000000000000000000000000008152600481018690525f907f0000000000000000000000009338b5153ae39bb89f50468e608ed9d764b755fd73ffffffffffffffffffffffffffffffffffffffff1690634236aff89060240160e060405180830381865afa158015610fb7573d5f5f3e3d5ffd5b505050506040513d601f19601f82011682018060405250810190610fdb9190613f4e565b50505050509150508073ffffffffffffffffffffffffffffffffffffffff163373ffffffffffffffffffffffffffffffffffffffff161461104a576040517f32b2baa3000000000000000000000000000000000000000000000000000000008152336004820152602401610984565b505b73ffffffffffffffffffffffffffffffffffffffff84165f908152600e602052604090205460ff166110c2576040517f32b2baa300000000000000000000000000000000000000000000000000000000815273ffffffffffffffffffffffffffffffffffffffff85166004820152602401610984565b6040517f0f7fb56d00000000000000000000000000000000000000000000000000000000815273ffffffffffffffffffffffffffffffffffffffff851690630f7fb56d90611138907f0000000000000000000000009338b5153ae39bb89f50468e608ed9d764b755fd9089908890600401613fe5565b6020604051808303815f875af1158015611154573d5f5f3e3d5ffd5b505050506040513d601f19601f820116820180604052508101906111789190613f20565b915073ffffffffffffffffffffffffffffffffffffffff82166111c7576040517fd92e233d00000000000000000000000000000000000000000000000000000000815260040160405180910390fd5b73ffffffffffffffffffffffffffffffffffffffff8281165f908152600f6020526040812080547fffffffffffffffffffffffff0000000000000000000000000000000000000000169287169290921790915560068054916112288361404f565b91905055508373ffffffffffffffffffffffffffffffffffffffff16858373ffffffffffffffffffffffffffffffffffffffff167f46e1ca45c09520471c43e2e88eca33bb51803011cfd456933629dcc645ecacd660405160405180910390a4509392505050565b6007546002036112cc576040517f8beb9d1600000000000000000000000000000000000000000000000000000000815260040160405180910390fd5b60026007558415806112de5750848314155b1561131f576040517f8151c1100000000000000000000000000000000000000000000000000000000081526004810186905260248101849052604401610984565b5f3373ffffffffffffffffffffffffffffffffffffffff16632763b8da6040518163ffffffff1660e01b8152600401602060405180830381865afa158015611369573d5f5f3e3d5ffd5b505050506040513d601f19601f8201168201806040525081019061138d9190614086565b90506113a5888261139e898b61409d565b88886123fb565b5f8181526010602052604090205473ffffffffffffffffffffffffffffffffffffffff1680611400576040517fd92e233d00000000000000000000000000000000000000000000000000000000815260040160405180910390fd5b6040517f6072dd2c00000000000000000000000000000000000000000000000000000000815273ffffffffffffffffffffffffffffffffffffffff821690636072dd2c9061145c9033908d908b908b908b908b906004016141dd565b5f604051808303815f87803b158015611473575f5ffd5b505af1158015611485573d5f5f3e3d5ffd5b505060016007555050505050505050505050565b60085473ffffffffffffffffffffffffffffffffffffffff16331461150c576008546040517fa43d6ada00000000000000000000000000000000000000000000000000000000815233600482015273ffffffffffffffffffffffffffffffffffffffff9091166024820152604401610984565b611517838383612a97565b60408051848152602081018490529081018290527f64d0972bd5d0c2828d80911b61084d86d61214c3081656ca3a720047a88320359060600160405180910390a1505050565b5f61156661229b565b85516020968701206040805130818a015273ffffffffffffffffffffffffffffffffffffffff9a8b1681830152989099166060890152608088015260a08701949094525060c085019190915260e08085019190915284518085039091018152610100840185528051908301207f19010000000000000000000000000000000000000000000000000000000000006101208501526101228401919091526101428084019190915283518084039091018152610162909201909252805191012090565b60085473ffffffffffffffffffffffffffffffffffffffff1615611677576040517f0dc149f000000000000000000000000000000000000000000000000000000000815260040160405180910390fd5b611682838383612a97565b61168a612bbd565b5f555050600880547fffffffffffffffffffffffff00000000000000000000000000000000000000001633179055506001600755565b60606007546002036116fe576040517f8beb9d1600000000000000000000000000000000000000000000000000000000815260040160405180910390fd5b60026007558315806117105750838214155b15611751576040517f8151c1100000000000000000000000000000000000000000000000000000000081526004810185905260248101839052604401610984565b5f61175b33610c65565b90505f858067ffffffffffffffff811115611778576117786138b6565b6040519080825280602002602001820160405280156117a1578160200160208202803683370190505b5093505f8167ffffffffffffffff8111156117be576117be6138b6565b6040519080825280602002602001820160405280156117e7578160200160208202803683370190505b5090505f8267ffffffffffffffff811115611804576118046138b6565b60405190808252806020026020018201604052801561182d578160200160208202803683370190505b5090505f3373ffffffffffffffffffffffffffffffffffffffff16632763b8da6040518163ffffffff1660e01b8152600401602060405180830381865afa15801561187a573d5f5f3e3d5ffd5b505050506040513d601f19601f8201168201806040525081019061189e9190614086565b90505f5b84811015611c2b575f600d5f8e8e858181106118c0576118c0613e26565b602090810292909201358352508101919091526040015f20805490915073ffffffffffffffffffffffffffffffffffffffff168061192a576040517fd92e233d00000000000000000000000000000000000000000000000000000000815260040160405180910390fd5b8382600501541461196a576040517f7fec71d700000000000000000000000000000000000000000000000000000000815260048101859052602401610984565b600182015473ffffffffffffffffffffffffffffffffffffffff1615611991575050611c23565b81600401548584815181106119a8576119a8613e26565b6020026020010181815250508483815181106119c6576119c6613e26565b60200260200101518c8c858181106119e0576119e0613e26565b9050602002013511156119f4575050611c23565b73ffffffffffffffffffffffffffffffffffffffff81163314611aeb578160030154421115611ae4576040517f4225d37a00000000000000000000000000000000000000000000000000000000815273ffffffffffffffffffffffffffffffffffffffff82811660048301527fffffffffffffffffffffffffffffffffffffffffffffffffffffffffffffffff60248301527f0000000000000000000000002c602c7b590abfc148d8c7c5e4d58c56be1d304a1690634225d37a906044015f604051808303815f87803b158015611ac9575f5ffd5b505af1158015611adb573d5f5f3e3d5ffd5b50505050611aeb565b5050611c23565b6001820180547fffffffffffffffffffffffff000000000000000000000000000000000000000016331790556002820154865173ffffffffffffffffffffffffffffffffffffffff9190911690879085908110611b4a57611b4a613e26565b602002602001019073ffffffffffffffffffffffffffffffffffffffff16908173ffffffffffffffffffffffffffffffffffffffff1681525050600a5f878581518110611b9957611b99613e26565b602002602001015173ffffffffffffffffffffffffffffffffffffffff1673ffffffffffffffffffffffffffffffffffffffff1681526020019081526020015f205f815480929190611bea9061404f565b919050555060018a8481518110611c0357611c03613e26565b9115156020928302919091019091015287611c1d8161404f565b98505050505b6001016118a2565b508415611e13578460045f828254611c43919061427b565b9091555050335f908152600b602052604081208054879290611c6690849061428e565b909155505073ffffffffffffffffffffffffffffffffffffffff86165f908152600c602052604081208054879290611c9f90849061428e565b90915550506040517f4225d37a000000000000000000000000000000000000000000000000000000008152336004820152602481018690527f0000000000000000000000002c602c7b590abfc148d8c7c5e4d58c56be1d304a73ffffffffffffffffffffffffffffffffffffffff1690634225d37a906044015f604051808303815f87803b158015611d2f575f5ffd5b505af1158015611d41573d5f5f3e3d5ffd5b5050505f8281526010602052604090205473ffffffffffffffffffffffffffffffffffffffff16905080611da1576040517fd92e233d00000000000000000000000000000000000000000000000000000000815260040160405180910390fd5b8073ffffffffffffffffffffffffffffffffffffffff166379e4afe833868b8e8e896040518763ffffffff1660e01b8152600401611de4969594939291906142e7565b5f604051808303815f87803b158015611dfb575f5ffd5b505af1158015611e0d573d5f5f3e3d5ffd5b50505050505b3373ffffffffffffffffffffffffffffffffffffffff167f894bb814a80f77e14febccf552394d95b38cc21a6dda1b0cf26434433fdf3e4c84878e8e8c604051611e61959493929190614384565b60405180910390a2505060016007555092979650505050505050565b60085473ffffffffffffffffffffffffffffffffffffffff163314611ef0576008546040517fa43d6ada00000000000000000000000000000000000000000000000000000000815233600482015273ffffffffffffffffffffffffffffffffffffffff9091166024820152604401610984565b73ffffffffffffffffffffffffffffffffffffffff8116611f3d576040517fd92e233d00000000000000000000000000000000000000000000000000000000815260040160405180910390fd5b600880547fffffffffffffffffffffffff00000000000000000000000000000000000000001673ffffffffffffffffffffffffffffffffffffffff83169081179091556040517f4ffd725fc4a22075e9ec71c59edf9c38cdeb588a91b24fc5b61388c5be41282b905f90a250565b6060600754600203611fe9576040517f8beb9d1600000000000000000000000000000000000000000000000000000000815260040160405180910390fd5b6002600781905550612034888888888888888080601f0160208091040260200160405190810160405280939291908181526020018383808284375f92019190915250612cbb92505050565b600160075598975050505050505050565b60085473ffffffffffffffffffffffffffffffffffffffff1633146120b8576008546040517fa43d6ada00000000000000000000000000000000000000000000000000000000815233600482015273ffffffffffffffffffffffffffffffffffffffff9091166024820152604401610984565b8281146120fb576040517f8151c1100000000000000000000000000000000000000000000000000000000081526004810184905260248101829052604401610984565b5f5b838110156122655784848281811061211757612117613e26565b905060200201355f5f1b03612158576040517f7c946ed700000000000000000000000000000000000000000000000000000000815260040160405180910390fd5b5f83838381811061216b5761216b613e26565b9050602002016020810190612180919061378a565b73ffffffffffffffffffffffffffffffffffffffff16036121cd576040517fd92e233d00000000000000000000000000000000000000000000000000000000815260040160405180910390fd5b8282828181106121df576121df613e26565b90506020020160208101906121f4919061378a565b60105f87878581811061220957612209613e26565b9050602002013581526020019081526020015f205f6101000a81548173ffffffffffffffffffffffffffffffffffffffff021916908373ffffffffffffffffffffffffffffffffffffffff1602179055508060010190506120fd565b507fa9759667b17e564f26a0d91ce1c5e4a1dc3910aee992dc3f5f4da0a59d48f3cb84848484604051610b3094939291906143cf565b5f7f000000000000000000000000000000000000000000000000000000000000006446146122d0576122cb612bbd565b905090565b505f5490565b5f600754600203612313576040517f8beb9d1600000000000000000000000000000000000000000000000000000000815260040160405180910390fd5b60026007556040805160018082528183019092525f91816020015b606081526020019060019003908161232e5750506040805160018082528183019092529192505f91906020808301908036833701905050905089825f8151811061237a5761237a613e26565b60200260200101819052506123c8828a8a8a8a8a8a8080601f0160208091040260200160405190810160405280939291908181526020018383808284375f92019190915250612cbb92505050565b9050805f815181106123dc576123dc613e26565b6020026020010151925060016007819055505050979650505050505050565b5f61240533610c65565b84519091505f8167ffffffffffffffff811115612424576124246138b6565b60405190808252806020026020018201604052801561244d578160200160208202803683370190505b5073ffffffffffffffffffffffffffffffffffffffff89165f908152601160205260408120549192505b838110156127815787818151811061249157612491613e26565b60200260200101515f0151515f036124d5576040517f7c946ed700000000000000000000000000000000000000000000000000000000815260040160405180910390fd5b612517338b8a84815181106124ec576124ec613e26565b60200260200101515f01518a8a8681811061250957612509613e26565b905060200201358d8761155d565b83828151811061252957612529613e26565b6020026020010181815250506125768a84838151811061254b5761254b613e26565b60200260200101518a848151811061256557612565613e26565b602002602001015160200151613441565b5f600d5f85848151811061258c5761258c613e26565b60209081029190910181015182528101919091526040015f20805490915073ffffffffffffffffffffffffffffffffffffffff1615612614578382815181106125d7576125d7613e26565b60200260200101516040517fec0db69800000000000000000000000000000000000000000000000000000000815260040161098491815260200190565b8054337fffffffffffffffffffffffff0000000000000000000000000000000000000000918216811783556001830180548316909117905560028201805490911673ffffffffffffffffffffffffffffffffffffffff8d1617905587878381811061268157612681613e26565b6020029190910135600483015550600581018a9055826126a08161404f565b9350508573ffffffffffffffffffffffffffffffffffffffff163373ffffffffffffffffffffffffffffffffffffffff167fb52c441d5d16afb15432ee2f89555eb92952fedce6726bbcb8aba672d49d28f686858151811061270457612704613e26565b60200260200101518b8b8781811061271e5761271e613e26565b905060200201358d878151811061273757612737613e26565b60200260200101515f01518e888151811061275457612754613e26565b6020026020010151604001516040516127709493929190614400565b60405180910390a350600101612477565b5073ffffffffffffffffffffffffffffffffffffffff89165f9081526011602090815260408083208490556009909152812080548592906127c390849061428e565b909155505073ffffffffffffffffffffffffffffffffffffffff89165f908152600a6020526040812080548592906127fc90849061428e565b9091555050335f908152600b60205260408120805485929061281f90849061428e565b909155505073ffffffffffffffffffffffffffffffffffffffff84165f908152600c60205260408120805485929061285890849061428e565b925050819055508260055f828254612870919061428e565b90915550506040517f55e7d04400000000000000000000000000000000000000000000000000000000815273ffffffffffffffffffffffffffffffffffffffff8a81166004830152336024830152604482018590527f0000000000000000000000002c602c7b590abfc148d8c7c5e4d58c56be1d304a16906355e7d044906064015f604051808303815f87803b158015612908575f5ffd5b505af115801561291a573d5f5f3e3d5ffd5b50506040517f4225d37a000000000000000000000000000000000000000000000000000000008152336004820152602481018690527f0000000000000000000000002c602c7b590abfc148d8c7c5e4d58c56be1d304a73ffffffffffffffffffffffffffffffffffffffff169250634225d37a91506044015f604051808303815f87803b1580156129a9575f5ffd5b505af11580156129bb573d5f5f3e3d5ffd5b50506040517f9680b60300000000000000000000000000000000000000000000000000000000815260048101869052339250639680b60391506024015f604051808303815f87803b158015612a0e575f5ffd5b505af1158015612a20573d5f5f3e3d5ffd5b505050508873ffffffffffffffffffffffffffffffffffffffff163373ffffffffffffffffffffffffffffffffffffffff167ff980d83e9456535b0f9f3634d171df2a5f052f5d5e706b75d30c4e0433da927d845185604051612a84929190614430565b60405180910390a3505050505050505050565b811580612aa2575080155b15612ad9576040517f7c946ed700000000000000000000000000000000000000000000000000000000815260040160405180910390fd5b612710831115612b20576040517f7ae59685000000000000000000000000000000000000000000000000000000008152600481018490526127106024820152604401610984565b80821115612b64576040517f7ae596850000000000000000000000000000000000000000000000000000000081526004810183905260248101829052604401610984565b63ffffffff811115612baf576040517f7ae596850000000000000000000000000000000000000000000000000000000081526004810182905263ffffffff6024820152604401610984565b600192909255600255600355565b5f7f8b73c3c69bb8fe3d512ecc4cf759cc79239f7b179b0ffacaa9a75d522b39400f7ff376b6313a0837eb351511248cfe7dcc1cd26c49b8e0a47e1eb369dd62c425db6040518060400160405280600581526020017f312e312e30000000000000000000000000000000000000000000000000000000815250604051602001612c469190613e14565b604080517fffffffffffffffffffffffffffffffffffffffffffffffffffffffffffffffe081840301815282825280516020918201209083019490945281019190915260608101919091524660808201523060a082015260c00160405160208183030381529060405280519060200120905090565b606063ffffffff612ccc428561428e565b1115612d1c57612cdc428461428e565b6040517f7ae59685000000000000000000000000000000000000000000000000000000008152600481019190915263ffffffff6024820152604401610984565b600254831080612d2d575060035483115b15612d7a576002546003546040517feb373cfe0000000000000000000000000000000000000000000000000000000081526004810186905260248101929092526044820152606401610984565b851580612d85575084155b15612dbc576040517f7c946ed700000000000000000000000000000000000000000000000000000000815260040160405180910390fd5b86515f819003612df8576040517f7c946ed700000000000000000000000000000000000000000000000000000000815260040160405180910390fd5b612e0185610c65565b508067ffffffffffffffff811115612e1b57612e1b6138b6565b604051908082528060200260200182016040528015612e44578160200160208202803683370190505b5091505f8573ffffffffffffffffffffffffffffffffffffffff16632cc0fcb26040518163ffffffff1660e01b8152600401602060405180830381865afa158015612e91573d5f5f3e3d5ffd5b505050506040513d601f19601f82011682018060405250810190612eb59190614086565b905087811115612efb576040517f7ae596850000000000000000000000000000000000000000000000000000000081526004810182905260248101899052604401610984565b8573ffffffffffffffffffffffffffffffffffffffff16632763b8da6040518163ffffffff1660e01b8152600401602060405180830381865afa158015612f44573d5f5f3e3d5ffd5b505050506040513d601f19601f82011682018060405250810190612f689190614086565b8714612fa3576040517f7fec71d700000000000000000000000000000000000000000000000000000000815260048101889052602401610984565b335f90815260116020526040812054905b8a51811015613156578a8181518110612fcf57612fcf613e26565b6020026020010151515f03613010576040517f7c946ed700000000000000000000000000000000000000000000000000000000815260040160405180910390fd5b61303788338d848151811061302757613027613e26565b6020026020010151868d8761155d565b85828151811061304957613049613e26565b6020026020010181815250505f600d5f87848151811061306b5761306b613e26565b60209081029190910181015182528101919091526040015f20805490915073ffffffffffffffffffffffffffffffffffffffff16156130b6578582815181106125d7576125d7613e26565b80547fffffffffffffffffffffffff00000000000000000000000000000000000000001673ffffffffffffffffffffffffffffffffffffffff8a161781556130fe428961428e565b60038201556002810180547fffffffffffffffffffffffff0000000000000000000000000000000000000000163317905560048101849055600581018a9055826131478161404f565b93505050806001019050612fb4565b50335f9081526011602090815260408083208490558a8352601090915290205473ffffffffffffffffffffffffffffffffffffffff16806131c3576040517fd92e233d00000000000000000000000000000000000000000000000000000000815260040160405180910390fd5b6040517f38603a3900000000000000000000000000000000000000000000000000000000815273ffffffffffffffffffffffffffffffffffffffff8216906338603a3990349061321d903390899089908d90600401614450565b5f604051808303818588803b158015613234575f5ffd5b505af1158015613246573d5f5f3e3d5ffd5b50506040517f55e7d04400000000000000000000000000000000000000000000000000000000815233600482015273ffffffffffffffffffffffffffffffffffffffff8c81166024830152604482018990527f0000000000000000000000002c602c7b590abfc148d8c7c5e4d58c56be1d304a1693506355e7d044925060640190505f604051808303815f87803b1580156132df575f5ffd5b505af11580156132f1573d5f5f3e3d5ffd5b5050335f908152600960205260408120805488945090925061331490849061428e565b925050819055508360045f82825461332c919061428e565b925050819055508360055f828254613344919061428e565b90915550506040517fbe2641de00000000000000000000000000000000000000000000000000000000815273ffffffffffffffffffffffffffffffffffffffff89169063be2641de9061339d9088908f9060040161450c565b5f604051808303815f87803b1580156133b4575f5ffd5b505af11580156133c6573d5f5f3e3d5ffd5b505050503373ffffffffffffffffffffffffffffffffffffffff168873ffffffffffffffffffffffffffffffffffffffff167fb1ea35a385d4517ac7b3fb0eac4f62db4f0c5b4cf8b7aef789bbd1db097edb2586888f60405161342b93929190614530565b60405180910390a3505050509695505050505050565b73ffffffffffffffffffffffffffffffffffffffff831661348e576040517fd92e233d00000000000000000000000000000000000000000000000000000000815260040160405180910390fd5b73ffffffffffffffffffffffffffffffffffffffff83163b156135a4576040517f1626ba7e000000000000000000000000000000000000000000000000000000008082529073ffffffffffffffffffffffffffffffffffffffff851690631626ba7e90613501908690869060040161455a565b602060405180830381865afa15801561351c573d5f5f3e3d5ffd5b505050506040513d601f19601f820116820180604052508101906135409190614572565b7fffffffff00000000000000000000000000000000000000000000000000000000160361356c57505050565b8282826040517f02d51bb200000000000000000000000000000000000000000000000000000000815260040161098493929190613fe5565b80516041146135e65780516040517f1d9f5a5f0000000000000000000000000000000000000000000000000000000081526109849183916041906004016145b1565b5f816040815181106135fa576135fa613e26565b016020015160f81c9050600481101561361b57613618601b826145d5565b90505b602082015160408301517f7fffffffffffffffffffffffffffffff5d576e7357a4501ddfe92f46681b20a0811115613685578585856040517f02d51bb200000000000000000000000000000000000000000000000000000000815260040161098493929190613fe5565b604080515f8082526020820180845288905260ff861692820192909252606081018490526080810183905260019060a0016020604051602081039080840390855afa1580156136d6573d5f5f3e3d5ffd5b5050506020604051035190508673ffffffffffffffffffffffffffffffffffffffff168173ffffffffffffffffffffffffffffffffffffffff161461374d578686866040517f02d51bb200000000000000000000000000000000000000000000000000000000815260040161098493929190613fe5565b50505050505050565b73ffffffffffffffffffffffffffffffffffffffff81168114613777575f5ffd5b50565b803561378581613756565b919050565b5f6020828403121561379a575f5ffd5b81356137a581613756565b9392505050565b5f5f83601f8401126137bc575f5ffd5b50813567ffffffffffffffff8111156137d3575f5ffd5b6020830191508360208260051b85010111156137ed575f5ffd5b9250929050565b5f5f5f5f60408587031215613807575f5ffd5b843567ffffffffffffffff81111561381d575f5ffd5b613829878288016137ac565b909550935050602085013567ffffffffffffffff811115613848575f5ffd5b613854878288016137ac565b95989497509550505050565b5f60208284031215613870575f5ffd5b5035919050565b60208101600483106138b0577f4e487b71000000000000000000000000000000000000000000000000000000005f52602160045260245ffd5b91905290565b7f4e487b71000000000000000000000000000000000000000000000000000000005f52604160045260245ffd5b6040516060810167ffffffffffffffff81118282101715613906576139066138b6565b60405290565b604051601f82017fffffffffffffffffffffffffffffffffffffffffffffffffffffffffffffffe016810167ffffffffffffffff81118282101715613953576139536138b6565b604052919050565b5f82601f83011261396a575f5ffd5b813567ffffffffffffffff811115613984576139846138b6565b6139b560207fffffffffffffffffffffffffffffffffffffffffffffffffffffffffffffffe0601f8401160161390c565b8181528460208386010111156139c9575f5ffd5b816020850160208301375f918101602001919091529392505050565b5f5f5f606084860312156139f7575f5ffd5b833592506020840135613a0981613756565b9150604084013567ffffffffffffffff811115613a24575f5ffd5b613a308682870161395b565b9150509250925092565b5f5f83601f840112613a4a575f5ffd5b50813567ffffffffffffffff811115613a61575f5ffd5b6020830191508360208285010111156137ed575f5ffd5b5f5f5f5f5f5f5f6080888a031215613a8e575f5ffd5b8735613a9981613756565b9650602088013567ffffffffffffffff811115613ab4575f5ffd5b613ac08a828b016137ac565b909750955050604088013567ffffffffffffffff811115613adf575f5ffd5b613aeb8a828b016137ac565b909550935050606088013567ffffffffffffffff811115613b0a575f5ffd5b613b168a828b01613a3a565b989b979a50959850939692959293505050565b5f5f5f60608486031215613b3b575f5ffd5b505081359360208301359350604090920135919050565b5f5f5f5f5f5f60c08789031215613b67575f5ffd5b8635613b7281613756565b95506020870135613b8281613756565b9450604087013567ffffffffffffffff811115613b9d575f5ffd5b613ba989828a0161395b565b969995985095966060810135965060808101359560a090910135945092505050565b5f8151808452602084019350602083015f5b82811015613bfd5781511515865260209586019590910190600101613bdd565b5093949350505050565b602081525f6137a56020830184613bcb565b5f67ffffffffffffffff821115613c3257613c326138b6565b5060051b60200190565b5f5f5f5f5f5f5f60c0888a031215613c52575f5ffd5b873567ffffffffffffffff811115613c68575f5ffd5b8801601f81018a13613c78575f5ffd5b8035613c8b613c8682613c19565b61390c565b8082825260208201915060208360051b85010192508c831115613cac575f5ffd5b602084015b83811015613ced57803567ffffffffffffffff811115613ccf575f5ffd5b613cde8f60208389010161395b565b84525060209283019201613cb1565b5099505050506020880135955060408801359450613d0d6060890161377a565b93506080880135925060a088013567ffffffffffffffff811115613b0a575f5ffd5b5f8151808452602084019350602083015f5b82811015613bfd578151865260209586019590910190600101613d41565b602081525f6137a56020830184613d2f565b5f5f5f5f5f5f5f60c0888a031215613d87575f5ffd5b873567ffffffffffffffff811115613d9d575f5ffd5b613da98a828b0161395b565b97505060208801359550604088013594506060880135613d0d81613756565b5f81518084528060208401602086015e5f6020828601015260207fffffffffffffffffffffffffffffffffffffffffffffffffffffffffffffffe0601f83011685010191505092915050565b602081525f6137a56020830184613dc8565b7f4e487b71000000000000000000000000000000000000000000000000000000005f52603260045260245ffd5b80358015158114613785575f5ffd5b5f60208284031215613e72575f5ffd5b6137a582613e53565b8183526020830192505f815f5b84811015613bfd578135613e9b81613756565b73ffffffffffffffffffffffffffffffffffffffff1686526020958601959190910190600101613e88565b604081525f613ed9604083018688613e7b565b8281036020808501919091528482528591015f5b85811015613f1457613efe83613e53565b1515825260209283019290910190600101613eed565b50979650505050505050565b5f60208284031215613f30575f5ffd5b81516137a581613756565b805163ffffffff81168114613785575f5ffd5b5f5f5f5f5f5f5f60e0888a031215613f64575f5ffd5b87516bffffffffffffffffffffffff81168114613f7f575f5ffd5b6020890151909750613f9081613756565b60408901519096509450613fa660608901613f3b565b9350613fb460808901613f3b565b9250613fc260a08901613f3b565b915060c088015160068110613fd5575f5ffd5b8091505092959891949750929550565b73ffffffffffffffffffffffffffffffffffffffff84168152826020820152606060408201525f6140196060830184613dc8565b95945050505050565b7f4e487b71000000000000000000000000000000000000000000000000000000005f52601160045260245ffd5b5f7fffffffffffffffffffffffffffffffffffffffffffffffffffffffffffffffff820361407f5761407f614022565b5060010190565b5f60208284031215614096575f5ffd5b5051919050565b5f6140aa613c8684613c19565b8381526020810190600585901b8401368111156140c5575f5ffd5b845b8181101561418957803567ffffffffffffffff8111156140e5575f5ffd5b860160603682900312156140f7575f5ffd5b6140ff6138e3565b813567ffffffffffffffff811115614115575f5ffd5b6141213682850161395b565b825250602082013567ffffffffffffffff81111561413d575f5ffd5b6141493682850161395b565b602083015250604082013567ffffffffffffffff811115614168575f5ffd5b6141743682850161395b565b604083015250855250602093840193016140c7565b509095945050505050565b8183525f7f07ffffffffffffffffffffffffffffffffffffffffffffffffffffffffffffff8311156141c4575f5ffd5b8260051b80836020870137939093016020019392505050565b73ffffffffffffffffffffffffffffffffffffffff8716815273ffffffffffffffffffffffffffffffffffffffff86166020820152608060408201525f614228608083018688614194565b8281036060840152838152838560208301375f6020858301015260207fffffffffffffffffffffffffffffffffffffffffffffffffffffffffffffffe0601f860116820101915050979650505050505050565b81810381811115610d9557610d95614022565b80820180821115610d9557610d95614022565b5f8151808452602084019350602083015f5b82811015613bfd57815173ffffffffffffffffffffffffffffffffffffffff168652602095860195909101906001016142b3565b73ffffffffffffffffffffffffffffffffffffffff8716815260a060208201525f61431560a08301886142a1565b82810360408401526143278188613bcb565b9050828103606084015261433c818688614194565b8381036080850152845180825260208087019350909101905f5b81811015614374578351835260209384019390920191600101614356565b50909a9950505050505050505050565b608081525f61439660808301886142a1565b86602084015282810360408401526143af818688614194565b905082810360608401526143c38185613bcb565b98975050505050505050565b604081525f6143e2604083018688614194565b82810360208401526143f5818587613e7b565b979650505050505050565b848152836020820152608060408201525f61441e6080830185613dc8565b82810360608401526143f58185613dc8565b828152604060208201525f6144486040830184613d2f565b949350505050565b73ffffffffffffffffffffffffffffffffffffffff85168152836020820152826040820152608060608201525f61448a6080830184613dc8565b9695505050505050565b5f82825180855260208501945060208160051b830101602085015f5b83811015614500577fffffffffffffffffffffffffffffffffffffffffffffffffffffffffffffffe08584030188526144ea838351613dc8565b60209889019890935091909101906001016144b0565b50909695505050505050565b604081525f61451e6040830185613d2f565b82810360208401526140198185614494565b838152606060208201525f6145486060830185613d2f565b828103604084015261448a8185614494565b828152604060208201525f6144486040830184613dc8565b5f60208284031215614582575f5ffd5b81517fffffffff00000000000000000000000000000000000000000000000000000000811681146137a5575f5ffd5b606081525f6145c36060830186613dc8565b60208301949094525060400152919050565b60ff8181168382160190811115610d9557610d9561402256fea2646970667358221220b3ade762d28ef4df2564d583f30c6656002c2a634f4c111c7799c86bd7fc5d6364736f6c634300081e0033",
  "linkReferences": {},
  "deployedLinkReferences": {}
}