{
    "_format": "hh-sol-artifact-1",
    "contractName": "ServiceRegistryTokenUtility",
    "sourceName": "contracts/ServiceRegistryTokenUtility.sol",
    "abi": [
        {
            "inputs": [
                {
                    "internalType": "address",
                    "name": "_serviceRegistry",
                    "type": "address"
                }
            ],
            "stateMutability": "nonpayable",
            "type": "constructor"
        },
        {
            "inputs": [
                {
                    "internalType": "address",
                    "name": "operator",
                    "type": "address"
                }
            ],
            "name": "AgentInstanceRegistered",
            "type": "error"
        },
        {
            "inputs": [
                {
                    "internalType": "uint256",
                    "name": "serviceId",
                    "type": "uint256"
                }
            ],
            "name": "AgentInstancesSlotsFilled",
            "type": "error"
        },
        {
            "inputs": [
                {
                    "internalType": "uint256",
                    "name": "agentId",
                    "type": "uint256"
                }
            ],
            "name": "AgentNotFound",
            "type": "error"
        },
        {
            "inputs": [
                {
                    "internalType": "uint256",
                    "name": "agentId",
                    "type": "uint256"
                },
                {
                    "internalType": "uint256",
                    "name": "serviceId",
                    "type": "uint256"
                }
            ],
            "name": "AgentNotInService",
            "type": "error"
        },
        {
            "inputs": [
                {
                    "internalType": "uint256",
                    "name": "componentId",
                    "type": "uint256"
                }
            ],
            "name": "ComponentNotFound",
            "type": "error"
        },
        {
            "inputs": [],
            "name": "HashExists",
            "type": "error"
        },
        {
            "inputs": [
                {
                    "internalType": "uint256",
                    "name": "sent",
                    "type": "uint256"
                },
                {
                    "internalType": "uint256",
                    "name": "expected",
                    "type": "uint256"
                },
                {
                    "internalType": "uint256",
                    "name": "serviceId",
                    "type": "uint256"
                }
            ],
            "name": "IncorrectAgentBondingValue",
            "type": "error"
        },
        {
            "inputs": [
                {
                    "internalType": "uint256",
                    "name": "sent",
                    "type": "uint256"
                },
                {
                    "internalType": "uint256",
                    "name": "expected",
                    "type": "uint256"
                },
                {
                    "internalType": "uint256",
                    "name": "serviceId",
                    "type": "uint256"
                }
            ],
            "name": "IncorrectRegistrationDepositValue",
            "type": "error"
        },
        {
            "inputs": [
                {
                    "internalType": "address",
                    "name": "sender",
                    "type": "address"
                },
                {
                    "internalType": "address",
                    "name": "manager",
                    "type": "address"
                }
            ],
            "name": "ManagerOnly",
            "type": "error"
        },
        {
            "inputs": [
                {
                    "internalType": "address",
                    "name": "provided",
                    "type": "address"
                },
                {
                    "internalType": "address",
                    "name": "expected",
                    "type": "address"
                },
                {
                    "internalType": "uint256",
                    "name": "serviceId",
                    "type": "uint256"
                }
            ],
            "name": "OnlyOwnServiceMultisig",
            "type": "error"
        },
        {
            "inputs": [
                {
                    "internalType": "address",
                    "name": "operator",
                    "type": "address"
                },
                {
                    "internalType": "uint256",
                    "name": "serviceId",
                    "type": "uint256"
                }
            ],
            "name": "OperatorHasNoInstances",
            "type": "error"
        },
        {
            "inputs": [
                {
                    "internalType": "uint256",
                    "name": "provided",
                    "type": "uint256"
                },
                {
                    "internalType": "uint256",
                    "name": "max",
                    "type": "uint256"
                }
            ],
            "name": "Overflow",
            "type": "error"
        },
        {
            "inputs": [
                {
                    "internalType": "address",
                    "name": "sender",
                    "type": "address"
                },
                {
                    "internalType": "address",
                    "name": "owner",
                    "type": "address"
                }
            ],
            "name": "OwnerOnly",
            "type": "error"
        },
        {
            "inputs": [],
            "name": "Paused",
            "type": "error"
        },
        {
            "inputs": [],
            "name": "ReentrancyGuard",
            "type": "error"
        },
        {
            "inputs": [
                {
                    "internalType": "uint256",
                    "name": "serviceId",
                    "type": "uint256"
                }
            ],
            "name": "ServiceMustBeInactive",
            "type": "error"
        },
        {
            "inputs": [
                {
                    "internalType": "address",
                    "name": "token",
                    "type": "address"
                }
            ],
            "name": "TokenRejected",
            "type": "error"
        },
        {
            "inputs": [
                {
                    "internalType": "address",
                    "name": "token",
                    "type": "address"
                },
                {
                    "internalType": "address",
                    "name": "from",
                    "type": "address"
                },
                {
                    "internalType": "address",
                    "name": "to",
                    "type": "address"
                },
                {
                    "internalType": "uint256",
                    "name": "value",
                    "type": "uint256"
                }
            ],
            "name": "TransferFailed",
            "type": "error"
        },
        {
            "inputs": [
                {
                    "internalType": "address",
                    "name": "multisig",
                    "type": "address"
                }
            ],
            "name": "UnauthorizedMultisig",
            "type": "error"
        },
        {
            "inputs": [
                {
                    "internalType": "uint256",
                    "name": "agentId",
                    "type": "uint256"
                }
            ],
            "name": "WrongAgentId",
            "type": "error"
        },
        {
            "inputs": [
                {
                    "internalType": "uint256",
                    "name": "numValues1",
                    "type": "uint256"
                },
                {
                    "internalType": "uint256",
                    "name": "numValues2",
                    "type": "uint256"
                }
            ],
            "name": "WrongArrayLength",
            "type": "error"
        },
        {
            "inputs": [
                {
                    "internalType": "uint256",
                    "name": "serviceId",
                    "type": "uint256"
                }
            ],
            "name": "WrongOperator",
            "type": "error"
        },
        {
            "inputs": [
                {
                    "internalType": "uint256",
                    "name": "state",
                    "type": "uint256"
                },
                {
                    "internalType": "uint256",
                    "name": "serviceId",
                    "type": "uint256"
                }
            ],
            "name": "WrongServiceState",
            "type": "error"
        },
        {
            "inputs": [
                {
                    "internalType": "uint256",
                    "name": "currentThreshold",
                    "type": "uint256"
                },
                {
                    "internalType": "uint256",
                    "name": "minThreshold",
                    "type": "uint256"
                },
                {
                    "internalType": "uint256",
                    "name": "maxThreshold",
                    "type": "uint256"
                }
            ],
            "name": "WrongThreshold",
            "type": "error"
        },
        {
            "inputs": [],
            "name": "ZeroAddress",
            "type": "error"
        },
        {
            "inputs": [],
            "name": "ZeroValue",
            "type": "error"
        },
        {
            "anonymous": false,
            "inputs": [
                {
                    "indexed": true,
                    "internalType": "address",
                    "name": "drainer",
                    "type": "address"
                }
            ],
            "name": "DrainerUpdated",
            "type": "event"
        },
        {
            "anonymous": false,
            "inputs": [
                {
                    "indexed": true,
                    "internalType": "address",
                    "name": "manager",
                    "type": "address"
                }
            ],
            "name": "ManagerUpdated",
            "type": "event"
        },
        {
            "anonymous": false,
            "inputs": [
                {
                    "indexed": false,
                    "internalType": "uint256",
                    "name": "amount",
                    "type": "uint256"
                },
                {
                    "indexed": true,
                    "internalType": "address",
                    "name": "operator",
                    "type": "address"
                },
                {
                    "indexed": true,
                    "internalType": "uint256",
                    "name": "serviceId",
                    "type": "uint256"
                }
            ],
            "name": "OperatorTokenSlashed",
            "type": "event"
        },
        {
            "anonymous": false,
            "inputs": [
                {
                    "indexed": true,
                    "internalType": "address",
                    "name": "owner",
                    "type": "address"
                }
            ],
            "name": "OwnerUpdated",
            "type": "event"
        },
        {
            "anonymous": false,
            "inputs": [
                {
                    "indexed": true,
                    "internalType": "address",
                    "name": "account",
                    "type": "address"
                },
                {
                    "indexed": true,
                    "internalType": "address",
                    "name": "token",
                    "type": "address"
                },
                {
                    "indexed": false,
                    "internalType": "uint256",
                    "name": "amount",
                    "type": "uint256"
                }
            ],
            "name": "TokenDeposit",
            "type": "event"
        },
        {
            "anonymous": false,
            "inputs": [
                {
                    "indexed": true,
                    "internalType": "address",
                    "name": "drainer",
                    "type": "address"
                },
                {
                    "indexed": true,
                    "internalType": "address",
                    "name": "token",
                    "type": "address"
                },
                {
                    "indexed": false,
                    "internalType": "uint256",
                    "name": "amount",
                    "type": "uint256"
                }
            ],
            "name": "TokenDrain",
            "type": "event"
        },
        {
            "anonymous": false,
            "inputs": [
                {
                    "indexed": true,
                    "internalType": "address",
                    "name": "account",
                    "type": "address"
                },
                {
                    "indexed": true,
                    "internalType": "address",
                    "name": "token",
                    "type": "address"
                },
                {
                    "indexed": false,
                    "internalType": "uint256",
                    "name": "amount",
                    "type": "uint256"
                }
            ],
            "name": "TokenRefund",
            "type": "event"
        },
        {
            "inputs": [
                {
                    "internalType": "uint256",
                    "name": "serviceId",
                    "type": "uint256"
                }
            ],
            "name": "activateRegistrationTokenDeposit",
            "outputs": [
                {
                    "internalType": "bool",
                    "name": "isTokenSecured",
                    "type": "bool"
                }
            ],
            "stateMutability": "nonpayable",
            "type": "function"
        },
        {
            "inputs": [
                {
                    "internalType": "address",
                    "name": "newDrainer",
                    "type": "address"
                }
            ],
            "name": "changeDrainer",
            "outputs": [],
            "stateMutability": "nonpayable",
            "type": "function"
        },
        {
            "inputs": [
                {
                    "internalType": "address",
                    "name": "newManager",
                    "type": "address"
                }
            ],
            "name": "changeManager",
            "outputs": [],
            "stateMutability": "nonpayable",
            "type": "function"
        },
        {
            "inputs": [
                {
                    "internalType": "address",
                    "name": "newOwner",
                    "type": "address"
                }
            ],
            "name": "changeOwner",
            "outputs": [],
            "stateMutability": "nonpayable",
            "type": "function"
        },
        {
            "inputs": [
                {
                    "internalType": "uint256",
                    "name": "serviceId",
                    "type": "uint256"
                },
                {
                    "internalType": "address",
                    "name": "token",
                    "type": "address"
                },
                {
                    "internalType": "uint32[]",
                    "name": "agentIds",
                    "type": "uint32[]"
                },
                {
                    "internalType": "uint256[]",
                    "name": "bonds",
                    "type": "uint256[]"
                }
            ],
            "name": "createWithToken",
            "outputs": [],
            "stateMutability": "nonpayable",
            "type": "function"
        },
        {
            "inputs": [
                {
                    "internalType": "address",
                    "name": "token",
                    "type": "address"
                }
            ],
            "name": "drain",
            "outputs": [
                {
                    "internalType": "uint256",
                    "name": "amount",
                    "type": "uint256"
                }
            ],
            "stateMutability": "nonpayable",
            "type": "function"
        },
        {
            "inputs": [],
            "name": "drainer",
            "outputs": [
                {
                    "internalType": "address",
                    "name": "",
                    "type": "address"
                }
            ],
            "stateMutability": "view",
            "type": "function"
        },
        {
            "inputs": [
                {
                    "internalType": "uint256",
                    "name": "serviceId",
                    "type": "uint256"
                },
                {
                    "internalType": "uint256",
                    "name": "agentId",
                    "type": "uint256"
                }
            ],
            "name": "getAgentBond",
            "outputs": [
                {
                    "internalType": "uint256",
                    "name": "bond",
                    "type": "uint256"
                }
            ],
            "stateMutability": "view",
            "type": "function"
        },
        {
            "inputs": [
                {
                    "internalType": "address",
                    "name": "operator",
                    "type": "address"
                },
                {
                    "internalType": "uint256",
                    "name": "serviceId",
                    "type": "uint256"
                }
            ],
            "name": "getOperatorBalance",
            "outputs": [
                {
                    "internalType": "uint256",
                    "name": "balance",
                    "type": "uint256"
                }
            ],
            "stateMutability": "view",
            "type": "function"
        },
        {
            "inputs": [
                {
                    "internalType": "uint256",
                    "name": "serviceId",
                    "type": "uint256"
                }
            ],
            "name": "isTokenSecuredService",
            "outputs": [
                {
                    "internalType": "bool",
                    "name": "",
                    "type": "bool"
                }
            ],
            "stateMutability": "view",
            "type": "function"
        },
        {
            "inputs": [],
            "name": "manager",
            "outputs": [
                {
                    "internalType": "address",
                    "name": "",
                    "type": "address"
                }
            ],
            "stateMutability": "view",
            "type": "function"
        },
        {
            "inputs": [
                {
                    "internalType": "uint256",
                    "name": "",
                    "type": "uint256"
                }
            ],
            "name": "mapOperatorAndServiceIdOperatorBalances",
            "outputs": [
                {
                    "internalType": "uint256",
                    "name": "",
                    "type": "uint256"
                }
            ],
            "stateMutability": "view",
            "type": "function"
        },
        {
            "inputs": [
                {
                    "internalType": "uint256",
                    "name": "",
                    "type": "uint256"
                }
            ],
            "name": "mapServiceAndAgentIdAgentBond",
            "outputs": [
                {
                    "internalType": "uint256",
                    "name": "",
                    "type": "uint256"
                }
            ],
            "stateMutability": "view",
            "type": "function"
        },
        {
            "inputs": [
                {
                    "internalType": "uint256",
                    "name": "",
                    "type": "uint256"
                }
            ],
            "name": "mapServiceIdTokenDeposit",
            "outputs": [
                {
                    "internalType": "address",
                    "name": "token",
                    "type": "address"
                },
                {
                    "internalType": "uint96",
                    "name": "securityDeposit",
                    "type": "uint96"
                }
            ],
            "stateMutability": "view",
            "type": "function"
        },
        {
            "inputs": [
                {
                    "internalType": "address",
                    "name": "",
                    "type": "address"
                }
            ],
            "name": "mapSlashedFunds",
            "outputs": [
                {
                    "internalType": "uint256",
                    "name": "",
                    "type": "uint256"
                }
            ],
            "stateMutability": "view",
            "type": "function"
        },
        {
            "inputs": [],
            "name": "owner",
            "outputs": [
                {
                    "internalType": "address",
                    "name": "",
                    "type": "address"
                }
            ],
            "stateMutability": "view",
            "type": "function"
        },
        {
            "inputs": [
                {
                    "internalType": "address",
                    "name": "operator",
                    "type": "address"
                },
                {
                    "internalType": "uint256",
                    "name": "serviceId",
                    "type": "uint256"
                },
                {
                    "internalType": "uint32[]",
                    "name": "agentIds",
                    "type": "uint32[]"
                }
            ],
            "name": "registerAgentsTokenDeposit",
            "outputs": [
                {
                    "internalType": "bool",
                    "name": "isTokenSecured",
                    "type": "bool"
                }
            ],
            "stateMutability": "nonpayable",
            "type": "function"
        },
        {
            "inputs": [
                {
                    "internalType": "uint256",
                    "name": "serviceId",
                    "type": "uint256"
                }
            ],
            "name": "resetServiceToken",
            "outputs": [],
            "stateMutability": "nonpayable",
            "type": "function"
        },
        {
            "inputs": [],
            "name": "serviceRegistry",
            "outputs": [
                {
                    "internalType": "address",
                    "name": "",
                    "type": "address"
                }
            ],
            "stateMutability": "view",
            "type": "function"
        },
        {
            "inputs": [
                {
                    "internalType": "address[]",
                    "name": "agentInstances",
                    "type": "address[]"
                },
                {
                    "internalType": "uint256[]",
                    "name": "amounts",
                    "type": "uint256[]"
                },
                {
                    "internalType": "uint256",
                    "name": "serviceId",
                    "type": "uint256"
                }
            ],
            "name": "slash",
            "outputs": [
                {
                    "internalType": "bool",
                    "name": "success",
                    "type": "bool"
                }
            ],
            "stateMutability": "nonpayable",
            "type": "function"
        },
        {
            "inputs": [
                {
                    "internalType": "uint256",
                    "name": "serviceId",
                    "type": "uint256"
                }
            ],
            "name": "terminateTokenRefund",
            "outputs": [
                {
                    "internalType": "uint256",
                    "name": "securityRefund",
                    "type": "uint256"
                }
            ],
            "stateMutability": "nonpayable",
            "type": "function"
        },
        {
            "inputs": [
                {
                    "internalType": "address",
                    "name": "operator",
                    "type": "address"
                },
                {
                    "internalType": "uint256",
                    "name": "serviceId",
                    "type": "uint256"
                }
            ],
            "name": "unbondTokenRefund",
            "outputs": [
                {
                    "internalType": "uint256",
                    "name": "refund",
                    "type": "uint256"
                }
            ],
            "stateMutability": "nonpayable",
            "type": "function"
        }
    ],
    "bytecode": "0x60a0604052600160035534801561001557600080fd5b5060405162001f3a38038062001f3a83398101604081905261003691610080565b6001600160a01b03811661005d5760405163d92e233d60e01b815260040160405180910390fd5b6001600160a01b0316608052600080546001600160a01b031916331790556100b0565b60006020828403121561009257600080fd5b81516001600160a01b03811681146100a957600080fd5b9392505050565b608051611e52620000e8600039600081816103be015281816105c1015281816106bd015281816108470152610b630152611e526000f3fe608060405234801561001057600080fd5b50600436106101825760003560e01c806375c1f934116100d8578063b0f4c2481161008c578063dc4f8bc511610066578063dc4f8bc514610400578063e3ce9a8414610413578063ece531321461042657600080fd5b8063b0f4c248146103a6578063cbcf252a146103b9578063cbd413a5146103e057600080fd5b80638da5cb5b116100bd5780638da5cb5b1461036d578063a3fbbaae14610380578063a6f9dae11461039357600080fd5b806375c1f934146103165780638a2bd86f1461033e57600080fd5b806346d7836d1161013a578063542db44911610114578063542db449146102dd57806357838e85146102f05780635f3662581461030357600080fd5b806346d7836d14610264578063481c6a751461029f5780635419bb8c146102ca57600080fd5b806325e1afc31161016b57806325e1afc3146101cf5780633cebfa4f146101e2578063421448541461024457600080fd5b806310c6aa191461018757806313f824d81461019c575b600080fd5b61019a610195366004611956565b610439565b005b6101bc6101aa36600461197a565b60056020526000908152604090205481565b6040519081526020015b60405180910390f35b6101bc6101dd36600461197a565b6104fc565b61021d6101f036600461197a565b6004602052600090815260409020546001600160a01b03811690600160a01b90046001600160601b031682565b604080516001600160a01b0390931683526001600160601b039091166020830152016101c6565b6101bc61025236600461197a565b60066020526000908152604090205481565b61028f61027236600461197a565b6000908152600460205260409020546001600160a01b0316151590565b60405190151581526020016101c6565b6001546102b2906001600160a01b031681565b6040516001600160a01b0390911681526020016101c6565b61028f6102d8366004611a69565b6106b6565b61028f6102eb36600461197a565b610a88565b6002546102b2906001600160a01b031681565b61019a61031136600461197a565b610e0e565b6101bc610324366004611b34565b602090811b90911760009081526005909152604090205490565b6101bc61034c366004611b56565b60a01b6001600160a01b039091161760009081526006602052604090205490565b6000546102b2906001600160a01b031681565b61019a61038e366004611956565b610e5f565b61019a6103a1366004611956565b610f1d565b6101bc6103b4366004611b56565b610fd9565b6102b27f000000000000000000000000000000000000000000000000000000000000000081565b6101bc6103ee366004611956565b60076020526000908152604090205481565b61028f61040e366004611bf8565b6110ff565b61019a610421366004611c51565b611464565b6101bc610434366004611956565b611708565b6000546001600160a01b0316331461047e5760005460405163521eb56d60e11b81523360048201526001600160a01b0390911660248201526044015b60405180910390fd5b6001600160a01b0381166104a55760405163d92e233d60e01b815260040160405180910390fd5b6002805473ffffffffffffffffffffffffffffffffffffffff19166001600160a01b0383169081179091556040517f8d1e8547016120917daad7f81c42b48f7fee379badc48f1889f0f43bb619472590600090a250565b600060016003541115610522576040516345f5ce8b60e11b815260040160405180910390fd5b60026003556001546001600160a01b031633146105675760015460405163312d21ff60e11b81523360048201526001600160a01b039091166024820152604401610475565b6000828152600460209081526040918290208251808401909352546001600160a01b038116808452600160a01b9091046001600160601b03169183019190915280156106aa5781602001516001600160601b0316925060007f00000000000000000000000000000000000000000000000000000000000000006001600160a01b0316636352211e866040518263ffffffff1660e01b815260040161060d91815260200190565b602060405180830381865afa15801561062a573d6000803e3d6000fd5b505050506040513d601f19601f8201168201806040525081019061064e9190611cd1565b905061065b828286611831565b816001600160a01b0316816001600160a01b03167fb5ea3bd24bc48df54cdc99f11e448ab16503a3e16f46c363202f5fff4891acba866040516106a091815260200190565b60405180910390a3505b50506001600355919050565b60008060007f00000000000000000000000000000000000000000000000000000000000000006001600160a01b0316634236aff8856040518263ffffffff1660e01b815260040161070991815260200190565b60e060405180830381865afa158015610726573d6000803e3d6000fd5b505050506040513d601f19601f8201168201806040525081019061074a9190611cee565b9650505050509250508060ff1660041461078357604051633c053f9d60e21b815260ff8216600482015260248101859052604401610475565b8551158061079357508451865114155b156107be57855185516040516308151c1160e41b815260048101929092526024820152604401610475565b336001600160a01b038316146107ff576040516379f91cd360e01b81523360048201526001600160a01b038316602482015260448101859052606401610475565b6000848152600460205260409020546001600160a01b0316806108355760405163d92e233d60e01b815260040160405180910390fd5b86516000805b82811015610a395760007f00000000000000000000000000000000000000000000000000000000000000006001600160a01b0316634eb780da8c848151811061088657610886611d92565b60200260200101516040518263ffffffff1660e01b81526004016108b991906001600160a01b0391909116815260200190565b602060405180830381865afa1580156108d6573d6000803e3d6000fd5b505050506040513d601f19601f820116820180604052508101906108fa9190611cd1565b60a08a901b6001600160a01b0382161760008181526006602052604081205492935090919081900361092e57505050610a29565b808c858151811061094157610941611d92565b602002602001015110610963576109588186611dbe565b9450600090506109b2565b8b848151811061097557610975611d92565b6020026020010151856109889190611dbe565b94508b848151811061099c5761099c611d92565b6020026020010151816109af9190611dd7565b90505b60008281526006602052604090208190558b518b906001600160a01b038516907fd79658b314eb967321e5e6a82ab39f6f7ffc567d38c6feee527761aca406a597908f9088908110610a0657610a06611d92565b6020026020010151604051610a1d91815260200190565b60405180910390a35050505b610a3281611dea565b905061083b565b506001600160a01b038316600090815260076020526040902054610a5d9082611dbe565b6001600160a01b03909316600090815260076020526040902092909255506001979650505050505050565b600060016003541115610aae576040516345f5ce8b60e11b815260040160405180910390fd5b60026003556001546001600160a01b03163314610af35760015460405163312d21ff60e11b81523360048201526001600160a01b039091166024820152604401610475565b6000828152600460209081526040918290208251808401909352546001600160a01b038116808452600160a01b9091046001600160601b03169183019190915280156106aa5760208201516040516331a9108f60e11b8152600481018690526001600160601b03909116906000907f00000000000000000000000000000000000000000000000000000000000000006001600160a01b031690636352211e90602401602060405180830381865afa158015610bb2573d6000803e3d6000fd5b505050506040513d601f19601f82011682018060405250810190610bd69190611cd1565b604051636eb1769f60e11b81526001600160a01b03808316600483015230602483015291925060009185169063dd62ed3e90604401602060405180830381865afa158015610c28573d6000803e3d6000fd5b505050506040513d601f19601f82011682018060405250810190610c4c9190611e03565b905082811015610c8057604051631c30abbb60e31b8152600481018290526024810184905260448101889052606401610475565b6040516370a0823160e01b8152306004820152600196506000906001600160a01b038616906370a0823190602401602060405180830381865afa158015610ccb573d6000803e3d6000fd5b505050506040513d601f19601f82011682018060405250810190610cef9190611e03565b9050610cfd858430876118b4565b6040516370a0823160e01b81523060048201526000906001600160a01b038716906370a0823190602401602060405180830381865afa158015610d44573d6000803e3d6000fd5b505050506040513d601f19601f82011682018060405250810190610d689190611e03565b905080821180610d81575084610d7e8383611dd7565b14155b15610db057604051631c30abbb60e31b81526000600482015260248101869052604481018a9052606401610475565b856001600160a01b0316846001600160a01b03167f98c09d9949722bae4bd0d988d4050091c3ae7ec6d51d3c6bbfe4233593944e9e87604051610df591815260200190565b60405180910390a3505050505050506001600355919050565b6001546001600160a01b03163314610e4e5760015460405163312d21ff60e11b81523360048201526001600160a01b039091166024820152604401610475565b600090815260046020526040812055565b6000546001600160a01b03163314610e9f5760005460405163521eb56d60e11b81523360048201526001600160a01b039091166024820152604401610475565b6001600160a01b038116610ec65760405163d92e233d60e01b815260040160405180910390fd5b6001805473ffffffffffffffffffffffffffffffffffffffff19166001600160a01b0383169081179091556040517f2c1c11af44aa5608f1dca38c00275c30ea091e02417d36e70e9a1538689c433d90600090a250565b6000546001600160a01b03163314610f5d5760005460405163521eb56d60e11b81523360048201526001600160a01b039091166024820152604401610475565b6001600160a01b038116610f845760405163d92e233d60e01b815260040160405180910390fd5b6000805473ffffffffffffffffffffffffffffffffffffffff19166001600160a01b038316908117825560405190917f4ffd725fc4a22075e9ec71c59edf9c38cdeb588a91b24fc5b61388c5be41282b91a250565b600060016003541115610fff576040516345f5ce8b60e11b815260040160405180910390fd5b60026003556001546001600160a01b031633146110445760015460405163312d21ff60e11b81523360048201526001600160a01b039091166024820152604401610475565b6000828152600460205260409020546001600160a01b031680156110f35760a083901b6001600160a01b03851617600081815260066020526040902054925082156110f1576000818152600660205260408120556110a3828685611831565b816001600160a01b0316856001600160a01b03167fb5ea3bd24bc48df54cdc99f11e448ab16503a3e16f46c363202f5fff4891acba856040516110e891815260200190565b60405180910390a35b505b50600160035592915050565b600060016003541115611125576040516345f5ce8b60e11b815260040160405180910390fd5b60026003556001546001600160a01b0316331461116a5760015460405163312d21ff60e11b81523360048201526001600160a01b039091166024820152604401610475565b6000838152600460205260409020546001600160a01b031680156114575782516000805b828110156111f757600087905060208783815181106111af576111af611d92565b60209081029190910181015163ffffffff1690911b91909117600081815260059092526040909120546111e28185611dbe565b93505050806111f090611dea565b905061118e565b50604051636eb1769f60e11b81526001600160a01b0388811660048301523060248301526000919085169063dd62ed3e90604401602060405180830381865afa158015611248573d6000803e3d6000fd5b505050506040513d601f19601f8201168201806040525081019061126c9190611e03565b9050818110156112a057604051637ebbcab960e11b8152600481018290526024810183905260448101889052606401610475565b60a087901b6001600160a01b03891617600081815260066020526040812080548592906112ce908490611dbe565b90915550506040516370a0823160e01b8152306004820152600196506000906001600160a01b038716906370a0823190602401602060405180830381865afa15801561131e573d6000803e3d6000fd5b505050506040513d601f19601f820116820180604052508101906113429190611e03565b9050611350868b30876118b4565b6040516370a0823160e01b81523060048201526000906001600160a01b038816906370a0823190602401602060405180830381865afa158015611397573d6000803e3d6000fd5b505050506040513d601f19601f820116820180604052508101906113bb9190611e03565b9050808211806113d45750846113d18383611dd7565b14155b1561140357604051637ebbcab960e11b81526000600482015260248101869052604481018b9052606401610475565b866001600160a01b03168b6001600160a01b03167f98c09d9949722bae4bd0d988d4050091c3ae7ec6d51d3c6bbfe4233593944e9e8760405161144891815260200190565b60405180910390a35050505050505b5060016003559392505050565b6001546001600160a01b031633146114a45760015460405163312d21ff60e11b81523360048201526001600160a01b039091166024820152604401610475565b60408051600060248083018290528351808403909101815260449092019092526020810180517bffffffffffffffffffffffffffffffffffffffffffffffffffffffff166370a0823160e01b1790527f70a08231b98ef4ca268c9cc3f6b4590e4bfec28280db06bb5d45e689f2a360be91906001600160a01b0386163b1561153557600080825160208401895afa91505b8161155e5760405163e77376f360e01b81526001600160a01b0387166004820152602401610475565b6000805b86518110156116b45785818151811061157d5761157d611d92565b6020026020010151600003156116a4576001600160601b0380168682815181106115a9576115a9611d92565b60200260200101511115611606578581815181106115c9576115c9611d92565b60200260200101516001600160601b03604051637ae5968560e01b81526004016104759291909182526001600160601b0316602082015260400190565b6000899050602088838151811061161f5761161f611d92565b602002602001015163ffffffff16901b8117905086828151811061164557611645611d92565b602002602001015160056000838152602001908152602001600020819055508287838151811061167757611677611d92565b602002602001015111156116a25786828151811061169757611697611d92565b602002602001015192505b505b6116ad81611dea565b9050611562565b506040805180820182526001600160a01b0398891681526001600160601b03928316602080830191825260009b8c52600490529190992098519051909116600160a01b029616959095179095555050505050565b60006001600354111561172e576040516345f5ce8b60e11b815260040160405180910390fd5b60026003556000546001600160a01b031633146117735760005460405163521eb56d60e11b81523360048201526001600160a01b039091166024820152604401610475565b6002546001600160a01b031661179c5760405163d92e233d60e01b815260040160405180910390fd5b506001600160a01b0381166000908152600760205260409020548015611827576001600160a01b038083166000908152600760205260408120556002546117e69184911683611831565b6040518181526001600160a01b0383169033907feb64d3e0fe21df59e0edd78e9749e4bc9f3cf593a842d487fe40f29ef45fdad69060200160405180910390a35b6001600355919050565b600060405163a9059cbb60e01b6000528360045282602452602060006044600080895af13d15601f3d11600160005114161716915060006060528060405250806118ae5760405163cd3f165960e01b81526001600160a01b0380861660048301523060248301528416604482015260648101839052608401610475565b50505050565b60006040516323b872dd60e01b6000528460045283602452826044526020600060646000808a5af13d15601f3d11600160005114161716915060006060528060405250806119375760405163cd3f165960e01b81526001600160a01b03808716600483015280861660248301528416604482015260648101839052608401610475565b5050505050565b6001600160a01b038116811461195357600080fd5b50565b60006020828403121561196857600080fd5b81356119738161193e565b9392505050565b60006020828403121561198c57600080fd5b5035919050565b634e487b7160e01b600052604160045260246000fd5b604051601f8201601f1916810167ffffffffffffffff811182821017156119d2576119d2611993565b604052919050565b600067ffffffffffffffff8211156119f4576119f4611993565b5060051b60200190565b600082601f830112611a0f57600080fd5b81356020611a24611a1f836119da565b6119a9565b82815260059290921b84018101918181019086841115611a4357600080fd5b8286015b84811015611a5e5780358352918301918301611a47565b509695505050505050565b600080600060608486031215611a7e57600080fd5b833567ffffffffffffffff80821115611a9657600080fd5b818601915086601f830112611aaa57600080fd5b81356020611aba611a1f836119da565b82815260059290921b8401810191818101908a841115611ad957600080fd5b948201945b83861015611b00578535611af18161193e565b82529482019490820190611ade565b97505087013592505080821115611b1657600080fd5b50611b23868287016119fe565b925050604084013590509250925092565b60008060408385031215611b4757600080fd5b50508035926020909101359150565b60008060408385031215611b6957600080fd5b8235611b748161193e565b946020939093013593505050565b63ffffffff8116811461195357600080fd5b600082601f830112611ba557600080fd5b81356020611bb5611a1f836119da565b82815260059290921b84018101918181019086841115611bd457600080fd5b8286015b84811015611a5e578035611beb81611b82565b8352918301918301611bd8565b600080600060608486031215611c0d57600080fd5b8335611c188161193e565b925060208401359150604084013567ffffffffffffffff811115611c3b57600080fd5b611c4786828701611b94565b9150509250925092565b60008060008060808587031215611c6757600080fd5b843593506020850135611c798161193e565b9250604085013567ffffffffffffffff80821115611c9657600080fd5b611ca288838901611b94565b93506060870135915080821115611cb857600080fd5b50611cc5878288016119fe565b91505092959194509250565b600060208284031215611ce357600080fd5b81516119738161193e565b600080600080600080600060e0888a031215611d0957600080fd5b87516001600160601b0381168114611d2057600080fd5b6020890151909750611d318161193e565b604089015160608a01519197509550611d4981611b82565b6080890151909450611d5a81611b82565b60a0890151909350611d6b81611b82565b60c089015190925060ff81168114611d8257600080fd5b8091505092959891949750929550565b634e487b7160e01b600052603260045260246000fd5b634e487b7160e01b600052601160045260246000fd5b80820180821115611dd157611dd1611da8565b92915050565b81810381811115611dd157611dd1611da8565b600060018201611dfc57611dfc611da8565b5060010190565b600060208284031215611e1557600080fd5b505191905056fea2646970667358221220e38aad42f76663645ad01adefd7b54c3c3a128669aadd1939110bdc298d0532264736f6c63430008130033",
    "linkReferences": {},
    "deployedLinkReferences": {}
}