{
  "_format": "hh-sol-artifact-1",
  "contractName": "StakingActivityChecker",
  "sourceName": "contracts/staking/StakingActivityChecker.sol",
  "abi": [
    {
      "inputs": [
        {
          "internalType": "uint256",
          "name": "_livenessRatio",
          "type": "uint256"
        }
      ],
      "stateMutability": "nonpayable",
      "type": "constructor"
    },
    {
      "inputs": [],
      "name": "ZeroValue",
      "type": "error"
    },
    {
      "inputs": [
        {
          "internalType": "address",
          "name": "multisig",
          "type": "address"
        }
      ],
      "name": "getMultisigNonces",
      "outputs": [
        {
          "internalType": "uint256[]",
          "name": "nonces",
          "type": "uint256[]"
        }
      ],
      "stateMutability": "view",
      "type": "function"
    },
    {
      "inputs": [
        {
          "internalType": "uint256[]",
          "name": "curNonces",
          "type": "uint256[]"
        },
        {
          "internalType": "uint256[]",
          "name": "lastNonces",
          "type": "uint256[]"
        },
        {
          "internalType": "uint256",
          "name": "ts",
          "type": "uint256"
        }
      ],
      "name": "isRatioPass",
      "outputs": [
        {
          "internalType": "bool",
          "name": "ratioPass",
          "type": "bool"
        }
      ],
      "stateMutability": "view",
      "type": "function"
    },
    {
      "inputs": [],
      "name": "livenessRatio",
      "outputs": [
        {
          "internalType": "uint256",
          "name": "",
          "type": "uint256"
        }
      ],
      "stateMutability": "view",
      "type": "function"
    }
  ],
  "bytecode": "0x60a0604052348015600e575f5ffd5b5060405161051e38038061051e833981016040819052602b916051565b805f03604a57604051637c946ed760e01b815260040160405180910390fd5b6080526067565b5f602082840312156060575f5ffd5b5051919050565b6080516104996100855f395f81816070015261016401526104995ff3fe608060405234801561000f575f5ffd5b506004361061003f575f3560e01c8063184023a514610043578063592cf3fb1461006b578063d564c4bf146100a0575b5f5ffd5b6100566100513660046102f2565b6100c0565b60405190151581526020015b60405180910390f35b6100927f000000000000000000000000000000000000000000000000000000000000000081565b604051908152602001610062565b6100b36100ae366004610360565b610190565b6040516100629190610393565b5f5f821180156101015750825f815181106100dd576100dd6103d5565b6020026020010151845f815181106100f7576100f76103d5565b6020026020010151115b15610189575f82845f8151811061011a5761011a6103d5565b6020026020010151865f81518110610134576101346103d5565b602002602001015161014691906103fd565b61015890670de0b6b3a7640000610416565b610162919061042d565b7f000000000000000000000000000000000000000000000000000000000000000011159150505b9392505050565b604080516001808252818301909252606091602080830190803683370190505090508173ffffffffffffffffffffffffffffffffffffffff1663affed0e06040518163ffffffff1660e01b8152600401602060405180830381865afa1580156101fb573d5f5f3e3d5ffd5b505050506040513d601f19601f8201168201806040525081019061021f919061044c565b815f81518110610231576102316103d5565b602002602001018181525050919050565b634e487b7160e01b5f52604160045260245ffd5b5f82601f830112610265575f5ffd5b813567ffffffffffffffff81111561027f5761027f610242565b8060051b604051601f19603f830116810181811067ffffffffffffffff821117156102ac576102ac610242565b6040529182526020818501810192908101868411156102c9575f5ffd5b6020860192505b838310156102e85782358152602092830192016102d0565b5095945050505050565b5f5f5f60608486031215610304575f5ffd5b833567ffffffffffffffff81111561031a575f5ffd5b61032686828701610256565b935050602084013567ffffffffffffffff811115610342575f5ffd5b61034e86828701610256565b93969395505050506040919091013590565b5f60208284031215610370575f5ffd5b813573ffffffffffffffffffffffffffffffffffffffff81168114610189575f5ffd5b602080825282518282018190525f918401906040840190835b818110156103ca5783518352602093840193909201916001016103ac565b509095945050505050565b634e487b7160e01b5f52603260045260245ffd5b634e487b7160e01b5f52601160045260245ffd5b81810381811115610410576104106103e9565b92915050565b8082028115828204841417610410576104106103e9565b5f8261044757634e487b7160e01b5f52601260045260245ffd5b500490565b5f6020828403121561045c575f5ffd5b505191905056fea2646970667358221220d8c23bca9c569abae8f76bbdcf3c2b81f59ba0475bf084332147c55ec642262164736f6c634300081c0033",
  "linkReferences": {},
  "deployedLinkReferences": {}
}